:020000040800F2
:1000000000000520A56A0008AD680008AF68000878
:10001000B1680008B3680008B56800080000000077
:10002000000000000000000000000000A1590008CE
:10003000B768000800000000415A0008A55A0008EF
:10004000F56A0008F56A0008F56A0008F56A000814
:10005000F56A0008F56A0008F56A0008F56A000804
:10006000F56A0008F56A0008F56A0008F56A0008F4
:10007000F56A0008F56A0008F56A0008F56A0008E4
:10008000F56A0008F56A0008F56A0008F56A0008D4
:10009000F56A0008F56A0008F56A0008F56A0008C4
:1000A000F56A0008B9680008F56A0008F56A0008F2
:1000B000F56A0008F56A0008F56A0008F56A0008A4
:1000C000F56A0008F56A0008F56A0008F968000892
:1000D00009690008F56A0008C9680008D9680008BD
:1000E00029690008F56A0008F56A0008F56A000841
:1000F000F56A0008F56A0008F56A0008F56A000864
:10010000F56A0008F56A0008F56A00081969000830
:10011000F56A0008E9680008F56A0008F56A000851
:10012000F56A0008F56A0008F56A0008F56A000833
:10013000F56A0008F56A0008F56A0008F56A000823
:10014000F56A0008F56A0008F56A0008F56A000813
:10015000F56A0008F56A0008F56A0008F56A000803
:10016000F56A0008F56A0008F56A0008F56A0008F3
:10017000F56A0008F56A0008F56A0008000000004A
:10018000F56A0008F56A0008F56A0008F56A0008D3
:10019000F56A0008F56A0008F56A0008F56A0008C3
:1001A000F56A0008F56A0008000000000000000081
:1001B00010B5054C237833B9044B13B10448AFF3A1
:1001C00000800123237010BDE0010020000000002A
:1001D00004A4000808B5034B1BB103490348AFF35F
:1001E000008008BD00000000E401002004A4000815
:1001F000034613F8012B002AFBD1181A0138704767
:1002000001F0FF01102A2BDB10F0070F08D010F8C7
:10021000013B013A8B422DD010F0070F42B3F6D1CB
:10022000F0B441EA012141EA014122F007047FF0E4
:1002300000070023F0E80256083C85EA010586EA3B
:10024000010685FA47F5A3FA87F586FA47F6A5FA77
:1002500087F68EB9EED1F0BC01F0FF0102F0070283
:1002600032B110F8013B013A83EA010313B1F8D12E
:100270000020704701387047002D06BF354603380F
:10028000073815F0010F07D1013015F4807F02BF48
:10029000013015F4C03F0130F0BC0138704700BF99
:1002A00081F0004102E000BF83F0004330B54FEA27
:1002B00041044FEA430594EA050F08BF90EA020F94
:1002C0001FBF54EA000C55EA020C7FEA645C7FEA27
:1002D000655C00F0E2804FEA5454D4EB5555B8BF4A
:1002E0006D420CDD2C4480EA020281EA030382EABB
:1002F000000083EA010180EA020281EA0303362D4D
:1003000088BF30BD11F0004F4FEA01314FF4801C1F
:100310004CEA113102D0404261EB410113F0004F31
:100320004FEA03334CEA133302D0524263EB4303E8
:1003300094EA050F00F0A780A4F10104D5F1200E86
:100340000DDB02FA0EFC22FA05F2801841F10001E1
:1003500003FA0EF2801843FA05F359410EE0A5F1B5
:1003600020050EF1200E012A03FA0EFC28BF4CF0E6
:10037000020C43FA05F3C01851EBE37101F000459C
:1003800007D54FF0000EDCF1000C7EEB00006EEBA9
:100390000101B1F5801F1BD3B1F5001F0CD3490833
:1003A0005FEA30004FEA3C0C04F101044FEA44528A
:1003B00012F5800F80F09A80BCF1004F08BF5FEA11
:1003C000500C50F1000041EB045141EA050130BDF1
:1003D0005FEA4C0C404141EB010111F4801FA4F194
:1003E0000104E9D191F0000F04BF01460020B1FAE9
:1003F00081F308BF2033A3F10B03B3F120020CDA21
:100400000C3208DD02F1140CC2F10C0201FA0CF0FE
:1004100021FA02F10CE002F11402D8BFC2F1200C63
:1004200001FA02F120FA0CFCDCBF41EA0C01904019
:10043000E41AA2BF01EB0451294330BD6FEA040462
:100440001F3C1CDA0C340EDC04F11404C4F120024D
:1004500020FA04F001FA02F340EA030021FA04F35F
:1004600045EA030130BDC4F10C04C4F1200220FAB6
:1004700002F001FA04F340EA0300294630BD21FAF4
:1004800004F0294630BD94F0000F83F4801306BFBA
:1004900081F480110134013D4EE77FEA645C18BFAE
:1004A0007FEA655C29D094EA050F08BF90EA020F45
:1004B00005D054EA000C04BF1946104630BD91EA3D
:1004C000030F1EBF0021002030BD5FEA545C05D140
:1004D0004000494128BF41F0004130BD14F580047F
:1004E0003CBF01F5801130BD01F0004545F0FE41F3
:1004F00041F470014FF0000030BD7FEA645C1ABF28
:10050000194610467FEA655C1CBF0B46024650EA5E
:10051000013406BF52EA033591EA030F41F400218A
:1005200030BD00BF90F0000F04BF0021704730B510
:100530004FF4806404F132044FF000054FF00001E5
:1005400050E700BF90F0000F04BF0021704730B5A6
:100550004FF4806404F1320410F0004548BF40427B
:100560004FF000013EE700BF42004FEAE2014FEAD0
:1005700031014FEA02701FBF12F07F4393F07F4FAB
:1005800081F06051704732F07F4208BF704793F0AE
:100590007F4F04BF41F40021704730B54FF46074C1
:1005A00001F0004521F000411CE700BF50EA0102C4
:1005B00008BF704730B54FF000050AE050EA01026D
:1005C00008BF704730B511F0004502D5404261EBDD
:1005D00041014FF4806404F132045FEA915C3FF41E
:1005E000D8AE4FF003025FEADC0C18BF03325FEABB
:1005F000DC0C18BF033202EBDC02C2F1200300FA6C
:1006000003FC20FA02F001FA03FE40EA0E0021FA90
:1006100002F11444BDE600BF70B54FF0FF0C4CF47E
:10062000E06C1CEA11541DBF1CEA135594EA0C0F30
:1006300095EA0C0F00F0DEF82C4481EA030621EA6B
:100640004C5123EA4C5350EA013518BF52EA0335A6
:1006500041F4801143F4801338D0A0FB02CE4FF058
:100660000005E1FB02E506F00042E0FB03E54FF088
:100670000006E1FB03569CF0000F18BF4EF0010E80
:10068000A4F1FF04B6F5007F64F5407404D25FEA7C
:100690004E0E6D4146EB060642EAC62141EA55512F
:1006A0004FEAC52040EA5E504FEACE2EB4F1FD0C71
:1006B00088BFBCF5E06F1ED8BEF1004F08BF5FEAEF
:1006C000500E50F1000041EB045170BD06F00046A1
:1006D00046EA010140EA020081EA0301B4EB5C044E
:1006E000C2BFD4EB0C0541EA045170BD41F4801146
:1006F0004FF0000E013C00F3AB8014F1360FDEBF6B
:10070000002001F0004170BDC4F10004203C35DA46
:100710000C341BDC04F11404C4F1200500FA05F3C9
:1007200020FA04F001FA05F240EA020001F000426A
:1007300021F0004110EBD37021FA04F642EB0601E0
:100740005EEA430E08BF20EAD37070BDC4F10C040A
:10075000C4F1200500FA04F320FA05F001FA04F2CE
:1007600040EA020001F0004110EBD37041F10001BA
:100770005EEA430E08BF20EAD37070BDC4F12005C5
:1007800000FA05F24EEA020E20FA04F301FA05F22D
:1007900043EA020321FA04F001F0004121FA04F2D5
:1007A00020EA020000EBD3705EEA430E08BF20EAA5
:1007B000D37070BD94F0000F0FD101F000464000DF
:1007C00041EB010111F4801F08BF013CF7D041EA61
:1007D000060195F0000F18BF704703F00046520065
:1007E00043EB030313F4801F08BF013DF7D043EA36
:1007F0000603704794EA0C0F0CEA135518BF95EAEC
:100800000C0F0CD050EA410618BF52EA4306D1D172
:1008100081EA030101F000414FF0000070BD50EA91
:10082000410606BF1046194652EA430619D094EA1B
:100830000C0F02D150EA013613D195EA0C0F05D105
:1008400052EA03361CBF104619460AD181EA030159
:1008500001F0004141F0FE4141F470014FF0000011
:1008600070BD41F0FE4141F4780170BD70B54FF0AC
:10087000FF0C4CF4E06C1CEA11541DBF1CEA13552C
:1008800094EA0C0F95EA0C0F00F0A7F8A4EB05040E
:1008900081EA030E52EA03354FEA013100F0888005
:1008A0004FEA03334FF0805545EA131343EA1263CE
:1008B0004FEA022245EA111545EA10654FEA002683
:1008C0000EF000419D4208BF964244F1FD0404F53C
:1008D000407402D25B084FEA3202B61A65EB030598
:1008E0005B084FEA32024FF480104FF4002CB6EB55
:1008F000020E75EB030E22BFB61A754640EA0C00D5
:100900005B084FEA3202B6EB020E75EB030E22BF14
:10091000B61A754640EA5C005B084FEA3202B6EB55
:10092000020E75EB030E22BFB61A754640EA9C0014
:100930005B084FEA3202B6EB020E75EB030E22BFE4
:10094000B61A754640EADC0055EA060E18D04FEAA2
:10095000051545EA16754FEA06164FEAC30343EA42
:1009600052734FEAC2025FEA1C1CC0D111F4801F0F
:100970000BD141EA00014FF000004FF0004CB6E708
:1009800011F4801F04BF01430020B4F1FD0C88BFA7
:10099000BCF5E06F3FF6AFAEB5EB030C04BFB6EBB2
:1009A000020C5FEA500C50F1000041EB045170BDA5
:1009B0000EF0004E4EEA113114EB5C04C2BFD4EBD2
:1009C0000C0541EA045170BD41F480114FF0000E56
:1009D000013C90E645EA060E8DE60CEA135594EAD2
:1009E0000C0F08BF95EA0C0F3FF43BAF94EA0C0FD5
:1009F0000AD150EA01347FF434AF95EA0C0F7FF44A
:100A000025AF104619462CE795EA0C0F06D152EA9D
:100A100003353FF4FDAE1046194622E750EA410681
:100A200018BF52EA43067FF4C5AE50EA41047FF492
:100A30000DAF52EA43057FF4EBAE12E74FF0FF3CF7
:100A400006E000BF4FF0010C02E000BF4FF0010CC8
:100A50004DF804CD4FEA410C7FEA6C5C4FEA430C41
:100A600018BF7FEA6C5C1BD001B050EA410C0CBF90
:100A700052EA430C91EA030F02BF90EA020F0020F2
:100A8000704710F1000F91EA030F58BF994208BF59
:100A900090422CBFD8176FEAE37040F00100704716
:100AA0004FEA410C7FEA6C5C02D150EA013C07D16D
:100AB0004FEA430C7FEA6C5CD6D152EA033CD3D0B8
:100AC0005DF8040B704700BF8446104662468C46B2
:100AD0001946634600E000BF01B5FFF7B7FF0028E5
:100AE00048BF10F1000F01BD4DF808EDFFF7F4FF0E
:100AF0000CBF012000205DF808FB00BF4DF808ED99
:100B0000FFF7EAFF34BF012000205DF808FB00BFBB
:100B10004DF808EDFFF7E0FF94BF012000205DF8DD
:100B200008FB00BF4DF808EDFFF7CEFF94BF012092
:100B300000205DF808FB00BF4DF808EDFFF7C4FF8B
:100B400034BF012000205DF808FB00BF4FEA410CD4
:100B50007FEA6C5C02D150EA013C0AD14FEA430CB7
:100B60007FEA6C5C02D152EA033C02D14FF00000F4
:100B700070474FF0010070474FEA410212F5001232
:100B800015D211D56FF47873B3EB625212D94FEAD4
:100B9000C12343F0004343EA505311F0004F23FABE
:100BA00002F018BF404270474FF00000704750EA13
:100BB000013005D111F0004008BF6FF000407047D0
:100BC0004FF00000704700BF4A0011D212F500122A
:100BD00011D20DD56FF47873B3EB62520ED44FEA95
:100BE000C12343F0004343EA505323FA02F0704715
:100BF0004FF00000704750EA013002D14FF0FF3053
:100C000070474FF0000070474FEA4102B2F1E043F5
:100C100024BFB3F5001CDCF1FE5C0DD901F0004CE3
:100C20004FEAC0024CEA5070B2F1004F40EB830033
:100C300008BF20F00100704711F0804F21D113F15F
:100C40003872BCBF01F00040704741F480114FEA98
:100C50005252C2F11802C2F1200C10FA0CF320FA21
:100C600002F018BF40F001004FEAC1234FEAD3233E
:100C700003FA0CFC40EA0C0023FA02F34FEA4303A8
:100C8000CCE77FEA625307D150EA01331EBF4FF031
:100C9000FE4040F44000704701F0004040F0FE404C
:100CA00040F40000704700BF53B94AB9002908BF9B
:100CB00000281CBF4FF0FF314FF0FF3000F074B937
:100CC000ADF1080C6DE904CE00F006F8DDF804E0A3
:100CD000DDE9022304B070472DE9F047089E044681
:100CE0008846002B40F085808A42154648D9B2FAE2
:100CF00082F24AB1C2F1200701FA02F320FA07F7A3
:100D0000954047EA030894404FEA154E230CB8FB80
:100D1000FEF71FFA85FC0EFB178843EA084307FB22
:100D20000CF1994209D9EB1807F1FF3080F0E3800C
:100D3000994240F2E080023F2B445B1AA4B2B3FB1D
:100D4000FEF00EFB103344EA034400FB0CFCA44508
:100D500009D92C1900F1FF3380F0CB80A44540F273
:100D6000C88002382C4440EA0740A4EB0C0400275A
:100D70001EB1D4400023C6E900433946BDE8F087E0
:100D8000002A53D0B2FA82F2002A40F0B680491B02
:100D90004FEA154E1FFA85F80127B1FBFEFC230C24
:100DA0000EFB1C1143EA014308FB0CF1994207D9E1
:100DB000EB180CF1FF3002D2994200F2EC8084462D
:100DC000591AA3B2B1FBFEF00EFB101443EA04441F
:100DD00008FB00F8A04507D92C1900F1FF3302D217
:100DE000A04500F2DC801846A4EB080440EA0C4061
:100DF000BEE78B4208D9002E78D00027C6E9000153
:100E000038463946BDE8F087B3FA83F77FB98B429D
:100E100002D3824200F2BD80841A61EB03030120F9
:100E20009846002EA9D0C6E90048A6E7FFDEC7F124
:100E30002005BB4022FA05FC4CEA030C01FA07F43A
:100E400020FA05F821FA05F34FEA1C4E48EA04049B
:100E5000B3FBFEF9210C0EFB19331FFA8CF841EAA3
:100E6000034309FB08FA9A4502FA07F200FA07F170
:100E70000BD91CEB030309F1FF3080F088809A4501
:100E800040F28580A9F102096344A3EB0A03A4B2EE
:100E9000B3FBFEF00EFB103344EA034400FB08F8FA
:100EA000A04508D91CEB040400F1FF336BD2A04528
:100EB00069D90238644440EA0940A4EB0804A0FB65
:100EC00002894C45C6464B4654D351D0002E69D0BA
:100ED000B1EB0E0264EB030404FA05F522FA07F302
:100EE000FC401D43C6E90054002746E7374630461C
:100EF00043E7184637E707461FE7C2F1200320FA09
:100F000003F7954001FA02F021FA03F34FEA154E78
:100F10003843010CB3FBFEF71FFA85F80EFB1733BD
:100F200041EA034107FB08F38B4204FA02F407D9B4
:100F3000691807F1FF3C28D28B4226D9023F294489
:100F4000CB1A81B2B3FBFEF00EFB103341EA034132
:100F500000FB08F38B4207D9691800F1FF3C10D25F
:100F60008B420ED902382944C91A40EA074714E7D0
:100F70004145ABD2B8EB020E69EB0C0201381346C7
:100F8000A4E76046F0E7184695E76746D8E781464C
:100F90007BE7384645E7ACF1020C2B4410E70238FA
:100FA0002C4421E73746E8E6704700BF38B5104CBF
:100FB000204606F0A5FA0F4D284606F0A1FA0E4885
:100FC00006F09EFA284606F09BFA204606F098FAAC
:100FD0000A4C4FF40041204603F01FF84FF4FA602A
:100FE00001F016FF4FF40041204603F016F838BD1B
:100FF00068A400086CA4000898A40008000C00482D
:1010000000B583B001F0E7FE05F094FC00F076FD3A
:10101000FFF7CCFF00F0C0F820220121124805F0B4
:101020009DFD124806F06CFA002005F07BF8104B8D
:1010300001930022012101A804F0F8FA0D4B186079
:1010400041F2883104F006FB0B4B00930022012192
:10105000684604F0EBFA094B186042F2107104F094
:10106000F9FA04F0DEFAFEE7CC48022038A40008C2
:1010700025610008204A0220F11000087C47022068
:10108000F0B585B0164B01221A7000F0F5F810EE9D
:10109000100A10EE904A11EE105A124B83ED000A1E
:1010A000C3ED010A83ED021A0F4B83ED000AC3ED75
:1010B000010A83ED021AFFF757FA06460F46284643
:1010C000FFF752FACDE902012046FFF74DFACDE9CC
:1010D000000132463B46054806F08CF905B0F0BDEC
:1010E00008020020FC01002034490220B4A40008BA
:1010F00000B5C1B0684600F0B5F8012808D0074B2C
:1011000000221A70064806F0FBF941B05DF804FBB6
:10111000044806F0F5F9FFF7B3FFF6E708020020F0
:101120002CA4000820A4000808B50268034B9A42CA
:1011300000D008BD01F05EFEFBE700BF002C0140BF
:101140007047000000B583B04FF0FF3300930B46AB
:10115000024620210348006800F044FE03B05DF819
:1011600004FB00BF844A022000B585B00A2101A813
:10117000FFF7E8FF30B9064806F0C2F9012005B0D4
:101180005DF804FB034806F0BBF90020F7E700BF59
:1011900088A50008A8A5000870B594B0214806F0FD
:1011A000AFF9214E032108A805F076F8354608ACC2
:1011B0000FCC0FC50FCC0FC594E8070085E80700DA
:1011C00096F828402CB30321184806F013F9164E60
:1011D0006C4606F110050FCD0FC495E8070084E8B2
:1011E000070096E80F0005F03BF8B268104B1A6054
:1011F0003269104B1A60726A0F4B1A60FFF7B4FF26
:10120000044650B10D4806F07BF90124204614B085
:1012100070BD0B4806F074F9F8E70A4806F070F95B
:10122000F4E700BFDCA40008884A022034A50008C7
:10123000844A0220804A0220B44A022070A5000895
:1012400004A5000858A5000838B505460024FF2C61
:1012500005D0285D00F03AFC0134E4B2F7E700F075
:10126000EDFB38BD10B50446E821FFF76BFF2046C3
:10127000FFF7EAFF10BD000070B596B005A800F0BA
:10128000CBFB9DF81C600898FFF76EF90022254BF8
:10129000FFF7ECFA04460D463046FFF753F92246B5
:1012A0002B46FFF703F8FFF7AFFC10909DF82430B2
:1012B000732B28D09DF828600B98FFF755F9002272
:1012C000184BFFF7D3FA04460D463046FFF73AF9BC
:1012D00022462B46FEF7EAFFFFF796FC11909DF899
:1012E0003030772B16D00E9B129310AB93E807008B
:1012F00016AB03E907009DED130ADDED140A9DED21
:10130000151A16B070BD07EE900AF1EE677ACDEDB2
:10131000107ACFE707EE900AF1EE677ACDED117AF9
:10132000E1E700BF00004E40242801D000207047B4
:10133000022070472C2807D04E2801D0532805D111
:10134000034B18740120704702207047002070473B
:10135000440200202C2807D0452801D0572805D169
:10136000034B187701207047022070470020704718
:10137000440200202C2808D03038C0B2082806D8F3
:10138000044B83F8200001207047022070470020A2
:10139000704700BF440200202C280FD0A0F130037A
:1013A000DBB2092B0FD8134A127882B9124981F89F
:1013B000283001320F4B1A70012070470D4B00226C
:1013C0001A700220704700200A4B1870704710B442
:1013D000094C94F8281001EB81014B00DBB2034467
:1013E000303B84F828300132024B1A7001205DF83E
:1013F000044B70474102002044020020000000001E
:10140000D0B5674B1B780A2B32D8DFE803F006060D
:1014100037376363318F8F8FBA00A0F13002D2B2B9
:10142000092A03D900205E4B187026E0A0F1300491
:10143000C3F10100FFF786F841EC110B9FED560B4D
:1014400007F05EFF57EC106B2046FFF77BF8324643
:101450003B46FFF7E1F806460F46524C2078FFF76F
:1014600071F832463B46FEF721FFFFF7ADFB2070D7
:101470004B4A1378013313700120D0BDA0F1300224
:10148000D2B2092A03D90020454B1870F5E7A0F124
:101490003004C3F10300FFF755F841EC110B9FED49
:1014A0003E0B07F02DFF57EC106B2046FFF74AF874
:1014B00032463B46FFF7B0F806460F46394C607897
:1014C000FFF740F832463B46FEF7F0FEFFF77CFBA5
:1014D0006070CDE7A0F13002D2B2092A03D9002012
:1014E0002F4B1870C9E7A0F13004C3F10500FFF7D6
:1014F00029F841EC110B9FED280B07F001FF57EC89
:10150000106B2046FFF71EF832463B46FFF784F883
:1015100006460F46234C6068FFF726F832463B46E6
:10152000FEF7C4FEFFF770FB6060A1E7A0F1300298
:10153000D2B2092A03D90020194B18709DE7A0F1F7
:101540003004981FFEF7FEFF41EC110B9FED120BCC
:1015500007F0D6FE57EC106B2046FEF7F3FF32463D
:101560003B46FFF783F906460F460E4C6068FEF7D0
:10157000FBFF32463B46FEF799FEFFF745FB6060F6
:1015800076E7074B00221A702C2801D0002074E760
:10159000022072E7AFF3008000000000000024404A
:1015A0003E02002044020020D0B56B4B1B780B2B71
:1015B00000F28D80DFE803F0060632328B5E5E5E5D
:1015C0005E8996C1A0F13002D2B2092A03D9002067
:1015D000614B187080E0A0F13004C3F10100FEF708
:1015E000B1FF41EC110B9FED5A0B07F089FE57EC50
:1015F000106B2046FEF7A6FF32463B46FFF70CF87D
:1016000006460F46554C207AFEF79CFF32463B4675
:10161000FEF74CFEFFF7D8FA207258E0A0F1300236
:10162000D2B2092A03D900204B4B187054E0A0F124
:101630003004C3F10300FEF785FF41EC110B9FED71
:10164000440B07F05DFE57EC106B2046FEF77AFF67
:1016500032463B46FEF7E0FF06460F463F4CE06849
:10166000FEF782FF32463B46FEF720FEFFF7CCFA3C
:10167000E0602CE0A0F13002D2B2092A03D90020A8
:10168000354B187028E0A0F13004181FFEF75AFF00
:1016900041EC110B9FED2E0B07F032FE57EC106B57
:1016A0002046FEF74FFF32463B46FFF7DFF806467F
:1016B0000F462A4CE068FEF757FF32463B46FEF7DE
:1016C000F5FDFFF7A1FAE06001E02C2805D0224AE1
:1016D0001378013313700120D0BD1F4B00221A7004
:1016E0000220F9E7A0F13002D2B2092A03D9002082
:1016F000194B1870F0E7A0F13004981FFEF722FF95
:1017000041EC110B9FED120B07F0FAFD57EC106B3B
:101710002046FEF717FF32463B46FFF7A7F806467E
:101720000F460E4CE068FEF71FFF32463B46FEF7C1
:10173000BDFDFFF769FAE060C9E7074B00221A70A8
:101740002C2801D00020C7E70220C5E7AFF30080B6
:1017500000000000000024403F020020440200205E
:10176000F8B56D4B1B780C2B38D8DFE803F0070C6D
:101770000C3D3D3769696969949BC600674A002141
:10178000117500219161A0F13002D2B2092A03D96A
:101790000020614B187026E0A0F13006C3F1020072
:1017A000FEF7D0FE41EC110B9FED590B07F0A8FDA1
:1017B00055EC104B3046FEF7C5FE22462B46FEF791
:1017C0002BFF06460F46554C207DFEF7BBFE3246EA
:1017D0003B46FEF76BFDFFF7F7F920754E4A13788D
:1017E000013313700120F8BDA0F13002D2B2092AF2
:1017F00003D90020484B1870F5E7A0F13006C3F17B
:101800000400FEF79FFE41EC110B9FED410B07F02A
:1018100077FD55EC104B3046FEF794FE22462B46E2
:10182000FEF7FAFE06460F463C4CA069FEF79CFE0A
:1018300032463B46FEF73AFDFFF7E6F9A061CDE7F9
:10184000A0F13002D2B2092A03D90020324B18701D
:10185000C9E7A0F13006581FFEF774FE41EC110BEA
:101860009FED2B0B07F04CFD55EC104B3046FEF76F
:1018700069FE22462B46FEF7F9FF06460F46274C27
:10188000A069FEF771FE32463B46FEF70FFDFFF7FB
:10189000BBF9A061A2E72C28A0D11F4B00221A702F
:1018A0000220A0E7A0F13002D2B2092A03D9002019
:1018B000194B187097E7A0F13006581FFEF742FE4B
:1018C00041EC110B9FED120B07F01AFD55EC104B7C
:1018D0003046FEF737FE22462B46FEF7C7FF064688
:1018E0000F460E4CA069FEF73FFE32463B46FEF720
:1018F000DDFCFFF789F9A06170E7074B00221A7041
:101900002C2801D000206EE702206CE7AFF30080A6
:10191000000000000000244040020020440200209B
:10192000F8B52C2815D02E2824D0A0F13003DBB236
:10193000092B23D8344B1B7823BB303807EE900A91
:10194000F8EEE77A314BC3ED097A01202E4B18707F
:1019500017E000232C4A13702D4A13702D4C2B4D89
:101960000FCD0FC40FCD0FC495E8070084E8070022
:10197000022006E00120264B187002E00020224BD6
:101980001870F8BD224B1B7893B9204BD3ED097A20
:10199000B2EE047A27EE877AA0F1300207EE902AA1
:1019A000F8EEE77A77EE877AC3ED097A0120E8E767
:1019B000A0F130041846FEF7B5FD41EC110B9FED88
:1019C000100B07F09DFC57EC106B2046FEF7BAFD9C
:1019D00032463B46FEF74AFF06460F460B4C606A0E
:1019E000FEF7C2FD32463B46FEF760FCFFF70CF9FE
:1019F0006062074A1378013313700120C1E700BF0A
:101A000000000000000024404202002044020020A8
:101A10003C0200200C02002070B406460446064D2D
:101A20000FCD0FC40FCD0FC495E8070084E8070061
:101A3000304670BC704700BF0C020020034B93F887
:101A40002000003018BF0120704700BF0C020020AA
:101A5000074B00221A705A70002159601A72D9601F
:101A60005F2018741A759961187783F820207047E1
:101A70004402002000B583B00246124B93E80300F5
:101A80000090ADF80410090C8DF806100E4B1B7871
:101A900002A9194411F8081C914205D000200A4BF4
:101AA000187003B05DF804FB052B04D00133064A1F
:101AB00013700120F5E7044B00221A70FFF7C8FFEE
:101AC0000220EEE7CCA500083D0200200A2810D035
:101AD0000D280ED038B5074C074D2B681B01E35875
:101AE00098472B6800EB830004EB800463682B604D
:101AF00038BD7047D4A500083802002008B504F0AE
:101B0000A5FB08BD03689A6912F0020F01D00022FC
:101B10009A6203689A6912F0010F03D19A6942F040
:101B200001029A61704770B4039E05686868740D7D
:101B300004F4806444F07F7444F4583444F47F74B3
:101B400044F0030420EA0400C1F3090141EA024120
:101B5000194331430143696070BC704770B5044656
:101B60000D46164603689B6913F0100F01D1002043
:101B700070BD23689A6912F0200F17D1B5F1FF3FAD
:101B8000F7D001F03FF9801BA84201D8002DF0D119
:101B9000636C43F020036364202384F84130002306
:101BA00084F8423084F840300120E1E71022DA6105
:101BB00023682025DD612046FFF7A4FF22685368D3
:101BC00023F0FF7323F48B3323F4FF7323F001031B
:101BD0005360636C43F00403636484F84150002352
:101BE00084F8423084F840300120C1E7F8B505465A
:101BF0000F4616461C462B689B6937EA03030CBF49
:101C000001230023B34218D1B4F1FF3FF3D001F018
:101C1000F9F8069BC01AA04201D8002CEBD16B6CDE
:101C200043F020036B64202385F84130002385F8BE
:101C3000423085F84030012000E00020F8BD70B54A
:101C400005460C4616462B689B6913F0200F1AD1E7
:101C5000324621462846FFF781FFB0B901F0D2F89D
:101C6000801BA04201D8002CEDD16B6C43F0200307
:101C70006B64202385F84130002385F8423085F8D5
:101C80004030012070BD0020FCE70120FAE770B56C
:101C900004460D46164623689B6913F0040F3ED197
:101CA000324629462046FFF759FF0146002838D121
:101CB00023689A6912F0200F13D101F0A3F8801B5A
:101CC000A84201D8002DE6D1636C43F02003636481
:101CD000202384F84130002384F840300121084655
:101CE00070BD9A6912F0040F02D0228D002AF6D13D
:101CF0002022DA6121684B6823F0FF7323F48B33D1
:101D000023F4FF7323F001034B600023636484F822
:101D1000412084F8423084F840300121DFE700217F
:101D2000DDE70121DBE7002859D010B5044690F823
:101D30004130002B43D0242384F8413022681368BB
:101D400023F0010313606368226823F0706313615A
:101D50002268936823F400439360E368012B33D037
:101D6000A368226843F404439360E368022B31D0F4
:101D70002268536843F0007343F4004353602268C1
:101D8000D36823F40043D360236962691343A169D4
:101D9000226843EA0123D360E369216A22680B4386
:101DA00013602268136843F001031360002060642D
:101DB000202384F84130206384F8420010BD80F86D
:101DC000403004F0FDFAB6E7A368226843F400430C
:101DD0009360CAE723684FF400625A60C8E70120A5
:101DE000704700002DE9F04383B090F84150EDB208
:101DF000202D40F0A48090F84040012C00F0A480F9
:101E00001F4691460E4604464FF0010880F8408078
:101E100000F0F8FF05460090192342464FF40041B8
:101E20002046FFF7E3FE002840F09080222384F84C
:101E30004130102384F8423000236364C4F82490B6
:101E400067856363638D9BB2FF2B0AD9FF222285CE
:101E5000424B00934FF0807331462046FFF763FEFC
:101E600018E0628D92B222853C4B00934FF00073D4
:101E7000D2B231462046FFF756FE0BE0628D92B299
:101E80002285002300934FF00073D2B231462046E2
:101E9000FFF749FE638D9BB2002B33D02A460A9987
:101EA0002046FFF7F4FE002852D123685A6A636A7D
:101EB0001A70636A01336362238D013B9BB22385F1
:101EC000628D013A92B26285628D92B2002AE1D0AF
:101ED000002BDFD100950A9B002280212046FFF7CE
:101EE00085FE002836D1638D9BB2FF2BC6D9FF2219
:101EF0002285002300934FF0807331462046FFF780
:101F000012FEC7E72A460A992046FFF798FE0346C5
:101F100010BB22682021D1612068426822F0FF7244
:101F200022F48B3222F4FF7222F00102426084F824
:101F30004110002284F8422084F8402000E002236F
:101F4000184603B0BDE8F0830223F9E70123F7E761
:101F50000123F5E70123F3E70123F1E700240080E3
:101F600090F84130DBB2202B27D190F84030012B84
:101F700025D010B4012380F84030242380F841306C
:101F80000468226822F0010222600468226822F4B8
:101F900080522260026813680B4313600268136862
:101FA00043F001031360202380F84130002380F8C0
:101FB000403018465DF8044B7047022070470220FD
:101FC000704790F84130DBB2202B25D190F840309B
:101FD000012B23D010B4012380F84030242380F853
:101FE00041300468226822F001022260026813680E
:101FF00023F4706343EA012313600268136843F01B
:1020000001031360202380F84130002380F8403022
:1020100018465DF8044B7047022070470220704755
:10202000002853D010B504460023836290F85D3039
:10203000002B40D0022384F85D302268136823F01F
:1020400040031360E368B3F5E06F39D90022B3F5BC
:10205000706F04D0B3F5E06F01D00021A162216B55
:1020600021B9B3F5E06F2ED9022323636368A16819
:102070000B4321690B4361690B43A16901F40071B2
:102080000B43E1690B43216A0B43A06A21680343B8
:102090000B60638B03F00403616A0B43616B0B43BA
:1020A000E1680B43216813434B6000202066012345
:1020B00084F85D3010BD80F85C3004F00BFBB9E7AC
:1020C0004FF48052C3E701232363CFE70120704719
:1020D0007047000030B585B00446026850689368C8
:1020E000C3F3801129B913F0010F02D010F0400F93
:1020F00067D113F0020F02D010F0800F65D1C3F347
:1021000040151DB911B913F4807F61D010F0200F74
:102110005ED079B194F85D10C9B203295AD0216E0E
:1021200041F00401216600210091D168009191687D
:102130000091009965B1216E41F0010121660021F5
:10214000029191680291116821F040011160029A98
:1021500013F4807F09D0236E43F008032366002325
:10216000039323689B680393039B236E002B2FD05C
:102170002268536823F0E0035360012384F85D3044
:1021800010F0030F2ED02268536823F0030353602E
:10219000A36D4BB1154A9A63A06D01F051FF18B1C0
:1021A000236E43F040032366636D8BB10F4A9A633D
:1021B000606D01F045FF58B1236E43F04003236684
:1021C00006E0E36C2046984702E0236D20469847DE
:1021D00005B030BD00230193D36801939368019348
:1021E000019BF5E72046FFF773FFF1E7F1210008B7
:1021F00008B5806A0023A0F84630C387FFF768FF60
:1022000008BD40B338B5044603684CF6CC421A60AA
:10221000036845F255521A60036842685A600368C1
:1022200082689A6000F0EEFD05462368DA6832B1F4
:1022300000F0E8FD401B3028F7D9032038BD1969AC
:10224000E268914202D01A610020F7E74AF6AA221A
:102250001A600020F2E7012070470268136823F437
:10226000907313600268936823F001039360202346
:1022700080F87230002303667047704708B5016824
:102280000A6822F040020A60202280F871200022B1
:102290004266FFF7F2FF08BD7047000038B50446FC
:1022A0000268D3691168906813F00F0505D113F027
:1022B000200F02D011F0200F19D12DB110F001051F
:1022C0001BD111F4907F18D113F4801F02D010F4A9
:1022D000800F7DD113F0800F02D011F0800F7ED1DE
:1022E00013F0400F02D011F0400F7ED138BD236EA5
:1022F000002BFBD020469847F8E713F0010F07D0DA
:1023000011F4807F04D001201062626F0243626783
:1023100013F0020F07D035B1226802201062626FFD
:1023200042F00402626713F0040F07D035B122684F
:1023300004201062626F42F00202626713F0080F1D
:1023400009D011F0200F00D12DB1226808201062B1
:10235000626F02436267626F002AC7D013F0200FDA
:1023600006D011F0200F03D0236E0BB12046984702
:10237000636F13F0080F04D123689B6813F0400FBC
:1023800020D02046FFF769FF23689A6812F0400FBB
:1023900014D09A6822F040029A60E36E53B1154A55
:1023A0009A63E06E01F04CFE00289FD0E06E836BD4
:1023B00098479BE72046FFF76FFF97E72046FFF718
:1023C0006BFF93E72046FFF767FF002363678DE706
:1023D0004FF480131362204600F08EFB86E7636E95
:1023E000002B83D02046984780E72046FFF746FF22
:1023F0007CE700BFF923000808B5806A0023A0F835
:102400005A30A0F85230FFF747FF08BD2DE9F048D9
:102410000446016883680269134342691343C26931
:1024200013430868994A024013430B6022685368BB
:1024300023F44053E1680B435360A1692268944B35
:102440009A4201D0236A1943936823F430630B4303
:10245000936023688F4A934211D08F4A934222D0CF
:102460008E4A934238D08E4A934260D08D4A93422E
:1024700073D0874A934200F0898010253FE002F52F
:102480005842D2F8882002F00302032A09D8DFE874
:1024900002F002049606012531E004252FE008250C
:1024A0002DE010252BE002F5E632D2F8882002F06C
:1024B0000C020C2A0ED8DFE802F0070D0D0D090DF5
:1024C0000D0D840D0D0D0B00002518E0042516E000
:1024D000082514E0102512E002F5E432D2F8882035
:1024E00002F03002102A6ED005D9202A6DD0302A91
:1024F0001BD1082503E00AB9002500E01025644A35
:10250000934270D0E369B3F5004F00F0F280082DDC
:1025100000F27681DFE815F03B014C0156017401B1
:1025200061017401740174016B011025E7E702F584
:10253000E232D2F8882002F0C002402A47D005D902
:10254000802A46D0C02A06D10825D8E70AB9002536
:10255000D5E71025D3E71025D1E702F5E032D2F810
:10256000882002F44072B2F5807F34D007D9B2F5EA
:10257000007F32D0B2F5407F06D10825BFE70AB907
:102580000025BCE71025BAE71025B8E702F5C832E8
:10259000D2F8882002F44062B2F5806F1FD007D9CC
:1025A000B2F5006F1DD0B2F5406F06D10825A6E741
:1025B0000AB90025A3E71025A1E710259FE702250A
:1025C0009DE702259BE7042599E7022597E7042567
:1025D00095E7022593E7042591E702258FE7042577
:1025E0008DE702258BE7082D00F20D81DFE815F05D
:1025F0000C000B0114000B0111000B010B010B016E
:1026000009004FF4004008E001F050F828B9002517
:1026100004E100F055FCF9E72348626802EB42034D
:10262000834200F2F280B0EB023F00F2F080082D0E
:102630005CD8DFE805F0055B1D5B3F5B5B5B500032
:1026400001F034F80023070E06026268500816EB0A
:10265000000B47F1000C58466146FEF725FBA0F53C
:102660004072124B9A4200F2D4802368D860D5E0C1
:10267000560800252B46DFF838B04FF0000C1BEB56
:1026800006004CF10001FEF70FFBE8E7F369FFEFEE
:1026900000800040003801400044004000480040F5
:1026A000004C0040005000400024F400FFFC0F00EC
:1026B000000024F400F004FC0025070E0602626806
:1026C00050082B4616EB000B47F1000C58466146AC
:1026D000FEF7EAFAC3E7500800252B4610F5000084
:1026E0002CBF01210021FEF7DFFAB8E70125002009
:1026F000B5E7082D48D8DFE805F0051D2847334722
:1027000047473E0000F0D2FF6268530803EB4003E6
:10271000B3FBF2F39BB2A3F110014FF6EF729142BB
:1027200079D89AB222F00F02C3F34203134322680E
:10273000D36073E000F0CCFF6268530803EB400302
:10274000B3FBF2F39BB20025E5E76268530803F19F
:10275000F47303F59043B3FBF2F39BB20025DAE781
:1027600000F0AEFB6268530803EB4003B3FBF2F3E7
:102770009BB20025CFE76268530803F58033B3FBB3
:10278000F2F39BB20025C6E701250023C3E700F062
:102790008DFF636800EB5300B0FBF3F080B2A0F153
:1027A00010024FF6EF739A4237D82368D86035E0AD
:1027B00000F08EFF636800EB5300B0FBF3F080B2D3
:1027C0000025ECE76368580800F5740000F5105028
:1027D000B0FBF3F080B20025E1E700F071FB636825
:1027E00000EB5300B0FBF3F080B20025D7E763683D
:1027F000580800F50040B0FBF3F080B20025CEE7AA
:1028000001250020CBE7012508E0012506E0012590
:1028100004E0012502E0012500E0012500232366F4
:1028200063662846BDE8F088436A13F0010F06D0BE
:102830000268536823F40033816A0B435360436A90
:1028400013F0020F06D00268536823F48033C16A84
:102850000B435360436A13F0040F06D002685368B9
:1028600023F48023016B0B435360436A13F0080F7A
:1028700006D00268536823F40043416B0B43536056
:10288000436A13F0100F06D00268936823F4805354
:10289000816B0B439360436A13F0200F06D00268EC
:1028A000936823F40053C16B0B439360436A13F0A6
:1028B000400F0AD00268536823F48013016C0B4365
:1028C0005360036CB3F5801F0BD0436A13F0800F85
:1028D00006D00268536823F40023816C0B435360D5
:1028E00070470268536823F4C003416C0B43536084
:1028F000EBE72DE9F04105460F4616469846069C43
:102900002B68DB6937EA03030CBF01230023B342C2
:102910001DD1B4F1FF3FF3D02CB100F073FAA0EB5E
:102920000800A042ECD92A68136823F4D07313601E
:102930002A68936823F001039360202385F871309F
:1029400085F87230002385F87030032000E0002005
:10295000BDE8F0812DE9F04182B01E4690F871305B
:10296000DBB2202B4ED104460D46904600294ED0B6
:10297000002A4ED090F87030012B4CD0012380F803
:10298000703000234367212380F8713000F03AFA59
:102990000746A4F85080A4F8528009E0236815F88F
:1029A000012B1A85B4F85230013B9BB2A4F8523087
:1029B000B4F852309BB2ABB100963B460022802166
:1029C0002046FFF796FF40BBA368B3F5805FE5D1D3
:1029D0002369002BE2D1226835F8023BC3F30803D8
:1029E0001385DFE700963B46002240212046FFF793
:1029F00080FF034698B9202284F87120002284F8D1
:102A0000702000E00223184602B0BDE8F0810123E7
:102A1000F9E70123F7E70223F5E70323F3E70323AD
:102A2000F1E730B583B004460023436700F0EAF9CC
:102A3000054623681B6813F0080F0ED123681B6836
:102A400013F0040F17D1202384F8713084F872300A
:102A5000002084F8700003B030BD6FF07E43009317
:102A6000034600224FF400112046FFF742FF0028E2
:102A7000E4D00320EFE76FF07E4300932B46002263
:102A80004FF480012046FFF734FF0028DBD00320FD
:102A9000E1E778B310B5044690F871300BB3242306
:102AA00084F871302268136823F001031360204614
:102AB000FFF7ACFC012813D0636ABBB922685368E6
:102AC00023F4904353602268936823F02A039360B1
:102AD0002268136843F0010313602046FFF7A1FF4B
:102AE00010BD80F8703003F031FDD8E72046FFF7C5
:102AF0009BFEE3E701207047704770470268D36888
:102B000043F00103D36002689168084B0B40062B29
:102B100009D09168054B0B40B3F5803F03D0136893
:102B200043F0010313600020704700BF070001005D
:102B3000704770477047704710B5044603681A69BC
:102B400012F0020F11D0DA6812F0020F0DD06FF000
:102B500002021A610123037703689B6913F0030FD4
:102B600079D0FFF7E6FF0023237723681A6912F074
:102B7000040F12D0DA6812F0040F0ED06FF00402C6
:102B80001A610223237723689B6913F4407F68D07E
:102B90002046FFF7CEFF0023237723681A6912F03F
:102BA000080F12D0DA6812F0080F0ED06FF008028A
:102BB0001A61042323772368DB6913F0030F57D0CE
:102BC0002046FFF7B6FF0023237723681A6912F027
:102BD000100F12D0DA6812F0100F0ED06FF0100242
:102BE0001A61082323772368DB6913F4407F46D0FA
:102BF0002046FFF79EFF0023237723681A6912F00F
:102C0000010F03D0DA6812F0010F3FD123681A696F
:102C100012F0800F03D0DA6812F0800F3DD12368E4
:102C20001A6912F4807F03D0DA6812F0800F3BD16A
:102C300023681A6912F0400F03D0DA6812F0400FCF
:102C400039D123681A6912F0200F03D0DA6812F024
:102C5000200F37D110BDFFF76BFF2046FFF76AFF4B
:102C600081E72046FFF764FF2046FFF763FF92E706
:102C70002046FFF75DFF2046FFF75CFFA3E72046F5
:102C8000FFF756FF2046FFF755FFB4E76FF001024C
:102C90001A612046FEF748FAB8E76FF080021A6121
:102CA000204600F096F8BAE76FF480721A61204669
:102CB00000F090F8BCE76FF040021A612046FFF781
:102CC0003AFFBEE76FF020021A61204600F080F85C
:102CD000C0E700000368304A904212D0B0F1804F44
:102CE0000FD0A2F5943290420BD002F58062904250
:102CF00007D002F58062904203D002F594329042F0
:102D000003D123F070034A681343234A90421ED034
:102D1000B0F1804F1BD0A2F59432904217D002F54B
:102D20008062904213D002F5806290420FD002F58B
:102D3000943290420BD002F54062904207D002F5E7
:102D40008062904203D002F58062904203D123F466
:102D50004073CA68134323F080034A691343036036
:102D60008B68C3620B6883620B4B98420FD003F5EC
:102D7000006398420BD003F54063984207D003F5F7
:102D80008063984203D003F58063984201D10B69B8
:102D90000363012343617047002C0140B0B110B5BB
:102DA000044690F83D3063B1022384F83D3021465B
:102DB00051F8040BFFF78EFF012384F83D3000200B
:102DC00010BD80F83C30FFF798FEEDE7012070471A
:102DD00070477047704710B5032001F0AFF900202D
:102DE00003F028FD10B10124204610BD044603F075
:102DF000C7FAF9E7024A136801331360704700BF4E
:102E0000B84A0220014B1868704700BFB84A022038
:102E100038B50446FFF7F6FF0546B4F1FF3F00D092
:102E20000134FFF7EFFF401BA042FAD338BD00008A
:102E300030B583B00546204B9B6D13F0805F0BD0FF
:102E400001F026F9B0F5007F17D0802D1FD82DD0C6
:102E5000702D2DD000211BE0174CA36D43F0805343
:102E6000A365A36D03F080530193019B01F010F95A
:102E7000A36D23F08053A365E4E7802D03D9A02D33
:102E800003D9022104E0002102E0012100E0032136
:102E90000A4A136823F007030B431360136803F017
:102EA00007038B4206D1002003B030BD0221EFE7BB
:102EB0000121EDE70120F7E7001002400020024069
:102EC000314A9368D26802F0030213F00C030AD06F
:102ED0000C2B06D0042B1FD0082B20D0002001463D
:102EE00010E0012AF6D1284A126812F0080F0CD11E
:102EF000254AD2F89420C2F30322244951F8221023
:102F000043B100200C2B0DD070471F4A1268C2F34A
:102F10000312F2E70846F5E71D480021F2E71D48D5
:102F20000021EFE7184BDA6802F00302DB68C3F315
:102F300002130133022A0AD0032A1AD0B1FBF3F399
:102F4000114AD068C0F3062000FB03F008E01048E7
:102F5000B0FBF3F30C4AD068C0F3062000FB03F08B
:102F6000094BDB68C3F3416301335B00B0FBF3F053
:102F7000CAE70848B0FBF3F3034AD068C0F3062061
:102F800000FB03F0ECE700BF00100240B8A6000809
:102F90000024F40000127A00002800F0C182F0B58D
:102FA00083B00446AC4B9D6805F00C05DE6806F066
:102FB0000306036813F0100F5DD0E5B10C2D18D097
:102FC000A369002B00F0B780A34A136843F0010304
:102FD0001360FFF717FF07469F4B1B6813F0020FA4
:102FE00040F09680FFF70EFFC01B0228F4D90323A0
:102FF000A2E2012EE4D1984B1B6813F0020F03D01C
:10300000A369002B00F08F82206A934B1B6813F09A
:10301000080F5DD0904B1B6803F0F00398425ED917
:10302000FFF706FF002840F080828B4B1A6842F0C1
:1030300008021A601A6822F0F002216A0A431A6034
:103040005A6822F47F42E16942EA01225A60FFF79E
:1030500037FF814B9B68C3F30313804AD35C03F0B3
:103060001F03D8407E4B1860002003F0E3FB0346AB
:10307000002840F06182236813F0010F7AD0082DF8
:103080006FD00C2D6BD06368B3F5803F00F091805A
:10309000B3F5A02F00F093806F4B1A6822F48032B2
:1030A0001A601A6822F480221A606368002B00F00C
:1030B0009380FFF7A7FE0746674B1B6813F4003F9A
:1030C00058D1FFF79FFEC01B6428F5D9032333E2D4
:1030D000614BD3F894301B0903F0F0039EE75E4B7D
:1030E0001A6842F008021A601A6822F0F002216A97
:1030F0000A431A605A6822F47F42E16942EA0122D7
:103100005A60206AFFF794FE0028A0D0012313E242
:10311000514B1A6842F008021A601A6822F0F00255
:10312000216A0A431A605A6822F47F42E16942EA3E
:1031300001225A609FE7484A136823F00103136095
:10314000FFF760FE0746444B1B6813F0020F92D056
:10315000FFF758FEC01B0228F5D90323ECE1032E2C
:1031600091D13D4B1B6813F4003F03D06368002BE3
:1031700000F0DD81236813F0020F4FD0042D3CD006
:103180000C2D38D0E368002B75D0334A136843F414
:1031900080731360FFF736FE06462F4B1B6813F44F
:1031A000806F5FD1FFF72EFE801B0228F5D9032325
:1031B000C2E1294A136843F48033136075E703F1D1
:1031C0008043A3F53C331A6842F480221A601A68DF
:1031D00042F480321A6068E7FFF714FE07461E4B80
:1031E0001B6813F4003FC5D0FFF70CFEC01B64281A
:1031F000F5D90323A0E1022EC4D1174B1B6813F4A9
:10320000806F03D0E368002B00F09381124A53686B
:1032100023F0FE43216943EA01635360236813F0FE
:10322000080F53D06369002B39D00B4AD2F8943081
:1032300043F00103C2F89430FFF7E4FD0646064B65
:10324000D3F8943013F0020F40D1FFF7DBFD801B61
:103250000228F4D903236FE100100240A0A6000861
:1032600004000020B74A536823F0FE43216943EA73
:1032700001635360D2E7B34A136823F48073136089
:10328000FFF7C0FD0646AF4B1B6813F4806FC5D037
:10329000FFF7B8FD801B0228F5D903234CE1A94AAA
:1032A000D2F8943023F00103C2F89430FFF7AAFD5E
:1032B0000646A44BD3F8943013F0020F06D0FFF764
:1032C000A1FD801B0228F4D9032335E1236813F004
:1032D000040F7AD09B4B9B6D13F0805F36D1994BD6
:1032E0009A6D42F080529A659B6D03F08053019372
:1032F000019B0126944B1B6813F4807F28D0A368A0
:10330000012B39D0052B3FD08E4BD3F8902022F0E3
:103310000102C3F89020D3F8902022F00402C3F8F1
:103320009020A368002B3DD0FFF76CFD0746854B2E
:10333000D3F8903013F0020F46D1FFF763FDC01BA6
:1033400041F288339842F2D90323F5E00026D1E711
:103350007D4A136843F480731360FFF753FD0746FB
:10336000794B1B6813F4807FC9D1FFF74BFDC01B5D
:103370000228F5D90323DFE0724AD2F8903043F0F7
:103380000103C2F89030CCE76E4BD3F8902042F0A6
:103390000402C3F89020D3F8902042F00102C3F851
:1033A0009020BEE7FFF72EFD0746664BD3F890301E
:1033B00013F0020F08D0FFF725FDC01B41F2883340
:1033C0009842F2D90323B7E0E6B9236813F0200F3F
:1033D00035D0636AE3B15B4AD2F8983043F0010319
:1033E000C2F89830FFF70EFD0646564BD3F89830DA
:1033F00013F0020F23D1FFF705FD801B0228F4D93B
:10340000032399E04F4A936D23F080539365DCE7E3
:103410004C4AD2F8983023F00103C2F89830FFF7F5
:10342000F1FC0646474BD3F8983013F0020F06D054
:10343000FFF7E8FC801B0228F4D903237CE0A36A91
:10344000002B78D00C2D7AD0022B23D03D4B1A685C
:1034500022F080721A601B6813F0205F04D1394A91
:10346000D36823F00303D360364AD36823F088730C
:1034700023F48033D360FFF7C5FC0446314B1B684F
:1034800013F0007F4AD0FFF7BDFC001B0228F5D9DE
:10349000032351E02B4A136823F080731360FFF776
:1034A000B1FC0546274B1B6813F0007F06D0FFF7E1
:1034B000A9FC401B0228F5D903233DE0236B5A1ECB
:1034C000636B1B0243EA0213E26A1343E26B520886
:1034D000013A43EA4253226C5208013A43EA4263FA
:1034E000A26B43EAC263174AD360136843F0807348
:1034F0001360D36843F08073D360FFF783FC044606
:10350000104B1B6813F0007F06D1FFF77BFC001BFC
:103510000228F5D903230FE000230DE000230BE080
:10352000012318467047012306E0012304E001232C
:1035300002E0012300E00023184603B0F0BD0123A0
:10354000FAE700BF0010024000700040002800F0C1
:10355000978070B504464E4B1B6803F007038B42FF
:103560000BD24B4A136823F007030B431360136815
:1035700003F007038B4240F085800D46236813F06B
:10358000010F39D06368032B09D0022B26D063BB0F
:10359000404A126812F0020F06D101206FE03D4A46
:1035A000126812F0007F6FD03A498A6822F0030255
:1035B00013438B60FFF726FC0646364B9B6803F0EF
:1035C0000C036268B3EB820F16D0FFF71BFC801B65
:1035D00041F288339842F0D9032050E02D4A126816
:1035E00012F4003FE0D1012049E02A4A126812F4A7
:1035F000806FD9D1012042E0236813F0020F06D07A
:10360000244A936823F0F003A1680B439360204B96
:103610001B6803F00703AB420AD91D4A136823F065
:1036200007032B431360136803F00703AB422DD14C
:10363000236813F0040F06D0164A936823F4E0635E
:10364000E1680B439360236813F0080F07D0114A19
:10365000936823F46053216943EAC1039360FFF741
:103660002FFC0C4B9B68C3F303130B4AD35C03F092
:103670001F03D840094B1860002003F0DBF870BD31
:10368000012070470120FAE70120F8E70120F6E762
:103690000020024000100240A0A600080400002004
:1036A000014B1868704700BF0400002008B5FFF701
:1036B000F7FF054B9B68C3F30223044AD35C03F076
:1036C0001F03D84008BD00BF00100240B0A600088C
:1036D00008B5FFF7E5FF054B9B68C3F3C223044A17
:1036E000D35C03F01F03D84008BD00BF00100240A8
:1036F000B0A600080F2303600B4B9A6802F0030288
:1037000042609A6802F0F00282609A6802F4E06215
:10371000C2609B68DB0803F4E0630361034B1B6832
:1037200003F007030B6070470010024000200240C6
:10373000F8B5594BDB6813F0030F18D0564BDB6814
:1037400003F003030268934202D001242046F8BD2F
:10375000002A00F09F80504BDB68C3F30213013353
:103760004268934201D00124F0E7002409E0036895
:10377000022B58D0032B5DD0012B43D00124002C09
:10378000E4D10F460646444A136823F08063136071
:10379000FFF738FB0546404B1B6813F0006F05D060
:1037A000FFF730FB401B0228F5D90324002CCDD1B4
:1037B000002F4DD138490B6923F0784323F4FE43A1
:1037C000B068F268D20642EA002213430B61324A23
:1037D000136843F080631360FFF714FB05462E4B1C
:1037E0001B6813F0006F05D1FFF70CFB401B02288C
:1037F000F5D90324002CA9D1274A1369B1690B43D9
:103800001361A3E7244A126812F0020F1ED0224D62
:10381000EA6822F073024468013C43EA041313434C
:10382000EB600024ABE71C4A126812F4806FEED103
:103830000124A4E7184A126812F4003FE7D1164A9F
:10384000126812F4802FE2D1012498E7012496E750
:10385000012F0FD01048026922F0C06222F4FE420C
:10386000B16873695B08013B5B0643EA01231343BC
:103870000361ACE70848026922F4C00222F4FE4268
:10388000B16833695B08013B5B0543EA01231343DD
:1038900003619CE7012459E700100240F8B5504B42
:1038A000DB6813F0030F18D04D4BDB6803F0030304
:1038B0000268934202D001242046F8BD002A00F09D
:1038C0008D80474BDB68C3F3021301334268934298
:1038D00001D00124F0E7002409E00368022B58D04E
:1038E000032B5DD0012B43D00124002CE4D10F46E3
:1038F00006463B4A136823F080531360FFF782FAB1
:103900000546374B1B6813F0005F05D0FFF77AFAC6
:10391000401B0228F5D90324002CCDD1002F4DD116
:103920002F494B6923F0784323F4FE43B068F268D3
:10393000D20642EA002213434B61294A136843F03E
:1039400080531360FFF75EFA0546254B1B6813F0A2
:10395000005F05D1FFF756FA401B0228F5D9032472
:10396000002CA9D11E4A536971690B435361A3E727
:103970001B4A126812F0020F1ED0194DEA6822F09D
:1039800073024468013C43EA04131343EB600024D0
:10399000ABE7134A126812F4806FEED10124A4E75A
:1039A0000F4A126812F4003FE7D10D4A126812F470
:1039B000802FE2D1012498E7012496E70848426964
:1039C00022F0C06222F4FE42B16833695B08013B19
:1039D0005B0643EA012313434361AEE701246BE72F
:1039E000001002402DE9F04182B00446036813F450
:1039F000006F33D0836EB3F5800F29D011D9B3F5A2
:103A0000000F1ED0B3F5400F18D10027664AD2F838
:103A1000883023F44003A16E0B43C2F8883000269F
:103A20001EE043B900210430FFF782FE0746002F55
:103A3000ECD03E4614E00126374611E00126374619
:103A40000EE0594AD36843F48033D3600027DDE7A2
:103A500000212030FFF722FF0746E8E7002637461F
:103A6000236813F4805F15D0E36EB3F1807F7DD0BF
:103A700069D9B3F1007F73D0B3F1407F6DD1002FCE
:103A80007BD1494AD2F8883023F04073E16E0B4372
:103A9000C2F88830236813F4003F00F08E80424B58
:103AA0009B6D13F0805F6AD13F4B9A6D42F080525C
:103AB0009A659B6D03F080530193019B4FF00108C1
:103AC0003A4A136843F480731360FFF79BF9054685
:103AD000364B1B6813F4807F05D1FFF793F9401B29
:103AE0000228F5D90327002F62D12F4BD3F890304D
:103AF00013F4407316D0D4F888209A4212D02A4A80
:103B0000D2F8903023F44073D2F8901041F4803111
:103B1000C2F89010D2F8901021F48031C2F89010C1
:103B2000C2F8903013F0010F2CD1002F40F05181DA
:103B30001D4AD2F8903023F44073D4F888100B4318
:103B4000C2F8903035E02BB90021201DFFF7F0FDC1
:103B5000074694E7012637469CE70126374699E752
:103B6000114AD36843F48033D36088E7002104F11D
:103B70002000FFF793FE074681E73E468AE74FF0B5
:103B800000089DE7FFF73EF90546074BD3F8903054
:103B900013F0020FC9D1FFF735F9401B41F288330A
:103BA0009842F2D90327C0E700100240007000409D
:103BB0003E46B8F1000F40F00E81236813F0010F6C
:103BC00008D0A44AD2F8883023F00303A16B0B433A
:103BD000C2F88830236813F0020F08D09D4AD2F84B
:103BE000883023F00C03E16B0B43C2F88830236864
:103BF00013F0040F08D0974AD2F8883023F030032E
:103C0000216C0B43C2F88830236813F0080F08D0EA
:103C1000904AD2F8883023F0C003616C0B43C2F89D
:103C20008830236813F0100F08D08A4AD2F8883001
:103C300023F44073A16C0B43C2F88830236813F05F
:103C4000200F08D0834AD2F8883023F44063E16C17
:103C50000B43C2F88830236813F4007F08D07D4AF4
:103C6000D2F8883023F44023216E0B43C2F8883009
:103C7000236813F4806F08D0764AD2F8883023F492
:103C80004013616E0B43C2F88830236813F0400F75
:103C900008D0704AD2F8883023F44053216D0B438A
:103CA000C2F88830236813F0800F08D0694AD2F830
:103CB000883023F44043616D0B43C2F88830236899
:103CC00013F4807F08D0634AD2F8883023F440335D
:103CD000A16D0B43C2F88830236813F4801F08D00D
:103CE0005C4AD2F89C3023F00303E16D0B43C2F829
:103CF0009C30236813F4005F0FD0564AD2F8883006
:103D000023F04063216F0B43C2F88830236FB3F177
:103D1000006F66D0B3F1806F68D0236813F4002F72
:103D20000FD04C4AD2F8883023F04063616F0B43C8
:103D3000C2F88830636FB3F1006F5FD0B3F1806F6A
:103D400061D0236813F4802F0FD0424AD2F8883014
:103D500023F04063A16F0B43C2F88830A36FB3F127
:103D6000006F58D0B3F1806F5AD0236813F4804F9E
:103D70000FD0384AD2F8883023F04053E16F0B431C
:103D8000C2F88830E36FB3F1805F51D0B3F1005FC8
:103D900056D0236813F4004F09D02E4AD2F8883049
:103DA00023F08043D4F880100B43C2F88830236896
:103DB00013F4803F09D0274AD2F8883023F000431B
:103DC000D4F884100B43C2F88830304602B0BDE806
:103DD000F0813E46EDE61F4A936D23F080539365D4
:103DE000EBE6D36843F48013D36096E70121201DEE
:103DF000FFF79EFC002890D006468EE7D36843F478
:103E00008013D3609DE70121201DFFF791FC00285E
:103E100097D0064695E7D36843F48013D360A4E7B0
:103E20000121201DFFF784FC00289ED006469CE758
:103E30000221201DFFF77CFC0028AAD00646A8E737
:103E4000022104F12000FFF729FD0028A1D0064639
:103E50009FE700BF00100240F0B482B0002336E0BC
:103E6000072400E00024B4403C430235644E46F889
:103E70002540644C2568D44304EA05064F6817F4CE
:103E8000803F01D042EA05065E4D2E606D6804EA6F
:103E900005064F6817F4003F01D042EA0506594D68
:103EA0006E60AD6804EA05064F6817F4801F01D004
:103EB00042EA0506534DAE60ED682C404E6816F49C
:103EC000001F01D042EA05044E4AD46001330A685B
:103ED00032FA03F400F0918001249C402240F5D096
:103EE0004D68022D01D0122D10D1DE08083650F891
:103EF00026C003F00705AF000F25BD402CEA050CD6
:103F00000D69BD4045EA0C0540F8265006685F0083
:103F10000325BD40ED4305EA060C4E6806F0030696
:103F2000BE4046EA0C0606604E6806F1FF3CBCF156
:103F3000010F03D9112E01D0122E10D1866805EA87
:103F4000060CCE68BE4046EA0C068660466826EA45
:103F500004044E68C6F300169E4026434660C468BB
:103F600025408C68BC402C43C4604C6814F0805FD2
:103F7000ACD0254C256E45F001052566246E04F075
:103F800001040194019C9D08AE1C1D4C54F8267040
:103F900003F00304A6000F24B44027EA0407B0F19D
:103FA000904F3FF45FAF194CA0421AD004F58064E3
:103FB000A04218D004F58064A04216D004F58064B5
:103FC000A04214D004F58064A04212D004F58064AD
:103FD000A04210D004F58064A0423FF441AF082411
:103FE00041E701243FE702243DE703243BE70424A3
:103FF00039E7052437E7062435E702B0F0BC7047FF
:10400000000001400004014000100240000400488C
:104010000AB18161704781627047436959404161CB
:104020007047704708B5054B5B69034200D108BD76
:10403000024B5861FFF7F5FFF9E700BF00040140AC
:1040400008B590F82530DBB2022B03D00423C363FC
:10405000012008BD0268136823F00E031360026894
:10406000136823F001031360436C03F01C03016C1D
:10407000012202FA03F34B6080F82520002380F828
:104080002430836B13B198470020E2E70020E0E77B
:10409000024B186800F4C060704700BF0070004019
:1040A000B0F5007F0FD01E4B1B6803F4C063B3F55F
:1040B000806F33D01A4A136823F4C06343F48063DB
:1040C000136000207047164B1B6803F4C063B3F500
:1040D000007F1FD0124A136823F4C06343F40073B7
:1040E0001360104B1A68322303FB02F30E4AA2FB43
:1040F00003239B0C01330A4A526912F4806F02D0E9
:104100000BB1013BF7E7064B5B6913F4806F03D1FA
:104110000020704700207047032070470020704740
:10412000007000400400002083DE1B43024A5368F5
:1041300043F400735360704700700040074AD3682F
:1041400023F4E0631B041B0C000200F4E06018433E
:1041500040F0BF6040F40030D060704700ED00E0F8
:1041600030B4174BDB68C3F30223C3F10704042CFC
:1041700028BF04241D1D062D01D9033B00E00023A8
:104180004FF0FF3505FA04F421EA0401994005FADD
:1041900003F322EA03031943002809DB0901C9B22A
:1041A00000F1604000F5614080F8001330BC7047BA
:1041B00000F00F000901C9B2024B1954F6E700BF25
:1041C00000ED00E014ED00E000F01F0240090123C3
:1041D0009340024A42F82030704700BF00E100E0FF
:1041E00000F1080343604FF0FF328260C360036157
:1041F00000230360704700230361704743684B60EE
:104200009A688A60516099600861036801330360AD
:10421000704730B40D68B5F1FF3F02D000F10802DD
:1042200002E0026904E01A4653681C68AC42FAD9FD
:1042300053684B6099608A6051600861036801337C
:10424000036030BC70470369416882688A604168D6
:1042500051605A68824206D0002202611A68013A0F
:104260001A601868704782685A60F5E710B504460E
:1042700001F0A8FBA26BE36B9A4204D0002401F08A
:10428000C3FB204610BD0124F9E710B5044601F038
:1042900099FBA36B23B9012401F0B6FB204610BDA6
:1042A0000024F9E770B504461646856B026C5AB9CE
:1042B00003681BB100200135A56370BD406800F0A4
:1042C0001FFF00236360F6E76EB9806802F038FCD8
:1042D000226CA3681344A3606268934219D32368D5
:1042E000A3603046E7E7C06802F02AFC226C524225
:1042F000E3681344E36021688B4202D263681A4486
:10430000E260022E01D00020D5E725B1013D00205A
:10431000D1E73046CFE70020CDE7026C72B110B58F
:10432000C3681344C3604468A34201D30368C360F5
:104330000C46C168204602F003FC10BD704738B53A
:10434000054601F03FFB95F8454064B203E000F0FC
:10435000C1FE013C64B2002C08DD6B6A33B105F18B
:10436000240000F023FE0028F3D0F0E7FF2385F8B7
:10437000453001F049FB01F025FB95F8444064B25B
:1043800003E000F0A7FE013C64B2002C08DD2B69BD
:1043900033B105F1100000F009FE0028F3D0F0E77A
:1043A000FF2385F8443001F02FFB38BD38B5E0B16C
:1043B00004460D4601F006FB2168E26B236C03FB0B
:1043C000021060600020A063A160013A02FB0313A9
:1043D000E360FF2384F8443084F84530EDB9236965
:1043E00063B901F011FB012038BD4FF0100383F3D6
:1043F0001188BFF36F8FBFF34F8FFEE704F11000FA
:1044000000F0D4FD0028ECD0084B4FF080521A6029
:10441000BFF34F8FBFF36F8FE3E704F11000FFF797
:10442000DFFE04F12400FFF7DBFEDAE704ED00E035
:1044300010B5029B0C4639B91B60D8631C6401217E
:104440001846FFF7B3FF10BD1A60F6E740B94FF00A
:10445000100383F31188BFF36F8FBFF34F8FFEE715
:10446000F0B583B0054699B101FB00F017460C4644
:10447000483001F083F9064638B100903B4600F120
:10448000480221462846FFF7D3FF304603B0F0BD6F
:104490000846EBE7F0B585B0019278B10446B1B1BA
:1044A000022B20D1E26B012A1DD04FF0100383F3C1
:1044B0001188BFF36F8FBFF34F8FFEE74FF01003EC
:1044C00083F31188BFF36F8FBFF34F8FFEE7026C4A
:1044D000002AE5D04FF0100383F31188BFF36F8FEC
:1044E000BFF34F8FFEE71D460E4600F0F9FD07466D
:1044F00058B9019B002B44D04FF0100383F311886F
:10450000BFF36F8FBFF34F8FFEE7002739E02A46D6
:1045100031462046FFF7C6FE636A6BB938B13C4BA3
:104520004FF080521A60BFF34F8FBFF36F8F01F0CF
:104530006BFA012005B0F0BD04F1240000F036FD57
:104540000028F4D0324B4FF080521A60BFF34F8FE7
:10455000BFF36F8FEBE701F057FA0020EAE702A8FC
:1045600000F06AFD012719E0002384F8443021E0BF
:10457000002384F8453023E02046FFF7E0FE00F0FA
:1045800017FC01F01FFAA26BE36B9A42BFD3022D16
:10459000BDD0019B002BDED0002FE0D001F034FA1B
:1045A00000F06CFB01F00EFA94F844305BB2B3F10A
:1045B000FF3FD9D094F845305BB2B3F1FF3FD7D07D
:1045C00001F022FA01A902A800F042FDC8B9204674
:1045D000FFF74CFE0028CFD0019904F1100000F045
:1045E000B1FC2046FFF7ABFE00F0E2FB0028C8D18B
:1045F000074B4FF080521A60BFF34F8FBFF36F8F9E
:10460000BFE72046FFF79BFE00F0D2FB002091E7BA
:1046100004ED00E02DE9F84378B10446B1B1022B76
:1046200020D1E06B01281DD04FF0100383F31188D7
:10463000BFF36F8FBFF34F8FFEE74FF0100383F38D
:104640001188BFF36F8FBFF34F8FFEE7006C002818
:10465000E5D04FF0100383F31188BFF36F8FBFF3E2
:104660004F8FFEE71F469046894601F0D5FAEFF3DB
:1046700011864FF0100383F31188BFF36F8FBFF3E0
:104680004F8FA26BE36B9A4206D3022F04D0002017
:1046900086F31188BDE8F88394F845506DB23A4628
:1046A00049462046FFF7FEFDB5F1FF3F05D06B1CE4
:1046B0005BB284F845300120EAE7636A0BB9012058
:1046C000E6E704F1240000F071FC30B1B8F1000F0E
:1046D00005D00120C8F80000DAE70120D8E7012062
:1046E000D6E70000F0B585B0019290B10446C9B19B
:1046F0000E4600F0F5FC074600BB019B002B5CD08A
:104700004FF0100383F31188BFF36F8FBFF34F8F08
:10471000FEE74FF0100383F31188BFF36F8FBFF3F1
:104720004F8FFEE7036C002BE2D04FF0100383F3B2
:104730001188BFF36F8FBFF34F8FFEE700273CE078
:1047400031462046FFF7E9FD013DA563236923B902
:1047500001F05AF9012005B0F0BD04F1100000F09D
:1047600025FC0028F4D0354B4FF080521A60BFF37F
:104770004F8FBFF36F8FEBE701F046F90020EAE7B8
:1047800002A800F059FC012721E0002384F84430FE
:1047900029E0002384F845302BE02046FFF7CFFDC9
:1047A00000F006FB09E02046FFF7C9FD00F000FB22
:1047B0002046FFF76AFD00283DD101F003F9A56B03
:1047C000002DBDD1019B002BD6D0002FD8D001F0F9
:1047D0001BF900F053FA01F0F5F894F844305BB29D
:1047E000B3F1FF3FD1D094F845305BB2B3F1FF3F56
:1047F000CFD001F009F901A902A800F029FC002896
:10480000D1D12046FFF741FD0028C6D0019904F11F
:10481000240000F097FB2046FFF791FD00F0C8FA56
:104820000028CAD1054B4FF080521A60BFF34F8F5A
:10483000BFF36F8FC1E700208DE700BF04ED00E0FC
:104840000023072B0CD8074A52F833200AB1013352
:10485000F7E7044A42F8331002EBC303586070478D
:10486000704700BFBC4A022070B504460D4616468C
:1048700001F0A8F894F844305BB2B3F1FF3F0DD0DB
:1048800094F845305BB2B3F1FF3F0BD001F0BCF8B8
:10489000A36B5BB12046FFF752FD70BD002384F887
:1048A0004430EDE7002384F84530EFE732462946EF
:1048B00004F1240000F05EFBECE70000084B1B68ED
:1048C0001B6823B9074B4FF0FF321A607047044B47
:1048D0001B68DB68DB685A68024B1A60704700BFD0
:1048E000740200204C03002010B50446006B00F059
:1048F000C9FF204600F0C6FF10BD2DE9F0478046F5
:104900009946089D099F0A9C266B02F18042013A54
:1049100006EB820626F0070600230F2B06D8CA5C9A
:10492000E01880F834200AB10133F6E7002384F858
:104930004330062D00D90625E56265644FF0000A74
:10494000C4F848A0201DFFF756FC04F11800FFF73B
:1049500052FC2461C5F10705A5616462C4F84CA04E
:1049600084F850A04A464146304601F001F82060E4
:1049700007B13C60BDE8F08738B50024062C08D8A4
:1049800004EB840293000E481844FFF729FC01341D
:10499000F4E70C4D2846FFF723FC0B4C2046FFF7AD
:1049A0001FFC0A48FFF71CFC0948FFF719FC0948DF
:1049B000FFF716FC084B1D60084B1C6038BD00BF9C
:1049C0007C02002020030020340300205403002038
:1049D000800300206C030020740200207802002075
:1049E00010B5044600F0EEFF204A1368013313604F
:1049F0001F4B1B685BB11F4B1B686BB91C4B1B68C3
:104A0000DA6AE36A9A4207D8194B1C6004E0184B33
:104A10001C601368012B26D0174A136801331360FA
:104A2000E36A01229A401549086802430A6003EBD1
:104A300083039A00211D12481044FFF7DFFB00F0AA
:104A4000E3FF0C4B1B686BB1094B1B68DA6AE36A26
:104A50009A4207D20B4B4FF080521A60BFF34F8F30
:104A6000BFF36F8F10BDFFF787FFD5E70803002066
:104A70007002002068030020180300201C0300209F
:104A80007C02002004ED00E00F4B1B68D3B110B591
:104A900000F098FF0D4BDB68DC68201DFFF7D3FBAF
:104AA0000B4A1368013B1360074A1368013B13600C
:104AB00000F0AAFF2046FFF717FF034B1B68002BEF
:104AC000E6D110BD704700BF0C030020800300201A
:104AD0000803002008B5FFF7D7FF064B1B68012B22
:104AE000F9D9054B4FF080521A60BFF34F8FBFF3D7
:104AF0006F8FF0E77C02002004ED00E070B5044603
:104B00000E461D4B1D681D4B18680430FFF79BFBBC
:104B100050B91A4B1B68DA6A012303FA02F21849EA
:104B20000B6823EA02030B60B4F1FF3F0DD02C4465
:104B3000124B1B685C60A54210D9124B18680F4BD2
:104B400019680431FFF765FB70BD002EEFD00B4BE9
:104B5000196804310C48FFF751FBF5E70B4B186857
:104B6000064B19680431FFF754FB094B1B68A3423D
:104B7000EAD9074B1C60E7E794030020700200208D
:104B80001C030020780200206C0300207402002027
:104B90004C0300202DE9F04385B0074688461446B3
:104BA0009946900000F0EAFDE8B10646542000F076
:104BB000E5FD054698B10663D5B100230393029540
:104BC0000D9B01930C9B00934B4622464146384671
:104BD000FFF793FE2846FFF703FF012005E030466C
:104BE00000F050FEE8E74FF0FF3005B0BDE8F0837D
:104BF0004FF0FF30F9E7000000B583B0194B019387
:104C000000230093802218491848FFF7C3FF0128AA
:104C100007D0012808D0B0F1FF3F1AD003B05DF8EB
:104C200004FB00F049FBF4E74FF0100383F3118815
:104C3000BFF36F8FBFF34F8F0D4B4FF0FF321A60F2
:104C40000C4B01221A600C4B00221A6000F05CFF32
:104C5000E4E74FF0100383F31188BFF36F8FBFF3C6
:104C60004F8FFEE74803002074A60008D54A0008CD
:104C70004C0300206803002094030020024A1368BC
:104C800001331360704700BF14030020014B186804
:104C9000704700BF94030020F8B53A4B1B68002B07
:104CA00064D1394B1D6801351D60C5B9374B1B6890
:104CB0001B6843B14FF0100383F31188BFF36F8F6C
:104CC000BFF34F8FFEE7314A1168314B186810600F
:104CD0001960304A136801331360FFF7EFFD2E4B64
:104CE0001B68AB4238D900242C4B1B68DB6A03EBF2
:104CF00083039A002A4B9B58012B3CD901243AE0AC
:104D00000124224B1B681B6843B3204B1B68DB68E4
:104D1000DE6873689D4226D3371D3846FFF793FA45
:104D2000B36A1BB106F11800FFF78DFAF36A01228E
:104D30009A401C49086802430A6003EB83039A0007
:104D4000394617481044FFF759FAF26A134B1B68AB
:104D5000DB6A9A42D4D2D4E70024D2E70E4B4FF05C
:104D6000FF321A60C0E70C4A1360BDE70E4A1368B1
:104D70000133136000240D4B1B6803B1012420464E
:104D8000F8BD00BF1403002094030020740200202B
:104D900078020020500300204C0300207002002005
:104DA0007C0200201C030020100300209803002038
:104DB00038B5344B1B6843B94FF0100383F31188A7
:104DC000BFF36F8FBFF34F8FFEE700F0FBFD2D4B5E
:104DD0001A68013A1A601B68002B4DD12A4B1B68D8
:104DE0000BB9002449E00024284B1B681BB3274B58
:104DF000DB68DC6804F11800FFF725FA251D28465A
:104E0000FFF721FAE36A01229A4021490868024328
:104E10000A6003EB83039A0029461E481044FFF7FB
:104E2000EDF9E26A1C4B1B68DB6A9A42DCD31B4B30
:104E300001221A60D8E70CB1FFF740FD184B1C683F
:104E400074B9164B1C68C4B1164B4FF080521A60EF
:104E5000BFF34F8FBFF36F8F01240EE0013C07D0EB
:104E6000FFF71AFF0028F9D00C4B01221A60F5E772
:104E70000B4B00221A60E4E7002400F0C5FD204639
:104E800038BD00BF14030020080300205403002095
:104E90001C0300207C0200207002002098030020E8
:104EA0001003002004ED00E0214B1B681BB1214BD7
:104EB00001221A6070471F4B00221A601E4B1B68AC
:104EC000B3FA83F3DBB2C3F11F0303EB83018A0060
:104ED0001A498A5842B94FF0100383F31188BFF37F
:104EE0006F8FBFF34F8FFEE710B414489A00D418A9
:104EF000A10001444C6864684C601A449100083178
:104F0000084484420BD003EB83039A000B4B1344F9
:104F10005B68DA680A4B1A605DF8044B704760689A
:104F200003EB83029100054A0A445060EBE700BF9F
:104F300014030020980300201C0300207C020020A2
:104F40007002002058B110B50C46094B1968183191
:104F5000FFF75FF901212046FFF7D0FD10BD4FF0AC
:104F6000100383F31188BFF36F8FBFF34F8FFEE7FA
:104F70007002002038B570B10C4615460A4A116817
:104F80001831FFF73BF90DB14FF0FF3429462046A9
:104F9000FFF7B4FD38BD4FF0100383F31188BFF362
:104FA0006F8FBFF34F8FFEE77002002038B5C368E4
:104FB000DC6824B304F118052846FFF744F9184BC0
:104FC0001B682BBB251D2846FFF73DF9E36A01222C
:104FD0009A401449086802430A6003EB83039A006D
:104FE000294611481044FFF709F9E26A0F4B1B6884
:104FF000DB6A9A4211D901200D4B18600EE04FF088
:10500000100383F31188BFF36F8FBFF34F8FFEE759
:1050100029460848FFF7F2F8E7E7002038BD00BF4F
:10502000140300201C0300207C02002070020020DA
:105030009803002054030020034B1B680360034BBC
:105040001B684360704700BF50030020940300209A
:10505000F8B5C8B1054601B30C4600F0B3FC1B4BD4
:1050600019686B68C81A2268B2F1FF3F26D02F6812
:10507000174E3668B74201D08B4224D9824215D8E8
:105080000023236001241AE04FF0100383F31188FA
:10509000BFF36F8FBFF34F8FFEE74FF0100383F323
:1050A0001188BFF36F8FBFF34F8FFEE75B1A134476
:1050B00023602846FFF7C0FF002400E0002400F032
:1050C000A3FC2046F8BD0124F9E700BF94030020AB
:1050D00050030020014B01221A6070479803002002
:1050E000054B1B6833B1054B1B680BB100207047A3
:1050F000022070470120704768030020140300203D
:1051000000284CD038B50446274A1268824208D09D
:105110004FF0100383F31188BFF36F8FBFF34F8FEE
:10512000FEE7826C42B94FF0100383F31188BFF39E
:105130006F8FBFF34F8FFEE7013A8264C06A616CE4
:1051400088422ED00AB1002038BD251D2846FFF721
:105150007AF870B9E26A02EB82018B001349CB58EE
:105160003BB9012303FA02F211490B6823EA020357
:105170000B60636CE362C3F10702A261012404FACD
:1051800003F20B49086802430A6003EB83039A00A9
:10519000294606481044FFF731F82046D4E700209E
:1051A00070470020D0E700BF700200207C02002082
:1051B0001C030020064B1A681368B3FA83F35B09DB
:1051C000036013B9D368186870470020704700BFA8
:1051D0009C03002008B54160006191420CD8D21AAE
:1051E00083699A4201D3012008BD011D094B18684B
:1051F000FFF70FF80020F7E79A4201D2994206D252
:10520000011D054B1868FFF704F80020ECE70120AA
:10521000EAE700BFA00300209C03002038B500F09F
:10522000D1FB0F4B1B6813B100F0EEFB38BD0D4DE9
:105230002846FEF7D5FF0C4C2046FEF7D1FF0B4B5E
:105240001D600B4B1C6000220C210A20FFF7FEF8AA
:10525000034B18600028E7D00649FFF7F1FAE3E7AF
:10526000D0030020A4030020B80300209C030020EA
:10527000A00300207CA600082DE9F041079C41B95D
:105280004FF0100383F31188BFF36F8FBFF34F8F7D
:10529000FEE70F4674B11D4616468046FFF7BEFF77
:1052A000C4F80080A761E6612562069B6362201D49
:1052B000FEF7A1FFBDE8F08100B583B0FFF7AEFFB8
:1052C0000D4B1B685BB10D4B01930323009300232F
:1052D0004FF480720A490B48FFF75CFC40B94FF06D
:1052E000100383F31188BFF36F8FBFF34F8FFEE777
:1052F00003B05DF804FB00BFD0030020D4030020FE
:1053000084A60008015600082DE9F04182B0054648
:105310000E4617469846282000F030FA044640B161
:105320000190089B009343463A4631462846FFF7D2
:10533000A3FF204602B0BDE8F0810000C0B130B547
:1053400085B015460446174A106840B31A460191C5
:105350000295039405291CDCFFF7C2FE022810D039
:1053600000231A4601A90F480068FFF793F814E0DC
:105370004FF0100383F31188BFF36F8FBFF34F8F8C
:10538000FEE70023089A01A906480068FFF782F8A3
:1053900003E0002301A9FFF73DF905B030BD00206F
:1053A000FBE700BFD003002070B582B01A4B1B682A
:1053B0001A6852B3DB681E68DC68251D2846FEF7B4
:1053C00042FF636A20469847E369012BEED1A36947
:1053D00033449E4207D26360246129460E4B18680D
:1053E000FEF717FFE2E7002100910B463246204608
:1053F000FFF7A4FF0028D9D14FF0100383F31188E1
:10540000BFF36F8FBFF34F8FFEE7044A1068024966
:105410000860136002B070BD9C030020A003002050
:1054200038B50546FFF732FC0446074B1B6883423C
:1054300005D800232B60044B1C60204638BDFFF7C5
:10544000B3FF01232B60F6E7CC03002070B582B0D8
:1054500005460E46144B1B68DB68DC68201DFEF712
:10546000F2FEE369012B04D0636A2046984702B03C
:1054700070BDA1692B46324629442046FFF7AAFE9B
:105480000028F1D0002100910B462A462046FFF764
:1054900055FF0028E8D14FF0100383F31188BFF3C4
:1054A0006F8FBFF34F8FFEE79C03002070B582B073
:1054B00006460C46FFF7E2FB01A8FFF7B1FF019B90
:1054C0001BBB05460CB9B04218D22CB1114B1B685E
:1054D0001C68B4FA84F464092246711B0E4B1868E8
:1054E000FFF7C2F9FFF764FC88B90C4B4FF080520C
:1054F0001A60BFF34F8FBFF36F8F08E0FFF758FCC0
:1055000029463046FFF7A2FF01E0FFF751FC02B049
:1055100070BD00BFA0030020D003002004ED00E018
:1055200030B587B0002203A9344B1868FFF7DAF8CA
:10553000002860D0039B002BF4DB059C636913B14A
:10554000201DFEF780FE02A8FFF76AFF039B092BD0
:10555000E8D801A252F823F08155000881550008CF
:105560008155000825550008C9550008EF55000869
:10557000815500088155000825550008C9550008C7
:105580000499A5690B46024629442046FFF722FEEE
:105590000028C7D0636A20469847E369012BC1D130
:1055A000A269002100910B46049802442046FFF7AF
:1055B000C5FE0028B6D14FF0100383F31188BFF366
:1055C0006F8FBFF34F8FFEE70499A16131B103469E
:1055D000024601442046FFF7FDFDA3E74FF010030C
:1055E00083F31188BFF36F8FBFF34F8FFEE7204621
:1055F00000F048F996E707B030BD00BFD0030020A7
:1056000000B583B001A8FFF7D5FD0199FFF74EFF64
:10561000FFF786FFF6E7EFF30580003018BF0120A3
:10562000704708B5FFF7E8FA002008BD00B583B061
:105630001346012909D00022016800910121044884
:10564000FFF762FE03B05DF804FB0122F4E700BF40
:10565000C8A5000830B585B00546002303930C4665
:1056600001B90124FFF7D7FFC0B10023009303ABBA
:10567000224609212846FFF761FE012802D0FF20BB
:1056800005B030BD039BB3B10C4B4FF080521A6094
:10569000BFF34F8FBFF36F8F0020F1E7002300931C
:1056A000224604212846FFF749FE012801D0FF20A9
:1056B000E6E70020E4E70020E2E700BF04ED00E0B9
:1056C000124A12F0070F07D0D11D21F00701C1F5D2
:1056D000103313440A4601E04FF410330C480260C3
:1056E000002141601344083B23F00703094803608D
:1056F00059601960991A51601360074B1960074B84
:105700001960074B4FF000421A607047DC0300201D
:10571000E8430220D8030020E4430220E0430220B3
:10572000DC43022010B4134A00E01A461368834297
:10573000FBD35168541884420AD041684418A342EC
:105740000BD00360904200D010605DF8044B7047AE
:105750004068014451601046EFE7074C2468A342BB
:1057600006D05B681944416013681B680360E9E771
:105770000460E7E7E8430220D803002070B5044640
:10578000FFF77CFA3A4B1B68BBB13A4B1B681C42D3
:1057900056D1ACB1083414F0070F11D024F007042F
:1057A000083404F007035BB14FF0100383F3118852
:1057B000BFF36F8FBFF34F8FFEE7FFF781FFE4E783
:1057C000002C3FD02C4B1B68A3424AD32B4B1D68A7
:1057D00001E02B4615466A68A24202D22A68002AD6
:1057E000F7D1234A1268AA423DD01E6808362A68BB
:1057F0001A606B681B1B102B10D9281910F0070FAB
:1058000008D04FF0100383F31188BFF36F8FBFF3FD
:105810004F8FFEE743606C60FFF784FF6A681649AC
:105820000B689B1A0B60164909688B4201D2144918
:105830000B60104B1B6813436B6000232B6002E06E
:10584000002600E00026FFF7B3FA16F0070F0CD091
:105850004FF0100383F31188BFF36F8FBFF34F8FA7
:10586000FEE70026EFE70026EDE7304670BD00BFFB
:10587000D8030020DC430220E0430220E84302205A
:10588000E443022080B338B50446A0F1080550F87F
:10589000042C164909680A4208D14FF0100383F31B
:1058A0001188BFF36F8FBFF34F8FFEE750F8080CDE
:1058B00040B14FF0100383F31188BFF36F8FBFF334
:1058C0004F8FFEE722EA010244F8042CFFF7D6F9D5
:1058D00054F8041C064A13680B4413602846FFF76B
:1058E00021FFFFF765FA38BD704700BFDC43022097
:1058F000E043022082B0002301930D4B1B68B3F1FB
:10590000FF3F08D04FF0100383F31188BFF36F8F70
:10591000BFF34F8FFEE74FF0100383F31188BFF3FF
:105920006F8FBFF34F8F019B002BFCD002B07047ED
:105930000000002008480068006880F308884FF0E5
:10594000000080F3148862B661B6BFF34F8FBFF3D7
:105950006F8F00DF00BF000008ED00E0DFF80C00F3
:10596000016841F4700101607047000088ED00E0BB
:105970004FF0807340F8043C21F0010140F8081C0E
:10598000054B40F80C3C40F8202C6FF0020340F827
:10599000243C4438704700BFF55800080000000060
:1059A000074B19680868B0E8F04F80F30988BFF327
:1059B0006F8F4FF0000080F311887047AFF30080C5
:1059C000700200204FF0100383F31188BFF36F8F34
:1059D000BFF34F8F0A4A136801331360012B00D0C5
:1059E0007047084B1B6813F0FF0FF9D04FF01003FE
:1059F00083F31188BFF36F8FBFF34F8FFEE700BFB4
:105A00000000002004ED00E0094B1B6843B94FF093
:105A1000100383F31188BFF36F8FBFF34F8FFEE73F
:105A2000013B034A13600BB983F31188704700BF31
:105A30000000002000000000000000000000000046
:105A4000EFF30980BFF36F8F154B1A681EF0100F2C
:105A500008BF20ED108A20E9F04F10602DE9090001
:105A60004FF0100080F31188BFF34F8FBFF36F8F9B
:105A7000FFF71AFA4FF0000080F3118809BC19688B
:105A80000868B0E8F04F1EF0100F08BFB0EC108AA5
:105A900080F30988BFF36F8F704700BFAFF30080BA
:105AA0007002002008B54FF0100383F31188BFF394
:105AB0006F8FBFF34F8FFFF7EFF818B1034B4FF025
:105AC00080521A60002383F3118808BD04ED00E0C2
:105AD000084A0023136008490B60084B1B680849FB
