:020000040800F2
:100000000000052055500008694E00086B4E00089E
:100010006D4E00086F4E0008714E00080000000091
:100020000000000000000000000000006141000826
:10003000734E0008000000000142000865420008FD
:10004000A5500008A5500008A5500008A5500008BC
:10005000A5500008A5500008A5500008A5500008AC
:10006000A5500008A5500008A5500008A55000089C
:10007000A5500008A5500008A5500008A55000088C
:10008000A5500008A5500008A5500008A55000087C
:10009000A5500008A5500008A5500008A55000086C
:1000A000A5500008754E0008A5500008A55000088E
:1000B000A5500008A5500008A5500008A55000084C
:1000C000A5500008A5500008A5500008B54E00082E
:1000D000C54E0008A5500008854E0008954E000842
:1000E000A5500008A5500008A5500008A55000081C
:1000F000A5500008A5500008A5500008A55000080C
:10010000A5500008A5500008A5500008D54E0008CD
:10011000A5500008A54E0008A5500008A5500008ED
:10012000A5500008A5500008A5500008A5500008DB
:10013000A5500008A5500008A5500008A5500008CB
:10014000A5500008A5500008A5500008A5500008BB
:10015000A5500008A5500008A5500008A5500008AB
:10016000A5500008A5500008A5500008A55000089B
:10017000A5500008A5500008A55000080000000088
:10018000A5500008A5500008A5500008A55000087B
:10019000A5500008A5500008A5500008A55000086B
:1001A000A5500008A5500008000000000000000055
:1001B00010B5054C237833B9044B13B10448AFF3A1
:1001C00000800123237010BD70000020000000009B
:1001D000105B000808B5034B1BB103490348AFF39C
:1001E000008008BD0000000074000020105B0008C3
:1001F00053B94AB9002908BF00281CBF4FF0FF318E
:100200004FF0FF3000F074B9ADF1080C6DE904CE89
:1002100000F006F8DDF804E0DDE9022304B07047E1
:100220002DE9F047089E04468846002B40F0858063
:100230008A42154648D9B2FA82F24AB1C2F1200781
:1002400001FA02F320FA07F7954047EA03089440C1
:100250004FEA154E230CB8FBFEF71FFA85FC0EFB88
:10026000178843EA084307FB0CF1994209D9EB18B8
:1002700007F1FF3080F0E380994240F2E080023FD6
:100280002B445B1AA4B2B3FBFEF00EFB103344EA1E
:10029000034400FB0CFCA44509D92C1900F1FF33E1
:1002A00080F0CB80A44540F2C88002382C4440EA5C
:1002B0000740A4EB0C0400271EB1D4400023C6E97C
:1002C00000433946BDE8F087002A53D0B2FA82F2E3
:1002D000002A40F0B680491B4FEA154E1FFA85F8F8
:1002E0000127B1FBFEFC230C0EFB1C1143EA01436A
:1002F00008FB0CF1994207D9EB180CF1FF3002D240
:10030000994200F2EC808446591AA3B2B1FBFEF088
:100310000EFB101443EA044408FB00F8A04507D97B
:100320002C1900F1FF3302D2A04500F2DC80184600
:10033000A4EB080440EA0C40BEE78B4208D9002E2B
:1003400078D00027C6E9000138463946BDE8F08775
:10035000B3FA83F77FB98B4202D3824200F2BD80A9
:10036000841A61EB030301209846002EA9D0C6E948
:100370000048A6E7FFDEC7F12005BB4022FA05FCD6
:100380004CEA030C01FA07F420FA05F821FA05F308
:100390004FEA1C4E48EA0404B3FBFEF9210C0EFBA5
:1003A00019331FFA8CF841EA034309FB08FA9A450E
:1003B00002FA07F200FA07F10BD91CEB030309F16B
:1003C000FF3080F088809A4540F28580A9F10209CB
:1003D0006344A3EB0A03A4B2B3FBFEF00EFB10339D
:1003E00044EA034400FB08F8A04508D91CEB0404C8
:1003F00000F1FF336BD2A04569D90238644440EA6A
:100400000940A4EB0804A0FB02894C45C6464B46B4
:1004100054D351D0002E69D0B1EB0E0264EB03042B
:1004200004FA05F522FA07F3FC401D43C6E900541F
:10043000002746E73746304643E7184637E7074682
:100440001FE7C2F1200320FA03F7954001FA02F0FA
:1004500021FA03F34FEA154E3843010CB3FBFEF7C4
:100460001FFA85F80EFB173341EA034107FB08F337
:100470008B4204FA02F407D9691807F1FF3C28D22D
:100480008B4226D9023F2944CB1A81B2B3FBFEF03E
:100490000EFB103341EA034100FB08F38B4207D9FE
:1004A000691800F1FF3C10D28B420ED90238294462
:1004B000C91A40EA074714E74145ABD2B8EB020E30
:1004C00069EB0C0201381346A4E76046F0E71846D2
:1004D00095E76746D8E781467BE7384645E7ACF1C4
:1004E000020C2B4410E702382C4421E73746E8E69B
:1004F000704700BF08B5012003F06EFCFBE7000069
:1005000038B5104C204604F077FE0F4D284604F015
:1005100073FE0E4804F070FE284604F06DFE20467F
:1005200004F06AFE0A4C4FF40041204602F013F931
:100530004FF4FA6001F00AF84FF40041204602F04F
:100540000AF938BD6C5B0008705B00089C5B000812
:10055000000C004800B587B000F0DBFF04F0C2FCDF
:1005600000F03BF8FFF7CCFF104804F045FE01AC6B
:100570000F4D0FCD0FC42B682360002101A803F09D
:1005800011FC0C4B1860002004F014F90A4B009386
:1005900000220121684603F029FC084B186041F253
:1005A000883103F037FC03F0F8FBFEE73C5B000802
:1005B000285B000828420220B547000804480220B2
:1005C00008B50268034B9A4200D008BD00F0B0FFA6
:1005D000FBE700BF002C0140704708B504F07EF92E
:1005E00008BD002859D010B5044690F84130002BC2
:1005F00043D0242384F841302268136823F0010398
:1006000013606368226823F0706313612268936843
:1006100023F400439360E368012B33D0A36822687E
:1006200043F404439360E368022B31D0226853689B
:1006300043F0007343F4004353602268D36823F40B
:100640000043D360236962691343A169226843EAC6
:100650000123D360E369216A22680B431360226897
:10066000136843F00103136000206064202384F8C2
:100670004130206384F8420010BD80F8403004F01F
:100680007DF9B6E7A368226843F400439360CAE7A4
:1006900023684FF400625A60C8E70120704790F861
:1006A0004130DBB2202B27D190F84030012B25D0F0
:1006B00010B4012380F84030242380F841300468CE
:1006C000226822F0010222600468226822F480522B
:1006D0002260026813680B4313600268136843F0DA
:1006E00001031360202380F84130002380F840305C
:1006F00018465DF8044B704702207047022070478F
:1007000090F84130DBB2202B25D190F84030012BFE
:1007100023D010B4012380F84030242380F84130E6
:100720000468226822F0010222600268136823F440
:10073000706343EA012313600268136843F0010306
:100740001360202380F84130002380F840301846A1
:100750005DF8044B70470220704702207047002864
:1007600053D010B504460023836290F85D30002B0F
:1007700040D0022384F85D302268136823F04003E0
:100780001360E368B3F5E06F39D90022B3F5706FF9
:1007900004D0B3F5E06F01D00021A162216B21B933
:1007A000B3F5E06F2ED9022323636368A1680B437E
:1007B00021690B4361690B43A16901F400710B438B
:1007C000E1690B43216A0B43A06A216803430B6074
:1007D000638B03F00403616A0B43616B0B43E168B5
:1007E0000B43216813434B6000202066012384F8EB
:1007F0005D3010BD80F85C3004F04AFAB9E74FF480
:100800008052C3E701232363CFE70120704770477D
:1008100030B585B00446026850689368C3F3801110
:1008200029B913F0010F02D010F0400F67D113F077
:10083000020F02D010F0800F65D1C3F340151DB92F
:1008400011B913F4807F61D010F0200F5ED079B120
:1008500094F85D10C9B203295AD0216E41F0040109
:10086000216600210091D168009191680091009962
:1008700065B1216E41F0010121660021029191686C
:100880000291116821F040011160029A13F4807FF7
:1008900009D0236E43F008032366002303932368E3
:1008A0009B680393039B236E002B2FD02268536811
:1008B00023F0E0035360012384F85D3010F0030F50
:1008C0002ED02268536823F003035360A36D4BB10D
:1008D000154A9A63A06D01F042FF18B1236E43F0F0
:1008E00040032366636D8BB10F4A9A63606D01F01C
:1008F00036FF58B1236E43F04003236606E0E36CF5
:100900002046984702E0236D2046984705B030BD49
:1009100000230193D368019393680193019BF5E74A
:100920002046FFF774FFF1E72D09000808B5806A3B
:100930000023A0F84630C387FFF769FF08BD40B326
:1009400038B5044603684CF6CC421A60036845F299
:1009500055521A60036842685A60036882689A6058
:1009600000F0EEFD05462368DA6832B100F0E8FDDC
:10097000401B3028F7D9032038BD1969E26891423D
:1009800002D01A610020F7E74AF6AA221A60002076
:10099000F2E7012070470268136823F49073136034
:1009A0000268936823F001039360202380F872307B
:1009B000002303667047704708B501680A6822F093
:1009C00040020A60202280F8712000224266FFF770
:1009D000F2FF08BD7047000038B504460268D369CD
:1009E0001168906813F00F0505D113F0200F02D0A5
:1009F00011F0200F19D12DB110F001051BD111F408
:100A0000907F18D113F4801F02D010F4800F7DD195
:100A100013F0800F02D011F0800F7ED113F0400F41
:100A200002D011F0400F7ED138BD236E002BFBD0D9
:100A300020469847F8E713F0010F07D011F4807FA4
:100A400004D001201062626F0243626713F0020F4C
:100A500007D035B1226802201062626F42F00402B2
:100A6000626713F0040F07D035B1226804201062CA
:100A7000626F42F00202626713F0080F09D011F0B2
:100A8000200F00D12DB1226808201062626F02434E
:100A90006267626F002AC7D013F0200F06D011F0F2
:100AA000200F03D0236E0BB120469847636F13F0DD
:100AB000080F04D123689B6813F0400F20D0204614
:100AC000FFF769FF23689A6812F0400F14D09A6804
:100AD00022F040029A60E36E53B1154A9A63E06EC9
:100AE00001F03DFE00289FD0E06E836B98479BE7A6
:100AF0002046FFF76FFF97E72046FFF76BFF93E76E
:100B00002046FFF767FF002363678DE74FF48013EC
:100B10001362204600F08EFB86E7636E002B83D0C5
:100B20002046984780E72046FFF746FF7CE700BF56
:100B3000350B000808B5806A0023A0F85A30A0F8E9
:100B40005230FFF747FF08BD2DE9F0480446016821
:100B500083680269134342691343C26913430868F7
:100B6000994A024013430B602268536823F44053B0
:100B7000E1680B435360A1692268944B9A4201D00B
:100B8000236A1943936823F430630B43936023680B
:100B90008F4A934211D08F4A934222D08E4A934279
:100BA00038D08E4A934260D08D4A934273D0874AA0
:100BB000934200F0898010253FE002F55842D2F8B8
:100BC000882002F00302032A09D8DFE802F00204B9
:100BD0009606012531E004252FE008252DE010259B
:100BE0002BE002F5E632D2F8882002F00C020C2A43
:100BF0000ED8DFE802F0070D0D0D090D0D0D840D67
:100C00000D0D0B00002518E0042516E0082514E062
:100C1000102512E002F5E432D2F8882002F030020A
:100C2000102A6ED005D9202A6DD0302A1BD1082574
:100C300003E00AB9002500E01025644A934270D011
:100C4000E369B3F5004F00F0F280082D00F27681E1
:100C5000DFE815F03B014C0156017401610174019C
:100C6000740174016B011025E7E702F5E232D2F856
:100C7000882002F0C002402A47D005D9802A46D0F9
:100C8000C02A06D10825D8E70AB90025D5E71025DE
:100C9000D3E71025D1E702F5E032D2F8882002F43C
:100CA0004072B2F5807F34D007D9B2F5007F32D0E0
:100CB000B2F5407F06D10825BFE70AB90025BCE799
:100CC0001025BAE71025B8E702F5C832D2F8882017
:100CD00002F44062B2F5806F1FD007D9B2F5006F01
:100CE0001DD0B2F5406F06D10825A6E70AB9002548
:100CF000A3E71025A1E710259FE702259DE7022520
:100D00009BE7042599E7022597E7042595E7022547
:100D100093E7042591E702258FE704258DE7022557
:100D20008BE7082D00F20D81DFE815F00C000B01B8
:100D300014000B0111000B010B010B0109004FF412
:100D4000004008E001F050F828B9002504E100F067
:100D500055FCF9E72348626802EB4203834200F244
:100D6000F280B0EB023F00F2F080082D5CD8DFE8A3
:100D700005F0055B1D5B3F5B5B5B500001F034F8E9
:100D80000023070E06026268500816EB000B47F1BD
:100D9000000C58466146FFF72BFAA0F54072124B43
:100DA0009A4200F2D4802368D860D5E05608002526
:100DB0002B46DFF838B04FF0000C1BEB06004CF16F
:100DC0000001FFF715FAE8E7F369FFEF0080004044
:100DD000003801400044004000480040004C004002
:100DE000005000400024F400FFFC0F00000024F439
:100DF00000F004FC0025070E0602626850082B462E
:100E000016EB000B47F1000C58466146FFF7F0F96E
:100E1000C3E7500800252B4610F500002CBF012128
:100E20000021FFF7E5F9B8E701250020B5E7082D17
:100E300048D8DFE805F0051D2847334747473E00FF
:100E400000F0D2FF6268530803EB4003B3FBF2F3F8
:100E50009BB2A3F110014FF6EF72914279D89AB28A
:100E600022F00F02C3F3420313432268D36073E0FE
:100E700000F0CCFF6268530803EB4003B3FBF2F3CE
:100E80009BB20025E5E76268530803F1F47303F5AC
:100E90009043B3FBF2F39BB20025DAE700F0AEFB20
:100EA0006268530803EB4003B3FBF2F39BB20025E7
:100EB000CFE76268530803F58033B3FBF2F39BB2CC
:100EC0000025C6E701250023C3E700F08DFF636816
:100ED00000EB5300B0FBF3F080B2A0F110024FF62C
:100EE000EF739A4237D82368D86035E000F08EFF60
:100EF000636800EB5300B0FBF3F080B20025ECE731
:100F00006368580800F5740000F51050B0FBF3F06A
:100F100080B20025E1E700F071FB636800EB53004D
:100F2000B0FBF3F080B20025D7E76368580800F5FE
:100F30000040B0FBF3F080B20025CEE70125002091
:100F4000CBE7012508E0012506E0012504E00125A5
:100F500002E0012500E001250023236663662846A0
:100F6000BDE8F088436A13F0010F06D002685368A9
:100F700023F40033816A0B435360436A13F0020F7A
:100F800006D00268536823F48033C16A0B43536070
:100F9000436A13F0040F06D00268536823F48023D9
:100FA000016B0B435360436A13F0080F06D00268CD
:100FB000536823F40043416B0B435360436A13F0BF
:100FC000100F06D00268936823F48053816B0B43A3
:100FD0009360436A13F0200F06D00268936823F4ED
:100FE0000053C16B0B439360436A13F0400F0AD068
:100FF0000268536823F48013016C0B435360036C45
:10100000B3F5801F0BD0436A13F0800F06D002683F
:10101000536823F40023816C0B43536070470268CC
:10102000536823F4C003416C0B435360EBE72DE995
:10103000F04105460F4616469846069C2B68DB692C
:1010400037EA03030CBF01230023B3421DD1B4F1DF
:10105000FF3FF3D02CB100F073FAA0EB0800A042E0
:10106000ECD92A68136823F4D07313602A68936854
:1010700023F001039360202385F8713085F87230E6
:10108000002385F87030032000E00020BDE8F081E7
:101090002DE9F04182B01E4690F87130DBB2202B72
:1010A0004ED104460D46904600294ED0002A4ED01F
:1010B00090F87030012B4CD0012380F87030002361
:1010C0004367212380F8713000F03AFA0746A4F80C
:1010D0005080A4F8528009E0236815F8012B1A8586
:1010E000B4F85230013B9BB2A4F85230B4F85230FD
:1010F0009BB2ABB100963B46002280212046FFF711
:1011000096FF40BBA368B3F5805FE5D12369002B50
:10111000E2D1226835F8023BC3F308031385DFE709
:1011200000963B46002240212046FFF780FF034601
:1011300098B9202284F87120002284F8702000E001
:101140000223184602B0BDE8F0810123F9E701232C
:10115000F7E70223F5E70323F3E70323F1E730B5CD
:1011600083B004460023436700F0EAF9054623688C
:101170001B6813F0080F0ED123681B6813F0040FCF
:1011800017D1202384F8713084F87230002084F85D
:10119000700003B030BD6FF07E4300930346002221
:1011A0004FF400112046FFF742FF0028E4D003204F
:1011B000EFE76FF07E4300932B4600224FF480014F
:1011C0002046FFF734FF0028DBD00320E1E778B3A7
:1011D00010B5044690F871300BB3242384F87130B5
:1011E0002268136823F0010313602046FFF7ACFC6C
:1011F000012813D0636ABBB92268536823F4904373
:1012000053602268936823F02A039360226813686E
:1012100043F0010313602046FFF7A1FF10BD80F8E3
:10122000703003F071FCD8E72046FFF79BFEE3E740
:1012300001207047704770470268D36843F001038C
:10124000D36002689168084B0B40062B09D0916867
:10125000054B0B40B3F5803F03D0136843F0010307
:1012600013600020704700BF0700010070477047FF
:101270007047704710B5044603681A6912F0020FF0
:1012800011D0DA6812F0020F0DD06FF002021A616D
:101290000123037703689B6913F0030F79D0FFF7ED
:1012A000E6FF0023237723681A6912F0040F12D097
:1012B000DA6812F0040F0ED06FF004021A610223F4
:1012C000237723689B6913F4407F68D02046FFF79B
:1012D000CEFF0023237723681A6912F0080F12D07B
:1012E000DA6812F0080F0ED06FF008021A610423BA
:1012F00023772368DB6913F0030F57D02046FFF7ED
:10130000B6FF0023237723681A6912F0100F12D05A
:10131000DA6812F0100F0ED06FF010021A61082375
:1013200023772368DB6913F4407F46D02046FFF71C
:101330009EFF0023237723681A6912F0010F03D060
:10134000DA6812F0010F3FD123681A6912F0800F9A
:1013500003D0DA6812F0800F3DD123681A6912F4C5
:10136000807F03D0DA6812F0800F3BD123681A69BE
:1013700012F0400F03D0DA6812F0400F39D1236821
:101380001A6912F0200F03D0DA6812F0200F37D15B
:1013900010BDFFF76BFF2046FFF76AFF81E720468D
:1013A000FFF764FF2046FFF763FF92E72046FFF751
:1013B0005DFF2046FFF75CFFA3E72046FFF756FFDF
:1013C0002046FFF755FFB4E76FF001021A6120468F
:1013D000FFF7F6F8B8E76FF080021A61204600F0D8
:1013E00096F8BAE76FF480721A61204600F090F820
:1013F000BCE76FF040021A612046FFF73AFFBEE7F4
:101400006FF020021A61204600F080F8C0E700006B
:101410000368304A904212D0B0F1804F0FD0A2F54D
:10142000943290420BD002F58062904207D002F5D0
:101430008062904203D002F59432904203D123F0AF
:1014400070034A681343234A90421ED0B0F1804F84
:101450001BD0A2F59432904217D002F580629042E0
:1014600013D002F5806290420FD002F59432904280
:101470000BD002F54062904207D002F580629042A4
:1014800003D002F58062904203D123F44073CA680E
:10149000134323F080034A69134303608B68C362DC
:1014A0000B6883620B4B98420FD003F500639842A0
:1014B0000BD003F54063984207D003F58063984250
:1014C00003D003F58063984201D10B6903630123C4
:1014D00043617047002C0140B0B110B5044690F84C
:1014E0003D3063B1022384F83D30214651F8040BAE
:1014F000FFF78EFF012384F83D30002010BD80F8F7
:101500003C30FFF798FEEDE70120704770477047C9
:10151000704710B5032001F0A1F9002003F068FC2A
:1015200010B10124204610BD044603F007FAF9E784
:10153000024A136801331360704700BF64480220F9
:10154000014B1868704700BF6448022038B5044654
:10155000FFF7F6FF0546B4F1FF3F00D00134FFF777
:10156000EFFF401BA042FAD338BD000030B583B076
:101570000546204B9B6D13F0805F0BD001F018F9EE
:10158000B0F5007F17D0802D1FD82DD0702D2DD015
:1015900000211BE0174CA36D43F08053A365A36D9E
:1015A00003F080530193019B01F002F9A36D23F036
:1015B0008053A365E4E7802D03D9A02D03D9022130
:1015C00004E0002102E0012100E003210A4A13683F
:1015D00023F007030B431360136803F007038B42E8
:1015E00006D1002003B030BD0221EFE70121EDE775
:1015F0000120F7E70010024000200240314A9368C2
:10160000D26802F0030213F00C030AD00C2B06D0B0
:10161000042B1FD0082B20D00020014610E0012A07
:10162000F6D1284A126812F0080F0CD1254AD2F8D8
:101630009420C2F30322244951F8221043B1002020
:101640000C2B0DD070471F4A1268C2F30312F2E749
:101650000846F5E71D480021F2E71D480021EFE7A5
:10166000184BDA6802F00302DB68C3F3021301339C
:10167000022A0AD0032A1AD0B1FBF3F3114AD06828
:10168000C0F3062000FB03F008E01048B0FBF3F3C2
:101690000C4AD068C0F3062000FB03F0094BDB685E
:1016A000C3F3416301335B00B0FBF3F0CAE70848C2
:1016B000B0FBF3F3034AD068C0F3062000FB03F04D
:1016C000ECE700BF00100240E85B00080024F400D3
:1016D00000127A00002800F0C182F0B583B0044601
:1016E000AC4B9D6805F00C05DE6806F00306036848
:1016F00013F0100F5DD0E5B10C2D18D0A369002BAD
:1017000000F0B780A34A136843F001031360FFF7AA
:1017100017FF07469F4B1B6813F0020F40F096809F
:10172000FFF70EFFC01B0228F4D90323A2E2012E0B
:10173000E4D1984B1B6813F0020F03D0A369002B70
:1017400000F08F82206A934B1B6813F0080F5DD066
:10175000904B1B6803F0F00398425ED9FFF706FF39
:10176000002840F080828B4B1A6842F008021A6011
:101770001A6822F0F002216A0A431A605A6822F4B9
:101780007F42E16942EA01225A60FFF737FF814B4D
:101790009B68C3F30313804AD35C03F01F03D84054
:1017A0007E4B1860002003F023FB0346002840F026
:1017B0006182236813F0010F7AD0082D6FD00C2DB1
:1017C0006BD06368B3F5803F00F09180B3F5A02F34
:1017D00000F093806F4B1A6822F480321A601A6806
:1017E00022F480221A606368002B00F09380FFF7D8
:1017F000A7FE0746674B1B6813F4003F58D1FFF75D
:101800009FFEC01B6428F5D9032333E2614BD3F854
:1018100094301B0903F0F0039EE75E4B1A6842F018
:1018200008021A601A6822F0F002216A0A431A605C
:101830005A6822F47F42E16942EA01225A60206A32
:10184000FFF794FE0028A0D0012313E2514B1A6841
:1018500042F008021A601A6822F0F002216A0A4374
:101860001A605A6822F47F42E16942EA01225A6012
:101870009FE7484A136823F001031360FFF760FEF7
:101880000746444B1B6813F0020F92D0FFF758FE37
:10189000C01B0228F5D90323ECE1032E91D13D4B67
:1018A0001B6813F4003F03D06368002B00F0DD8158
:1018B000236813F0020F4FD0042D3CD00C2D38D0EC
:1018C000E368002B75D0334A136843F480731360C8
:1018D000FFF736FE06462F4B1B6813F4806F5FD16F
:1018E000FFF72EFE801B0228F5D90323C2E1294A07
:1018F000136843F48033136075E703F18043A3F565
:101900003C331A6842F480221A601A6842F480322A
:101910001A6068E7FFF714FE07461E4B1B6813F4B6
:10192000003FC5D0FFF70CFEC01B6428F5D9032388
:10193000A0E1022EC4D1174B1B6813F4806F03D0B3
:10194000E368002B00F09381124A536823F0FE43B2
:10195000216943EA01635360236813F0080F53D0F1
:101960006369002B39D00B4AD2F8943043F001035D
:10197000C2F89430FFF7E4FD0646064BD3F89430E6
:1019800013F0020F40D1FFF7DBFD801B0228F4D9D2
:1019900003236FE100100240D05B00080400002028
:1019A000B74A536823F0FE43216943EA0163536059
:1019B000D2E7B34A136823F480731360FFF7C0FDC6
:1019C0000646AF4B1B6813F4806FC5D0FFF7B8FD18
:1019D000801B0228F5D903234CE1A94AD2F89430A0
:1019E00023F00103C2F89430FFF7AAFD0646A44B8A
:1019F000D3F8943013F0020F06D0FFF7A1FD801B3F
:101A00000228F4D9032335E1236813F0040F7AD0B8
:101A10009B4B9B6D13F0805F36D1994B9A6D42F0D2
:101A200080529A659B6D03F080530193019B0126C0
:101A3000944B1B6813F4807F28D0A368012B39D006
:101A4000052B3FD08E4BD3F8902022F00102C3F833
:101A50009020D3F8902022F00402C3F89020A368CD
:101A6000002B3DD0FFF76CFD0746854BD3F8903037
:101A700013F0020F46D1FFF763FDC01B41F288331C
:101A80009842F2D90323F5E00026D1E77D4A136896
:101A900043F480731360FFF753FD0746794B1B68CF
:101AA00013F4807FC9D1FFF74BFDC01B0228F5D985
:101AB0000323DFE0724AD2F8903043F00103C2F80A
:101AC0009030CCE76E4BD3F8902042F00402C3F87C
:101AD0009020D3F8902042F00102C3F89020BEE796
:101AE000FFF72EFD0746664BD3F8903013F0020F38
:101AF00008D0FFF725FDC01B41F288339842F2D988
:101B00000323B7E0E6B9236813F0200F35D0636AEA
:101B1000E3B15B4AD2F8983043F00103C2F8983041
:101B2000FFF70EFD0646564BD3F8983013F0020F20
:101B300023D1FFF705FD801B0228F4D9032399E088
:101B40004F4A936D23F080539365DCE74C4AD2F8FB
:101B5000983023F00103C2F89830FFF7F1FC0646F5
:101B6000474BD3F8983013F0020F06D0FFF7E8FC8C
:101B7000801B0228F4D903237CE0A36A002B78D0D1
:101B80000C2D7AD0022B23D03D4B1A6822F08072A4
:101B90001A601B6813F0205F04D1394AD36823F020
:101BA0000303D360364AD36823F0887323F4803369
:101BB000D360FFF7C5FC0446314B1B6813F0007F70
:101BC0004AD0FFF7BDFC001B0228F5D9032351E0E2
:101BD0002B4A136823F080731360FFF7B1FC0546AE
:101BE000274B1B6813F0007F06D0FFF7A9FC401BB2
:101BF0000228F5D903233DE0236B5A1E636B1B02B9
:101C000043EA0213E26A1343E26B5208013A43EAE1
:101C10004253226C5208013A43EA4263A26B43EA00
:101C2000C263174AD360136843F080731360D368AC
:101C300043F08073D360FFF783FC0446104B1B68AE
:101C400013F0007F06D1FFF77BFC001B0228F5D9BB
:101C500003230FE000230DE000230BE001231846CF
:101C60007047012306E0012304E0012302E0012381
:101C700000E00023184603B0F0BD0123FAE700BFDF
:101C80000010024000700040002800F0978070B5FE
:101C900004464E4B1B6803F007038B420BD24B4AA2
:101CA000136823F007030B431360136803F0070363
:101CB0008B4240F085800D46236813F0010F39D028
:101CC0006368032B09D0022B26D063BB404A1268FD
:101CD00012F0020F06D101206FE03D4A126812F0A7
:101CE000007F6FD03A498A6822F0030213438B6069
:101CF000FFF726FC0646364B9B6803F00C03626830
:101D0000B3EB820F16D0FFF71BFC801B41F2883328
:101D10009842F0D9032050E02D4A126812F4003F97
:101D2000E0D1012049E02A4A126812F4806FD9D12B
:101D3000012042E0236813F0020F06D0244A936882
:101D400023F0F003A1680B439360204B1B6803F062
:101D50000703AB420AD91D4A136823F007032B433C
:101D60001360136803F00703AB422DD1236813F00F
:101D7000040F06D0164A936823F4E063E1680B432E
:101D80009360236813F0080F07D0114A936823F477
:101D90006053216943EAC1039360FFF72FFC0C4BAA
:101DA0009B68C3F303130B4AD35C03F01F03D840B3
:101DB000094B1860002003F01BF870BD012070472C
:101DC0000120FAE70120F8E70120F6E700200240B1
:101DD00000100240D05B000804000020014B18688E
:101DE000704700BF0400002008B5FFF7F7FF054B60
:101DF0009B68C3F30223044AD35C03F01F03D8405B
:101E000008BD00BF00100240E05B000808B5FFF706
:101E1000E5FF054B9B68C3F3C223044AD35C03F080
:101E20001F03D84008BD00BF00100240E05B00085F
:101E30000F2303600B4B9A6802F0030242609A681A
:101E400002F0F00282609A6802F4E062C2609B686D
:101E5000DB0803F4E0630361034B1B6803F0070333
:101E60000B6070470010024000200240F8B5594B4B
:101E7000DB6813F0030F18D0564BDB6803F0030345
:101E80000268934202D001242046F8BD002A00F0E7
:101E90009F80504BDB68C3F30213013342689342C7
:101EA00001D00124F0E7002409E00368022B58D098
:101EB000032B5DD0012B43D00124002CE4D10F462D
:101EC0000646444A136823F080631360FFF738FB2B
:101ED0000546404B1B6813F0006F05D0FFF730FB41
:101EE000401B0228F5D90324002CCDD1002F4DD161
:101EF00038490B6923F0784323F4FE43B068F26855
:101F0000D20642EA002213430B61324A136843F0BF
:101F100080631360FFF714FB05462E4B1B6813F01C
:101F2000006F05D1FFF70CFB401B0228F5D90324F5
:101F3000002CA9D1274A1369B1690B431361A3E7A8
:101F4000244A126812F0020F1ED0224DEA6822F0D5
:101F500073024468013C43EA04131343EB6000241A
:101F6000ABE71C4A126812F4806FEED10124A4E79B
:101F7000184A126812F4003FE7D1164A126812F4A8
:101F8000802FE2D1012498E7012496E7012F0FD09A
:101F90001048026922F0C06222F4FE42B1687369FF
:101FA0005B08013B5B0643EA012313430361ACE793
:101FB0000848026922F4C00222F4FE42B168336983
:101FC0005B08013B5B0543EA0123134303619CE784
:101FD000012459E700100240F8B5504BDB6813F0BC
:101FE000030F18D04D4BDB6803F0030302689342E4
:101FF00002D001242046F8BD002A00F08D80474B16
:10200000DB68C3F3021301334268934201D0012419
:10201000F0E7002409E00368022B58D0032B5DD0C1
:10202000012B43D00124002CE4D10F4606463B4A45
:10203000136823F080531360FFF782FA0546374B8D
:102040001B6813F0005F05D0FFF77AFA401B0228E7
:10205000F5D90324002CCDD1002F4DD12F494B6948
:1020600023F0784323F4FE43B068F268D20642EAD4
:10207000002213434B61294A136843F080531360D5
:10208000FFF75EFA0546254B1B6813F0005F05D18C
:10209000FFF756FA401B0228F5D90324002CA9D1DA
:1020A0001E4A536971690B435361A3E71B4A1268C7
:1020B00012F0020F1ED0194DEA6822F07302446834
:1020C000013C43EA04131343EB600024ABE7134ADB
:1020D000126812F4806FEED10124A4E70F4A12684F
:1020E00012F4003FE7D10D4A126812F4802FE2D1BA
:1020F000012498E7012496E70848426922F0C0626B
:1021000022F4FE42B16833695B08013B5B0643EA97
:10211000012313434361AEE701246BE70010024043
:102120002DE9F04182B00446036813F4006F33D008
:10213000836EB3F5800F29D011D9B3F5000F1ED0EF
:10214000B3F5400F18D10027664AD2F8883023F43F
:102150004003A16E0B43C2F8883000261EE043B94D
:1021600000210430FFF782FE0746002FECD03E46E8
:1021700014E00126374611E0012637460EE0594AA1
:10218000D36843F48033D3600027DDE7002120309B
:10219000FFF722FF0746E8E700263746236813F4D7
:1021A000805F15D0E36EB3F1807F7DD069D9B3F144
:1021B000007F73D0B3F1407F6DD1002F7BD1494AAE
:1021C000D2F8883023F04073E16E0B43C2F88830B8
:1021D000236813F4003F00F08E80424B9B6D13F098
:1021E000805F6AD13F4B9A6D42F080529A659B6D39
:1021F00003F080530193019B4FF001083A4A1368A2
:1022000043F480731360FFF79BF90546364B1B6858
:1022100013F4807F05D1FFF793F9401B0228F5D90D
:102220000327002F62D12F4BD3F8903013F4407363
:1022300016D0D4F888209A4212D02A4AD2F8903088
:1022400023F44073D2F8901041F48031C2F890101A
:10225000D2F8901021F48031C2F89010C2F890307A
:1022600013F0010F2CD1002F40F051811D4AD2F8FC
:10227000903023F44073D4F888100B43C2F89030A8
:1022800035E02BB90021201DFFF7F0FD074694E74C
:10229000012637469CE70126374699E7114AD3685D
:1022A00043F48033D36088E7002104F12000FFF776
:1022B00093FE074681E73E468AE74FF000089DE718
:1022C000FFF73EF90546074BD3F8903013F0020FA5
:1022D000C9D1FFF735F9401B41F288339842F2D952
:1022E0000327C0E700100240007000403E46B8F1EE
:1022F000000F40F00E81236813F0010F08D0A44AAC
:10230000D2F8883023F00303A16B0B43C2F8883066
:10231000236813F0020F08D09D4AD2F8883023F0CA
:102320000C03E16B0B43C2F88830236813F0040FF1
:1023300008D0974AD2F8883023F03003216C0B4341
:10234000C2F88830236813F0080F08D0904AD2F8FA
:10235000883023F0C003616C0B43C2F888302368D7
:1023600013F0100F08D08A4AD2F8883023F4407353
:10237000A16C0B43C2F88830236813F0200F08D0FB
:10238000834AD2F8883023F44063E16C0B43C2F8EF
:102390008830236813F4007F08D07D4AD2F8883053
:1023A00023F44023216E0B43C2F88830236813F4D2
:1023B000806F08D0764AD2F8883023F44013616EDB
:1023C0000B43C2F88830236813F0400F08D0704ADE
:1023D000D2F8883023F44053216D0B43C2F8883083
:1023E000236813F0800F08D0694AD2F8883023F4AC
:1023F0004043616D0B43C2F88830236813F4807F3B
:1024000008D0634AD2F8883023F44033A16D0B43DF
:10241000C2F88830236813F4801F08D05C4AD2F8D1
:102420009C3023F00303E16D0B43C2F89C3023681A
:1024300013F4005F0FD0564AD2F8883023F040637F
:10244000216F0B43C2F88830236FB3F1006F66D061
:10245000B3F1806F68D0236813F4002F0FD04C4A7B
:10246000D2F8883023F04063616F0B43C2F88830A4
:10247000636FB3F1006F5FD0B3F1806F61D02368F9
:1024800013F4802F0FD0424AD2F8883023F04063F3
:10249000A16F0B43C2F88830A36FB3F1006F58D01F
:1024A000B3F1806F5AD0236813F4804F0FD0384AAD
:1024B000D2F8883023F04053E16F0B43C2F88830E4
:1024C000E36FB3F1805F51D0B3F1005F56D0236862
:1024D00013F4004F09D02E4AD2F8883023F08043FD
:1024E000D4F880100B43C2F88830236813F4803F7F
:1024F00009D0274AD2F8883023F00043D4F884105A
:102500000B43C2F88830304602B0BDE8F0813E4649
:10251000EDE61F4A936D23F080539365EBE6D36895
:1025200043F48013D36096E70121201DFFF79EFC42
:10253000002890D006468EE7D36843F48013D3601A
:102540009DE70121201DFFF791FC002897D006464A
:1025500095E7D36843F48013D360A4E70121201DDD
:10256000FFF784FC00289ED006469CE70221201D30
:10257000FFF77CFC0028AAD00646A8E7022104F158
:102580002000FFF729FD0028A1D006469FE700BFE5
:1025900000100240F0B482B0002336E0072400E0CF
:1025A0000024B4403C430235644E46F82540644C58
:1025B0002568D44304EA05064F6817F4803F01D02C
:1025C00042EA05065E4D2E606D6804EA05064F6816
:1025D00017F4003F01D042EA0506594D6E60AD6820
:1025E00004EA05064F6817F4801F01D042EA050689
:1025F000534DAE60ED682C404E6816F4001F01D0BC
:1026000042EA05044E4AD46001330A6832FA03F400
:1026100000F0918001249C402240F5D04D68022DAD
:1026200001D0122D10D1DE08083650F826C003F074
:102630000705AF000F25BD402CEA050C0D69BD4014
:1026400045EA0C0540F8265006685F000325BD40AA
:10265000ED4305EA060C4E6806F00306BE4046EA66
:102660000C0606604E6806F1FF3CBCF1010F03D971
:10267000112E01D0122E10D1866805EA060CCE6804
:10268000BE4046EA0C068660466826EA04044E68A8
:10269000C6F300169E4026434660C46825408C68F9
:1026A000BC402C43C4604C6814F0805FACD0254C17
:1026B000256E45F001052566246E04F001040194A1
:1026C000019C9D08AE1C1D4C54F8267003F00304B9
:1026D000A6000F24B44027EA0407B0F1904F3FF45E
:1026E0005FAF194CA0421AD004F58064A04218D004
:1026F00004F58064A04216D004F58064A04214D092
:1027000004F58064A04212D004F58064A04210D089
:1027100004F58064A0423FF441AF082441E701245E
:102720003FE702243DE703243BE7042439E705247F
:1027300037E7062435E702B0F0BC704700000140DF
:102740000004014000100240000400480AB1816109
:10275000704781627047436959404161704708B5CD
:1027600090F82530DBB2022B03D00423C363012091
:1027700008BD0268136823F00E0313600268136833
:1027800023F001031360436C03F01C03016C01226E
:1027900002FA03F34B6080F82520002380F82430F0
:1027A000836B13B198470020E2E70020E0E70000C8
:1027B000024B186800F4C060704700BF0070004012
:1027C000B0F5007F0FD01E4B1B6803F4C063B3F558
:1027D000806F33D01A4A136823F4C06343F48063D4
:1027E000136000207047164B1B6803F4C063B3F5F9
:1027F000007F1FD0124A136823F4C06343F40073B0
:102800001360104B1A68322303FB02F30E4AA2FB3B
:1028100003239B0C01330A4A526912F4806F02D0E1
:102820000BB1013BF7E7064B5B6913F4806F03D1F3
:102830000020704700207047032070470020704739
:10284000007000400400002083DE1B43024A5368EE
:1028500043F400735360704700700040074AD36828
:1028600023F4E0631B041B0C000200F4E060184337
:1028700040F0BF6040F40030D060704700ED00E0F1
:1028800030B4174BDB68C3F30223C3F10704042CF5
:1028900028BF04241D1D062D01D9033B00E00023A1
:1028A0004FF0FF3505FA04F421EA0401994005FAD6
:1028B00003F322EA03031943002809DB0901C9B223
:1028C00000F1604000F5614080F8001330BC7047B3
:1028D00000F00F000901C9B2024B1954F6E700BF1E
:1028E00000ED00E014ED00E000F01F0240090123BC
:1028F0009340024A42F82030704700BF00E100E0F8
:1029000000F1080343604FF0FF328260C36003614F
:1029100000230360704700230361704743684B60E6
:102920009A688A60516099600861036801330360A6
:10293000704730B40D68B5F1FF3F02D000F10802D6
:1029400002E0026904E01A4653681C68AC42FAD9F6
:1029500053684B6099608A60516008610368013375
:10296000036030BC70470369416882688A604168CF
:1029700051605A68824206D0002202611A68013A08
:102980001A601868704782685A60F5E710B5044607
:1029900001F0F8FBA26BE36B9A4204D0002401F033
:1029A00013FC204610BD0124F9E710B5044601F0E0
:1029B000E9FBA36B23B9012401F006FC204610BDFE
:1029C0000024F9E770B504461646856B026C5AB9C7
:1029D00003681BB100200135A56370BD406800F09D
:1029E00045FF00236360F6E76EB9806802F080FB64
:1029F000226CA3681344A3606268934219D32368CE
:102A0000A3603046E7E7C06802F072FB226C5242D6
:102A1000E3681344E36021688B4202D263681A447E
:102A2000E260022E01D00020D5E725B1013D002053
:102A3000D1E73046CFE70020CDE7026C72B110B588
:102A4000C3681344C3604468A34201D30368C360EE
:102A50000C46C168204602F04BFB10BD704738B5EC
:102A6000054601F08FFB95F8454064B203E000F0A5
:102A7000E7FE013C64B2002C08DD6B6A33B105F15E
:102A8000240000F049FE0028F3D0F0E7FF2385F88A
:102A9000453001F099FB01F075FB95F8444064B2B4
:102AA00003E000F0CDFE013C64B2002C08DD2B6990
:102AB00033B105F1100000F02FFE0028F3D0F0E74D
:102AC000FF2385F8443001F07FFB38BD38B5E0B115
:102AD00004460D4601F056FB2168E26B236C03FBB4
:102AE000021060600020A063A160013A02FB0313A2
:102AF000E360FF2384F8443084F84530EDB923695E
:102B000063B901F061FB012038BD4FF0100383F37E
:102B10001188BFF36F8FBFF34F8FFEE704F11000F2
:102B200000F0FAFD0028ECD0084B4FF080521A60FC
:102B3000BFF34F8FBFF36F8FE3E704F11000FFF790
:102B4000DFFE04F12400FFF7DBFEDAE704ED00E02E
:102B500010B5029B0C4639B91B60D8631C64012177
:102B60001846FFF7B3FF10BD1A60F6E740B94FF003
:102B7000100383F31188BFF36F8FBFF34F8FFEE70E
:102B8000F0B583B0054699B101FB00F017460C463D
:102B9000483001F0D3F9064638B100903B4600F1C9
:102BA000480221462846FFF7D3FF304603B0F0BD68
:102BB0000846EBE7F0B585B0019278B10446B1B1B3
:102BC000022B20D1E26B012A1DD04FF0100383F3BA
:102BD0001188BFF36F8FBFF34F8FFEE74FF01003E5
:102BE00083F31188BFF36F8FBFF34F8FFEE7026C43
:102BF000002AE5D04FF0100383F31188BFF36F8FE5
:102C0000BFF34F8FFEE71D460E4600F01FFE07463E
:102C100058B9019B002B44D04FF0100383F3118867
:102C2000BFF36F8FBFF34F8FFEE7002739E02A46CF
:102C300031462046FFF7C6FE636A6BB938B13C4B9C
:102C40004FF080521A60BFF34F8FBFF36F8F01F0C8
:102C5000BBFA012005B0F0BD04F1240000F05CFDDA
:102C60000028F4D0324B4FF080521A60BFF34F8FE0
:102C7000BFF36F8FEBE701F0A7FA0020EAE702A8A5
:102C800000F090FD012719E0002384F8443021E092
:102C9000002384F8453023E02046FFF7E0FE00F0F3
:102CA00017FC01F06FFAA26BE36B9A42BFD3022DBF
:102CB000BDD0019B002BDED0002FE0D001F084FAC4
:102CC00000F06CFB01F05EFA94F844305BB2B3F1B3
:102CD000FF3FD9D094F845305BB2B3F1FF3FD7D076
:102CE00001F072FA01A902A800F068FDC8B92046F7
:102CF000FFF74CFE0028CFD0019904F1100000F03E
:102D0000D7FC2046FFF7ABFE00F0E2FB0028C8D15D
:102D1000074B4FF080521A60BFF34F8FBFF36F8F96
:102D2000BFE72046FFF79BFE00F0D2FB002091E7B3
:102D300004ED00E02DE9F84378B10446B1B1022B6F
:102D400020D1E06B01281DD04FF0100383F31188D0
:102D5000BFF36F8FBFF34F8FFEE74FF0100383F386
:102D60001188BFF36F8FBFF34F8FFEE7006C002811
:102D7000E5D04FF0100383F31188BFF36F8FBFF3DB
:102D80004F8FFEE71F469046894601F025FBEFF383
:102D900011864FF0100383F31188BFF36F8FBFF3D9
:102DA0004F8FA26BE36B9A4206D3022F04D0002010
:102DB00086F31188BDE8F88394F845506DB23A4621
:102DC00049462046FFF7FEFDB5F1FF3F05D06B1CDD
:102DD0005BB284F845300120EAE7636A0BB9012051
:102DE000E6E704F1240000F097FC30B1B8F1000FE1
:102DF00005D00120C8F80000DAE70120D8E701205B
:102E0000D6E70000F0B585B0019290B10446C9B193
:102E10000E4600F01BFD074600BB019B002B5CD05B
:102E20004FF0100383F31188BFF36F8FBFF34F8F01
:102E3000FEE74FF0100383F31188BFF36F8FBFF3EA
:102E40004F8FFEE7036C002BE2D04FF0100383F3AB
:102E50001188BFF36F8FBFF34F8FFEE700273CE071
:102E600031462046FFF7E9FD013DA563236923B9FB
:102E700001F0AAF9012005B0F0BD04F1100000F046
:102E80004BFC0028F4D0354B4FF080521A60BFF352
:102E90004F8FBFF36F8FEBE701F096F90020EAE761
:102EA00002A800F07FFC012721E0002384F84430D1
:102EB00029E0002384F845302BE02046FFF7CFFDC2
:102EC00000F006FB09E02046FFF7C9FD00F000FB1B
:102ED0002046FFF76AFD00283DD101F053F9A56BAC
:102EE000002DBDD1019B002BD6D0002FD8D001F0F2
:102EF0006BF900F053FA01F045F994F844305BB2F5
:102F0000B3F1FF3FD1D094F845305BB2B3F1FF3F4E
:102F1000CFD001F059F901A902A800F04FFC002818
:102F2000D1D12046FFF741FD0028C6D0019904F118
:102F3000240000F0BDFB2046FFF791FD00F0C8FA29
:102F40000028CAD1054B4FF080521A60BFF34F8F53
:102F5000BFF36F8FC1E700208DE700BF04ED00E0F5
:102F60000023072B0CD8074A52F833200AB101334B
:102F7000F7E7044A42F8331002EBC3035860704786
:102F8000704700BF6848022070B504460D461646DB
:102F900001F0F8F894F844305BB2B3F1FF3F0DD084
:102FA00094F845305BB2B3F1FF3F0BD001F00CF960
:102FB000A36B5BB12046FFF752FD70BD002384F880
:102FC0004430EDE7002384F84530EFE732462946E8
:102FD00004F1240000F084FBECE70000084B1B68C0
:102FE0001B6823B9074B4FF0FF321A607047044B40
:102FF0001B68DB68DB685A68024B1A60704700BFC9
:10300000900000206801002010B50446006B01F01C
:1030100019F8204601F016F810BD2DE9F04780465A
:103020009946089D099F0A9C266B02F18042013A4D
:1030300006EB820626F0070600230F2B06D8CA5C93
:10304000E01880F834200AB10133F6E7002384F851
:103050004330062D00D90625E56265644FF0000A6D
:10306000C4F848A0201DFFF756FC04F11800FFF734
:1030700052FC2461C5F10705A5616462C4F84CA047
:1030800084F850A04A464146304601F051F820608D
:1030900007B13C60BDE8F08738B50024062C08D89D
:1030A00004EB840293000E481844FFF729FC013416
:1030B000F4E70C4D2846FFF723FC0B4C2046FFF7A6
:1030C0001FFC0A48FFF71CFC0948FFF719FC0948D8
:1030D000FFF716FC084B1D60084B1C6038BD00BF95
:1030E000980000203C0100205001002070010020C9
:1030F0009C01002088010020900000209400002006
:1031000010B5044601F03EF8204A136801331360FD
:103110001F4B1B685BB11F4B1B686BB91C4B1B68BB
:10312000DA6AE36A9A4207D8194B1C6004E0184B2C
:103130001C601368012B26D0174A136801331360F3
:10314000E36A01229A401549086802430A6003EBCA
:1031500083039A00211D12481044FFF7DFFB01F0A2
:1031600033F80C4B1B686BB1094B1B68DA6AE36AD6
:103170009A4207D20B4B4FF080521A60BFF34F8F29
:10318000BFF36F8F10BDFFF787FFD5E72401002045
:103190008C00002084010020340100203801002030
:1031A0009800002004ED00E00F4B1B68D3B110B570
:1031B00000F0E8FF0D4BDB68DC68201DFFF7D3FB58
:1031C0000B4A1368013B1360074A1368013B136005
:1031D00000F0FAFF2046FFF717FF034B1B68002B98
:1031E000E6D110BD704700BF280100209C010020DF
:1031F0002401002008B5FFF7D7FF064B1B68012B01
:10320000F9D9054B4FF080521A60BFF34F8FBFF3CF
:103210006F8FF0E79800002004ED00E070B50446E1
:103220000E461D4B1D681D4B18680430FFF79BFBB5
:1032300050B91A4B1B68DA6A012303FA02F21849E3
:103240000B6823EA02030B60B4F1FF3F0DD02C445E
:10325000124B1B685C60A54210D9124B18680F4BCB
:1032600019680431FFF765FB70BD002EEFD00B4BE2
:10327000196804310C48FFF751FBF5E70B4B186850
:10328000064B19680431FFF754FB094B1B68A34236
:10329000EAD9074B1C60E7E7B00100208C00002052
:1032A00038010020940000208801002090000020B8
:1032B000680100202DE9F04385B007468846144692
:1032C0009946900000F03AFEE8B10646542000F01E
:1032D00035FE054698B10663D5B1002303930295E8
:1032E0000D9B01930C9B00934B462246414638466A
:1032F000FFF793FE2846FFF703FF012005E0304665
:1033000000F0A0FEE8E74FF0FF3005B0BDE8F08325
:103310004FF0FF30F9E7000000B583B0194B01937F
:1033200000230093802218491848FFF7C3FF0128A3
:1033300007D0012808D0B0F1FF3F1AD003B05DF8E4
:1033400004FB00F06FFBF4E74FF0100383F31188E8
:10335000BFF36F8FBFF34F8F0D4B4FF0FF321A60EB
:103360000C4B01221A600C4B00221A6000F0ACFFDB
:10337000E4E74FF0100383F31188BFF36F8FBFF3BF
:103380004F8FFEE764010020B85B0008F5310008AC
:103390006801002084010020B0010020024A136867
:1033A00001331360704700BF30010020014B1868E3
:1033B000704700BFB0010020F8B53A4B1B68002BE6
:1033C00064D1394B1D6801351D60C5B9374B1B6889
:1033D0001B6843B14FF0100383F31188BFF36F8F65
:1033E000BFF34F8FFEE7314A1168314B1868106008
:1033F0001960304A136801331360FFF7EFFD2E4B5D
:103400001B68AB4238D900242C4B1B68DB6A03EBEA
:1034100083039A002A4B9B58012B3CD901243AE0A4
:103420000124224B1B681B6843B3204B1B68DB68DD
:10343000DE6873689D4226D3371D3846FFF793FA3E
:10344000B36A1BB106F11800FFF78DFAF36A012287
:103450009A401C49086802430A6003EB83039A0000
:10346000394617481044FFF759FAF26A134B1B68A4
:10347000DB6A9A42D4D2D4E70024D2E70E4B4FF055
:10348000FF321A60C0E70C4A1360BDE70E4A1368AA
:103490000133136000240D4B1B6803B10124204647
:1034A000F8BD00BF30010020B001002090000020D6
:1034B000940000206C010020680100208C00002096
:1034C00098000020380100202C010020B4010020C9
:1034D00038B5344B1B6843B94FF0100383F31188A0
:1034E000BFF36F8FBFF34F8FFEE700F04BFE2D4B06
:1034F0001A68013A1A601B68002B4DD12A4B1B68D1
:103500000BB9002449E00024284B1B681BB3274B50
:10351000DB68DC6804F11800FFF725FA251D284652
:10352000FFF721FAE36A01229A4021490868024321
:103530000A6003EB83039A0029461E481044FFF7F4
:10354000EDF9E26A1C4B1B68DB6A9A42DCD31B4B29
:1035500001221A60D8E70CB1FFF740FD184B1C6838
:1035600074B9164B1C68C4B1164B4FF080521A60E8
:10357000BFF34F8FBFF36F8F01240EE0013C07D0E4
:10358000FFF71AFF0028F9D00C4B01221A60F5E76B
:103590000B4B00221A60E4E7002400F015FE2046E1
:1035A00038BD00BF30010020240100207001002040
:1035B00038010020980000208C000020B401002079
:1035C0002C01002004ED00E010B5A8B104460F4B1B
:1035D0001B6843B14FF0100383F31188BFF36F8F63
:1035E000BFF34F8FFEE7FFF7D9FE00212046FFF71C
:1035F00015FEFFF76DFF38B9054B4FF080521A608A
:10360000BFF34F8FBFF36F8F10BD00BF300100209D
:1036100004ED00E0214B1B681BB1214B01221A6015
:1036200070471F4B00221A601E4B1B68B3FA83F3CE
:10363000DBB2C3F11F0303EB83018A001A498A58E6
:1036400042B94FF0100383F31188BFF36F8FBFF3BC
:103650004F8FFEE710B414489A00D418A10001441B
:103660004C6864684C601A449100083108448442F4
:103670000BD003EB83039A000B4B13445B68DA68AF
:103680000A4B1A605DF8044B7047606803EB8302D5
:103690009100054A0A445060EBE700BF300100206A
:1036A000B401002038010020980000208C00002088
:1036B00058B110B50C46094B19681831FFF739F9A4
:1036C00001212046FFF7AAFD10BD4FF0100383F340
:1036D0001188BFF36F8FBFF34F8FFEE78C00002080
:1036E00038B570B10C4615460A4A11681831FFF713
:1036F00015F90DB14FF0FF3429462046FFF78EFD36
:1037000038BD4FF0100383F31188BFF36F8FBFF301
:103710004F8FFEE78C00002038B5C368DC6824B307
:1037200004F118052846FFF71EF9184B1B682BBB40
:10373000251D2846FFF717F9E36A01229A4014492C
:10374000086802430A6003EB83039A002946114884
:103750001044FFF7E3F8E26A0F4B1B68DB6A9A42FA
:1037600011D901200D4B18600EE04FF0100383F3C8
:103770001188BFF36F8FBFF34F8FFEE729460848CC
:10378000FFF7CCF8E7E7002038BD00BF300100208C
:1037900038010020980000208C000020B401002097
:1037A00070010020034B1B680360034B1B684360E0
:1037B000704700BF6C010020B0010020F8B5C8B10F
:1037C000054601B30C4600F0DDFC1B4B19686B6825
:1037D000C81A2268B2F1FF3F26D02F68174E36680C
:1037E000B74201D08B4224D9824215D800232360EE
:1037F00001241AE04FF0100383F31188BFF36F8F99
:10380000BFF34F8FFEE74FF0100383F31188BFF330
:103810006F8FBFF34F8FFEE75B1A13442360284678
:10382000FFF7C0FF002400E0002400F0CDFC20469C
:10383000F8BD0124F9E700BFB00100206C010020B1
:10384000014B01221A607047B4010020054B1B6830
:1038500033B1054B1B680BB1002070470220704745
:1038600001207047840100203001002000284CD046
:1038700038B50446274A1268824208D04FF0100338
:1038800083F31188BFF36F8FBFF34F8FFEE7826C16
:1038900042B94FF0100383F31188BFF36F8FBFF36A
:1038A0004F8FFEE7013A8264C06A616C88422ED075
:1038B0000AB1002038BD251D2846FFF754F870B91D
:1038C000E26A02EB82018B001349CB583BB901231A
:1038D00003FA02F211490B6823EA02030B60636CDE
:1038E000E362C3F10702A261012404FA03F20B4967
:1038F000086802430A6003EB83039A0029460648DE
:103900001044FFF70BF82046D4E700207047002052
:10391000D0E700BF8C000020980000203801002074
:10392000064B1A681368B3FA83F35B09036013B993
:10393000D368186870470020704700BFB8010020A6
:1039400008B54160006191420CD8D21A83699A424D
:1039500001D3012008BD011D094B1868FEF7E9FFDE
:103960000020F7E79A4201D2994206D2011D054B89
:103970001868FEF7DEFF0020ECE70120EAE700BF51
:10398000BC010020B801002038B500F0FBFB0F4B54
:103990001B6813B100F018FC38BD0D4D2846FEF72A
:1039A000AFFF0C4C2046FEF7ABFF0B4B1D600B4BE3
:1039B0001C6000220C210A20FFF7D8F8034B186086
:1039C0000028E7D00649FFF7CBFAE3E7EC01002037
:1039D000C0010020D4010020B8010020BC0100205B
:1039E000C05B00082DE9F041079C41B94FF010037E
:1039F00083F31188BFF36F8FBFF34F8FFEE70F463E
:103A000074B11D4616468046FFF7BEFFC4F800801D
:103A1000A761E6612562069B6362201DFEF77BFFBE
:103A2000BDE8F08100B583B0FFF7AEFF0D4B1B681A
:103A30005BB10D4B01930323009300234FF480727D
:103A40000A490B48FFF736FC40B94FF0100383F3E7
:103A50001188BFF36F8FBFF34F8FFEE703B05DF8A0
:103A600004FB00BFEC010020F0010020C85B00084F
:103A70006D3D00082DE9F04182B005460E4617461F
:103A80009846282000F05AFA044640B10190089B5D
:103A9000009343463A4631462846FFF7A3FF2046A7
:103AA00002B0BDE8F0810000C0B130B585B0154668
:103AB0000446174A106840B31A46019102950394D0
:103AC00005291CDCFFF7C2FE022810D000231A468D
:103AD00001A90F480068FFF76DF814E04FF01003DC
:103AE00083F31188BFF36F8FBFF34F8FFEE700237F
:103AF000089A01A906480068FFF75CF803E0002374
:103B000001A9FFF717F905B030BD0020FBE700BFA2
:103B1000EC01002070B582B01A4B1B681A6852B3D2
:103B2000DB681E68DC68251D2846FEF71CFF636AFB
:103B300020469847E369012BEED1A36933449E42A6
:103B400007D26360246129460E4B1868FEF7F1FE28
:103B5000E2E7002100910B4632462046FFF7A4FF22
:103B60000028D9D14FF0100383F31188BFF36F8F72
:103B7000BFF34F8FFEE7044A1068024908601360E4
:103B800002B070BDB8010020BC01002038B5054668
:103B9000FFF70CFC0446074B1B68834205D8002343
:103BA0002B60044B1C60204638BDFFF7B3FF012398
:103BB0002B60F6E7E801002070B582B005460E469E
:103BC000144B1B68DB68DC68201DFEF7CCFEE36944
:103BD000012B04D0636A2046984702B070BDA169EA
:103BE0002B46324629442046FFF7AAFE0028F1D092
:103BF000002100910B462A462046FFF755FF00287A
:103C0000E8D14FF0100383F31188BFF36F8FBFF338
:103C10004F8FFEE7B801002070B582B006460C4613
:103C2000FFF7BCFB01A8FFF7B1FF019B1BBB0546DB
:103C30000CB9B04218D22CB1114B1B681C68B4FAF5
:103C400084F464092246711B0E4B1868FFF79CF937
:103C5000FFF73EFC88B90C4B4FF080521A60BFF35F
:103C60004F8FBFF36F8F08E0FFF732FC29463046D5
:103C7000FFF7A2FF01E0FFF72BFC02B070BD00BF11
:103C8000BC010020EC01002004ED00E030B587B05D
:103C9000002203A9344B1868FFF7B4F8002860D05D
:103CA000039B002BF4DB059C636913B1201DFEF719
:103CB0005AFE02A8FFF76AFF039B092BE8D801A26E
:103CC00052F823F0ED3C0008ED3C0008ED3C000804
:103CD000913C0008353D00085B3D0008ED3C0008C4
:103CE000ED3C0008913C0008353D00080499A569A9
:103CF0000B46024629442046FFF722FE0028C7D083
:103D0000636A20469847E369012BC1D1A26900216B
:103D100000910B46049802442046FFF7C5FE002898
:103D2000B6D14FF0100383F31188BFF36F8FBFF349
:103D30004F8FFEE70499A16131B103460246014469
:103D40002046FFF7FDFDA3E74FF0100383F3118832
:103D5000BFF36F8FBFF34F8FFEE7204600F072F97D
:103D600096E707B030BD00BFEC01002000B583B07E
:103D700001A8FFF7D5FD0199FFF74EFFFFF786FF7A
:103D8000F6E7842801D00330704700207047EFF336
:103D90000580003018BF0120704708B5FFF7BCFA56
:103DA000002008BDF0B585B00F4644680568066977
:103DB000B0F90800FFF7E5FF03AB019300903B4625
:103DC000B2B229462046FFF775FA012802D10398BE
:103DD00005B0F0BD0020FBE708B5034600B901239C
:103DE0001846FFF7F1FB002008BD000000B583B0C6
:103DF0001346012909D000220168009101210448DD
:103E0000FFF738FE03B05DF804FB0122F4E700BFC2
:103E1000A85B000830B585B00546002303930C4627
:103E200001B90124FFF7B3FFC0B10023009303AB36
:103E3000224609212846FFF737FE012802D0FF203D
:103E400005B030BD039BB3B10C4B4FF080521A60EC
:103E5000BFF34F8FBFF36F8F0020F1E70023009374
:103E6000224604212846FFF71FFE012801D0FF202B
:103E7000E6E70020E4E70020E2E700BF04ED00E011
:103E8000124A12F0070F07D0D11D21F00701C1F52A
:103E9000103313440A4601E04FF410330C4802601B
:103EA000002141601344083B23F0070309480360E5
:103EB00059601960991A51601360074B1960074BDC
:103EC0001960074B4FF000421A607047F80100205C
:103ED00004420220F401002000420220FC410220A2
:103EE000F841022010B4134A00E01A4613688342D6
:103EF000FBD35168541884420AD041684418A34245
:103F00000BD00360904200D010605DF8044B704706
:103F10004068014451601046EFE7074C2468A34213
:103F200006D05B681944416013681B680360E9E7C9
:103F30000460E7E704420220F401002070B5044663
:103F4000FFF72CFA3A4B1B68BBB13A4B1B681C427B
:103F500056D1ACB1083414F0070F11D024F0070487
:103F6000083404F007035BB14FF0100383F31188AA
:103F7000BFF36F8FBFF34F8FFEE7FFF781FFE4E7DB
:103F8000002C3FD02C4B1B68A3424AD32B4B1D68FF
:103F900001E02B4615466A68A24202D22A68002A2E
:103FA000F7D1234A1268AA423DD01E6808362A6813
:103FB0001A606B681B1B102B10D9281910F0070F03
:103FC00008D04FF0100383F31188BFF36F8FBFF356
:103FD0004F8FFEE743606C60FFF784FF6A68164905
:103FE0000B689B1A0B60164909688B4201D2144971
:103FF0000B60104B1B6813436B6000232B6002E0C7
:10400000002600E00026FFF763FA16F0070F0CD039
:104010004FF0100383F31188BFF36F8FBFF34F8FFF
:10402000FEE70026EFE70026EDE7304670BD00BF53
:10403000F4010020F8410220FC4102200442022049
:104040000042022080B338B50446A0F1080550F8BC
:10405000042C164909680A4208D14FF0100383F373
:104060001188BFF36F8FBFF34F8FFEE750F8080C36
:1040700040B14FF0100383F31188BFF36F8FBFF38C
:104080004F8FFEE722EA010244F8042CFFF786F97D
:1040900054F8041C064A13680B4413602846FFF7C3
:1040A00021FFFFF715FA38BD704700BFF841022025
:1040B000FC41022082B0002301930D4B1B68B3F139
:1040C000FF3F08D04FF0100383F31188BFF36F8FC9
:1040D000BFF34F8FFEE74FF0100383F31188BFF358
:1040E0006F8FBFF34F8F019B002BFCD002B0704746
:1040F0000000002008480068006880F308884FF03E
:10410000000080F3148862B661B6BFF34F8FBFF32F
:104110006F8F00DF00BF000008ED00E0DFF80C004B
:10412000016841F4700101607047000088ED00E013
:104130004FF0807340F8043C21F0010140F8081C66
:10414000054B40F80C3C40F8202C6FF0020340F87F
:10415000243C4438704700BFB54000080000000010
:10416000074B19680868B0E8F04F80F30988BFF37F
:104170006F8F4FF0000080F311887047AFF300801D
:104180008C0000204FF0100383F31188BFF36F8F72
:10419000BFF34F8F0A4A136801331360012B00D01D
:1041A0007047084B1B6813F0FF0FF9D04FF0100356
:1041B00083F31188BFF36F8FBFF34F8FFEE700BF0C
:1041C0000000002004ED00E0094B1B6843B94FF0EC
:1041D000100383F31188BFF36F8FBFF34F8FFEE798
:1041E000013B034A13600BB983F31188704700BF8A
:1041F000000000200000000000000000000000009F
:10420000EFF30980BFF36F8F154B1A681EF0100F84
:1042100008BF20ED108A20E9F04F10602DE9090059
:104220004FF0100080F31188BFF34F8FBFF36F8FF3
:10423000FFF7F0F94FF0000080F3118809BC19680E
:104240000868B0E8F04F1EF0100F08BFB0EC108AFD
:1042500080F30988BFF36F8F704700BFAFF3008012
:104260008C00002008B54FF0100383F31188BFF3D2
:104270006F8FBFF34F8FFFF79FF818B1034B4FF0CD
:1042800080521A60002383F3118808BD04ED00E01A
:10429000084A0023136008490B60084B1B68084953
:1042A000A1FB03139B09013B06490B600723136025
:1042B000704700BF10E000E018E000E004000020BC
:1042C000D34D621014E000E03A4B1A683A4B9A4220
:1042D00029D0384B1A68394B9A422DD010B582B08C
:1042E000374B1A78D2B20192FF221A701B78DBB2D8
:1042F0008DF803309DF8033003F01003314A13703A
:10430000314B07221A609DF8033013F0800F1CD048
:104310002D4A1368013B13609DF803305B00DBB24C
:104320008DF80330EFE74FF0100383F31188BFF3EC
:104330006F8FBFF34F8FFEE74FF0100383F31188A9
:10434000BFF36F8FBFF34F8FFEE71F4B1B68032B2D
:1043500008D04FF0100383F31188BFF36F8FBFF3C2
:104360004F8FFEE71B0203F4E063174A1360019BC3
:10437000DBB2134A1370154B1A6842F470021A60CC
:104380001A6842F070421A60FFF782FF0024104B57
:104390001C60FFF7C3FE0F4A136843F040431360ED
:1043A000FFF7A8FEFFF736F9FFF784FE204602B0BC
:1043B00010BD00BF00ED00E071C20F4170C20F419F
:1043C00000E400E00C4202201042022020ED00E058
:1043D0000000002034EF00E0EFF305830F2B0FD92E
:1043E000104A9B5CDBB2104A12789A4208D94FF00F
:1043F000100383F31188BFF36F8FBFF34F8FFEE776
:104400000A4B1B6803F4E063094A1268934208D917
:104410004FF0100383F31188BFF36F8FBFF34F8FFB
:10442000FEE77047F0E300E00C4202200CED00E0F4
:10443000104202202DE9F04F8DB00024079408941B
:1044400009940A940B94A04BDA6C42F01002DA64DF
:10445000DA6C02F010020092009ADA6C42F0040268
:10446000DA64DA6C02F004020192019ADA6C42F02A
:104470002002DA64DA6C02F020020292029ADA6C0C
:1044800042F00102DA64DA6C02F001020392039A4C
:10449000DA6C42F00202DA64DA6C02F00202049290
:1044A000049ADA6C42F04002DA64DA6C02F04002FC
:1044B0000592059ADA6C42F00802DA64DB6C03F0CC
:1044C00008030693069BFEF7C1F9804D012240F2D6
:1044D000FC712846FEF73AF97D4E012244F228117C
:1044E0003046FEF733F922464FF400713046FEF7AE
:1044F0002DF9DFF8308201224FF442714046FEF779
:1045000025F9012202214FF09040FEF71FF9012208
:1045100080214FF09040FEF719F9DFF80C9201224C
:1045200003214846FEF712F922464FF481414846DE
:10453000FEF70CF9DFF8F4B101224FF44041584680
:10454000FEF704F940F2FC730793012708970994DA
:104550000A9407A92846FEF71DF84FF4005ACDF833
:104560001CA05C4B0893099407A94046FEF712F87B
:1045700044F2A8330793089709940A9407A9304690
:10458000FEF708F84FF442730793089709940A94CA
:1045900007A94046FDF7FEFF822307930897099479
:1045A0000A9407A94FF09040FDF7F4FF44F283030B
:1045B0000793089709940A9407A94846FDF7EAFF6C
:1045C000032307930894099407A94348FDF7E2FFE2
:1045D0004FF440430793089709940A9407A9584653
:1045E000FDF7D8FFCDF81CA0089709940A9407A9F5
:1045F0003046FDF7CFFF40F6010BCDF81CB0089711
:1046000009940A9407A92846FDF7C4FF3A46514683
:104610003046FEF79BF8224659462846FEF796F8A4
:104620002E4BC3F800804FF4007199802C4AC2F8D9
:1046300000804FF4807393802A48066008228280AD
:10464000294C4FF0904020608020A080274C2660AD
:104650002027A780264CC4F80080A280254C256026
:104660004FF0040CA4F804C0234C25604FF0100C4C
:10467000A4F804C0214C25604FF0400CA4F804C0FD
:104680001F4C2560A7801F4C2660A3801E4C256010
:10469000A2801E4A156090801D4A15604FF480600C
:1046A00090801C4A16604FF4804090801A4A156032
:1046B00093801A4B1D609980194BC3F80090022219
:1046C0009A800DB0BDE8F08F001002400010004845
:1046D0000014004800001110001800489047022004
:1046E00054480220F44602206444022098470220E5
:1046F000E44602206443022080470220EC46022068
:104700002C420220F84202205C460220E4430220B0
:104710007C440220644602205C4802208847022034
:10472000204202200008004800040048000C004815
:1047300008B51248124B0360124B4360002383609C
:104740000122C260036143618361C3610362FBF7BD
:1047500048FF50B900210948FBF7A1FF40B90021EB
:104760000648FBF7CDFF30B908BDFBF735FFF1E791
:10477000FBF732FFF3E7FBF72FFFF5E710460220C8
:1047800000540040261A100008B50848084B036082
:104790000623436040F6FF73C3608360FCF7CFF8E5
:1047A00000B908BDFBF718FFFBE700BF6C4402200F
:1047B00000300040024B4AF6AA221A60704700BF40
:1047C0000030004008B5FFF735FEFFF7DDFF00F0D1
:1047D0008FF8FFF7ADFF4FF4E13000F003FC08BDA8
:1047E0000A4B01221A700A4A5A600A4A9A600A4A17
:1047F000DA600A4A1A610A4A5A610A4A9A610A4AFE
:10480000DA610A4A1A620A4A5A6270475447022019
:10481000EC430220844402203445022090470220C9
:1048200054480220F44602206444022098470220A3
:10483000E44602200A4B02221A700A4A5A600A4AC7
:104840009A600A4ADA600A4A1A610A4A5A610A4AAE
:104850009A610A4ADA610A4A1A620A4A5A62704737
:10486000FC4602208042022008480220A047022085
:104870006443022080470220EC4602202C420220A2
:10488000F84202205C4602200A4B03221A700A4AB0
:104890005A600A4A9A600A4ADA600A4A1A610A4A5F
:1048A0005A610A4A9A610A4ADA610A4A1A620A4A4B
:1048B0005A627047284702206C430220344202208B
:1048C000D0440220E44302207C44022064460220BB
:1048D0005C480220884702202042022008B5FFF7EA
:1048E00071FFFFF77DFFFFF7A5FFFFF7CDFF08BDC5
:1048F00008B51048104B03604FF4827343600023E7
:1049000083604FF4E062C260036143614FF4007260
:104910008261C3610362436283620722C262012231
:1049200002634363FBF71BFF00B908BDFBF754FEAE
:10493000FBE700BF004302200030014000B583B018
:104940000D4B1A6E42F001021A661A6E02F0010255
:104950000092009A9A6D42F080529A659B6D03F026
:1049600080530193019B00220F216FF00100FDF79E
:1049700087FF03B05DF804FB00100240F0B58FB074
:104980000446002309930A930B930C930D9302683A
:10499000554B9A420BD02368544A93422AD0544A2A
:1049A000934248D0534A934266D00FB0F0BD524D67
:1049B000EB6C43F00203EB64EB6C03F00203009337
:1049C000009B4FF44073099312230A9301230B9326
:1049D00003230C9304230D9309A94848FDF7DAFD3E
:1049E000AB6D43F40013AB65AB6D03F4001301939F
:1049F000019BD0E7404CE36C43F02003E364E36C9D
:104A000003F020030293029B0323099312220A92CC
:104A100001220B920C9304230D9309A93848FDF74A
:104A2000B9FDA36D43F48003A365A36D03F4800374
:104A30000393039BB9E7304CE36C43F00403E36456
:104A4000E36C03F004030493049B032309931222F1
:104A50000A9201220B920C9304230D9309A9294871
:104A6000FDF798FDA36D43F40003A365A36D03F464
:104A700000030593059B98E71F4CE36C43F020036C
:104A8000E364E36C03F020030693069BE36C43F0BE
:104A90000203E364E36C03F002030793079B4FF404
:104AA0000043099312270A9701260B9603250C95BC
:104AB00004230D9309A91248FDF76CFD4FF48063A0
:104AC00009930A970B960C950D9509A90B48FDF7CC
:104AD00061FDE36D43F00203E365E36D03F0020360
:104AE0000893089B61E700BF005400400058004055
:104AF000005C0040008400400010024000040048B8
:104B0000001400480008004870B58EB000230993D7
:104B10000A930B930C930D930368554A93420AD062
:104B2000544A93422CD0544A93425ED0534A934203
:104B30007CD00EB070BD524BDA6D42F00102DA65E6
:104B4000DA6D02F001020092009ADA6C42F0400243
:104B5000DA64DB6C03F040030193019BFDF776FE02
:104B60004FF4C073099302230A9300230B9303238A
:104B70000C9308230D9309A94248FDF70BFDD8E7D4
:104B80003F4B9A6D42F480129A659A6D02F480123E
:104B90000292029ADA6C42F00402DA64DA6C02F0F1
:104BA00004020392039ADA6C42F00802DA64DB6CC6
:104BB00003F008030493049B4FF4805309930226E7
:104BC0000A9603250C9508240D9409A92E48FDF793
:104BD000E1FC042309930A9600230B930C950D9492
:104BE00009A92A48FDF7D6FCA3E7254B9A6D42F4A4
:104BF00000329A659A6D02F400320592059ADA6CD9
:104C000042F00102DA64DB6C03F001030693069BB9
:104C10000C23099302230A9303230C9307230D9378
:104C200009A94FF09040FDF7B5FC82E7144B9A6D4F
:104C300042F480229A659A6D02F480220792079AC4
:104C4000DA6C42F00802DA64DB6C03F008030893C4
:104C5000089B4FF44073099302230A9303230C9398
:104C600007230D9309A90948FDF794FC61E700BFEC
:104C700000800040005000400044004000480040D8
:104C8000001002400018004800080048000C0048CE
:104C900070B58CB000230793089309930A930B9384
:104CA00003684C4A934207D04B4A93422DD04B4A5B
:104CB000934252D00CB070BD494B1A6E42F48052F0
:104CC0001A661A6E02F480520092009ADA6C42F070
:104CD0001002DA64DB6C03F010030193019B4FF4C4
:104CE000704307930223089303230A9305230B932E
:104CF00007A93C48FDF74EFC002211462320FDF792
:104D0000BFFD2320FDF7F0FDD4E7354B9A6D42F44B
:104D100080429A659A6D02F480420292029ADA6C9D
:104D200042F00802DA64DB6C03F008030393039B90
:104D30001B2307930223089303230A9305230B9352
:104D400007A92948FDF726FC002211462420FDF77B
:104D500097FD2420FDF7C8FDACE7214B9A6D42F486
:104D600000429A659A6D02F400420492049ADA6C49
:104D700042F00102DA64DA6C02F001020592059A4F
:104D8000DA6C42F00202DA64DB6C03F00203069391
:104D9000069B102307930224089403260A960625EF
:104DA0000B9507A94FF09040FDF7F4FB38230793CC
:104DB0000894002409940A960B9507A90B48FDF75F
:104DC000E9FB224621463320FDF75AFD3320FDF74B
:104DD0008BFD6FE70030014000380040003C004090
:104DE0000010024000100048000C00480004004879
:104DF00000B589B0002201461920FDF741FD1920B8
:104E0000FDF772FD144B1A6E42F400621A661B6EB7
:104E100003F400630193019B02A903A8FDF708F8BE
:104E2000FCF7F4FF0D4BA3FB00239B0C013B0C484C
:104E30000C4A026040F2E732C26043600023036123
:104E40008360FCF749FB18B1012009B05DF804FB51
:104E50000348FCF7F1F9F8E70010024083DE1B433A
:104E6000A8480220002C01407047FEE7FEE7FEE75D
:104E7000FEE7704708B50248FCF7FCF908BD00BF23
:104E8000A848022008B50248FBF7A6FD08BD00BFF0
:104E90008042022008B50248FBF79EFD08BD00BF16
:104EA0006C43022008B50248FBF796FD08BD00BF21
:104EB000EC43022008B50248FBF7AAFC08BD00BF7E
:104EC000D044022008B50248FBF7A2FC08BD00BF91
:104ED000A047022008B50248FBF79AFC08BD00BFB6
:104EE0003445022000B5BBB0242200212AA800F0DE
:104EF0000DF90021249125912691279128918C224A
:104F000001A800F003F91823299301222E922F9271
:104F10009023319302233393349205223592472212
:104F20003692379338930623399329A8FCF7D2FB9E
:104F300028BB0F23249303232593902326934FF418
:104F4000806327930021289124A8FCF79DFEC8B90F
:104F5000114B019300231093119313931493159302
:104F600016931793189301A8FDF7DAF868B94FF470
:104F70000070FDF725FC58B93BB05DF804FBFBF76A
:104F80002BFBD6E7FBF728FBE2E7FBF725FBEEE779
:104F9000FBF722FBF0E700BFF60110000F49D1F844
:104FA000883043F47003C1F888300D4B1A6842F022
:104FB00001021A60002098601A6822F0A85222F4B8
:104FC00010221A604FF48052DA601A6822F48022AC
:104FD0001A6098614FF000638B60704700ED00E04D
:104FE0000010024008B50A4B0A4A1A6058600022B5
:104FF0009A60DA601A610C2159619A611A625A62E8
:105000001846FCF7E4F800B908BDFBF7E5FAFBE742
:10501000984502200080004000B583B001904FF613
:10502000FF73012201A90348FCF732F8019803B08D
:105030005DF804FB9845022070B50C461646002525
:10504000B54205DA14F8010BFFF7E6FF0135F7E783
:10505000304670BDDFF834D0002103E00C4B5B58C4
:10506000435004310B480C4B42189A42F6D30B4A7A
:1050700002E0002342F8043B094B9A42F9D3FFF7C0
:105080008DFF00F011F8FBF765FAFEE70000052040
:10509000985C0008000000207000002070000020D4
:1050A000F8480220FEE7000070B50D4D0D4C641B62
:1050B000A4100026A64209D10B4D0C4C00F028FD8F
:1050C000641BA4100026A64205D170BD55F8043B10
:1050D00098470136EEE755F8043B98470136F2E76A
:1050E000885C0008885C0008885C00088C5C00080C
:1050F0000A44914200F1FF3300D1704710B511F816
:10510000014B03F8014F9142F9D110BD024403460F
:10511000934200D1704703F8011BF9E770B50E46C2
:10512000054618B183690BB900F048FAAB69AC6861
:1051300013B9284600F042FA2C4B9C4220D16C68EF
:10514000636EDB0705D4A389980502D4A06D00F037
:10515000D2FAA38919071DD52369DBB1013EA368E3
:1051600016F8011F013BA36039BB002B38DA224639
:105170000A21284600F048F8013011D00A2511E034
:105180001B4B9C4201D1AC68DAE71A4B9C4208BF2A
:10519000EC68D5E72146284600F088F80028DDD0E5
:1051A0004FF0FF35636EDA0705D4A3899B0502D45F
:1051B000A06D00F0A1FA284670BD002B04DAA269A8
:1051C0009A4206DC0A2904D023685A1C226019700E
:1051D000C5E72246284600F017F80130BFD1DFE7C7
:1051E00023680A255A1C22601D70DBE73C5C00081E
:1051F0005C5C00081C5C0008024B01461868FFF765
:105200008DBF00BF08000020F8B50E4614460546C5
:1052100018B183690BB900F0D1F9214B9C422BD115
:105220006C68A369A360A3891A072FD523696BB3A0
:1052300023692068C01A6369F6B28342374604DCEA
:105240002146284600F026F930BBA368013BA36045
:1052500023685A1C22601E7063690130834204D0A7
:10526000A389DB0706D50A2E04D12146284600F083
:1052700011F988B93846F8BD0A4B9C4201D1AC6897
:10528000CFE7094B9C4208BFEC68CAE72146284695
:1052900000F00CF80028CBD04FF0FF37EAE700BF52
:1052A0003C5C00085C5C00081C5C0008324B70B57C
:1052B0001D6806460C4625B1AB6913B9284600F0B7
:1052C0007DF92E4B9C420FD16C68B4F90C309AB228
:1052D00015072CD4D00611D40922326043F04003C4
:1052E000A3814FF0FF303EE0254B9C4201D1AC68DA
:1052F000EBE7244B9C4208BFEC68E6E7510712D568
:10530000616B41B104F14403994202D0304600F090
:1053100059FA00236363A38923F02403A3810023A4
:10532000636023692360A38943F00803A381236991
:105330004BB9A38903F42073B3F5007F03D0214652
:10534000304600F0FFF9A28912F001030CD00023CF
:10535000A36063695B42A361236953B9B4F90C305C
:1053600013F08000BAD170BD920758BF6369A36083
:10537000F2E70020F7E700BF080000203C5C0008CF
:105380005C5C00081C5C00088A892DE9F041054638
:1053900010070C4658D44B68002B05DC0B6C002B17
:1053A00002DC0020BDE8F081E66A002EF9D000237F
:1053B00012F480522F682B6032D0606DA3895A0797
:1053C00005D56368C01A636B0BB1236CC01A002348
:1053D0000246E66A216A2846B047431CA38906D1E3
:1053E00029681D292CD82A4ACA40D60728D5002268
:1053F0006260D9042269226004D5421C01D12B6865
:1054000003B96065616B2F600029CAD004F14403C1
:10541000994202D0284600F0D5F900206063C1E728
:10542000216A01232846B047411CC7D12B68002BB5
:10543000C4D01D2B01D0162B01D12F60B1E7A38959
:1054400043F04003A381ADE70F69002FA9D0930774
:105450000E6808BF4B690F6018BF0023A6EB070852
:105460008B60B8F1000F9CDD43463A46216AA66A7C
:105470002846B047002806DCA38943F04003A381F7
:105480004FF0FF308EE70744A8EB0008E9E700BFC4
:105490000100402038B50B6905460C4613B90025BC
:1054A000284638BD18B183690BB900F087F8144B52
:1054B0009C421BD16C68B4F90C30002BEFD0626EAB
:1054C000D00704D4990502D4A06D00F014F9284641
:1054D0002146FFF759FF636EDA070546E0D4A3893A
:1054E0009B05DDD4A06D00F007F9D9E7054B9C4280
:1054F00001D1AC68DFE7044B9C4208BFEC68DAE7F7
:105500003C5C00085C5C00081C5C0008002310B5D3
:105510000446C0E90033836081814366C281C0E9EB
:1055200004338361194608225C30FFF7EFFD054B19
:105530006362054BA362054BE362054B2462236360
:1055400010BD00BF35590008575900088F59000891
:10555000B3590008014900F0AFB800BF95540008E6
:1055600070B54A1E682555430E4605F1740100F0DA
:1055700077F9044640B10021C0E900160C30A06064
:1055800005F16802FFF7C2FD204670BD014800F03A
:10559000B2B800BFF0480220014800F0ADB800BF2B
:1055A000F0480220014800F0A6B800BFEB480220F6
:1055B000014800F0A1B800BFEB48022010B5044636
:1055C000FFF7F0FFA3691BB1BDE81040FFF7F0BF84
:1055D000C4E912332365134B134A1B68A262A3422A
:1055E00004BF0123A361204600F020F8606020463C
:1055F00000F01CF8A060204600F018F80022E060DF
:1056000004216068FFF782FF01220921A068FFF7EB
:105610007DFF02221221E068FFF778FF0123A361DA
:10562000D2E700BF185C000855550008F8B50746DA
:10563000FFF7ACFF1E4B1E68B36913B93046FFF786
:10564000BDFF4836D6E90134013B03D533680BB3BF
:105650003668F7E7B4F90C50D5B9164BE36004F19E
:105660005800656600F046F8FFF796FF2560C4E92C
:105670000155C4E90455A5610822294604F15C00DE
:10568000FFF744FDC4E90D55C4E912552046F8BDA5
:105690006834D9E704213846FFF762FF04463060DA
:1056A0000028D5D1FFF778FF0C233B60EEE700BF61
:1056B000185C00080100FFFF2DE9F8438046894689
:1056C00000F14804002614B93046BDE8F883D4E957
:1056D0000175013F01D52468F5E7AB89012B07D996
:1056E000B5F90E30013303D029464046C84706437A
:1056F0006835EEE770477047704770B50E46B1F9F0
:105700000E10002996B014461D4607DA00232B60C0
:10571000B3891A0610D44FF480630EE06A4600F095
:105720006FF90028F2DB019A02F47042A2F50053EF
:105730005A425A412A60EEE740230020236016B007
:1057400070BD00008B8973B59D0706460C4607D5D2
:1057500004F14703236023610123636102B070BD3C
:1057600001AB6A46FFF7C9FF00990546304600F0D5
:1057700077F848B9B4F90C309A05EFD423F0030355
:1057800043F00203A381E3E70D4BB362A3892060DA
:1057900043F08003A381009B6361019B20615BB1A7
:1057A000B4F90E10304600F03DF928B1A38923F07A
:1057B000030343F00103A381A3891D43A581CDE722
:1057C0005555000838B50546002945D051F8043C28
:1057D0000C1F002BB8BFE41800F046F91F4A1368ED
:1057E000104633B9636014602846BDE8384000F0C5
:1057F00041B9A3420CD921686218934204BF1A68C8
:105800005B68636004BF521822600460ECE71346D3
:105810005A680AB1A242FAD919685818A0420BD1A5
:1058200020680144581882421960DDD1106852681E
:105830005A6001441960D7E702D90C232B60D3E7E3
:10584000206821188A4204BF11685268626004BF50
:10585000091821605C60C7E738BD00BF1442022010
:10586000F8B5CD1C25F0030508350C2D38BF0C25E7
:10587000002D064601DBA94203D90C23336000202A
:10588000F8BD00F0F1F821490A6814469CB9204F90
:105890003B6823B92146304600F03CF83860294681
:1058A000304600F037F8431C23D10C2333603046D8
:1058B00000F0E0F8E3E723685B1B17D40B2B03D958
:1058C00023601C44256004E06368A2420CBF0B60A7
:1058D0005360304600F0CEF804F10B00231D20F099
:1058E0000700C21ACCD01B1AA350C9E7224664682D
:1058F000CCE7C41C24F00304A042E3D0211A3046B4
:1059000000F008F80130DDD1CFE700BF14420220DB
:105910001842022038B5064C00230546084623608D
:1059200000F0E8F8431C02D1236803B12B6038BDB6
:10593000F448022010B50C46B1F90E1000F0A0F8A2
:105940000028ABBF636DA3891B1823F48053ACBF41
:105950006365A38110BD2DE9F0411F468B89DB05EE
:1059600005460C46164605D502230022B1F90E1055
:1059700000F068F8A389B4F90E1023F48053A381D2
:1059800032463B462846BDE8F04100F017B810B556
:105990000C46B1F90E1000F055F8431CA38915BF51
:1059A000606523F4805343F48053A38118BFA3811F
:1059B00010BDB1F90E1000F013B8000038B5074C57
:1059C000054608461146002222601A46FFF734FBBE
:1059D000431C02D1236803B12B6038BDF448022078
:1059E00038B5064C002305460846236000F05AF8F7
:1059F000431C02D1236803B12B6038BDF448022058
:105A000038B5074C0023054608461146236000F0D0
:105A100051F8431C02D1236803B12B6038BD00BF8D
:105A2000F448022038B5064C00230546084623609A
:105A300000F048F8431C02D1236803B12B6038BD45
:105A4000F448022038B5074C0546084611460022A6
:105A500022601A4600F03EF8431C02D1236803B1CD
:105A60002B6038BDF44802200148FFF744BE00BF58
:105A7000EC4802200148FFF73FBE00BFEC4802207F
:105A800038B5074C054608461146002222601A46E2
:105A900000F028F8431C02D1236803B12B6038BD05
:105AA000F4480220024B58221A604FF0FF30704732
:105AB000F4480220024B58221A604FF0FF30704722
:105AC000F4480220024B58221A600020704700BFA1
:105AD000F4480220024B58221A604FF0FF30704702
