:020000040800F2
:100000000000052059730008CD6D0008CF6D000871
:10001000D16D0008D36D0008D56D00080000000008
:1000200000000000000000000000000071600008F7
:10003000D76D000800000000A160000805610008FD
:10004000A9730008A9730008A9730008A973000820
:10005000A9730008A97300083517000805170008E0
:10006000A9730008A9730008A9730008A973000800
:10007000A9730008A9730008A9730008A9730008F0
:10008000A9730008A9730008A9730008A9730008E0
:10009000A9730008A9730008A9730008A9730008D0
:1000A000A9730008D96D0008A9730008A973000896
:1000B0005517000881170008A9730008A9730008E4
:1000C000A9730008A9730008A9730008196E000835
:1000D000296E0008A9730008E96D0008F96D000891
:1000E000496E0008A9730008A9730008A9730008E5
:1000F000A9730008A9730008A9730008A973000870
:10010000A9730008A9730008A9730008396E0008D4
:10011000A9730008096E0008A9730008A9730008F4
:10012000A9730008A9730008A9730008A97300083F
:10013000A9730008A9730008A9730008A97300082F
:10014000A9730008A9730008A9730008A97300081F
:10015000A9730008A9730008A9730008A97300080F
:10016000A9730008A9730008A9730008A9730008FF
:10017000A9730008A9730008A97300080000000013
:10018000A9730008A9730008A9730008A9730008DF
:10019000A9730008A9730008A9730008A9730008CF
:1001A000A9730008A9730008000000000000000007
:1001B00010B5054C237833B9044B13B10448AFF3A1
:1001C00000800123237010BDE80200200000000021
:1001D000309D000808B5034B1BB103490348AFF33A
:1001E000008008BD00000000EC020020309D0008E7
:1001F000034613F8012B002AFBD1181A0138704767
:1002000001F0FF01102A2BDB10F0070F08D010F8C7
:10021000013B013A8B422DD010F0070F42B3F6D1CB
:10022000F0B441EA012141EA014122F007047FF0E4
:1002300000070023F0E80256083C85EA010586EA3B
:10024000010685FA47F5A3FA87F586FA47F6A5FA77
:1002500087F68EB9EED1F0BC01F0FF0102F0070283
:1002600032B110F8013B013A83EA010313B1F8D12E
:100270000020704701387047002D06BF354603380F
:10028000073815F0010F07D1013015F4807F02BF48
:10029000013015F4C03F0130F0BC0138704700BF99
:1002A00081F0004102E000BF83F0004330B54FEA27
:1002B00041044FEA430594EA050F08BF90EA020F94
:1002C0001FBF54EA000C55EA020C7FEA645C7FEA27
:1002D000655C00F0E2804FEA5454D4EB5555B8BF4A
:1002E0006D420CDD2C4480EA020281EA030382EABB
:1002F000000083EA010180EA020281EA0303362D4D
:1003000088BF30BD11F0004F4FEA01314FF4801C1F
:100310004CEA113102D0404261EB410113F0004F31
:100320004FEA03334CEA133302D0524263EB4303E8
:1003300094EA050F00F0A780A4F10104D5F1200E86
:100340000DDB02FA0EFC22FA05F2801841F10001E1
:1003500003FA0EF2801843FA05F359410EE0A5F1B5
:1003600020050EF1200E012A03FA0EFC28BF4CF0E6
:10037000020C43FA05F3C01851EBE37101F000459C
:1003800007D54FF0000EDCF1000C7EEB00006EEBA9
:100390000101B1F5801F1BD3B1F5001F0CD3490833
:1003A0005FEA30004FEA3C0C04F101044FEA44528A
:1003B00012F5800F80F09A80BCF1004F08BF5FEA11
:1003C000500C50F1000041EB045141EA050130BDF1
:1003D0005FEA4C0C404141EB010111F4801FA4F194
:1003E0000104E9D191F0000F04BF01460020B1FAE9
:1003F00081F308BF2033A3F10B03B3F120020CDA21
:100400000C3208DD02F1140CC2F10C0201FA0CF0FE
:1004100021FA02F10CE002F11402D8BFC2F1200C63
:1004200001FA02F120FA0CFCDCBF41EA0C01904019
:10043000E41AA2BF01EB0451294330BD6FEA040462
:100440001F3C1CDA0C340EDC04F11404C4F120024D
:1004500020FA04F001FA02F340EA030021FA04F35F
:1004600045EA030130BDC4F10C04C4F1200220FAB6
:1004700002F001FA04F340EA0300294630BD21FAF4
:1004800004F0294630BD94F0000F83F4801306BFBA
:1004900081F480110134013D4EE77FEA645C18BFAE
:1004A0007FEA655C29D094EA050F08BF90EA020F45
:1004B00005D054EA000C04BF1946104630BD91EA3D
:1004C000030F1EBF0021002030BD5FEA545C05D140
:1004D0004000494128BF41F0004130BD14F580047F
:1004E0003CBF01F5801130BD01F0004545F0FE41F3
:1004F00041F470014FF0000030BD7FEA645C1ABF28
:10050000194610467FEA655C1CBF0B46024650EA5E
:10051000013406BF52EA033591EA030F41F400218A
:1005200030BD00BF90F0000F04BF0021704730B510
:100530004FF4806404F132044FF000054FF00001E5
:1005400050E700BF90F0000F04BF0021704730B5A6
:100550004FF4806404F1320410F0004548BF40427B
:100560004FF000013EE700BF42004FEAE2014FEAD0
:1005700031014FEA02701FBF12F07F4393F07F4FAB
:1005800081F06051704732F07F4208BF704793F0AE
:100590007F4F04BF41F40021704730B54FF46074C1
:1005A00001F0004521F000411CE700BF50EA0102C4
:1005B00008BF704730B54FF000050AE050EA01026D
:1005C00008BF704730B511F0004502D5404261EBDD
:1005D00041014FF4806404F132045FEA915C3FF41E
:1005E000D8AE4FF003025FEADC0C18BF03325FEABB
:1005F000DC0C18BF033202EBDC02C2F1200300FA6C
:1006000003FC20FA02F001FA03FE40EA0E0021FA90
:1006100002F11444BDE600BF70B54FF0FF0C4CF47E
:10062000E06C1CEA11541DBF1CEA135594EA0C0F30
:1006300095EA0C0F00F0DEF82C4481EA030621EA6B
:100640004C5123EA4C5350EA013518BF52EA0335A6
:1006500041F4801143F4801338D0A0FB02CE4FF058
:100660000005E1FB02E506F00042E0FB03E54FF088
:100670000006E1FB03569CF0000F18BF4EF0010E80
:10068000A4F1FF04B6F5007F64F5407404D25FEA7C
:100690004E0E6D4146EB060642EAC62141EA55512F
:1006A0004FEAC52040EA5E504FEACE2EB4F1FD0C71
:1006B00088BFBCF5E06F1ED8BEF1004F08BF5FEAEF
:1006C000500E50F1000041EB045170BD06F00046A1
:1006D00046EA010140EA020081EA0301B4EB5C044E
:1006E000C2BFD4EB0C0541EA045170BD41F4801146
:1006F0004FF0000E013C00F3AB8014F1360FDEBF6B
:10070000002001F0004170BDC4F10004203C35DA46
:100710000C341BDC04F11404C4F1200500FA05F3C9
:1007200020FA04F001FA05F240EA020001F000426A
:1007300021F0004110EBD37021FA04F642EB0601E0
:100740005EEA430E08BF20EAD37070BDC4F10C040A
:10075000C4F1200500FA04F320FA05F001FA04F2CE
:1007600040EA020001F0004110EBD37041F10001BA
:100770005EEA430E08BF20EAD37070BDC4F12005C5
:1007800000FA05F24EEA020E20FA04F301FA05F22D
:1007900043EA020321FA04F001F0004121FA04F2D5
:1007A00020EA020000EBD3705EEA430E08BF20EAA5
:1007B000D37070BD94F0000F0FD101F000464000DF
:1007C00041EB010111F4801F08BF013CF7D041EA61
:1007D000060195F0000F18BF704703F00046520065
:1007E00043EB030313F4801F08BF013DF7D043EA36
:1007F0000603704794EA0C0F0CEA135518BF95EAEC
:100800000C0F0CD050EA410618BF52EA4306D1D172
:1008100081EA030101F000414FF0000070BD50EA91
:10082000410606BF1046194652EA430619D094EA1B
:100830000C0F02D150EA013613D195EA0C0F05D105
:1008400052EA03361CBF104619460AD181EA030159
:1008500001F0004141F0FE4141F470014FF0000011
:1008600070BD41F0FE4141F4780170BD70B54FF0AC
:10087000FF0C4CF4E06C1CEA11541DBF1CEA13552C
:1008800094EA0C0F95EA0C0F00F0A7F8A4EB05040E
:1008900081EA030E52EA03354FEA013100F0888005
:1008A0004FEA03334FF0805545EA131343EA1263CE
:1008B0004FEA022245EA111545EA10654FEA002683
:1008C0000EF000419D4208BF964244F1FD0404F53C
:1008D000407402D25B084FEA3202B61A65EB030598
:1008E0005B084FEA32024FF480104FF4002CB6EB55
:1008F000020E75EB030E22BFB61A754640EA0C00D5
:100900005B084FEA3202B6EB020E75EB030E22BF14
:10091000B61A754640EA5C005B084FEA3202B6EB55
:10092000020E75EB030E22BFB61A754640EA9C0014
:100930005B084FEA3202B6EB020E75EB030E22BFE4
:10094000B61A754640EADC0055EA060E18D04FEAA2
:10095000051545EA16754FEA06164FEAC30343EA42
:1009600052734FEAC2025FEA1C1CC0D111F4801F0F
:100970000BD141EA00014FF000004FF0004CB6E708
:1009800011F4801F04BF01430020B4F1FD0C88BFA7
:10099000BCF5E06F3FF6AFAEB5EB030C04BFB6EBB2
:1009A000020C5FEA500C50F1000041EB045170BDA5
:1009B0000EF0004E4EEA113114EB5C04C2BFD4EBD2
:1009C0000C0541EA045170BD41F480114FF0000E56
:1009D000013C90E645EA060E8DE60CEA135594EAD2
:1009E0000C0F08BF95EA0C0F3FF43BAF94EA0C0FD5
:1009F0000AD150EA01347FF434AF95EA0C0F7FF44A
:100A000025AF104619462CE795EA0C0F06D152EA9D
:100A100003353FF4FDAE1046194622E750EA410681
:100A200018BF52EA43067FF4C5AE50EA41047FF492
:100A30000DAF52EA43057FF4EBAE12E74FF0FF3CF7
:100A400006E000BF4FF0010C02E000BF4FF0010CC8
:100A50004DF804CD4FEA410C7FEA6C5C4FEA430C41
:100A600018BF7FEA6C5C1BD001B050EA410C0CBF90
:100A700052EA430C91EA030F02BF90EA020F0020F2
:100A8000704710F1000F91EA030F58BF994208BF59
:100A900090422CBFD8176FEAE37040F00100704716
:100AA0004FEA410C7FEA6C5C02D150EA013C07D16D
:100AB0004FEA430C7FEA6C5CD6D152EA033CD3D0B8
:100AC0005DF8040B704700BF8446104662468C46B2
:100AD0001946634600E000BF01B5FFF7B7FF0028E5
:100AE00048BF10F1000F01BD4DF808EDFFF7F4FF0E
:100AF0000CBF012000205DF808FB00BF4DF808ED99
:100B0000FFF7EAFF34BF012000205DF808FB00BFBB
:100B10004DF808EDFFF7E0FF94BF012000205DF8DD
:100B200008FB00BF4DF808EDFFF7CEFF94BF012092
:100B300000205DF808FB00BF4DF808EDFFF7C4FF8B
:100B400034BF012000205DF808FB00BF4FEA410CD4
:100B50007FEA6C5C02D150EA013C0AD14FEA430CB7
:100B60007FEA6C5C02D152EA033C02D14FF00000F4
:100B700070474FF0010070474FEA410212F5001232
:100B800015D211D56FF47873B3EB625212D94FEAD4
:100B9000C12343F0004343EA505311F0004F23FABE
:100BA00002F018BF404270474FF00000704750EA13
:100BB000013005D111F0004008BF6FF000407047D0
:100BC0004FF00000704700BF4FEA4102B2F1E0432E
:100BD00024BFB3F5001CDCF1FE5C0DD901F0004C24
:100BE0004FEAC0024CEA5070B2F1004F40EB830074
:100BF00008BF20F00100704711F0804F21D113F1A0
:100C00003872BCBF01F00040704741F480114FEAD8
:100C10005252C2F11802C2F1200C10FA0CF320FA61
:100C200002F018BF40F001004FEAC1234FEAD3237E
:100C300003FA0CFC40EA0C0023FA02F34FEA4303E8
:100C4000CCE77FEA625307D150EA01331EBF4FF071
:100C5000FE4040F44000704701F0004040F0FE408C
:100C600040F40000704700BF53B94AB9002908BFDB
:100C700000281CBF4FF0FF314FF0FF3000F074B977
:100C8000ADF1080C6DE904CE00F006F8DDF804E0E3
:100C9000DDE9022304B070472DE9F047089E0446C1
:100CA0008846002B40F085808A42154648D9B2FA22
:100CB00082F24AB1C2F1200701FA02F320FA07F7E3
:100CC000954047EA030894404FEA154E230CB8FBC1
:100CD000FEF71FFA85FC0EFB178843EA084307FB63
:100CE0000CF1994209D9EB1807F1FF3080F0E3804D
:100CF000994240F2E080023F2B445B1AA4B2B3FB5E
:100D0000FEF00EFB103344EA034400FB0CFCA44548
:100D100009D92C1900F1FF3380F0CB80A44540F2B3
:100D2000C88002382C4440EA0740A4EB0C0400279A
:100D30001EB1D4400023C6E900433946BDE8F08720
:100D4000002A53D0B2FA82F2002A40F0B680491B42
:100D50004FEA154E1FFA85F80127B1FBFEFC230C64
:100D60000EFB1C1143EA014308FB0CF1994207D921
:100D7000EB180CF1FF3002D2994200F2EC8084466D
:100D8000591AA3B2B1FBFEF00EFB101443EA04445F
:100D900008FB00F8A04507D92C1900F1FF3302D257
:100DA000A04500F2DC801846A4EB080440EA0C40A1
:100DB000BEE78B4208D9002E78D00027C6E9000193
:100DC00038463946BDE8F087B3FA83F77FB98B42DE
:100DD00002D3824200F2BD80841A61EB030301203A
:100DE0009846002EA9D0C6E90048A6E7FFDEC7F165
:100DF0002005BB4022FA05FC4CEA030C01FA07F47B
:100E000020FA05F821FA05F34FEA1C4E48EA0404DB
:100E1000B3FBFEF9210C0EFB19331FFA8CF841EAE3
:100E2000034309FB08FA9A4502FA07F200FA07F1B0
:100E30000BD91CEB030309F1FF3080F088809A4541
:100E400040F28580A9F102096344A3EB0A03A4B22E
:100E5000B3FBFEF00EFB103344EA034400FB08F83A
:100E6000A04508D91CEB040400F1FF336BD2A04568
:100E700069D90238644440EA0940A4EB0804A0FBA5
:100E800002894C45C6464B4654D351D0002E69D0FA
:100E9000B1EB0E0264EB030404FA05F522FA07F342
:100EA000FC401D43C6E90054002746E7374630465C
:100EB00043E7184637E707461FE7C2F1200320FA49
:100EC00003F7954001FA02F021FA03F34FEA154EB9
:100ED0003843010CB3FBFEF71FFA85F80EFB1733FE
:100EE00041EA034107FB08F38B4204FA02F407D9F5
:100EF000691807F1FF3C28D28B4226D9023F2944CA
:100F0000CB1A81B2B3FBFEF00EFB103341EA034172
:100F100000FB08F38B4207D9691800F1FF3C10D29F
:100F20008B420ED902382944C91A40EA074714E710
:100F30004145ABD2B8EB020E69EB0C020138134607
:100F4000A4E76046F0E7184695E76746D8E781468C
:100F50007BE7384645E7ACF1020C2B4410E702383A
:100F60002C4421E73746E8E6704700BF30B583B030
:100F7000124B9A6D42F001029A659B6D03F00103DA
:100F80000193019B0E4C4FF47A5363600025A560DA
:100F90004EF66023E36025616561204603F060F949
:100FA000204602F0F7FF2A4629461C2004F0AAFE3C
:100FB0001C2004F0DBFE03B030BD00BF0010024077
:100FC0004000002030B583B0124B9A6D42F002020F
:100FD0009A659B6D03F002030193019B0E4C4FF445
:100FE0007A5363600025A56047F23053E3602561C2
:100FF0006561204603F034F9204602F0CBFF2A4613
:1010000029461D2004F07EFE1D2004F0AFFE03B033
:1010100030BD00BF001002400000002008B50A48A3
:1010200007F04AF805F0BEFE0121002004F0BCFDE7
:1010300005F0C2FE05F00EFF044807F03DF8044B32
:1010400000221A7008BD00BFB09D0008C89D0008AE
:101050001A03002000B583B0174B1B783BB3174A27
:10106000D2ED007AFCEEE77A17EE903A8DF8003078
:10107000D2ED017AFCEEE77A17EE903A8DF8013066
:1010800000238DF802300321684601F07FFC50B93F
:10109000094A137801331370094A13880133138006
:1010A00003B05DF804FB044B01221A70F4E7054815
:1010B00007F002F8F4E700BF13030020900D0020B2
:1010C00008030020749D000800B583B01C4B1B78FA
:1010D0008BB31C4AD2ED007AFCEEE77A17EE903A19
:1010E0008DF80030D2ED017AFCEEE77A17EE903AF7
:1010F0008DF8013000238DF80230134A12788DF8F4
:101100000320124A12788DF804208DF8053006214C
:10111000684601F053FC50B9094A13780133137043
:101120000B4A13880133138003B05DF804FB044BB2
:1011300001221A70F4E7074806F0BEFFF4E700BF8B
:1011400013030020900D0020100300201C0300203A
:1011500006030020749D000800B583B01D4B1B786A
:10116000002B33D01C4AD2ED007AFCEEE77A17EE62
:10117000903A8DF80030D2ED017AFCEEE77A17EE66
:10118000903A8DF80130154B1B788DF80230144BD6
:101190001B788DF80330134B1B788DF80430002337
:1011A0008DF805300621684601F008FC50B9094A5F
:1011B0001378013313700C4A13880133138003B082
:1011C0005DF804FB034B01221A70F4E7074806F0B0
:1011D00073FFF4E713030020900D00201603002096
:1011E000100300201C03002006030020749D00084B
:1011F00038B50C4C204606F05FFF0B4D2868FFF712
:10120000B3F902460B46094806F0D0FE6868FFF7BE
:10121000ABF902460B46064806F0C8FE204606F02B
:101220004BFF38BDB89F0008900D00202CA000088F
:1012300048A0000808B5034806F07EF8FFF7D8FF7D
:1012400008BD00BF900D002010B50B4A13785178EF
:1012500003EB83035A001144C9B21039C9B2074CD9
:101260002170074806F0A2FE237803B110BD0020CC
:10127000FFF7F0FEFAE700BF340D00201C0300204A
:1012800014AC000830B583B01A4C204606F014FFA9
:10129000194D284606F010FF184806F00DFF2846A5
:1012A00006F00AFF204606F007FF154B6C4693E850
:1012B000030084E80300134806F078FE217821B18A
:1012C000114806F073FE0134F8E7104806F0F4FE0A
:1012D0000F4C4FF40041204604F02BFC4FF4FA6011
:1012E00002F0F8FF4FF40041204604F022FC03B066
:1012F00030BD00BFB89F0008D49F000800A00008C0
:10130000880D002018A0000824A00008389F0008BD
:10131000000C004810B5084C4FF48041204604F002
:1013200008FC4FF4FA7002F0D5FF4FF480412046DC
:1013300004F0FFFB10BD00BF000C004810B50446D0
:10134000FFF7E8FF154B01221A70154B1B78D3B934
:10135000144806F02BFE012C05D0022C0BD01248AD
:1013600006F0AAFE19E0114A13780133DBB21370BC
:10137000FFF7AAFE11E00D4A13780133DBB21370B8
:10138000FFF7EAFE09E00020FFF764FE084A137841
:1013900001331370074806F08FFE10BD0D030020C7
:1013A0001103002060A000086CA0000810030020BA
:1013B0000E03002084A0000838B502F06EFF05F08F
:1013C00049FD01F029FBFFF7D1FDFFF7FBFD05F01B
:1013D0008FF9A04CC4E900019F4D284605F084FE1A
:1013E000284605F013FF05F04FFF05F0E4FE02224A
:1013F0009A499B4802F0C4F800221146072004F0E5
:1014000081FC072004F0B2FC00221146062004F003
:1014100079FC062004F0AAFCFFF734FF0022D4E98F
:10142000000101F047FA8F4B187030B94FF4FA60A1
:1014300002F050FFFFF76EFF79E08B4806F03CFEAC
:10144000F4E7002005F0A8F8884B1B782BB3884BF5
:101450001B789BB105F076FE864806F02DFE864887
:1014600006F02AFE7F4B1B78A3B1844806F024FEC9
:10147000FFF7E0FE0120FFF761FF0BE005F09BFEA8
:101480007F4806F019FE774B1B78002B66D17D4B09
:1014900000221A70754B00221A707B4B1B787BB1AF
:1014A000734B1B78002B62D1784C204602F08CFDE8
:1014B000236800255D62204602F06CFD724B1D70B2
:1014C000734B1B78002B5BD1724B1B7833B1654B90
:1014D0001B78002B6AD16F4B00221A706E4B1B7861
:1014E0004BB16E4B1B7833B96D4B1B78002B69D118
:1014F000694B00221A70694B1B78002B68D1684B2E
:101500001B78DBB2032B70D0664B1B78032B79D092
:10151000654B1B78DBB2012B7FD0644B1B78002B13
:1015200040F08580624B1B78002B40F08B80614B34
:101530001B78002B85D0002005F02EF841F2883072
:1015400002F0C8FE5C4B1B78002BF0D001F04EFA85
:10155000B0FA80F04009584B1870E8E7574806F099
:10156000ABFDFFF767FE0220FFF7E8FE8FE7454B74
:1015700019780131C9B21970514806F017FD93E787
:10158000504806F099FD3A4B1B7813B9354B1B7840
:101590001BB93F4B00221A7096E74B4806F08CFDB2
:1015A000FFF748FE0120FFF7C9FEF2E7474806F0C3
:1015B00083FDFFF73FFE0120FFF7C0FE374B0122FE
:1015C0001A7088E7364B1978414806F0EFFC8FE730
:1015D0000024274B1C702B4B1C70FFF71FFD0120B4
:1015E000FFF7ACFE2D4B1C7089E73A4806F064FD0E
:1015F000394B01221A702C4B00221A70284B0422FE
:101600001A7081E7354806F057FD0023324A1370FF
:10161000244A1370224A13707AE7314806F04CFDD1
:101620002D4B00221A70204B02221A7075E7FFF72B
:101630000BFE022209490A4801F0A2FF1B4B0022BF
:101640001A706FE70020FFF705FD194B00221A7092
:101650006DE700BF880D0020540C0020340D0020E1
:10166000BC0C002013030020E49D00080B030020A5
:1016700015030020089E00081C9E0008389E0008E4
:10168000689E0008160300201403002000000020BC
:10169000190300201B030020170300200A03002069
:1016A0000C0300200E030020180300200403002078
:1016B0000F0300200D03002012030020909E00085D
:1016C000D09E0008E89E0008049F00083C9F000888
:1016D0006C9F0008849F000811030020A09F000851
:1016E000BC9F0008B0F5005F00D0704708B5034B01
:1016F00001221A70024806F0DFFC08BD1403002026
:101700005C9D000808B5074806F0D6FC064B02228F
:101710005A61064A137883F001031370044B0122C7
:101720001A7008BD489D0008000401401503002000
:101730000B03002008B50123034A5361034A1370C9
:10174000034806F0B9FC08BD000401400F03002067
:10175000489D0008084B1B681A6912F0010F09D058
:10176000DA6812F0010F05D06FF001021A61034B25
:1017700001221A70704700BF4000002019030020AA
:1017800008B50D4B1B681A6912F0010F0CD0DA680E
:1017900012F0010F08D06FF001021A61074B1B789D
:1017A0001BB9064B01221A7008BD054806F084FCDF
:1017B000044B01221A70F4E7000000201A030020F5
:1017C0009C9D00081B03002010B50446084B98425E
:1017D00003D0084B9C4206D010BD01F00DF9064B1A
:1017E00001221A70F5E7054B01221A70F4E700BFD9
:1017F000200A0020BC0C002012030020040300205B
:1018000008B50268034B9A4200D008BD02F054FDAF
:10181000FBE700BF002C01407047000008B50B71CA
:101820004A710122063100F0BFFC00B908BD034B2C
:10183000034AE321034805F0B9FD00BF4CAA0008A4
:1018400050A100088CAA000870B582B0A2B105466C
:101850000C468BB901220DF1070100F0A5FC88B9F7
:101860009DF8073084F80431D72B11D0023BDBB24E
:10187000012B75D902B070BD454B464AE821464858
:1018800005F094FD454B434AEA21434805F08EFD9F
:10189000261D01223146284600F086FC0222A11DA9
:1018A000284600F081FCE3885BBAE380012204F162
:1018B0000801284600F078FC012204F109012846BD
:1018C00000F072FC012204F10B01284600F06CFCD0
:1018D000012204F10C01284600F066FC012204F10B
:1018E0000D01284600F060FC012204F10E0128469B
:1018F00000F05AFC012204F10F01284600F054FCCC
:10190000012204F11101284600F04EFC012204F1ED
:101910001201284600F048FC637CC3F30113032B3B
:1019200007D8DFE803F00F0D020408220BE00222C3
:1019300009E01B4B1B4A4FF497711B4805F036FD1D
:10194000002200E0012204F11301284600F02CFCE3
:1019500000288FD0154B0F4AFF210F4805F026FDB8
:101960000121284600F0E0FB0122211D284600F05D
:101970001BFC0122611D284600F016FC0222A11D5D
:10198000284600F011FCE3885BBAE38072E700BFF1
:1019900088A9000864A100088CAA000894A900087E
:1019A000C0A90008A0A00008C8A90008F4A9000860
:1019B00010B582B0044600238DF8073001220DF1E6
:1019C000070100F0F1FB9DF80700820901D102B088
:1019D00010BD00F03F00D3009840009069462046BB
:1019E00000F0E2FB0098F2E730B585B005460191C2
:1019F0003F2926D9B1F5804F2FD20124B1F5800FB0
:101A000000D30324A301DBB28DF80F3004AA2244D3
:101A100012F80C2C13448DF80F3001220DF10F0138
:101A2000284600F015FBD0B9013CE4B2012201AB1D
:101A30001919284600F00CFBB8B9002CF4D105B0F8
:101A400030BD012201A900F003FB0028F7D00A4BAA
:101A50000A4A3F210A4805F0A9FC0224CEE7094BB7
:101A6000064A4C21064805F0A1FC074B034A4F21CA
:101A7000034805F09BFC00BFF8A70008BCA00008C5
:101A80008CAA00082CA8000854A8000830B583B020
:101A900004460D4601226946284600F085FB58B9E8
:101AA0002846FFF785FF019002AB13E9030084E8A5
:101AB0000300204603B030BD024B034A55210348C2
:101AC00005F074FC74A90008D8A000088CAA0008CE
:101AD00070B582B005460E466C4601462046FFF7BB
:101AE000D5FF331D94E8030083E803002846FFF781
:101AF0005FFFF060FF2807D882B206F11001284688
:101B000000F052FB02B070BD024B034AD1210348E2
:101B100005F04CFCB8AA000838A100088CAA0008FF
:101B200008B5FFF7D5FF08BD08B5FFF7D1FF08BD21
:101B3000F0B583B0EAB104460E461F461546322181
:101B400000F0CBFAD8B93146204600F0C6FAE0B929
:101B5000D72E20D0022E6ED0032E00F0D8803A4629
:101B60002946204600F074FA002840F0238103B093
:101B7000F0BD934B934A7621934805F017FC934BA5
:101B8000904A7721904805F011FC914B8D4A7821BD
:101B90008D4805F00BFC2978204600F09EFA90B99C
:101BA0006978204600F099FA98B9A978204600F0A3
:101BB00094FAA0B9AB78C3F30113032B19D8DFE86B
:101BC00003F0211F1416834B7E4A7C217E4805F0CA
:101BD000EDFB814B7B4A7D217B4805F0E7FB7F4B8A
:101BE000784A7E21784805F0E1FB08260BE00226C2
:101BF00009E07B4B7B4A4FF497717B4805F0D6FB9D
:101C0000002600E00126E978204600F066FA60B977
:101C10003246291D204600F01BFA0028A7D0734B3E
:101C2000684A8121684805F0C1FB714B654A8021F3
:101C3000654805F0BBFB95F828104900CBB295F834
:101C40002A108900C9B2194401F0FE01204600F0B3
:101C500044FA002837D195F82910204600F03DFAC3
:101C6000002836D195F82B10204600F036FA0028CF
:101C700035D110222946204600F0EAF9002834D157
:101C80001022A918204600F0E3F9002833D12B6A6E
:101C90001BBA009304226946204600F0D9F90028B7
:101CA0002FD16B6A1BBA019304220DEB020120466F
:101CB00000F0CEF900283FF45AAF4E4B414A902134
:101CC000414805F073FB4C4B3E4A87213E4805F0E6
:101CD0006DFB4A4B3B4A88213B4805F067FB484B6C
:101CE000384A8921384805F061FB464B354A8A213C
:101CF000354805F05BFB444B324A8B21324805F0F6
:101D000055FB424B2F4A8D212F4805F04FFB95F88C
:101D100020104900CBB295F822108900C9B21944AD
:101D200001F0FE01204600F0D8F928BB95F82110FB
:101D3000204600F0D2F928BB95F82310204600F089
:101D4000CCF928BB08222946204600F081F928BB9F
:101D50000822A918204600F07BF928BB1022A918F8
:101D6000204600F075F900283FF401AF284B154AD2
:101D70009B21154805F01AFB1F4B124A9621124869
:101D800005F014FB234B0F4A97210F4805F00EFB7B
:101D9000214B0C4A98210C4805F008FB1F4B094ABF
:101DA0009921094805F002FB1D4B064A9A21064875
:101DB00005F0FCFA1B4B034A9F21034805F0F6FA95
:101DC000DCA10008F8A000088CAA0008ECA100081B
:101DD00020A200084CA200089CA20008F4A200085F
:101DE000C0A90008A0A00008C8A90008B0A3000866
:101DF00050A30008D8A500080CA4000840A40008BF
:101E0000A0A40008F8A400084CA50008A0A500089C
:101E100070A7000810A6000870A60008C8A6000851
:101E20001CA70008C4A70008F8B504460F461646CC
:101E30001D46202100F051F998B93946204600F09E
:101E40004CF9A0B931462046FFF7CEFD2946204681
:101E5000FFF7CAFDAAB20699204600F0F9F860B96A
:101E6000F8BD094B094AA621094805F09FFA094B1C
:101E7000064AA721064805F099FA074B034AAA210A
:101E8000034805F093FA00BF90A8000814A10008C9
:101E90008CAA0008B0A10008CCA8000830B583B017
:101EA00005460C4601220DF1070100F07DF9F0B95D
:101EB0009DF80710C1F38012CB0901F03F018DF8A6
:101EC0000710217004391F292DD8DFE801F0172CE5
:101ED0002C2C2C2C2C2C2C2C2C2C2C2C2C2C2C2C42
:101EE0002C2C2C2C2C2C2C2C2C2C1D2C2722114B4C
:101EF000114A4FF48871114805F058FA21462846D6
:101F0000FFF70EFE03B030BD21462846FFF70CFE5A
:101F1000F8E721462846FFF781FCF3E721462846EB
:101F2000FFF792FCEEE7064B034A4FF49271034829
:101F300005F03CFA4CA900087CA100088CAA000816
:101F4000C0A9000838B504460D46D20142F034015C
:101F500001F0B40100F0C1F828B92946204600F08C
:101F6000BCF838B938BD074B074A40F26111074841
:101F700005F01CFA064B044A4FF4B171034805F012
:101F800015FA00BFF8A8000890A100088CAA000864
:101F900020A90008094A11880B0243EA11239BB2C9
:101FA0005840C0F30313584080EA003000B283B2B7
:101FB0005B0103F4FF535840108070471E0300205C
:101FC00070B506460D46084B4FF6FF721A80002486
:101FD000AC4205D2305DFFF7DDFF0134E4B2F7E734
:101FE000014B188870BD00BF1E03002003881944F0
:101FF00089B201808388994204D9B1FBF3F203FBD3
:10200000121101807047816000210180013B8380B3
:1020100042800173704708B513460022FFF7F3FFB3
:1020200008BD30B48C6884600D88154405800C8828
:10203000144413FA84F39BB243808A88934201D9F3
:102040009B1A43808B8883800123037330BC7047C5
:10205000F8B5037B002B3ED115460E460446438857
:1020600001888B4210D21A448A4202DB41F28A3044
:1020700032E080682A463146184405F0EBF9628860
:1020800015446580002027E0D018A288904209DD21
:10209000D71ABFB29A1A1544ADB2A9420DD841F26F
:1020A0008A3019E0A0682A463146184405F0D2F972
:1020B00062881544658000200EE0A0683A463146EB
:1020C000184405F0C7F92A46F119A06805F0C2F9CD
:1020D0006580002000E01620F8BD00B583B08DF8C3
:1020E000071001220DF10701FFF7B2FF03B05DF801
:1020F00004FB028843889A4202D8981A80B270473B
:102100008088801A13FA80F080B2704739B110B518
:102110000C46FFF7EEFFA04203D3002010BD0020C5
:10212000704741F28A30F9E770B505460E46FFF771
:10213000EDFF044608B1204670BD31462846FFF742
:1021400055FFF8E72DE9F04105460F4614461E46B7
:102150001946FFF7DBFF8046E0B92A882244AB88A6
:1021600092FBF3F103FB112189B2701890FBF3F29B
:1021700003FB120292B291420FD95B1A9CB2AB6878
:1021800022461944384605F065F9321BA96838190A
:1021900005F060F94046BDE8F081AB68324619446D
:1021A000384605F057F9F5E770B50646144613466C
:1021B0000022FFF7C7FF054608B1284670BD21463B
:1021C0003046FFF713FFF8E7F0B5CBB00446002622
:1021D000374645E09DF81E10514B1A78914204D1C4
:1021E0009DF81C709DF81D603AE04E4805F0DEFE3B
:1021F00036E04D4B1B68DD68002D31D00AAB099AE3
:1022000008999DF81C00A8472AE0474B1B689D6869
:1022100035B30AAB099A08999DF81C00A8471FE03E
:102220009DF81C51D72D07D03F4B1B685B68BBB195
:1022300007A92846984713E0EC460DF11C0EBEE8AE
:102240000F00ACE80F009EE803004CF8040B2CF8DC
:10225000021B090C8CF80010E6E7344805F02CFF4F
:102260002046FFF746FF00284CD006A92046FFF77E
:1022700015FE9DF81830043B1F2BEED801A252F832
:1022800023F000BFF32100085B2200085B22000856
:102290005B2200085B2200085B2200085B2200082A
:1022A0005B2200085B2200085B2200085B2200081A
:1022B0005B2200085B2200085B2200085B2200080A
:1022C0005B2200085B2200085B2200085B220008FA
:1022D0005B2200085B2200085B2200085B220008EA
:1022E0005B2200085B2200085B2200085B220008DA
:1022F0005B2200080B2200085B2200082122000854
:10230000D521000857B1084B1B681B681BB1044A54
:10231000117830469847024B00225A704BB0F0BDFE
:102320002403002030AB00082003002060AB00082D
:1023300010B50446064B00225A700121054800F0F2
:1023400021FA054B1C60206908B100F031FA10BD7C
:1023500024030020C92100082003002038B50025EF
:102360002C460948FFF7C5FE58B1312C09D800208A
:1023700000F018F9C5B2322001F0ACFF0134E4B22C
:10238000EFE7284638BD00BFEC0E0020014B0022CD
:102390005A7070472403002070B50F4B5B78ABB9BF
:1023A0000D4D01246C702E1D4FF4807205F1140147
:1023B0003046FFF730FE094B197829700A191A7058
:1023C00022463046FFF7BEFD204670BD044805F0AA
:1023D000EDFD0020F9E700BF2403002038040020B1
:1023E00014AB00082DE9F04782B006460F46904630
:1023F00099460A9CFFF7D0FF0546C8B12378DBB1A8
:10240000012B20D0022B25D0164C04F1040ACDF864
:10241000009043463A4631465046FFF705FD504688
:10242000FFF767FE0122C1B204F1140000F088F842
:10243000284602B0BDE8F0870C23221DD7210A48A8
:10244000FFF776FBE0E72423221D03210648FFF770
:102450006FFBD9E72C23221D02210348FFF768FBFD
:10246000D2E700BF240300202803002010B50C464B
:102470000B7900220F49FFF765FE0F4A13780133ED
:10248000DBB21370A278934201D00B4B1A70217902
:102490000848FFF795FD6279C0F30F239A4205D1F2
:1024A000A379C0B2834203D0002000E0002010BD19
:1024B0000120FCE7580500205405002010B584B029
:1024C0001348FFF716FEC3B20A2B0FD81C461A4654
:1024D00001A90F48FFF768FE4FF47A73224601A95D
:1024E0000C48006801F082FC04B010BD0A2201A96A
:1024F0000748FFF759FE4FF47A730A2201A90548ED
:10250000006801F073FC0020FFF7D8FFECE700BF84
:1025100044050020040F002010B5064C012221467E
:10252000054B186801F02CF8012221460348FFF7FB
:102530008FFD10BDE80E0020040F0020EC0E0020DF
:10254000F0B583B007460E461546FFF739FD134A2E
:1025500013780133DBB21370C0228DF80020002401
:102560008DF801408DF802308DF803508DF804602D
:10257000030A8DF805308DF80600094D07226946DB
:102580002846FFF765FD324639462846FFF760FDCD
:102590002046FFF793FF03B0F0BD00BF55050020B4
:1025A0004405002030B587B0544B1C786CBB5448B0
:1025B000FFF79FFD072802D8204607B030BD514DD8
:1025C0000723002229464E48FFF7BCFD2B78C02B7D
:1025D00001D16B786BB14A4D01212846FFF7A4FD6C
:1025E0000023464A1370484A13702846FFF781FDBE
:1025F000E2E7424B01221A7007214148FFF794FDA0
:10260000404B1A79404B1A70D6E73D48FFF771FDF1
:102610003D4B1B7898421FD30022394902A8FFF78F
:1026200000FD384902A8FFF721FF002861D0354B93
:10263000DB78012B15D0032B2FD0042B34D0022BA9
:1026400039D0052B43D0304B197802A8FFF76CFD29
:102650002E4805F031FD0AE02D4805F02DFD00243F
:10266000AAE72C4A1268002AE5D002A89047264B18
:102670001D7802A8FFF73DFD291A89B22048FFF70F
:1026800053FD0023204A13701C4A13701C48FFF7A7
:1026900030FD072890D900248EE71F4A1268002ACF
:1026A000CBD002A89047E2E71C4A1268002AC6D0A5
:1026B00002A89047DBE78DF80430012102A8FFF75C
:1026C00033FD0322012101A8FFF73AFFCFE70122E2
:1026D00001A902A8FFF768FD9DF80410104805F055
:1026E00065FC104B1B68002BC1D09DF80400984777
:1026F000BDE70D4805F0E0FCC3E700BF560500202C
:10270000EC0E0020FC0E002051060020B0AB0008AB
:1027100078AB00083C040020540600204004002050
:1027200090AB000858070020D0AB000810B50F4C44
:102730002060FF220E490F48FFF76DFC0020FFF7D5
:10274000BDFE0020FFF72EFF4FF480720A490B48B0
:10275000FFF761FC01220A49206800F011FF052201
:1027600001210846FFF7ECFE10BD00BF040F00205A
:10277000440400204405002058060020EC0E0020F0
:10278000E80E0020012904D0032905D0042906D031
:102790007047044B18607047034B18607047034B39
:1027A0001860F5E73C040020540600204004002097
:1027B000014B1860704700BF5807002038B5044629
:1027C0000D46142001F086FD84F0010229460D48D3
:1027D00005F0ECFB5CB10C4A13780133DBB21370EB
:1027E0000A4B01221A700A4B00221A7038BD064BA0
:1027F00000221A70074A13780133DBB21370137882
:10280000EEE700BF2CAD00080C03002017030020EA
:102810000D0300201803002000B583B00093134679
:102820000A460146024805F0C1FB03B05DF804FB0F
:1028300014AE000800B583B0009313460A46014663
:10284000024805F0B3FB03B05DF804FB5CAE000882
:1028500030B587B00C46831EDBB2012B03D9D728D5
:102860000AD007B030BD0868030CC0F30722C1B21C
:10287000094805F09BFBF4E76D4608684968A268C3
:10288000E3680FC5A28AA37DAA80AB719DF80510ED
:10289000024805F08BFBE4E768AD0008C0AD000816
:1028A00008B5034805F008FCFFF770FD08BD00BF40
:1028B000ECAD0008F0B597B0CDE9140117462748F4
:1028C00005F0FAFB264E012108A803F041FF35462A
:1028D00008AC0FCC0FC50FCC0FC594E8070085E8F6
:1028E000070096F82840002C33D001211D4805F040
:1028F0005DFB1D491D4805F059FB1D4B16AA12E949
:10290000030083E80300164E4FF4E13307936C464F
:1029100006F110050FCD0FC495E8070084E8070005
:1029200096E80F0003F0F6FE3269124B1A60726AE5
:10293000114B1A607068FFF7F9FE1048FFF7F8FCBA
:102940000F4B1F700F4805F0B7FB0124204617B04E
:10295000F0BD0D4805F0B0FBF8E700BF1CAC000867
:10296000080F002080AC0008A4AC0008B8AC000838
:10297000C8000020440D0020B00C00208000002082
:102980005C070020E0AC000850AC000830B583B014
:102990000C46084B009303460A4600214020FFF7EF
:1029A00021FD05462146044805F000FB284603B0FA
:1029B00030BD00BFC4000020FCAC000830B583B0BF
:1029C0000C46084B009303460A4600214020FFF7BF
:1029D00009FD05462146044805F0E8FA284603B0FB
:1029E00030BD00BF94000020ECAB000808B5FFF735
:1029F000B5FCC0B208BD000008B5FFF78DFD044B63
:102A00001B7803B908BD034B186803F0EFFEF9E724
:102A10005C070020480D002008B503F05FFE08BDEC
:102A200003689A6912F0020F01D000229A620368CB
:102A30009A6912F0010F03D19A6942F001029A617A
:102A4000704770B4039E05686868740D04F4806470
:102A500044F07F7444F4583444F47F7444F0030425
:102A600020EA0400C1F3090141EA0241194331435C
:102A70000143696070BC704770B504460D46164648
:102A800003689B6913F0100F01D1002070BD23680B
:102A90009A6912F0200F17D1B5F1FF3FF7D001F07E
:102AA00013FC801BA84201D8002DF0D1636C43F0C9
:102AB00020036364202384F84130002384F84230EB
:102AC00084F840300120E1E71022DA6123682025F4
:102AD000DD612046FFF7A4FF2268536823F0FF73EF
:102AE00023F48B3323F4FF7323F001035360636CEF
:102AF00043F00403636484F84150002384F84230B7
:102B000084F840300120C1E770B504460D461646F2
:102B100023689B6913F0020F1DD1324629462046D7
:102B2000FFF7AAFFC8B9B5F1FF3FF1D001F0CCFB28
:102B3000801BA84201D8002DEAD1636C43F020032A
:102B40006364202384F84130002384F8423084F801
:102B50004030012000E0002070BD0120FCE7F8B506
:102B600005460F4616461C462B689B6937EA030349
:102B70000CBF01230023B34218D1B4F1FF3FF3D0BF
:102B800001F0A2FB069BC01AA04201D8002CEBD199
:102B90006B6C43F020036B64202385F841300023E5
:102BA00085F8423085F84030012000E00020F8BD73
:102BB00070B582B0044615461E46194B00934FF07F
:102BC0008073F2B2FFF73DFF079A06992046FFF7A0
:102BD0009BFFF0B9012E0FD12368EDB29D62079BD8
:102BE0000093069B002280212046FFF7B8FF034692
:102BF00098B9184602B070BD23682A0A9A62079AEB
:102C000006992046FFF780FF28B92368EDB29D6240
:102C1000E5E70123EDE70123EBE70123E9E700BF47
:102C20000020008070B505460C4616462B689B694F
:102C300013F0200F1AD1324621462846FFF71CFF19
:102C4000B0B901F041FB801BA04201D8002CEDD1AE
:102C50006B6C43F020036B64202385F84130002324
:102C600085F8423085F84030012070BD0020FCE737
:102C70000120FAE770B504460D46164623689B69A5
:102C800013F0040F3ED1324629462046FFF7F4FEEA
:102C90000146002838D123689A6912F0200F13D119
:102CA00001F012FB801BA84201D8002DE6D1636C15
:102CB00043F020036364202384F84130002384F828
:102CC00040300121084670BD9A6912F0040F02D00D
:102CD000228D002AF6D12022DA6121684B6823F088
:102CE000FF7323F48B3323F4FF7323F001034B6052
:102CF0000023636484F8412084F8423084F8403033
:102D00000121DFE70021DDE70121DBE7002859D0C1
:102D100010B5044690F84130002B43D0242384F8AA
:102D200041302268136823F001031360636822684E
:102D300023F0706313612268936823F40043936067
:102D4000E368012B33D0A368226843F40443936003
:102D5000E368022B31D02268536843F0007343F4D8
:102D6000004353602268D36823F40043D36023698F
:102D700062691343A169226843EA0123D360E369CE
:102D8000216A22680B4313602268136843F0010331
:102D9000136000206064202384F84130206384F8AD
:102DA000420010BD80F8403003F086FDB6E7A3680E
:102DB000226843F400439360CAE723684FF400623B
:102DC0005A60C8E7012070472DE9F04383B090F8BE
:102DD0004150EDB2202D40F0A48090F84040012CED
:102DE00000F0A4801F4691460E4604464FF00108AD
:102DF00080F8408001F068FA0546009019234246A9
:102E00004FF400412046FFF7AAFE002840F09080D2
:102E1000212384F84130102384F842300023636476
:102E2000C4F8249067856363638D9BB2FF2B0AD936
:102E3000FF222285424B00934FF08073314620469B
:102E4000FFF7FFFD18E0628D92B222853C4B0093A4
:102E50004FF00073D2B231462046FFF7F2FD0BE08F
:102E6000628D92B22285002300934FF00073D2B29C
:102E700031462046FFF7E5FD638D9BB2002B33D032
:102E80002A460A992046FFF73FFE002852D1626A7F
:102E9000236812789A62636A01336362638D013B2F
:102EA0009BB26385238D013B9BB22385628D92B2D9
:102EB000002AE1D0002BDFD100950A9B002280215F
:102EC0002046FFF74CFE002836D1638D9BB2FF2BC6
:102ED000C6D9FF222285002300934FF0807331462C
:102EE0002046FFF7AEFDC7E72A460A992046FFF7BE
:102EF00099FE034610BB22682021D16120684268F8
:102F000022F0FF7222F48B3222F4FF7222F00102CF
:102F1000426084F84110002284F8422084F8402066
:102F200000E00223184603B0BDE8F0830223F9E76E
:102F30000123F7E70123F5E70123F3E70123F1E795
:102F4000002000802DE9F04383B090F84150EDB2AD
:102F5000202D40F0A48090F84040012C00F0A48087
:102F60001F4691460E4604464FF0010880F8408007
:102F700001F0AAF905460090192342464FF400419A
:102F80002046FFF7ECFD002840F09080222384F8D3
:102F90004130102384F8423000236364C4F8249045
:102FA00067856363638D9BB2FF2B0AD9FF2222855D
:102FB000424B00934FF0807331462046FFF741FDAE
:102FC00018E0628D92B222853C4B00934FF0007363
:102FD000D2B231462046FFF734FD0BE0628D92B24B
:102FE0002285002300934FF00073D2B23146204671
:102FF000FFF727FD638D9BB2002B33D02A460A9939
:103000002046FFF737FE002852D123685A6A636AC8
:103010001A70636A01336362238D013B9BB223857F
:10302000628D013A92B26285628D92B2002AE1D03D
:10303000002BDFD100950A9B002280212046FFF75C
:103040008EFD002836D1638D9BB2FF2BC6D9FF229F
:103050002285002300934FF0807331462046FFF70E
:10306000F0FCC7E72A460A992046FFF7DBFD034636
:1030700010BB22682021D1612068426822F0FF72D3
:1030800022F48B3222F4FF7222F00102426084F8B3
:103090004110002284F8422084F8402000E00223FE
:1030A000184603B0BDE8F0830223F9E70123F7E7F0
:1030B0000123F5E70123F3E70123F1E70024008072
:1030C0002DE9F04782B0BDF82C7090F84150EDB278
:1030D000202D40F0BA800A9CDCB1D7B190F8404076
:1030E000012C00F0B780984691460E4604464FF0FA
:1030F000010A80F840A001F0E7F805460090192386
:1031000052464FF400412046FFF729FD30B101231C
:103110009CE04FF400734364012397E0212384F87B
:103120004130402384F84230002363640A9A62628B
:103130006785636301950C9B009343464A4631467D
:103140002046FFF735FD70B9638D9BB2FF2B0FD979
:10315000FF222285002300934FF0807331462046E2
:10316000FFF76FFC21E0002384F8403053466DE008
:10317000628D92B22285002300934FF00073D2B289
:1031800031462046FFF75DFC0FE0628D92B222854A
:10319000002300934FF00073D2B231462046FFF770
:1031A00050FC638D9BB2002B32D02A460C992046EE
:1031B000FFF7AAFC00284FD1626A236812789A624E
:1031C000636A01336362638D013B9BB26385238D28
:1031D000013B9BB22385628D92B2002AE1D0002B85
:1031E000DFD100950C9B002280212046FFF7B7FC21
:1031F000A0BB638D9BB2FF2BC7D9FF222285002382
:1032000000934FF0807331462046FFF71AFCC8E761
:103210002A460C992046FFF705FD034600BB2268AD
:103220002021D1612068426822F0FF7222F48B32A3
:1032300022F4FF7222F00102426084F84110002261
:1032400084F8422084F8402000E00223184602B0AF
:10325000BDE8F0870223F9E70123F7E70123F5E74B
:103260000123F3E790F84130DBB2202B27D190F80F
:103270004030012B25D010B4012380F840302423A6
:1032800080F841300468226822F00102226004685C
:10329000226822F480522260026813680B43136094
:1032A0000268136843F001031360202380F8413063
:1032B000002380F8403018465DF8044B7047022028
:1032C00070470220704790F84130DBB2202B25D1A7
:1032D00090F84030012B23D010B4012380F8403007
:1032E000242380F841300468226822F00102226021
:1032F0000268136823F4706343EA012313600268D1
:10330000136843F001031360202380F84130002349
:1033100080F8403018465DF8044B70470220704733
:1033200002207047002853D010B504460023836262
:1033300090F85D30002B40D0022384F85D30226885
:10334000136823F040031360E368B3F5E06F39D9E5
:103350000022B3F5706F04D0B3F5E06F01D0002107
:10336000A162216B21B9B3F5E06F2ED9022323634B
:103370006368A1680B4321690B4361690B43A16931
:1033800001F400710B43E1690B43216A0B43A06A0E
:10339000216803430B60638B03F00403616A0B43F2
:1033A000616B0B43E1680B43216813434B600020C2
:1033B0002066012384F85D3010BD80F85C3003F096
:1033C00005FCB9E74FF48052C3E701232363CFE73D
:1033D000012070477047000030B585B00446026890
:1033E00050689368C3F3801129B913F0010F02D01C
:1033F00010F0400F67D113F0020F02D010F0800FD1
:1034000065D1C3F340151DB911B913F4807F61D0A4
:1034100010F0200F5ED079B194F85D10C9B2032985
:103420005AD0216E41F00401216600210091D1683B
:10343000009191680091009965B1216E41F0010100
:1034400021660021029191680291116821F04001EA
:103450001160029A13F4807F09D0236E43F00803B1
:1034600023660023039323689B680393039B236EC7
:10347000002B2FD02268536823F0E0035360012310
:1034800084F85D3010F0030F2ED02268536823F0CB
:1034900003035360A36D4BB1154A9A63A06D02F00C
:1034A0005BFB18B1236E43F040032366636D8BB161
:1034B0000F4A9A63606D02F04FFB58B1236E43F0E0
:1034C0004003236606E0E36C2046984702E0236D44
:1034D0002046984705B030BD00230193D36801937F
:1034E00093680193019BF5E72046FFF773FFF1E72F
:1034F000F534000808B5806A0023A0F84630C38779
:10350000FFF768FF08BD40B338B5044603684CF6C2
:10351000CC421A60036845F255521A60036842684B
:103520005A60036882689A6000F0CEFE0546236800
:10353000DA6832B100F0C8FE401B3028F7D903200A
:1035400038BD1969E268914202D01A610020F7E79C
:103550004AF6AA221A600020F2E7012070470268AA
:10356000136823F4907313600268936823F00103D7
:103570009360202380F872300023036670470000B8
:1035800090F87230DBB2202B58D1002958D0002A95
:1035900058D090F87030012B56D0012380F870304D
:1035A0004165A0F85820A0F85A20002303668368DC
:1035B000B3F5805F06D0A3B9036973B9FF23A0F800
:1035C0005C3011E0036923B940F2FF13A0F85C30CE
:1035D0000AE0FF23A0F85C3006E07F23A0F85C300F
:1035E00002E0B3F1805F19D000234367222380F803
:1035F00072300268936843F0010393608368B3F507
:10360000805F15D0114B0366002380F8703001688D
:103610000A6842F490720A601846704703691BB941
:103620007F23A0F85C30DFE73F23A0F85C30DBE7C6
:103630000369002BE6D1064B0366E5E702207047DD
:103640000120704701207047022070477336000840
:10365000D3360008704708B501680A6822F04002B6
:103660000A60202280F8712000224266FFF7F2FFF4
:1036700008BDB0F85C2090F87230DBB2222B05D088
:103680000268138B43F008031383704710B5036877
:10369000998CD2B2436D5C1C44650A401A70B0F834
:1036A0005A30013B9BB2A0F85A3003B110BD0268FA
:1036B000136823F4907313600268936823F0010386
:1036C0009360202380F8723000230366FEF77CF8B5
:1036D000ECE708B5B0F85C2090F87230DBB2222B32
:1036E00005D00268138B43F00803138308BD0368F9
:1036F000998C436D0A401A80436D02334365B0F8DC
:103700005A30013B9BB2A0F85A30002BEED1026830
:10371000136823F4907313600268936823F0010325
:103720009360202380F8723000230366FEF74CF884
:10373000DCE7704738B504460268D36911689068C1
:1037400013F00F0505D113F0200F02D011F0200F58
:1037500019D12DB110F001051BD111F4907F18D1B2
:1037600013F4801F02D010F4800F7DD113F0800F6E
:1037700002D011F0800F7ED113F0400F02D011F073
:10378000400F7ED138BD236E002BFBD020469847DA
:10379000F8E713F0010F07D011F4807F04D0012067
:1037A0001062626F0243626713F0020F07D035B1F7
:1037B000226802201062626F42F00402626713F016
:1037C000040F07D035B1226804201062626F42F006
:1037D0000202626713F0080F09D011F0200F00D128
:1037E0002DB1226808201062626F02436267626F27
:1037F000002AC7D013F0200F06D011F0200F03D0FD
:10380000236E0BB120469847636F13F0080F04D165
:1038100023689B6813F0400F20D02046FFF79FFEDF
:1038200023689A6812F0400F14D09A6822F0400280
:103830009A60E36E53B1154A9A63E06E02F08CF918
:1038400000289FD0E06E836B98479BE72046FFF7E8
:1038500070FF97E72046FFF76CFF93E72046FFF7DE
:1038600068FF002363678DE74FF4801313622046DF
:1038700000F08EFB86E7636E002B83D020469847CE
:1038800080E72046FFF7E7FE7CE700BF913800089D
:1038900008B5806A0023A0F85A30A0F85230FFF72C
:1038A00048FF08BD2DE9F0480446016883680269B5
:1038B000134342691343C26913430868994A02409B
:1038C00013430B602268536823F44053E1680B43B1
:1038D0005360A1692268944B9A4201D0236A19432C
:1038E000936823F430630B43936023688F4A9342B9
:1038F00011D08F4A934222D08E4A934238D08E4ABA
:10390000934260D08D4A934273D0874A934200F02D
:10391000898010253FE002F55842D2F8882002F055
:103920000302032A09D8DFE802F002049606012503
:1039300031E004252FE008252DE010252BE002F5CD
:10394000E632D2F8882002F00C020C2A0ED8DFE80A
:1039500002F0070D0D0D090D0D0D840D0D0D0B0061
:10396000002518E0042516E0082514E0102512E0D3
:1039700002F5E432D2F8882002F03002102A6ED02C
:1039800005D9202A6DD0302A1BD1082503E00AB9B9
:10399000002500E01025644A934270D0E369B3F536
:1039A000004F00F0F280082D00F27681DFE815F07C
:1039B0003B014C01560174016101740174017401F1
:1039C0006B011025E7E702F5E232D2F8882002F019
:1039D000C002402A47D005D9802A46D0C02A06D145
:1039E0000825D8E70AB90025D5E71025D3E7102523
:1039F000D1E702F5E032D2F8882002F44072B2F545
:103A0000807F34D007D9B2F5007F32D0B2F5407F45
:103A100006D10825BFE70AB90025BCE71025BAE79B
:103A20001025B8E702F5C832D2F8882002F44062C7
:103A3000B2F5806F1FD007D9B2F5006F1DD0B2F577
:103A4000406F06D10825A6E70AB90025A3E710258F
:103A5000A1E710259FE702259DE702259BE70425A6
:103A600099E7022597E7042595E7022593E70425C2
:103A700091E702258FE704258DE702258BE7082DC6
:103A800000F20D81DFE815F00C000B0114000B01B2
:103A900011000B010B010B0109004FF4004008E07D
:103AA00001F066F828B9002504E100F06BFCF9E7A5
:103AB0002348626802EB4203834200F2F280B0EBDB
:103AC000023F00F2F080082D5CD8DFE805F0055BCE
:103AD0001D5B3F5B5B5B500001F04AF80023070E63
:103AE00006026268500816EB000B47F1000C5846BE
:103AF0006146FDF7B9F8A0F54072124B9A4200F208
:103B0000D4802368D860D5E0560800252B46DFF81E
:103B100038B04FF0000C1BEB06004CF10001FDF734
:103B2000A3F8E8E7F369FFEF0080004000380140A8
:103B30000044004000480040004C0040005000405D
:103B40000024F400FFFC0F00000024F400F01AFC35
:103B50000025070E0602626850082B4616EB000B84
:103B600047F1000C58466146FDF77EF8C3E7500860
:103B700000252B4610F500002CBF01210021FDF788
:103B800073F8B8E701250020B5E7082D48D8DFE82D
:103B900005F0051D2847334747473E0000F0E8FF82
:103BA0006268530803EB4003B3FBF2F39BB2A3F14B
:103BB00010014FF6EF72914279D89AB222F00F02BB
:103BC000C3F3420313432268D36073E000F0E2FFC3
:103BD0006268530803EB4003B3FBF2F39BB200258A
:103BE000E5E76268530803F1F47303F59043B3FB10
:103BF000F2F39BB20025DAE700F0C4FB62685308D9
:103C000003EB4003B3FBF2F39BB20025CFE76268FE
:103C1000530803F58033B3FBF2F39BB20025C6E7EC
:103C200001250023C3E700F0A3FF636800EB530006
:103C3000B0FBF3F080B2A0F110024FF6EF739A429E
:103C400037D82368D86035E000F0A4FF636800EB44
:103C50005300B0FBF3F080B20025ECE7636858082E
:103C600000F5740000F51050B0FBF3F080B20025B1
:103C7000E1E700F087FB636800EB5300B0FBF3F073
:103C800080B20025D7E76368580800F50040B0FB14
:103C9000F3F080B20025CEE701250020CBE7012517
:103CA00008E0012506E0012504E0012502E00125E8
:103CB00000E001250023236663662846BDE8F088FE
:103CC000436A13F0010F06D00268536823F40033EF
:103CD000816A0B435360436A13F0020F06D00268F7
:103CE000536823F48033C16A0B435360436A13F073
:103CF000040F06D00268536823F48023016B0B4342
:103D00005360436A13F0080F06D00268536823F427
:103D10000043416B0B435360436A13F0100F06D00E
:103D20000268936823F48053816B0B439360436A6A
:103D300013F0200F06D00268936823F40053C16B80
:103D40000B439360436A13F0400F0AD00268536834
:103D500023F48013016C0B435360036CB3F5801F95
:103D60000BD0436A13F0800F06D00268536823F427
:103D70000023816C0B43536070470268536823F43F
:103D8000C003416C0B435360EBE72DE9F04105465E
:103D90000F4616469846069C2B68DB6937EA0303F4
:103DA0000CBF01230023B3421DD1B4F1FF3FF3D078
:103DB0002CB100F089FAA0EB0800A042ECD92A68E7
:103DC000136823F4D07313602A68936823F0010307
:103DD0009360202385F8713085F87230002385F8D0
:103DE0007030032000E00020BDE8F0812DE9F041B3
:103DF00082B01E4690F87130DBB2202B4ED10446C3
:103E00000D46904600294ED0002A4ED090F87030D2
:103E1000012B4CD0012380F870300023436721230D
:103E200080F8713000F050FA0746A4F85080A4F8EA
:103E3000528009E0236815F8012B1A85B4F8523036
:103E4000013B9BB2A4F85230B4F852309BB2ABB1F4
:103E500000963B46002280212046FFF796FF40BB9C
:103E6000A368B3F5805FE5D12369002BE2D1226816
:103E700035F8023BC3F308031385DFE700963B46A2
:103E8000002240212046FFF780FF034698B92022F8
:103E900084F87120002284F8702000E00223184684
:103EA00002B0BDE8F0810123F9E70123F7E702231F
:103EB000F5E70323F3E70323F1E730B583B00446C6
:103EC0000023436700F000FA054623681B6813F0DF
:103ED000080F0ED123681B6813F0040F17D120239D
:103EE00084F8713084F87230002084F8700003B0D8
:103EF00030BD6FF07E430093034600224FF4001163
:103F00002046FFF742FF0028E4D00320EFE76FF0E0
:103F10007E4300932B4600224FF480012046FFF79A
:103F200034FF0028DBD00320E1E778B310B5044666
:103F300090F871300BB3242384F871302268136831
:103F400023F0010313602046FFF7ACFC012813D0D7
:103F5000636ABBB92268536823F4904353602268B4
:103F6000936823F02A0393602268136843F00103E7
:103F700013602046FFF7A1FF10BD80F8703002F0FB
:103F800061FDD8E72046FFF79BFEE3E7012070477D
:103F9000704770470268D36843F00103D36002683A
:103FA0009168084B0B40062B09D09168054B0B40DC
:103FB000B3F5803F03D0136843F001031360002082
:103FC000704700BF070001000268D36823F00103B7
:103FD000D3600368196A41F21112114208D1196ABB
:103FE00040F24442114203D11A6822F001021A60E1
:103FF00000207047704770477047704710B50446FF
:1040000003681A6912F0020F11D0DA6812F0020F79
:104010000DD06FF002021A610123037703689B69D8
:1040200013F0030F79D0FFF7E6FF0023237723680F
:104030001A6912F0040F12D0DA6812F0040F0ED0D1
:104040006FF004021A610223237723689B6913F43B
:10405000407F68D02046FFF7CEFF002323772368F8
:104060001A6912F0080F12D0DA6812F0080F0ED099
:104070006FF008021A61042323772368DB6913F0C9
:10408000030F57D02046FFF7B6FF0023237723689E
:104090001A6912F0100F12D0DA6812F0100F0ED059
:1040A0006FF010021A61082323772368DB6913F489
:1040B000407F46D02046FFF79EFF002323772368EA
:1040C0001A6912F0010F03D0DA6812F0010F3FD124
:1040D00023681A6912F0800F03D0DA6812F0800F9B
:1040E0003DD123681A6912F4807F03D0DA6812F098
:1040F000800F3BD123681A6912F0400F03D0DA68B1
:1041000012F0400F39D123681A6912F0200F03D042
:10411000DA6812F0200F37D110BDFFF76BFF204691
:10412000FFF76AFF81E72046FFF764FF2046FFF7AD
:1041300063FF92E72046FFF75DFF2046FFF75CFF35
:10414000A3E72046FFF756FF2046FFF755FFB4E7E9
:104150006FF001021A612046FDF752FBB8E76FF0DD
:1041600080021A61204600F096F8BAE76FF4807278
:104170001A61204600F090F8BCE76FF040021A6127
:104180002046FFF73AFFBEE76FF020021A61204693
:1041900000F080F8C0E700000368304A904212D077
:1041A000B0F1804F0FD0A2F5943290420BD002F5BF
:1041B0008062904207D002F58062904203D002F5FF
:1041C0009432904203D123F070034A681343234A88
:1041D00090421ED0B0F1804F1BD0A2F59432904295
:1041E00017D002F58062904213D002F580629042AF
:1041F0000FD002F5943290420BD002F5406290420B
:1042000007D002F58062904203D002F580629042AE
:1042100003D123F44073CA68134323F080034A692F
:10422000134303608B68C3620B6883620B4B984235
:104230000FD003F5006398420BD003F5406398421A
:1042400007D003F58063984203D003F5806398425A
:1042500001D10B690363012343617047002C0140C6
:10426000B0B110B5044690F83D3063B1022384F834
:104270003D30214651F8040BFFF78EFF012384F8EF
:104280003D30002010BD80F83C30FFF782FEEDE7A6
:104290000120704770477047704710B5032001F048
:1042A0001FFD002002F042FD10B10124204610BD88
:1042B000044602F0E1FAF9E7024A13680133136099
:1042C000704700BF340F0020014B1868704700BFD3
:1042D000340F002038B50446FFF7F6FF0546B4F169
:1042E000FF3F00D00134FFF7EFFF401BA042FAD39D
:1042F00038BD000030B583B00546204B9B6D13F0F0
:10430000805F0BD001F05CFCB0F5007F17D0802DF2
:104310001FD82DD0702D2DD000211BE0174CA36D80
:1043200043F08053A365A36D03F080530193019B79
:1043300001F046FCA36D23F08053A365E4E7802DD4
:1043400003D9A02D03D9022104E0002102E00121BC
:1043500000E003210A4A136823F007030B431360AC
:10436000136803F007038B4206D1002003B030BD71
:104370000221EFE70121EDE70120F7E700100240FD
:1043800000200240314A9368D26802F0030213F021
:104390000C030AD00C2B06D0042B1FD0082B20D0E6
:1043A0000020014610E0012AF6D1284A126812F0D6
:1043B000080F0CD1254AD2F89420C2F303222449D5
:1043C00051F8221043B100200C2B0DD070471F4A2A
:1043D0001268C2F30312F2E70846F5E71D48002110
:1043E000F2E71D480021EFE7184BDA6802F00302FC
:1043F000DB68C3F302130133022A0AD0032A1AD05E
:10440000B1FBF3F3114AD068C0F3062000FB03F0C0
:1044100008E01048B0FBF3F30C4AD068C0F3062064
:1044200000FB03F0094BDB68C3F3416301335B001E
:10443000B0FBF3F0CAE70848B0FBF3F3034AD068D7
:10444000C0F3062000FB03F0ECE700BF00100240C1
:1044500028AF00080024F40000127A00002800F0C1
:10446000C182F0B583B00446AC4B9D6805F00C05E5
:10447000DE6806F00306036813F0100F5DD0E5B1A7
:104480000C2D18D0A369002B00F0B780A34A136845
:1044900043F001031360FFF717FF07469F4B1B68AC
:1044A00013F0020F40F09680FFF70EFFC01B0228AA
:1044B000F4D90323A2E2012EE4D1984B1B6813F038
:1044C000020F03D0A369002B00F08F82206A934B68
:1044D0001B6813F0080F5DD0904B1B6803F0F003CE
:1044E00098425ED9FFF706FF002840F080828B4B90
:1044F0001A6842F008021A601A6822F0F002216A73
:104500000A431A605A6822F47F42E16942EA0122B2
:104510005A60FFF737FF814B9B68C3F30313804A50
:10452000D35C03F01F03D8407E4B1860002002F0DC
:10453000FDFB0346002840F06182236813F0010F61
:104540007AD0082D6FD00C2D6BD06368B3F5803F07
:1045500000F09180B3F5A02F00F093806F4B1A68A4
:1045600022F480321A601A6822F480221A6063688A
:10457000002B00F09380FFF7A7FE0746674B1B68F0
:1045800013F4003F58D1FFF79FFEC01B6428F5D9F4
:10459000032333E2614BD3F894301B0903F0F0039B
:1045A0009EE75E4B1A6842F008021A601A6822F011
:1045B000F002216A0A431A605A6822F47F42E169D4
:1045C00042EA01225A60206AFFF794FE0028A0D038
:1045D000012313E2514B1A6842F008021A601A686C
:1045E00022F0F002216A0A431A605A6822F47F42DC
:1045F000E16942EA01225A609FE7484A136823F0C2
:1046000001031360FFF760FE0746444B1B6813F07D
:10461000020F92D0FFF758FEC01B0228F5D90323E2
:10462000ECE1032E91D13D4B1B6813F4003F03D006
:104630006368002B00F0DD81236813F0020F4FD078
:10464000042D3CD00C2D38D0E368002B75D0334AB4
:10465000136843F480731360FFF736FE06462F4B52
:104660001B6813F4806F5FD1FFF72EFE801B0228BA
:10467000F5D90323C2E1294A136843F48033136058
:1046800075E703F18043A3F53C331A6842F48022B6
:104690001A601A6842F480321A6068E7FFF714FE65
:1046A00007461E4B1B6813F4003FC5D0FFF70CFEF6
:1046B000C01B6428F5D90323A0E1022EC4D1174BF7
:1046C0001B6813F4806F03D0E368002B00F0938124
:1046D000124A536823F0FE43216943EA01635360A1
:1046E000236813F0080F53D06369002B39D00B4AAD
:1046F000D2F8943043F00103C2F89430FFF7E4FDA0
:104700000646064BD3F8943013F0020F40D1FFF762
:10471000DBFD801B0228F4D903236FE10010024067
:1047200010AF000814010020B74A536823F0FE437D
:10473000216943EA01635360D2E7B34A136823F463
:1047400080731360FFF7C0FD0646AF4B1B6813F480
:10475000806FC5D0FFF7B8FD801B0228F5D9032371
:104760004CE1A94AD2F8943023F00103C2F8943006
:10477000FFF7AAFD0646A44BD3F8943013F0020FBE
:1047800006D0FFF7A1FD801B0228F4D9032335E1F1
:10479000236813F0040F7AD09B4B9B6D13F0805F5E
:1047A00036D1994B9A6D42F080529A659B6D03F019
:1047B00080530193019B0126944B1B6813F4807F67
:1047C00028D0A368012B39D0052B3FD08E4BD3F8CE
:1047D000902022F00102C3F89020D3F8902022F01C
:1047E0000402C3F89020A368002B3DD0FFF76CFDB6
:1047F0000746854BD3F8903013F0020F46D1FFF7F0
:1048000063FDC01B41F288339842F2D90323F5E0DF
:104810000026D1E77D4A136843F480731360FFF7E5
:1048200053FD0746794B1B6813F4807FC9D1FFF70E
:104830004BFDC01B0228F5D90323DFE0724AD2F8F2
:10484000903043F00103C2F89030CCE76E4BD3F8C0
:10485000902042F00402C3F89020D3F8902042F058
:104860000102C3F89020BEE7FFF72EFD0746664B16
:10487000D3F8903013F0020F08D0FFF725FDC01BCE
:1048800041F288339842F2D90323B7E0E6B92368AE
:1048900013F0200F35D0636AE3B15B4AD2F8983049
:1048A00043F00103C2F89830FFF70EFD0646564B61
:1048B000D3F8983013F0020F23D1FFF705FD801BCA
:1048C0000228F4D9032399E04F4A936D23F08053D3
:1048D0009365DCE74C4AD2F8983023F00103C2F824
:1048E0009830FFF7F1FC0646474BD3F8983013F0A9
:1048F000020F06D0FFF7E8FC801B0228F4D903233F
:104900007CE0A36A002B78D00C2D7AD0022B23D028
:104910003D4B1A6822F080721A601B6813F0205F0A
:1049200004D1394AD36823F00303D360364AD368ED
:1049300023F0887323F48033D360FFF7C5FC04466B
:10494000314B1B6813F0007F4AD0FFF7BDFC001B02
:104950000228F5D9032351E02B4A136823F0807312
:104960001360FFF7B1FC0546274B1B6813F0007F6F
:1049700006D0FFF7A9FC401B0228F5D903233DE030
:10498000236B5A1E636B1B0243EA0213E26A134352
:10499000E26B5208013A43EA4253226C5208013A50
:1049A00043EA4263A26B43EAC263174AD3601368C7
:1049B00043F080731360D36843F08073D360FFF7D4
:1049C00083FC0446104B1B6813F0007F06D1FFF7F1
:1049D0007BFC001B0228F5D903230FE000230DE028
:1049E00000230BE0012318467047012306E0012352
:1049F00004E0012302E0012300E00023184603B095
:104A0000F0BD0123FAE700BF001002400070004033
:104A1000002800F0978070B504464E4B1B6803F0E9
:104A200007038B420BD24B4A136823F007030B4357
:104A30001360136803F007038B4240F085800D4636
:104A4000236813F0010F39D06368032B09D0022BC0
:104A500026D063BB404A126812F0020F06D1012033
:104A60006FE03D4A126812F0007F6FD03A498A68C1
:104A700022F0030213438B60FFF726FC0646364BF9
:104A80009B6803F00C036268B3EB820F16D0FFF74C
:104A90001BFC801B41F288339842F0D9032050E080
:104AA0002D4A126812F4003FE0D1012049E02A4A61
:104AB000126812F4806FD9D1012042E0236813F00C
:104AC000020F06D0244A936823F0F003A1680B4339
:104AD0009360204B1B6803F00703AB420AD91D4AC1
:104AE000136823F007032B431360136803F00703D5
:104AF000AB422DD1236813F0040F06D0164A9368F9
:104B000023F4E063E1680B439360236813F0080F1C
:104B100007D0114A936823F46053216943EAC10323
:104B20009360FFF72FFC0C4B9B68C3F303130B4AF6
:104B3000D35C03F01F03D840094B1860002002F03B
:104B4000F5F870BD012070470120FAE70120F8E771
:104B50000120F6E7002002400010024010AF0008DC
:104B600014010020014B1868704700BF1401002099
:104B700008B5FFF7F7FF054B9B68C3F30223044A10
:104B8000D35C03F01F03D84008BD00BF00100240F3
:104B900020AF000808B5FFF7E5FF054B9B68C3F39E
:104BA000C223044AD35C03F01F03D84008BD00BFF2
:104BB0000010024020AF00080F2303600B4B9A68DF
:104BC00002F0030242609A6802F0F00282609A6882
:104BD00002F4E062C2609B68DB0803F4E0630361F7
:104BE000034B1B6803F007030B6070470010024083
:104BF00000200240F8B5594BDB6813F0030F18D0C2
:104C0000564BDB6803F003030268934202D0012491
:104C10002046F8BD002A00F09F80504BDB68C3F3AC
:104C2000021301334268934201D00124F0E70024CB
:104C300009E00368022B58D0032B5DD0012B43D031
:104C40000124002CE4D10F460646444A136823F0A1
:104C500080631360FFF738FB0546404B1B6813F079
:104C6000006F05D0FFF730FB401B0228F5D9032465
:104C7000002CCDD1002F4DD138490B6923F078435A
:104C800023F4FE43B068F268D20642EA00221343DE
:104C90000B61324A136843F080631360FFF714FB23
:104CA00005462E4B1B6813F0006F05D1FFF70CFB78
:104CB000401B0228F5D90324002CA9D1274A1369E7
:104CC000B1690B431361A3E7244A126812F0020F83
:104CD0001ED0224DEA6822F073024468013C43EA88
:104CE00004131343EB600024ABE71C4A126812F470
:104CF000806FEED10124A4E7184A126812F4003F35
:104D0000E7D1164A126812F4802FE2D1012498E705
:104D1000012496E7012F0FD01048026922F0C062EB
:104D200022F4FE42B16873695B08013B5B0643EA0B
:104D3000012313430361ACE70848026922F4C0026F
:104D400022F4FE42B16833695B08013B5B0543EA2C
:104D50000123134303619CE7012459E7001002403B
:104D6000F8B5504BDB6813F0030F18D04D4BDB68E0
:104D700003F003030268934202D001242046F8BDE9
:104D8000002A00F08D80474BDB68C3F30213013328
:104D90004268934201D00124F0E7002409E003684F
:104DA000022B58D0032B5DD0012B43D00124002CC3
:104DB000E4D10F4606463B4A136823F08053136044
:104DC000FFF782FA0546374B1B6813F0005F05D0EA
:104DD000FFF77AFA401B0228F5D90324002CCDD125
:104DE000002F4DD12F494B6923F0784323F4FE4324
:104DF000B068F268D20642EA002213434B61294AA6
:104E0000136843F080531360FFF75EFA0546254BA5
:104E10001B6813F0005F05D1FFF756FA401B02280C
:104E2000F5D90324002CA9D11E4A536971690B439B
:104E30005361A3E71B4A126812F0020F1ED0194DEE
:104E4000EA6822F073024468013C43EA0413134306
:104E5000EB600024ABE7134A126812F4806FEED1C6
:104E60000124A4E70F4A126812F4003FE7D10D4A6B
:104E7000126812F4802FE2D1012498E7012496E70A
:104E80000848426922F0C06222F4FE42B1683369E8
:104E90005B08013B5B0643EA012313434361AEE732
:104EA00001246BE7001002402DE9F04182B0044676
:104EB000036813F4006F33D0836EB3F5800F29D0ED
:104EC00011D9B3F5000F1ED0B3F5400F18D100274C
:104ED000664AD2F8883023F44003A16E0B43C2F82F
:104EE000883000261EE043B900210430FFF782FE1F
:104EF0000746002FECD03E4614E00126374611E06D
:104F0000012637460EE0594AD36843F48033D36014
:104F10000027DDE700212030FFF722FF0746E8E702
:104F200000263746236813F4805F15D0E36EB3F193
:104F3000807F7DD069D9B3F1007F73D0B3F1407F1A
:104F40006DD1002F7BD1494AD2F8883023F04073CD
:104F5000E16E0B43C2F88830236813F4003F00F081
:104F60008E80424B9B6D13F0805F6AD13F4B9A6DF0
:104F700042F080529A659B6D03F080530193019B30
:104F80004FF001083A4A136843F480731360FFF747
:104F90009BF90546364B1B6813F4807F05D1FFF75C
:104FA00093F9401B0228F5D90327002F62D12F4B1C
:104FB000D3F8903013F4407316D0D4F888209A4276
:104FC00012D02A4AD2F8903023F44073D2F89010CD
:104FD00041F48031C2F89010D2F8901021F4803161
:104FE000C2F89010C2F8903013F0010F2CD1002FAE
:104FF00040F051811D4AD2F8903023F44073D4F828
:1050000088100B43C2F8903035E02BB90021201DE9
:10501000FFF7F0FD074694E7012637469CE7012697
:10502000374699E7114AD36843F48033D36088E761
:10503000002104F12000FFF793FE074681E73E467A
:105040008AE74FF000089DE7FFF73EF90546074B5A
:10505000D3F8903013F0020FC9D1FFF735F9401B98
:1050600041F288339842F2D90327C0E7001002408A
:10507000007000403E46B8F1000F40F00E812368FA
:1050800013F0010F08D0A44AD2F8883023F00303AC
:10509000A16B0B43C2F88830236813F0020F08D0CD
:1050A0009D4AD2F8883023F00C03E16B0B43C2F821
:1050B0008830236813F0040F08D0974AD2F888305C
:1050C00023F03003216C0B43C2F88830236813F0BF
:1050D000080F08D0904AD2F8883023F0C003616CE2
:1050E0000B43C2F88830236813F0100F08D08A4AA7
:1050F000D2F8883023F44073A16C0B43C2F8883097
:10510000236813F0200F08D0834AD2F8883023F4A4
:105110004063E16C0B43C2F88830236813F4007FCE
:1051200008D07D4AD2F8883023F44023216E0B4307
:10513000C2F88830236813F4806F08D0764AD2F81A
:10514000883023F44013616E0B43C2F88830236823
:1051500013F0400F08D0704AD2F8883023F440533F
:10516000216D0B43C2F88830236813F0800F08D0FC
:10517000694AD2F8883023F44043616D0B43C2F88A
:105180008830236813F4807F08D0634AD2F88830CF
:1051900023F44033A16D0B43C2F88830236813F425
:1051A000801F08D05C4AD2F89C3023F00303E16DE5
:1051B0000B43C2F89C30236813F4005F0FD0564AAB
:1051C000D2F8883023F04063216F0B43C2F8883057
:1051D000236FB3F1006F66D0B3F1806F68D023689E
:1051E00013F4002F0FD04C4AD2F8883023F04063DC
:1051F000616F0B43C2F88830636FB3F1006F5FD00B
:10520000B3F1806F61D0236813F4802F0FD0424A2E
:10521000D2F8883023F04063A16F0B43C2F8883086
:10522000A36FB3F1006F58D0B3F1806F5AD02368E9
:1052300013F4804F0FD0384AD2F8883023F040530F
:10524000E16F0B43C2F88830E36FB3F1805F51D058
:10525000B3F1005F56D0236813F4004F09D02E4AF3
:10526000D2F8883023F08043D4F880100B43C2F882
:105270008830236813F4803F09D0274AD2F8883059
:1052800023F00043D4F884100B43C2F88830304632
:1052900002B0BDE8F0813E46EDE61F4A936D23F073
:1052A00080539365EBE6D36843F48013D36096E7AD
:1052B0000121201DFFF79EFC002890D006468EE7B6
:1052C000D36843F48013D3609DE70121201DFFF7CD
:1052D00091FC002897D0064695E7D36843F48013E5
:1052E000D360A4E70121201DFFF784FC00289ED095
:1052F00006469CE70221201DFFF77CFC0028AAD06F
:105300000646A8E7022104F12000FFF729FD002846
:10531000A1D006469FE700BF00100240094B5B6921
:10532000002B01DB00207047064B074A9A6002F110
:1053300088329A605B69002B01DB002070470120F6
:10534000704700BF0020024023016745034A5369AC
:1053500043F0004353610020704700BF002002402B
:10536000074B5B6913F0804F07D0054B054ADA60A5
:1053700002F14432DA60002070470120704700BF1C
:10538000002002403B2A1908034A536943F0804336
:1053900053610020704700BF0020024038B504462A
:1053A000FEF792FF05461E4B1B6913F4803F09D0A0
:1053B000B4F1FF3FF7D0FEF787FF401BA042F2D3C6
:1053C000032029E0164A136923F07F4323F47D0369
:1053D00023F4705323F00503926902F00042134353
:1053E00009D10F4B1B6913F0010F16D00C4B012292
:1053F0001A61002010E00B494A681A434A6013F012
:10540000404203D00649886902438A6133F0404331
:1054100001D0034A1361012038BD0020FCE700BF22
:1054200000200240F400002008B5054A536943F00B
:10543000006353614CF25030FFF7B0FF08BD00BF6E
:105440000020024040B91548C36ADBB20B60C36A52
:10545000C3F3074313607047012804D002280BD020
:10546000042812D070470D48036BDBB20B60036B4E
:10547000C3F30743136070470848C36CDBB20B608B
:10548000C36CC3F30743136070470448036DDBB27A
:105490000B60036DC3F307431360E3E70020024092
:1054A000064B1B6ADBB2AA2B03D0CC2B01D0BB204E
:1054B0007047024B186AC0B2704700BF002002401C
:1054C000024B186A20F0FF00704700BF0020024026
:1054D00070B4294B1B6813F4807F1CD1274B1B68C9
:1054E0004FF6FF74A34224D0254D05EA432505F16C
:1054F00000654FF00064036803F00303012B20D024
:10550000022B2BD01F4B9A6A02F000420368134310
:10551000036070BC7047194B1B684FF6FF74A342C1
:105520000BD0174C04EA432404F100644FF00065EB
:10553000E1E7154D4FF00064DDE74FF00065124CD8
:10554000D9E7104E756A114B03EAC50525440D6075
:10555000B16A03EAC1031C441460D3E7094E746CBA
:105560000A4B03EAC4042C440C60B16C03EAC10387
:105570001D441560C6E700BF00000140E075FF1F35
:1055800000FE1F000020024000000808F8FF07008E
:1055900070B505460C4616464CF25030FFF7FEFE3D
:1055A0000346B0B9BDB91C4AD36A03F0FF2344EAED
:1055B00006441C43D462184C636943F400336361AE
:1055C0004CF25030FFF7EAFE0346626922F40032E3
:1055D0006261184670BD012D0CD0022D13D0042D30
:1055E000E9D10D4A136D03F0FF2344EA06441C433E
:1055F0001465E0E7084A136B03F0FF2344EA06440E
:105600001C431463D7E7044AD36C03F0FF2344EA36
:1056100006441C43D464CEE70020024038B505465A
:105620004CF25030FFF7BAFE034608B1184638BDB9
:10563000094C206A20F0FF0028432062636943F48C
:10564000003363614CF25030FFF7A8FE03466269F5
:1056500022F400326261E9E70020024038B50446D6
:105660000D464CF25030FFF799FE0346002840F0FB
:105670008B8014F0010300F0898005F4E0634FF49F
:10568000E06214F0020F04D005F480510B4342F4A1
:10569000805214F0040F04D005F400510B4342F47F
:1056A000005214F4805F04D005F480410B4342F4AF
:1056B000804214F0080F04D005F480310B4342F40B
:1056C000803214F0100F04D005F400310B4342F483
:1056D000003214F0200F04D005F480210B4342F473
:1056E000802214F0400F04D005F400210B4342F453
:1056F000002214F0800F04D005F480110B4342F413
:10570000801214F4807F04D005F400110B4342F49E
:10571000001214F4007F04D005F400010B4342F49E
:10572000000214F4806F04D005F080710B4342F046
:10573000807214F4006F04D005F000710B4342F046
:10574000007214F4005F04D005F080610B4342F056
:10575000806214F4804F04D005F000652B4342F0C2
:1057600000620B4C216A21EA02021343236263693F
:1057700043F4003363614CF25030FFF70FFE0346F1
:10578000626922F400326261184638BD1A4678E731
:105790000020024070B505460C4616464CF25030CB
:1057A000FFF7FCFD034660BB324B1B6813F4807FA0
:1057B00029D1314B1B684FF6FF72934231D02F4AEB
:1057C00002EA432202F100634FF0006205F0030198
:1057D00001292ED002293CD0294CA06A20F000409B
:1057E00005F000452843A062636943F40033636118
:1057F0004CF25030FFF7D2FD0346626922F40032CA
:105800006261184670BD1C4B1B684FF6FF729342D5
:105810000BD01A4A02EA432202F100624FF0006301
:10582000D4E7184B4FF00062D0E74FF00063154A01
:10583000CCE7A41A12494B6A1B0C1B0443EAD4039D
:105840004B62B21A8B6A1B0C1B0443EAD2028A62B7
:10585000C2E7E41A0A494A6C120C120442EAD40460
:105860004C64F21A8B6C1B0C1B0443EAD2028A6450
:10587000B2E700BF00000140E075FF1F00FE1F00FF
:10588000002002400000080838B5234B1B78012B8C
:105890003FD00446204B01221A7000225A60036850
:1058A00013F0010F15D10025236813F0020F1AD150
:1058B000236813F0040F1DD1236813F0080F03D0E1
:1058C000216A626A91421DD1134B00221A70284648
:1058D00038BDC26881684068FFF75AFE0546002857
:1058E000E2D00125E0E72069FFF798FE0028DFD02D
:1058F0000125DDE7A1696069FFF7B0FE0028DBD074
:105900000125D9E7E069FFF745FF0028DCD0012534
:10591000DAE70225DBE700BFF400002010B50446FB
:10592000062303604068022801D9042807D12246D3
:10593000072342F80C3B04F10801FFF783FDFFF752
:10594000AFFD2061FFF7BCFDA061E369013B012BC6
:1059500000D910BD236843F00803224642F8243BD7
:1059600004F1200104F11C00FFF7B2FDF1E7000093
:10597000F0B482B0002336E0072400E00024B440F5
:105980003C430235644E46F82540644C2568D443B8
:1059900004EA05064F6817F4803F01D042EA050685
:1059A0005E4D2E606D6804EA05064F6817F4003FEF
:1059B00001D042EA0506594D6E60AD6804EA05065D
:1059C0004F6817F4801F01D042EA0506534DAE60C0
:1059D000ED682C404E6816F4001F01D042EA050421
:1059E0004E4AD46001330A6832FA03F400F0918021
:1059F00001249C402240F5D04D68022D01D0122D8B
:105A000010D1DE08083650F826C003F00705AF00B5
:105A10000F25BD402CEA050C0D69BD4045EA0C057B
:105A200040F8265006685F000325BD40ED4305EAB7
:105A3000060C4E6806F00306BE4046EA0C060660F9
:105A40004E6806F1FF3CBCF1010F03D9112E01D0C5
:105A5000122E10D1866805EA060CCE68BE4046EAD2
:105A60000C068660466826EA04044E68C6F30016F3
:105A70009E4026434660C46825408C68BC402C4349
:105A8000C4604C6814F0805FACD0254C256E45F0A6
:105A900001052566246E04F001040194019C9D0813
:105AA000AE1C1D4C54F8267003F00304A6000F240E
:105AB000B44027EA0407B0F1904F3FF45FAF194CB0
:105AC000A0421AD004F58064A04218D004F5806486
:105AD000A04216D004F58064A04214D004F580647E
