:020000040800F2
:1000000000000520113F0008193D00081B3D0008B5
:100010001D3D00081F3D0008213D000800000000B4
:100020000000000000000000000000003130000867
:10003000233D00080000000061300008C5300008C2
:10004000613F0008613F0008613F0008613F000810
:10005000613F0008613F0008613F0008613F000800
:10006000613F0008613F0008613F0008613F0008F0
:10007000613F0008613F0008613F0008613F0008E0
:10008000613F0008613F0008613F0008613F0008D0
:10009000613F0008613F0008613F0008613F0008C0
:1000A000613F0008253D0008613F0008613F0008EE
:1000B000613F0008613F0008613F0008613F0008A0
:1000C000613F0008613F0008613F0008653D00088E
:1000D000753D0008613F0008353D0008453D0008BA
:1000E000953D0008613F0008613F0008613F00083E
:1000F000613F0008613F0008613F0008613F000860
:10010000613F0008613F0008613F0008853D00082D
:10011000613F0008553D0008613F0008613F00084D
:10012000613F0008613F0008613F0008613F00082F
:10013000613F0008613F0008613F0008613F00081F
:10014000613F0008613F0008613F0008613F00080F
:10015000613F0008613F0008613F0008613F0008FF
:10016000613F0008613F0008613F0008613F0008EF
:10017000613F0008613F0008613F00080000000087
:10018000613F0008613F0008613F0008613F0008CF
:10019000613F0008613F0008613F0008613F0008BF
:1001A000613F0008613F00080000000000000000FF
:1001B00010B5054C237833B9044B13B10448AFF3A1
:1001C00000800123237010BD6800002000000000A3
:1001D000984F000808B5034B1BB103490348AFF320
:1001E000008008BD000000006C000020984F00084F
:1001F00001F0FF01102A2BDB10F0070F08D010F8D8
:10020000013B013A8B422DD010F0070F42B3F6D1DB
:10021000F0B441EA012141EA014122F007047FF0F4
:1002200000070023F0E80256083C85EA010586EA4B
:10023000010685FA47F5A3FA87F586FA47F6A5FA87
:1002400087F68EB9EED1F0BC01F0FF0102F0070293
:1002500032B110F8013B013A83EA010313B1F8D13E
:100260000020704701387047002D06BF354603381F
:10027000073815F0010F07D1013015F4807F02BF58
:10028000013015F4C03F0130F0BC0138704700BFA9
:1002900053B94AB9002908BF00281CBF4FF0FF31ED
:1002A0004FF0FF3000F074B9ADF1080C6DE904CEE9
:1002B00000F006F8DDF804E0DDE9022304B0704741
:1002C0002DE9F047089E04468846002B40F08580C3
:1002D0008A42154648D9B2FA82F24AB1C2F12007E1
:1002E00001FA02F320FA07F7954047EA0308944021
:1002F0004FEA154E230CB8FBFEF71FFA85FC0EFBE8
:10030000178843EA084307FB0CF1994209D9EB1817
:1003100007F1FF3080F0E380994240F2E080023F35
:100320002B445B1AA4B2B3FBFEF00EFB103344EA7D
:10033000034400FB0CFCA44509D92C1900F1FF3340
:1003400080F0CB80A44540F2C88002382C4440EABB
:100350000740A4EB0C0400271EB1D4400023C6E9DB
:1003600000433946BDE8F087002A53D0B2FA82F242
:10037000002A40F0B680491B4FEA154E1FFA85F857
:100380000127B1FBFEFC230C0EFB1C1143EA0143C9
:1003900008FB0CF1994207D9EB180CF1FF3002D29F
:1003A000994200F2EC808446591AA3B2B1FBFEF0E8
:1003B0000EFB101443EA044408FB00F8A04507D9DB
:1003C0002C1900F1FF3302D2A04500F2DC80184660
:1003D000A4EB080440EA0C40BEE78B4208D9002E8B
:1003E00078D00027C6E9000138463946BDE8F087D5
:1003F000B3FA83F77FB98B4202D3824200F2BD8009
:10040000841A61EB030301209846002EA9D0C6E9A7
:100410000048A6E7FFDEC7F12005BB4022FA05FC35
:100420004CEA030C01FA07F420FA05F821FA05F367
:100430004FEA1C4E48EA0404B3FBFEF9210C0EFB04
:1004400019331FFA8CF841EA034309FB08FA9A456D
:1004500002FA07F200FA07F10BD91CEB030309F1CA
:10046000FF3080F088809A4540F28580A9F102092A
:100470006344A3EB0A03A4B2B3FBFEF00EFB1033FC
:1004800044EA034400FB08F8A04508D91CEB040427
:1004900000F1FF336BD2A04569D90238644440EAC9
:1004A0000940A4EB0804A0FB02894C45C6464B4614
:1004B00054D351D0002E69D0B1EB0E0264EB03048B
:1004C00004FA05F522FA07F3FC401D43C6E900547F
:1004D000002746E73746304643E7184637E70746E2
:1004E0001FE7C2F1200320FA03F7954001FA02F05A
:1004F00021FA03F34FEA154E3843010CB3FBFEF724
:100500001FFA85F80EFB173341EA034107FB08F396
:100510008B4204FA02F407D9691807F1FF3C28D28C
:100520008B4226D9023F2944CB1A81B2B3FBFEF09D
:100530000EFB103341EA034100FB08F38B4207D95D
:10054000691800F1FF3C10D28B420ED902382944C1
:10055000C91A40EA074714E74145ABD2B8EB020E8F
:1005600069EB0C0201381346A4E76046F0E7184631
:1005700095E76746D8E781467BE7384645E7ACF123
:10058000020C2B4410E702382C4421E73746E8E6FA
:10059000704700BF38B5104C204603F095FD0F4D55
:1005A000284603F091FD0E4803F08EFD284603F027
:1005B0008BFD204603F088FD0A4C4FF40041204695
:1005C00002F043FB4FF4FA6001F03AFA4FF40041B5
:1005D000204602F03AFB38BD48500008B04F0008F2
:1005E000DC4F0008000C004800B583B001F00BFAA6
:1005F00003F0D6FB00F06CF8FFF7CCFF00F016F824
:10060000032242F23201684600F04EF8F8E700009B
:1006100008B50268034B9A4200D008BD01F002FA07
:10062000FBE700BF002C01407047000070B594B09C
:10063000184803F049FD184E012108A803F062F89C
:10064000354608AC0FCC0FC50FCC0FC594E807009A
:1006500085E8070096F82840C4B101210F4803F04F
:10066000ADFC0D4E6C4606F110050FCD0FC495E89C
:10067000070084E8070096E80F0003F027F8B26847
:10068000074B1A600124204614B070BD054803F0E2
:100690001BFDF8E7F44F0008800700204C500008CD
:1006A000AC0700201C50000800B585B04FF0FF33A8
:1006B00002930192009002230A46B0210348006889
:1006C00000F090F905B05DF804FB00BFAC07002016
:1006D00008B502F0F1FF08BD03689A6912F0020F35
:1006E00001D000229A6203689A6912F0010F03D1C7
:1006F0009A6942F001029A61704770B4039E0568DE
:100700006868740D04F4806444F07F7444F45834D1
:1007100044F47F7444F0030420EA0400C1F30901A7
:1007200041EA0241194331430143696070BC70479B
:1007300070B504460D46164603689B6913F0100F0A
:1007400001D1002070BD23689A6912F0200F17D1E3
:10075000B5F1FF3FF7D001F06DF9801BA84201D839
:10076000002DF0D1636C43F020036364202384F8F0
:100770004130002384F8423084F840300120E1E722
:100780001022DA6123682025DD612046FFF7A4FFEF
:100790002268536823F0FF7323F48B3323F4FF7331
:1007A00023F001035360636C43F00403636484F833
:1007B0004150002384F8423084F840300120C1E7E2
:1007C00070B504460D46164623689B6913F0020F68
:1007D0001DD1324629462046FFF7AAFFC8B9B5F118
:1007E000FF3FF1D001F026F9801BA84201D8002D6F
:1007F000EAD1636C43F020036364202384F8413022
:10080000002384F8423084F84030012000E00020CA
:1008100070BD0120FCE7F8B505460F4616461C469C
:100820002B689B6937EA03030CBF01230023B34203
:1008300018D1B4F1FF3FF3D001F0FCF8069BC01AC9
:10084000A04201D8002CEBD16B6C43F020036B6409
:10085000202385F84130002385F8423085F8403068
:10086000012000E00020F8BD70B582B004461546B6
:100870001E46184B00930023F2B2FFF73EFF079A83
:1008800006992046FFF79CFFF0B9012E0FD123688F
:10089000EDB29D62079B0093069B002240212046FB
:1008A000FFF7B9FF034698B9184602B070BD236838
:1008B0002A0A9A62079A06992046FFF781FF28B90B
:1008C0002368EDB29D62E5E70123EDE70123EBE745
:1008D0000123E9E70020008070B505460C46164666
:1008E0002B689B6913F0200F1AD132462146284607
:1008F000FFF71EFFB0B901F09DF8801BA04201D8A0
:10090000002CEDD16B6C43F020036B64202385F841
:100910004130002385F8423085F84030012070BD19
:100920000020FCE70120FAE7002859D010B5044662
:1009300090F84130002B43D0242384F841302268C2
:10094000136823F0010313606368226823F0706367
:1009500013612268936823F400439360E368012BDA
:1009600033D0A368226843F404439360E368022B06
:1009700031D02268536843F0007343F4004353605E
:100980002268D36823F40043D36023696269134368
:10099000A169226843EA0123D360E369216A2268DE
:1009A0000B4313602268136843F0010313600020B7
:1009B0006064202384F84130206384F8420010BD35
:1009C00080F8403002F032FFB6E7A368226843F4B3
:1009D00000439360CAE723684FF400625A60C8E797
:1009E000012070472DE9F04782B0BDF82C7090F8D7
:1009F0004150EDB2202D40F0BC800A9CDCB1D7B153
:100A000090F84040012C00F0B980984691460E467F
:100A100004464FF0010A80F840A001F00BF80546AB
:100A20000090192352464FF400412046FFF7F3FE91
:100A300030B101239EE04FF400734364012399E039
:100A4000222384F84130402384F842300023636439
:100A50000A9A62626785636301950C9B0093434623
:100A60004A4631462046FFF7FFFE70B9638D9BB2C0
:100A7000FF2B0FD9FF222285444B00934FF0807348
:100A800031462046FFF739FE21E0002384F840304C
:100A900053466FE0628D92B222853C4B00934FF03B
:100AA0000073D2B231462046FFF727FE0FE0628D79
:100AB00092B22285002300934FF00073D2B23146E8
:100AC0002046FFF71AFE638D9BB2002B34D00095B1
:100AD0000C9B002204212046FFF79DFE00284FD1E9
:100AE00023685A6A636A1A70636A01336362238DEA
:100AF000013B9BB22385628D013A92B26285628D81
:100B000092B2002ADFD0002BDDD100950C9B002291
:100B100080212046FFF77FFEA0BB638D9BB2FF2B99
:100B2000C5D9FF222285002300934FF08073314600
:100B30002046FFF7E2FDC6E72A460C992046FFF75C
:100B4000CBFE034600BB22682021D16120684268A9
:100B500022F0FF7222F48B3222F4FF7222F00102A3
:100B6000426084F84110002284F8422084F840203A
:100B700000E00223184602B0BDE8F0870223F9E73F
:100B80000123F7E70123F5E70123F3E700240080C1
:100B900090F84130DBB2202B27D190F84030012B68
:100BA00025D010B4012380F84030242380F8413050
:100BB0000468226822F0010222600468226822F49C
:100BC00080522260026813680B4313600268136846
:100BD00043F001031360202380F84130002380F8A4
:100BE000403018465DF8044B7047022070470220E1
:100BF000704790F84130DBB2202B25D190F840307F
:100C0000012B23D010B4012380F84030242380F836
:100C100041300468226822F00102226002681368F1
:100C200023F4706343EA012313600268136843F0FE
:100C300001031360202380F84130002380F8403006
:100C400018465DF8044B7047022070470220704739
:100C5000002853D010B504460023836290F85D301D
:100C6000002B40D0022384F85D302268136823F003
:100C700040031360E368B3F5E06F39D90022B3F5A0
:100C8000706F04D0B3F5E06F01D00021A162216B39
:100C900021B9B3F5E06F2ED9022323636368A168FD
:100CA0000B4321690B4361690B43A16901F4007196
:100CB0000B43E1690B43216A0B43A06A216803439C
:100CC0000B60638B03F00403616A0B43616B0B439E
:100CD000E1680B43216813434B6000202066012329
:100CE00084F85D3010BD80F85C3002F029FFB9E770
:100CF0004FF48052C3E701232363CFE701207047FD
:100D00007047000030B585B00446026850689368AB
:100D1000C3F3801129B913F0010F02D010F0400F76
:100D200067D113F0020F02D010F0800F65D1C3F32A
:100D300040151DB911B913F4807F61D010F0200F58
:100D40005ED079B194F85D10C9B203295AD0216EF2
:100D500041F00401216600210091D1680091916861
:100D60000091009965B1216E41F0010121660021D9
:100D7000029191680291116821F040011160029A7C
:100D800013F4807F09D0236E43F008032366002309
:100D9000039323689B680393039B236E002B2FD040
:100DA0002268536823F0E0035360012384F85D3028
:100DB00010F0030F2ED02268536823F00303536012
:100DC000A36D4BB1154A9A63A06D01F051FF18B1A4
:100DD000236E43F040032366636D8BB10F4A9A6321
:100DE000606D01F045FF58B1236E43F04003236668
:100DF00006E0E36C2046984702E0236D20469847C2
:100E000005B030BD00230193D3680193936801932B
:100E1000019BF5E72046FFF773FFF1E7210E00087D
:100E200008B5806A0023A0F84630C387FFF768FF43
:100E300008BD40B338B5044603684CF6CC421A608E
:100E4000036845F255521A60036842685A600368A5
:100E500082689A6000F0EEFD05462368DA6832B1D8
:100E600000F0E8FD401B3028F7D9032038BD196990
:100E7000E268914202D01A610020F7E74AF6AA22FE
:100E80001A600020F2E7012070470268136823F41B
:100E9000907313600268936823F00103936020232A
:100EA00080F87230002303667047704708B5016808
:100EB0000A6822F040020A60202280F87120002295
:100EC0004266FFF7F2FF08BD7047000038B50446E0
:100ED0000268D3691168906813F00F0505D113F00B
:100EE000200F02D011F0200F19D12DB110F0010503
:100EF0001BD111F4907F18D113F4801F02D010F48D
:100F0000800F7DD113F0800F02D011F0800F7ED1C1
:100F100013F0400F02D011F0400F7ED138BD236E88
:100F2000002BFBD020469847F8E713F0010F07D0BD
:100F300011F4807F04D001201062626F0243626767
:100F400013F0020F07D035B1226802201062626FE1
:100F500042F00402626713F0040F07D035B1226833
:100F600004201062626F42F00202626713F0080F01
:100F700009D011F0200F00D12DB122680820106295
:100F8000626F02436267626F002AC7D013F0200FBE
:100F900006D011F0200F03D0236E0BB120469847E6
:100FA000636F13F0080F04D123689B6813F0400FA0
:100FB00020D02046FFF769FF23689A6812F0400F9F
:100FC00014D09A6822F040029A60E36E53B1154A39
:100FD0009A63E06E01F04CFE00289FD0E06E836BB8
:100FE00098479BE72046FFF76FFF97E72046FFF7FC
:100FF0006BFF93E72046FFF767FF002363678DE7EA
:101000004FF480131362204600F08EFB86E7636E78
:10101000002B83D02046984780E72046FFF746FF05
:101020007CE700BF2910000808B5806A0023A0F8FB
:101030005A30A0F85230FFF747FF08BD2DE9F048BD
:101040000446016883680269134342691343C26915
:1010500013430868994A024013430B60226853689F
:1010600023F44053E1680B435360A1692268944B19
:101070009A4201D0236A1943936823F430630B43E7
:10108000936023688F4A934211D08F4A934222D0B3
:101090008E4A934238D08E4A934260D08D4A934212
:1010A00073D0874A934200F0898010253FE002F513
:1010B0005842D2F8882002F00302032A09D8DFE858
:1010C00002F002049606012531E004252FE00825F0
:1010D0002DE010252BE002F5E632D2F8882002F050
:1010E0000C020C2A0ED8DFE802F0070D0D0D090DD9
:1010F0000D0D840D0D0D0B00002518E0042516E0E4
:10110000082514E0102512E002F5E432D2F8882018
:1011100002F03002102A6ED005D9202A6DD0302A74
:101120001BD1082503E00AB9002500E01025644A18
:10113000934270D0E369B3F5004F00F0F280082DC0
:1011400000F27681DFE815F03B014C015601740195
:1011500061017401740174016B011025E7E702F568
:10116000E232D2F8882002F0C002402A47D005D9E6
:10117000802A46D0C02A06D10825D8E70AB900251A
:10118000D5E71025D3E71025D1E702F5E032D2F8F4
:10119000882002F44072B2F5807F34D007D9B2F5CE
:1011A000007F32D0B2F5407F06D10825BFE70AB9EB
:1011B0000025BCE71025BAE71025B8E702F5C832CC
:1011C000D2F8882002F44062B2F5806F1FD007D9B0
:1011D000B2F5006F1DD0B2F5406F06D10825A6E725
:1011E0000AB90025A3E71025A1E710259FE70225EE
:1011F0009DE702259BE7042599E7022597E704254B
:1012000095E7022593E7042591E702258FE704255A
:101210008DE702258BE7082D00F20D81DFE815F040
:101220000C000B0114000B0111000B010B010B0151
:1012300009004FF4004008E001F050F828B90025FB
:1012400004E100F055FCF9E72348626802EB420331
:10125000834200F2F280B0EB023F00F2F080082DF2
:101260005CD8DFE805F0055B1D5B3F5B5B5B500016
:1012700001F034F80023070E06026268500816EBEE
:10128000000B47F1000C58466146FFF701F8A0F546
:101290004072124B9A4200F2D4802368D860D5E0A5
:1012A000560800252B46DFF838B04FF0000C1BEB3A
:1012B00006004CF10001FEF7EBFFE8E7F369FFEFF2
:1012C00000800040003801400044004000480040D9
:1012D000004C0040005000400024F400FFFC0F00D0
:1012E000000024F400F004FC0025070E06026268EA
:1012F00050082B4616EB000B47F1000C5846614690
:10130000FEF7C6FFC3E7500800252B4610F5000086
:101310002CBF01210021FEF7BBFFB8E7012500200B
:10132000B5E7082D48D8DFE805F0051D2847334705
:1013300047473E0000F0D2FF6268530803EB4003CA
:10134000B3FBF2F39BB2A3F110014FF6EF7291429F
:1013500079D89AB222F00F02C3F3420313432268F2
:10136000D36073E000F0CCFF6268530803EB4003E6
:10137000B3FBF2F39BB20025E5E76268530803F183
:10138000F47303F59043B3FBF2F39BB20025DAE765
:1013900000F0AEFB6268530803EB4003B3FBF2F3CB
:1013A0009BB20025CFE76268530803F58033B3FB97
:1013B000F2F39BB20025C6E701250023C3E700F046
:1013C0008DFF636800EB5300B0FBF3F080B2A0F137
:1013D00010024FF6EF739A4237D82368D86035E091
:1013E00000F08EFF636800EB5300B0FBF3F080B2B7
:1013F0000025ECE76368580800F5740000F510500C
:10140000B0FBF3F080B20025E1E700F071FB636808
:1014100000EB5300B0FBF3F080B20025D7E7636820
:10142000580800F50040B0FBF3F080B20025CEE78D
:1014300001250020CBE7012508E0012506E0012574
:1014400004E0012502E0012500E0012500232366D8
:1014500063662846BDE8F088436A13F0010F06D0A2
:101460000268536823F40033816A0B435360436A74
:1014700013F0020F06D00268536823F48033C16A68
:101480000B435360436A13F0040F06D0026853689D
:1014900023F48023016B0B435360436A13F0080F5E
:1014A00006D00268536823F40043416B0B4353603A
:1014B000436A13F0100F06D00268936823F4805338
:1014C000816B0B439360436A13F0200F06D00268D0
:1014D000936823F40053C16B0B439360436A13F08A
:1014E000400F0AD00268536823F48013016C0B4349
:1014F0005360036CB3F5801F0BD0436A13F0800F69
:1015000006D00268536823F40023816C0B435360B8
:1015100070470268536823F4C003416C0B43536067
:10152000EBE72DE9F04105460F4616469846069C26
:101530002B68DB6937EA03030CBF01230023B342A6
:101540001DD1B4F1FF3FF3D02CB100F073FAA0EB42
:101550000800A042ECD92A68136823F4D073136002
:101560002A68936823F001039360202385F8713083
:1015700085F87230002385F87030032000E00020E9
:10158000BDE8F0812DE9F04182B01E4690F871303F
:10159000DBB2202B4ED104460D46904600294ED09A
:1015A000002A4ED090F87030012B4CD0012380F8E7
:1015B000703000234367212380F8713000F03AFA3D
:1015C0000746A4F85080A4F8528009E0236815F873
:1015D000012B1A85B4F85230013B9BB2A4F852306B
:1015E000B4F852309BB2ABB100963B46002280214A
:1015F0002046FFF796FF40BBA368B3F5805FE5D1B7
:101600002369002BE2D1226835F8023BC3F30803BB
:101610001385DFE700963B46002240212046FFF776
:1016200080FF034698B9202284F87120002284F8B4
:10163000702000E00223184602B0BDE8F0810123CB
:10164000F9E70123F7E70223F5E70323F3E7032391
:10165000F1E730B583B004460023436700F0EAF9B0
:10166000054623681B6813F0080F0ED123681B681A
:1016700013F0040F17D1202384F8713084F87230EE
:10168000002084F8700003B030BD6FF07E430093FB
:10169000034600224FF400112046FFF742FF0028C6
:1016A000E4D00320EFE76FF07E4300932B46002247
:1016B0004FF480012046FFF734FF0028DBD00320E1
:1016C000E1E778B310B5044690F871300BB32423EA
:1016D00084F871302268136823F0010313602046F8
:1016E000FFF7ACFC012813D0636ABBB922685368CA
:1016F00023F4904353602268936823F02A03936095
:101700002268136843F0010313602046FFF7A1FF2E
:1017100010BD80F8703002F04FF9D8E72046FFF78F
:101720009BFEE3E701207047704770470268D3686B
:1017300043F00103D36002689168084B0B40062B0D
:1017400009D09168054B0B40B3F5803F03D0136877
:1017500043F0010313600020704700BF0700010041
:10176000704770477047704710B5044603681A69A0
:1017700012F0020F11D0DA6812F0020F0DD06FF0E4
:1017800002021A610123037703689B6913F0030FB8
:1017900079D0FFF7E6FF0023237723681A6912F058
:1017A000040F12D0DA6812F0040F0ED06FF00402AA
:1017B0001A610223237723689B6913F4407F68D062
:1017C0002046FFF7CEFF0023237723681A6912F023
:1017D000080F12D0DA6812F0080F0ED06FF008026E
:1017E0001A61042323772368DB6913F0030F57D0B2
:1017F0002046FFF7B6FF0023237723681A6912F00B
:10180000100F12D0DA6812F0100F0ED06FF0100225
:101810001A61082323772368DB6913F4407F46D0DD
:101820002046FFF79EFF0023237723681A6912F0F2
:10183000010F03D0DA6812F0010F3FD123681A6953
:1018400012F0800F03D0DA6812F0800F3DD12368C8
:101850001A6912F4807F03D0DA6812F0800F3BD14E
:1018600023681A6912F0400F03D0DA6812F0400FB3
:1018700039D123681A6912F0200F03D0DA6812F008
:10188000200F37D110BDFFF76BFF2046FFF76AFF2F
:1018900081E72046FFF764FF2046FFF763FF92E7EA
:1018A0002046FFF75DFF2046FFF75CFFA3E72046D9
:1018B000FFF756FF2046FFF755FFB4E76FF0010230
:1018C0001A612046FEF7A4FEB8E76FF080021A61A5
:1018D000204600F096F8BAE76FF480721A6120464D
:1018E00000F090F8BCE76FF040021A612046FFF765
:1018F0003AFFBEE76FF020021A61204600F080F840
:10190000C0E700000368304A904212D0B0F1804F27
:101910000FD0A2F5943290420BD002F58062904233
:1019200007D002F58062904203D002F594329042D3
:1019300003D123F070034A681343234A90421ED018
:10194000B0F1804F1BD0A2F59432904217D002F52F
:101950008062904213D002F5806290420FD002F56F
:10196000943290420BD002F54062904207D002F5CB
:101970008062904203D002F58062904203D123F44A
:101980004073CA68134323F080034A69134303601A
:101990008B68C3620B6883620B4B98420FD003F5D0
:1019A000006398420BD003F54063984207D003F5DB
:1019B0008063984203D003F58063984201D10B699C
:1019C0000363012343617047002C0140B0B110B59F
:1019D000044690F83D3063B1022384F83D3021463F
:1019E00051F8040BFFF78EFF012384F83D300020EF
:1019F00010BD80F83C30FFF798FEEDE701207047FE
:101A000070477047704710B5032001F0AFF9002010
:101A100002F046F910B10124204610BD044601F041
:101A2000E5FEF9E7024A136801331360704700BF0F
:101A3000B0070020014B1868704700BFB0070020B6
:101A400038B50446FFF7F6FF0546B4F1FF3F00D076
:101A50000134FFF7EFFF401BA042FAD338BD00006E
:101A600030B583B00546204B9B6D13F0805F0BD0E3
:101A700001F026F9B0F5007F17D0802D1FD82DD0AA
:101A8000702D2DD000211BE0174CA36D43F0805327
:101A9000A365A36D03F080530193019B01F010F93E
:101AA000A36D23F08053A365E4E7802D03D9A02D17
:101AB00003D9022104E0002102E0012100E003211A
:101AC0000A4A136823F007030B431360136803F0FB
:101AD00007038B4206D1002003B030BD0221EFE79F
:101AE0000121EDE70120F7E700100240002002404D
:101AF000314A9368D26802F0030213F00C030AD053
:101B00000C2B06D0042B1FD0082B20D00020014620
:101B100010E0012AF6D1284A126812F0080F0CD101
:101B2000254AD2F89420C2F30322244951F8221006
:101B300043B100200C2B0DD070471F4A1268C2F32E
:101B40000312F2E70846F5E71D480021F2E71D48B9
:101B50000021EFE7184BDA6802F00302DB68C3F3F9
:101B600002130133022A0AD0032A1AD0B1FBF3F37D
:101B7000114AD068C0F3062000FB03F008E01048CB
:101B8000B0FBF3F30C4AD068C0F3062000FB03F06F
:101B9000094BDB68C3F3416301335B00B0FBF3F037
:101BA000CAE70848B0FBF3F3034AD068C0F3062045
:101BB00000FB03F0ECE700BF00100240A05000085B
:101BC0000024F40000127A00002800F0C182F0B571
:101BD00083B00446AC4B9D6805F00C05DE6806F04A
:101BE0000306036813F0100F5DD0E5B10C2D18D07B
:101BF000A369002B00F0B780A34A136843F00103E8
:101C00001360FFF717FF07469F4B1B6813F0020F87
:101C100040F09680FFF70EFFC01B0228F4D9032383
:101C2000A2E2012EE4D1984B1B6813F0020F03D0FF
:101C3000A369002B00F08F82206A934B1B6813F07E
:101C4000080F5DD0904B1B6803F0F00398425ED9FB
:101C5000FFF706FF002840F080828B4B1A6842F0A5
:101C600008021A601A6822F0F002216A0A431A6018
:101C70005A6822F47F42E16942EA01225A60FFF782
:101C800037FF814B9B68C3F30313804AD35C03F097
:101C90001F03D8407E4B1860002002F001F8034675
:101CA000002840F06182236813F0010F7AD0082DDC
:101CB0006FD00C2D6BD06368B3F5803F00F091803E
:101CC000B3F5A02F00F093806F4B1A6822F4803296
:101CD0001A601A6822F480221A606368002B00F0F0
:101CE0009380FFF7A7FE0746674B1B6813F4003F7E
:101CF00058D1FFF79FFEC01B6428F5D9032333E2B8
:101D0000614BD3F894301B0903F0F0039EE75E4B60
:101D10001A6842F008021A601A6822F0F002216A7A
:101D20000A431A605A6822F47F42E16942EA0122BA
:101D30005A60206AFFF794FE0028A0D0012313E226
:101D4000514B1A6842F008021A601A6822F0F00239
:101D5000216A0A431A605A6822F47F42E16942EA22
:101D600001225A609FE7484A136823F00103136079
:101D7000FFF760FE0746444B1B6813F0020F92D03A
:101D8000FFF758FEC01B0228F5D90323ECE1032E10
:101D900091D13D4B1B6813F4003F03D06368002BC7
:101DA00000F0DD81236813F0020F4FD0042D3CD0EA
:101DB0000C2D38D0E368002B75D0334A136843F4F8
:101DC00080731360FFF736FE06462F4B1B6813F433
:101DD000806F5FD1FFF72EFE801B0228F5D9032309
:101DE000C2E1294A136843F48033136075E703F1B5
:101DF0008043A3F53C331A6842F480221A601A68C3
:101E000042F480321A6068E7FFF714FE07461E4B63
:101E10001B6813F4003FC5D0FFF70CFEC01B6428FD
:101E2000F5D90323A0E1022EC4D1174B1B6813F48C
:101E3000806F03D0E368002B00F09381124A53684F
:101E400023F0FE43216943EA01635360236813F0E2
:101E5000080F53D06369002B39D00B4AD2F8943065
:101E600043F00103C2F89430FFF7E4FD0646064B49
:101E7000D3F8943013F0020F40D1FFF7DBFD801B45
:101E80000228F4D903236FE10010024088500008B3
:101E900000000020B74A536823F0FE43216943EA5B
:101EA00001635360D2E7B34A136823F4807313606D
:101EB000FFF7C0FD0646AF4B1B6813F4806FC5D01B
:101EC000FFF7B8FD801B0228F5D903234CE1A94A8E
:101ED000D2F8943023F00103C2F89430FFF7AAFD42
:101EE0000646A44BD3F8943013F0020F06D0FFF748
:101EF000A1FD801B0228F4D9032335E1236813F0E8
:101F0000040F7AD09B4B9B6D13F0805F36D1994BB9
:101F10009A6D42F080529A659B6D03F08053019355
:101F2000019B0126944B1B6813F4807F28D0A36883
:101F3000012B39D0052B3FD08E4BD3F8902022F0C7
:101F40000102C3F89020D3F8902022F00402C3F8D5
:101F50009020A368002B3DD0FFF76CFD0746854B12
:101F6000D3F8903013F0020F46D1FFF763FDC01B8A
:101F700041F288339842F2D90323F5E00026D1E7F5
:101F80007D4A136843F480731360FFF753FD0746DF
:101F9000794B1B6813F4807FC9D1FFF74BFDC01B41
:101FA0000228F5D90323DFE0724AD2F8903043F0DB
:101FB0000103C2F89030CCE76E4BD3F8902042F08A
:101FC0000402C3F89020D3F8902042F00102C3F835
:101FD0009020BEE7FFF72EFD0746664BD3F8903002
:101FE00013F0020F08D0FFF725FDC01B41F2883324
:101FF0009842F2D90323B7E0E6B9236813F0200F23
:1020000035D0636AE3B15B4AD2F8983043F00103FC
:10201000C2F89830FFF70EFD0646564BD3F89830BD
:1020200013F0020F23D1FFF705FD801B0228F4D91E
:10203000032399E04F4A936D23F080539365DCE7C7
:102040004C4AD2F8983023F00103C2F89830FFF7D9
:10205000F1FC0646474BD3F8983013F0020F06D038
:10206000FFF7E8FC801B0228F4D903237CE0A36A75
:10207000002B78D00C2D7AD0022B23D03D4B1A6840
:1020800022F080721A601B6813F0205F04D1394A75
:10209000D36823F00303D360364AD36823F08873F0
:1020A00023F48033D360FFF7C5FC0446314B1B6833
:1020B00013F0007F4AD0FFF7BDFC001B0228F5D9C2
:1020C000032351E02B4A136823F080731360FFF75A
:1020D000B1FC0546274B1B6813F0007F06D0FFF7C5
:1020E000A9FC401B0228F5D903233DE0236B5A1EAF
:1020F000636B1B0243EA0213E26A1343E26B52086A
:10210000013A43EA4253226C5208013A43EA4263DD
:10211000A26B43EAC263174AD360136843F080732B
:102120001360D36843F08073D360FFF783FC0446E9
:10213000104B1B6813F0007F06D1FFF77BFC001BE0
:102140000228F5D903230FE000230DE000230BE064
:10215000012318467047012306E0012304E0012310
:1021600002E0012300E00023184603B0F0BD012384
:10217000FAE700BF0010024000700040002800F0A5
:10218000978070B504464E4B1B6803F007038B42E3
:102190000BD24B4A136823F007030B4313601368F9
:1021A00003F007038B4240F085800D46236813F04F
:1021B000010F39D06368032B09D0022B26D063BBF3
:1021C000404A126812F0020F06D101206FE03D4A2A
:1021D000126812F0007F6FD03A498A6822F0030239
:1021E00013438B60FFF726FC0646364B9B6803F0D3
:1021F0000C036268B3EB820F16D0FFF71BFC801B49
:1022000041F288339842F0D9032050E02D4A1268F9
:1022100012F4003FE0D1012049E02A4A126812F48A
:10222000806FD9D1012042E0236813F0020F06D05D
:10223000244A936823F0F003A1680B439360204B7A
:102240001B6803F00703AB420AD91D4A136823F049
:1022500007032B431360136803F00703AB422DD130
:10226000236813F0040F06D0164A936823F4E06342
:10227000E1680B439360236813F0080F07D0114AFD
:10228000936823F46053216943EAC1039360FFF725
:102290002FFC0C4B9B68C3F303130B4AD35C03F076
:1022A0001F03D840094B1860002001F0F9FC70BDF5
:1022B000012070470120FAE70120F8E70120F6E746
:1022C000002002400010024088500008000000205A
:1022D000014B1868704700BF0000002008B5FFF7E9
:1022E000F7FF054B9B68C3F30223044AD35C03F05A
:1022F0001F03D84008BD00BF0010024098500008DE
:1023000008B5FFF7E5FF054B9B68C3F3C223044AFA
:10231000D35C03F01F03D84008BD00BF001002408B
:10232000985000080F2303600B4B9A6802F00302D9
:1023300042609A6802F0F00282609A6802F4E062F9
:10234000C2609B68DB0803F4E0630361034B1B6816
:1023500003F007030B6070470010024000200240AA
:10236000F8B5594BDB6813F0030F18D0564BDB68F8
:1023700003F003030268934202D001242046F8BD13
:10238000002A00F09F80504BDB68C3F30213013337
:102390004268934201D00124F0E7002409E0036879
:1023A000022B58D0032B5DD0012B43D00124002CED
:1023B000E4D10F460646444A136823F08063136055
:1023C000FFF738FB0546404B1B6813F0006F05D044
:1023D000FFF730FB401B0228F5D90324002CCDD198
:1023E000002F4DD138490B6923F0784323F4FE4385
:1023F000B068F268D20642EA002213430B61324A07
:10240000136843F080631360FFF714FB05462E4BFF
:102410001B6813F0006F05D1FFF70CFB401B02286F
:10242000F5D90324002CA9D1274A1369B1690B43BC
:102430001361A3E7244A126812F0020F1ED0224D46
:10244000EA6822F073024468013C43EA0413134330
:10245000EB600024ABE71C4A126812F4806FEED1E7
:102460000124A4E7184A126812F4003FE7D1164A83
:10247000126812F4802FE2D1012498E7012496E734
:10248000012F0FD01048026922F0C06222F4FE42F0
:10249000B16873695B08013B5B0643EA01231343A0
:1024A0000361ACE70848026922F4C00222F4FE424C
:1024B000B16833695B08013B5B0543EA01231343C1
:1024C00003619CE7012459E700100240F8B5504B26
:1024D000DB6813F0030F18D04D4BDB6803F00303E8
:1024E0000268934202D001242046F8BD002A00F081
:1024F0008D80474BDB68C3F302130133426893427C
:1025000001D00124F0E7002409E00368022B58D031
:10251000032B5DD0012B43D00124002CE4D10F46C6
:1025200006463B4A136823F080531360FFF782FA94
:102530000546374B1B6813F0005F05D0FFF77AFAAA
:10254000401B0228F5D90324002CCDD1002F4DD1FA
:102550002F494B6923F0784323F4FE43B068F268B7
:10256000D20642EA002213434B61294A136843F022
:1025700080531360FFF75EFA0546254B1B6813F086
:10258000005F05D1FFF756FA401B0228F5D9032456
:10259000002CA9D11E4A536971690B435361A3E70B
:1025A0001B4A126812F0020F1ED0194DEA6822F081
:1025B00073024468013C43EA04131343EB600024B4
:1025C000ABE7134A126812F4806FEED10124A4E73E
:1025D0000F4A126812F4003FE7D10D4A126812F454
:1025E000802FE2D1012498E7012496E70848426948
:1025F00022F0C06222F4FE42B16833695B08013BFD
:102600005B0643EA012313434361AEE701246BE712
:10261000001002402DE9F04182B00446036813F433
:10262000006F33D0836EB3F5800F29D011D9B3F585
:10263000000F1ED0B3F5400F18D10027664AD2F81C
:10264000883023F44003A16E0B43C2F88830002683
:102650001EE043B900210430FFF782FE0746002F39
:10266000ECD03E4614E00126374611E001263746FD
:102670000EE0594AD36843F48033D3600027DDE786
:1026800000212030FFF722FF0746E8E70026374603
:10269000236813F4805F15D0E36EB3F1807F7DD0A3
:1026A00069D9B3F1007F73D0B3F1407F6DD1002FB2
:1026B0007BD1494AD2F8883023F04073E16E0B4356
:1026C000C2F88830236813F4003F00F08E80424B3C
:1026D0009B6D13F0805F6AD13F4B9A6D42F0805240
:1026E0009A659B6D03F080530193019B4FF00108A5
:1026F0003A4A136843F480731360FFF79BF9054669
:10270000364B1B6813F4807F05D1FFF793F9401B0C
:102710000228F5D90327002F62D12F4BD3F8903030
:1027200013F4407316D0D4F888209A4212D02A4A63
:10273000D2F8903023F44073D2F8901041F48031F5
:10274000C2F89010D2F8901021F48031C2F89010A5
:10275000C2F8903013F0010F2CD1002F40F05181BE
:102760001D4AD2F8903023F44073D4F888100B43FC
:10277000C2F8903035E02BB90021201DFFF7F0FDA5
:10278000074694E7012637469CE70126374699E736
:10279000114AD36843F48033D36088E7002104F101
:1027A0002000FFF793FE074681E73E468AE74FF099
:1027B00000089DE7FFF73EF90546074BD3F8903038
:1027C00013F0020FC9D1FFF735F9401B41F28833EE
:1027D0009842F2D90327C0E7001002400070004081
:1027E0003E46B8F1000F40F00E81236813F0010F50
:1027F00008D0A44AD2F8883023F00303A16B0B431E
:10280000C2F88830236813F0020F08D09D4AD2F82E
:10281000883023F00C03E16B0B43C2F88830236847
:1028200013F0040F08D0974AD2F8883023F0300311
:10283000216C0B43C2F88830236813F0080F08D0CE
:10284000904AD2F8883023F0C003616C0B43C2F881
:102850008830236813F0100F08D08A4AD2F88830E5
:1028600023F44073A16C0B43C2F88830236813F043
:10287000200F08D0834AD2F8883023F44063E16CFB
:102880000B43C2F88830236813F4007F08D07D4AD8
:10289000D2F8883023F44023216E0B43C2F88830ED
:1028A000236813F4806F08D0764AD2F8883023F476
:1028B0004013616E0B43C2F88830236813F0400F59
:1028C00008D0704AD2F8883023F44053216D0B436E
:1028D000C2F88830236813F0800F08D0694AD2F814
:1028E000883023F44043616D0B43C2F8883023687D
:1028F00013F4807F08D0634AD2F8883023F4403341
:10290000A16D0B43C2F88830236813F4801F08D0F0
:102910005C4AD2F89C3023F00303E16D0B43C2F80C
:102920009C30236813F4005F0FD0564AD2F88830E9
:1029300023F04063216F0B43C2F88830236FB3F15B
:10294000006F66D0B3F1806F68D0236813F4002F56
:102950000FD04C4AD2F8883023F04063616F0B43AC
:10296000C2F88830636FB3F1006F5FD0B3F1806F4E
:1029700061D0236813F4802F0FD0424AD2F88830F8
:1029800023F04063A16F0B43C2F88830A36FB3F10B
:10299000006F58D0B3F1806F5AD0236813F4804F82
:1029A0000FD0384AD2F8883023F04053E16F0B4300
:1029B000C2F88830E36FB3F1805F51D0B3F1005FAC
:1029C00056D0236813F4004F09D02E4AD2F888302D
:1029D00023F08043D4F880100B43C2F8883023687A
:1029E00013F4803F09D0274AD2F8883023F00043FF
:1029F000D4F884100B43C2F88830304602B0BDE8EA
:102A0000F0813E46EDE61F4A936D23F080539365B7
:102A1000EBE6D36843F48013D36096E70121201DD1
:102A2000FFF79EFC002890D006468EE7D36843F45B
:102A30008013D3609DE70121201DFFF791FC002842
:102A400097D0064695E7D36843F48013D360A4E794
:102A50000121201DFFF784FC00289ED006469CE73C
:102A60000221201DFFF77CFC0028AAD00646A8E71B
:102A7000022104F12000FFF729FD0028A1D006461D
:102A80009FE700BF00100240F0B482B0002336E0A0
:102A9000072400E00024B4403C430235644E46F86D
:102AA0002540644C2568D44304EA05064F6817F4B2
:102AB000803F01D042EA05065E4D2E606D6804EA53
:102AC00005064F6817F4003F01D042EA0506594D4C
:102AD0006E60AD6804EA05064F6817F4801F01D0E8
:102AE00042EA0506534DAE60ED682C404E6816F480
:102AF000001F01D042EA05044E4AD46001330A683F
:102B000032FA03F400F0918001249C402240F5D079
:102B10004D68022D01D0122D10D1DE08083650F874
:102B200026C003F00705AF000F25BD402CEA050CB9
:102B30000D69BD4045EA0C0540F8265006685F0067
:102B40000325BD40ED4305EA060C4E6806F003067A
:102B5000BE4046EA0C0606604E6806F1FF3CBCF13A
:102B6000010F03D9112E01D0122E10D1866805EA6B
:102B7000060CCE68BE4046EA0C068660466826EA29
:102B800004044E68C6F300169E4026434660C4689F
:102B900025408C68BC402C43C4604C6814F0805FB6
:102BA000ACD0254C256E45F001052566246E04F059
:102BB00001040194019C9D08AE1C1D4C54F8267024
:102BC00003F00304A6000F24B44027EA0407B0F181
:102BD000904F3FF45FAF194CA0421AD004F58064C7
:102BE000A04218D004F58064A04216D004F5806499
:102BF000A04214D004F58064A04212D004F5806491
:102C0000A04210D004F58064A0423FF441AF0824F4
:102C100041E701243FE702243DE703243BE7042486
:102C200039E7052437E7062435E702B0F0BC7047E2
:102C30000000014000040140001002400004004870
:102C40000AB18161704781627047436959404161AF
:102C50007047704708B5054B5B69034200D108BD5A
:102C6000024B5861FFF7F5FFF9E700BF0004014090
:102C700008B590F82530DBB2022B03D00423C363E0
:102C8000012008BD0268136823F00E031360026878
:102C9000136823F001031360436C03F01C03016C01
:102CA000012202FA03F34B6080F82520002380F80C
:102CB0002430836B13B198470020E2E70020E0E75F
:102CC000024B186800F4C060704700BF00700040FD
:102CD000B0F5007F0FD01E4B1B6803F4C063B3F543
:102CE000806F33D01A4A136823F4C06343F48063BF
:102CF000136000207047164B1B6803F4C063B3F5E4
:102D0000007F1FD0124A136823F4C06343F400739A
:102D10001360104B1A68322303FB02F30E4AA2FB26
:102D200003239B0C01330A4A526912F4806F02D0CC
:102D30000BB1013BF7E7064B5B6913F4806F03D1DE
:102D40000020704700207047032070470020704724
:102D5000007000400000002083DE1B43024A5368DD
:102D600043F400735360704700700040074AD36813
:102D700023F4E0631B041B0C000200F4E060184322
:102D800040F0BF6040F40030D060704700ED00E0DC
:102D900030B4174BDB68C3F30223C3F10704042CE0
:102DA00028BF04241D1D062D01D9033B00E000238C
:102DB0004FF0FF3505FA04F421EA0401994005FAC1
:102DC00003F322EA03031943002809DB0901C9B20E
:102DD00000F1604000F5614080F8001330BC70479E
:102DE00000F00F000901C9B2024B1954F6E700BF09
:102DF00000ED00E014ED00E000F01F0240090123A7
:102E00009340024A42F82030704700BF00E100E0E2
:102E100043684B609A688A605160996008610368F2
:102E20000133036070470369416882688A604168C2
:102E300051605A68824206D0002202611A68013A43
:102E40001A601868704782685A60F5E7084B1B687B
:102E50001B6823B9074B4FF0FF321A607047044BD1
:102E60001B68DB68DB685A68024B1A60704700BF5A
:102E70008800002028010020F8B53A4B1B68002B81
:102E800064D1394B1D6801351D60C5B9374B1B68CE
:102E90001B6843B14FF0100383F31188BFF36F8FAA
:102EA000BFF34F8FFEE7314A1168314B186810604D
:102EB0001960304A136801331360FFF7C7FF2E4BC8
:102EC0001B68AB4238D900242C4B1B68DB6A03EB30
:102ED00083039A002A4B9B58012B3CD901243AE0EA
:102EE0000124224B1B681B6843B3204B1B68DB6823
:102EF000DE6873689D4226D3371D3846FFF793FF7F
:102F0000B36A1BB106F11800FFF78DFFF36A0122C7
:102F10009A401C49086802430A6003EB83039A0045
:102F2000394617481044FFF773FFF26A134B1B68CA
:102F3000DB6A9A42D4D2D4E70024D2E70E4B4FF09A
:102F4000FF321A60C0E70C4A1360BDE70E4A1368EF
:102F50000133136000240D4B1B6803B1012420468C
:102F6000F8BD00BF200100203001002088000020B3
:102F70008C0000202C01002028010020840000206B
:102F800090000020240100201C01002034010020BA
:102F9000214B1B681BB1214B01221A6070471F4B4C
:102FA00000221A601E4B1B68B3FA83F3DBB2C3F135
:102FB0001F0303EB83018A001A498A5842B94FF074
:102FC000100383F31188BFF36F8FBFF34F8FFEE7BA
:102FD00010B414489A00D418A10001444C686468E5
:102FE0004C601A4491000831084484420BD003EB32
:102FF00083039A000B4B13445B68DA680A4B1A6030
:103000005DF8044B7047606803EB83029100054A4A
:103010000A445060EBE700BF20010020340100208B
:103020002401002090000020840000200000000007
:10303000074B19680868B0E8F04F80F30988BFF3C0
:103040006F8F4FF0000080F311887047AFF300805E
:1030500084000020000000000000000000000000CC
:10306000EFF30980BFF36F8F154B1A681EF0100F36
:1030700008BF20ED108A20E9F04F10602DE909000B
:103080004FF0100080F31188BFF34F8FBFF36F8FA5
:10309000FFF77EFF4FF0000080F3118809BC19682C
:1030A0000868B0E8F04F1EF0100F08BFB0EC108AAF
:1030B00080F30988BFF36F8F704700BFAFF30080C4
:1030C0008400002008B54FF0100383F31188BFF38C
:1030D0006F8FBFF34F8FFFF7CFFE18B1034B4FF049
:1030E00080521A60002383F3118808BD04ED00E0CC
:1030F0002DE9F04F8DB000240794089409940A94A8
:103100000B94AA4BDA6C42F01002DA64DA6C02F02B
:1031100010020092009ADA6C42F00402DA64DA6C6F
:1031200002F004020192019ADA6C42F02002DA64A1
:10313000DA6C02F020020292029ADA6C42F001028A
:10314000DA64DA6C02F001020392039ADA6C42F05C
:103150000202DA64DA6C02F002020492049ADA6C77
:1031600042F04002DA64DA6C02F040020592059AFD
:10317000DA6C42F00802DA64DB6C03F008030693B1
:10318000069BFFF7EBFD8A4D012240F2FC712846B9
:10319000FFF756FD874E012244F228113046FFF713
:1031A0004FFD22464FF400713046FFF749FDDFF82E
:1031B000588201224FF442714046FFF741FD01223F
:1031C00002214FF09040FFF73BFD012280214FF09C
:1031D0009040FFF735FDDFF8349201220321484685
:1031E000FFF72EFD22464FF481414846FFF728FDA8
:1031F00001224FF440417048FFF722FD40F2FC737A
:1032000007930127089709940A9407A92846FFF70E
:103210003BFC4FF4005ACDF81CA0DFF8F4B1CDF818
:1032200020B0099407A94046FFF72EFCCDF81CA05A
:10323000CDF820B0099407A94846FFF725FC44F2D1
:10324000A8330793089709940A9407A93046FFF713
:103250001BFC4FF442730793089709940A9407A93B
:103260004046FFF711FC82230793089709940A94BC
:1032700007A94FF09040FFF707FC44F28303079340
:10328000089709940A9407A94846FFF7FDFB032312
:1032900007930894099407A94848FFF7F5FB4FF4F2
:1032A00040430793089709940A9407A94248FFF7F7
:1032B000EBFBCDF81CA0089709940A9407A93046A7
:1032C000FFF7E2FB40F6010BCDF81CB0089709941C
:1032D0000A9407A92846FFF7D7FB3A4651463046DD
:1032E000FFF7AEFC224659462846FFF7A9FC344BAF
:1032F000C3F800804FF400719980324AC2F8008010
:103300004FF48073938030480660082282802F4FEC
:103310004FF0904038608020B8802D4F3E604FF0D5
:10332000200CA7F804C02B4FC7F80080BA802A4FA2
:103330003D604FF0040EA7F804E0284F3D604FF0C9
:10334000100EA7F804E0264F3D604FF0400EA7F89E
:1033500004E0244F3D60A7F804C0234F3E60BB80CB
:10336000224F3D60BA80224A15609080214A156044
:103370004FF480609080204A16604FF48040908027
:103380001E4A156093801E4B1D6099801D4BC3F82B
:10339000009002229A80224621462820FFF7F8FC5E
:1033A0002820FFF729FD0DB0BDE8F08F0010024086
:1033B0000010004800140048000C004800180048A5
:1033C000B0060020700700201406002084030020AF
:1033D000B80600200406002084020020A006002079
:1033E0000C0600204C010020180200207C05002063
:1033F000040300209C03002084050020780700209F
:10340000A8060020440100200008004800040048ED
:103410000000111008B51248124B0360124B4360B4
:10342000002383600122C260036143618361C36141
:103430000362FDF779FA50B900210948FDF7A8FBAE
:1034400040B900210648FDF7D4FB30B908BDFDF7AF
:10345000EBF8F1E7FDF7E8F8F3E7FDF7E5F8F5E756
:103460003005002000540040261A100008B512480C
:10347000124B0360124B4360002383600122C26041
:10348000036143618361C3610362FDF74DFA50B983
:1034900000210948FDF77CFB40B900210648FDF7F3
:1034A000A8FB30B908BDFDF7BFF8F1E7FDF7BCF8A0
:1034B000F3E7FDF7B9F8F5E7A4030020005C00404E
:1034C000261A100008B51248124B0360124B4360D5
:1034D000002383600122C260036143618361C36191
:1034E0000362FDF721FA50B900210948FDF750FBAE
:1034F00040B900210648FDF77CFB30B908BDFDF757
:1035000093F8F1E7FDF790F8F3E7FDF78DF8F5E7AD
:103510002407002000580040261A100008B5124861
:10352000124B0360124B4360002383600122C26090
:10353000036143618361C3610362FDF7F5F950B92B
:1035400000210948FDF724FB40B900210648FDF79A
:1035500050FB30B908BDFDF767F8F1E7FDF764F8F7
:10356000F3E7FDF761F8F5E754010020008400401F
:10357000261A100008B50848084B0360062343606C
:1035800040F6FF73C3608360FDF753FC00B908BDCC
:10359000FDF74AF8FBE700BF8C0300200030004035
:1035A00008B5FFF7A5FDFFF7E5FF00F0F9F8FFF715
:1035B00031FF4FF4E13000F073FC08BD0A4B0122EB
:1035C0001A700A4A5A600A4A9A600A4ADA600A4A33
:1035D0001A610A4A5A610A4A9A610A4ADA610A4A2F
:1035E0001A620A4A5A627047740600200C030020CF
:1035F000A403002054040020B0060020700700201F
:103600001406002084030020B806002004060020D1
:103610000A4B02221A700A4A5A600A4A9A600A4AF7
:10362000DA600A4A1A610A4A5A610A4A9A610A4ADF
:10363000DA610A4A1A620A4A5A6270471C06002076
:10364000A001002024070020C006002084020020E2
:10365000A00600200C0600204C01002018020020CB
:103660007C0500200A4B03221A700A4A5A600A4A53
:103670009A600A4ADA600A4A1A610A4A5A610A4A90
:103680009A610A4ADA610A4A1A620A4A5A62704719
:10369000480600208C02002054010020F003002086
:1036A000040300209C0300208405002078070020EC
:1036B000A80600204401002008B5FFF771FFFFF7BE
:1036C0007DFFFFF7A5FFFFF7CDFF08BD84B008B56C
:1036D0000DF1080C8CE80F009DF80830022B0AD081
:1036E000032B0BD0012B03D0BDE8084004B070477A
:1036F000FFF7BCFEF8E7FFF7E5FEF5E7FFF70EFF83
:10370000F2E7000070B58CB00546022924D00329E9
:1037100030D0012910D01E4800F0D6FC00238DF8CF
:103720002C302C4601AE0FCE0FC40FCE0FC496E83E
:10373000070084E807000CE0164C012384F82830C9
:1037400006460FCC0FC60FCC0FC694E8070086E8DC
:10375000070028460CB070BD0F4C012384F82830B8
:1037600006460FCC0FC60FCC0FC694E8070086E8BC
:103770000700EEE7094C012384F8283006460FCCF9
:103780000FC60FCC0FC694E8070086E80700E0E7F5
:1037900074500008740600201C0600204806002013
:1037A00008B51048104B03604FF482734360002348
:1037B00083604FF4E062C260036143614FF40072C2
:1037C0008261C3610362436283620722C262012293
:1037D00002634363FDF73CFA00B908BDFCF724FF20
:1037E000FBE700BF200200200030014000B583B09D
:1037F0000D4B1A6E42F001021A661A6E02F00102B7
:103800000092009A9A6D42F080529A659B6D03F087
:1038100080530193019B00220F216FF00100FFF7FD
:10382000B7FA03B05DF804FB00100240F0B58FB0AA
:103830000446002309930A930B930C930D9302689B
:10384000554B9A420BD02368544A93422AD0544A8B
:10385000934248D0534A934266D00FB0F0BD524DC8
:10386000EB6C43F00203EB64EB6C03F00203009398
:10387000009B4FF44073099312230A9301230B9387
:1038800003230C9304230D9309A94848FFF7FCF880
:10389000AB6D43F40013AB65AB6D03F40013019300
:1038A000019BD0E7404CE36C43F02003E364E36CFE
:1038B00003F020030293029B0323099312220A922E
:1038C00001220B920C9304230D9309A93848FFF7AA
:1038D000DBF8A36D43F48003A365A36D03F48003B9
:1038E0000393039BB9E7304CE36C43F00403E364B8
:1038F000E36C03F004030493049B03230993122253
:103900000A9201220B920C9304230D9309A92948D2
:10391000FFF7BAF8A36D43F40003A365A36D03F4A6
:1039200000030593059B98E71F4CE36C43F02003CD
:10393000E364E36C03F020030693069BE36C43F01F
:103940000203E364E36C03F002030793079B4FF465
:103950000043099312270A9701260B9603250C951D
:1039600004230D9309A91248FFF78EF84FF48063E2
:1039700009930A970B960C950D9509A90B48FFF72B
:1039800083F8E36D43F00203E365E36D03F00203A4
:103990000893089B61E700BF0054004000580040B6
:1039A000005C004000840040001002400004004819
:1039B000001400480008004870B58EB00023099339
:1039C0000A930B930C930D930368554A93420AD0C4
:1039D000544A93422CD0544A93425ED0534A934265
:1039E0007CD00EB070BD524BDA6D42F00102DA6548
:1039F000DA6D02F001020092009ADA6C42F04002A5
:103A0000DA64DB6C03F040030193019BFFF7A6F936
:103A10004FF4C073099302230A9300230B930323EB
:103A20000C9308230D9309A94248FFF72DF8D8E716
:103A30003F4B9A6D42F480129A659A6D02F480129F
:103A40000292029ADA6C42F00402DA64DA6C02F052
:103A500004020392039ADA6C42F00802DA64DB6C27
:103A600003F008030493049B4FF480530993022648
:103A70000A9603250C9508240D9409A92E48FFF7F2
:103A800003F8042309930A9600230B930C950D94D5
:103A900009A92A48FEF7F8FFA3E7254B9A6D42F4DF
:103AA00000329A659A6D02F400320592059ADA6C3A
:103AB00042F00102DA64DB6C03F001030693069B1B
:103AC0000C23099302230A9303230C9307230D93DA
:103AD00009A94FF09040FEF7D7FF82E7144B9A6D8B
:103AE00042F480229A659A6D02F480220792079A26
:103AF000DA6C42F00802DA64DB6C03F00803089326
:103B0000089B4FF44073099302230A9303230C93F9
:103B100007230D9309A90948FEF7B6FF61E700BF27
:103B20000080004000500040004400400048004039
:103B3000001002400018004800080048000C00482F
:103B400070B58CB000230793089309930A930B93E5
:103B500003684C4A934207D04B4A93422DD04B4ABC
:103B6000934252D00CB070BD494B1A6E42F4805251
:103B70001A661A6E02F480520092009ADA6C42F0D1
:103B80001002DA64DB6C03F010030193019B4FF425
:103B9000704307930223089303230A9305230B938F
:103BA00007A93C48FEF770FF002211462320FFF7CB
:103BB000EFF82320FFF720F9D4E7354B9A6D42F454
:103BC00080429A659A6D02F480420292029ADA6CFF
:103BD00042F00802DA64DB6C03F008030393039BF2
:103BE0001B2307930223089303230A9305230B93B4
:103BF00007A92948FEF748FF002211462420FFF7B5
:103C0000C7F82420FFF7F8F8ACE7214B9A6D42F48F
:103C100000429A659A6D02F400420492049ADA6CAA
:103C200042F00102DA64DA6C02F001020592059AB0
:103C3000DA6C42F00202DA64DB6C03F002030693F2
:103C4000069B102307930224089403260A96062550
:103C50000B9507A94FF09040FEF716FF3823079306
:103C60000894002409940A960B9507A90B48FEF7BF
:103C70000BFF224621463320FFF78AF83320FFF757
:103C8000BBF86FE70030014000380040003C0040C6
:103C90000010024000100048000C004800040048DA
:103CA00000B589B0002201461920FFF771F81920EC
:103CB000FFF7A2F8144B1A6E42F400621A661B6EEC
:103CC00003F400630193019B02A903A8FEF72AFBFA
:103CD000FEF716FB0D4BA3FB00239B0C013B0C488E
:103CE0000C4A026040F2E732C26043600023036185
:103CF0008360FDF76BFE18B1012009B05DF804FB8D
:103D00000348FDF713FDF8E70010024083DE1B4374
:103D1000B4070020002C01407047FEE7FEE7FEE7F5
:103D2000FEE7704708B50248FDF71EFD08BD00BF5D
:103D3000B407002008B50248FDF7C8F808BD00BF69
:103D4000A001002008B50248FDF7C0F808BD00BF7B
:103D50008C02002008B50248FDF7B8F808BD00BF86
:103D60000C03002008B50248FCF7CCFF08BD00BFDB
:103D7000F003002008B50248FCF7C4FF08BD00BFEF
:103D8000C006002008B50248FCF7BCFF08BD00BF14
:103D90005404002008B54FF40050FEF75BFF08BD47
:103DA00000B5BBB0242200212AA800F0FFF80021B2
:103DB000249125912691279128918C2201A800F029
:103DC000F5F81823299301222E922F9290233193F4
:103DD0000223339334920522359247223692379349
:103DE00038930623399329A8FDF7EEFE28BB0F234D
:103DF000249303232593902326934FF480632793E2
:103E00000021289124A8FEF7B9F9C8B9114B0193F4
:103E100000231093119313931493159316931793F0
:103E2000189301A8FEF7F6FB68B94FF40070FEF78F
:103E30004FFF58B93BB05DF804FBFCF7F5FBD6E744
:103E4000FCF7F2FBE2E7FCF7EFFBEEE7FCF7ECFB3D
:103E5000F0E700BFF60110000F49D1F8883043F4B5
:103E60007003C1F888300D4B1A6842F001021A60E5
:103E7000002098601A6822F0A85222F410221A60DA
:103E80004FF48052DA601A6822F480221A60986136
:103E90004FF000638B60704700ED00E000100240BF
:103EA00008B50A4B0A4A1A60586000229A60DA6024
:103EB0001A610C2159619A611A625A621846FDF71B
:103EC00000FC00B908BDFCF7AFFBFBE7B80400201D
:103ED0000080004000B583B001904FF6FF730122CF
:103EE00001A90348FDF74EFB019803B05DF804FB00
:103EF000B804002070B50C4616460025B54205DA18
:103F000014F8010BFFF7E6FF0135F7E7304670BD07
:103F1000DFF834D0002103E00C4B5B5843500431F0
:103F20000B480C4B42189A42F6D30B4A02E000238E
:103F300042F8043B094B9A42F9D3FFF78DFF00F09A
:103F400011F8FCF751FBFEE7000005208051000846
:103F50000000002068000020680000200408002005
:103F6000FEE7000070B50D4D0D4C641BA41000263B
:103F7000A64209D10B4D0C4C01F00EF8641BA410A5
:103F80000026A64205D170BD55F8043B984701367E
:103F9000EEE755F8043B98470136F2E77051000808
:103FA0007051000870510008745100080244034623
:103FB000934200D1704703F8011BF9E70FB40A4B95
:103FC00013B51C6824B1A36913B9204600F05EFA4A
:103FD00005AB049AA1680193204600F02DFC02B0C5
:103FE000BDE8104004B070470400002070B50E46D4
:103FF000054618B183690BB900F048FAAB69AC68A3
:1040000013B9284600F042FA2C4B9C4220D16C6830
:10401000636EDB0705D4A389980502D4A06D00F078
:10402000D2FAA38919071DD52369DBB1013EA36824
:1040300016F8011F013BA36039BB002B38DA22467A
:104040000A21284600F048F8013011D00A2511E075
:104050001B4B9C4201D1AC68DAE71A4B9C4208BF6B
:10406000EC68D5E72146284600F088F80028DDD026
:104070004FF0FF35636EDA0705D4A3899B0502D4A0
:10408000A06D00F0A1FA284670BD002B04DAA269E9
:104090009A4206DC0A2904D023685A1C226019704F
:1040A000C5E72246284600F017F80130BFD1DFE708
:1040B00023680A255A1C22601D70DBE7F4500008B3
:1040C00014510008D4500008024B01461868FFF74D
:1040D0008DBF00BF04000020F8B50E46144605460B
:1040E00018B183690BB900F0D1F9214B9C422BD157
:1040F0006C68A369A360A3891A072FD523696BB3E2
:1041000023692068C01A6369F6B28342374604DC2B
:104110002146284600F026F930BBA368013BA36086
:1041200023685A1C22601E7063690130834204D0E8
:10413000A389DB0706D50A2E04D12146284600F0C4
:1041400011F988B93846F8BD0A4B9C4201D1AC68D8
:10415000CFE7094B9C4208BFEC68CAE721462846D6
:1041600000F00CF80028CBD04FF0FF37EAE700BF93
:10417000F450000814510008D4500008324B70B5B8
:104180001D6806460C4625B1AB6913B9284600F0F8
:104190007DF92E4B9C420FD16C68B4F90C309AB269
:1041A00015072CD4D00611D40922326043F0400305
:1041B000A3814FF0FF303EE0254B9C4201D1AC681B
:1041C000EBE7244B9C4208BFEC68E6E7510712D5A9
:1041D000616B41B104F14403994202D0304600F0D2
:1041E00059FA00236363A38923F02403A3810023E6
:1041F000636023692360A38943F00803A3812369D3
:104200004BB9A38903F42073B3F5007F03D0214693
:10421000304600F0FFF9A28912F001030CD0002310
:10422000A36063695B42A361236953B9B4F90C309D
:1042300013F08000BAD170BD920758BF6369A360C4
:10424000F2E70020F7E700BF04000020F450000868
:1042500014510008D45000088A892DE9F041054620
:1042600010070C4658D44B68002B05DC0B6C002B58
:1042700002DC0020BDE8F081E66A002EF9D00023C0
:1042800012F480522F682B6032D0606DA3895A07D8
:1042900005D56368C01A636B0BB1236CC01A002389
:1042A0000246E66A216A2846B047431CA38906D124
:1042B00029681D292CD82A4ACA40D60728D50022A9
:1042C0006260D9042269226004D5421C01D12B68A6
:1042D00003B96065616B2F600029CAD004F1440303
:1042E000994202D0284600F0D5F900206063C1E76A
:1042F000216A01232846B047411CC7D12B68002BF7
:10430000C4D01D2B01D0162B01D12F60B1E7A3899A
:1043100043F04003A381ADE70F69002FA9D09307B5
:104320000E6808BF4B690F6018BF0023A6EB070893
:104330008B60B8F1000F9CDD43463A46216AA66ABD
:104340002846B047002806DCA38943F04003A38138
:104350004FF0FF308EE70744A8EB0008E9E700BF05
:104360000100402038B50B6905460C4613B90025FD
:10437000284638BD18B183690BB900F087F8144B93
:104380009C421BD16C68B4F90C30002BEFD0626EEC
:10439000D00704D4990502D4A06D00F014F9284682
:1043A0002146FFF759FF636EDA070546E0D4A3897B
:1043B0009B05DDD4A06D00F007F9D9E7054B9C42C1
:1043C00001D1AC68DFE7044B9C4208BFEC68DAE738
:1043D000F450000814510008D4500008002310B510
:1043E0000446C0E90033836081814366C281C0E92D
:1043F00004338361194608225C30FFF7D7FD054B73
:104400006362054BA362054BE362054B24622363A1
:1044100010BD00BFBD4D0008DF4D0008174E00085D
:104420003B4E0008014900F0AFB800BF65430008EB
:1044300070B54A1E682555430E4605F1740100F01B
:1044400077F9044640B10021C0E900160C30A060A5
:1044500005F16802FFF7AAFD204670BD014800F093
:10446000B2B800BFFC070020014800F0ADB800BFA3
:10447000FC070020014800F0A6B800BFF7070020A5
:10448000014800F0A1B800BFF707002010B50446AE
:10449000FFF7F0FFA3691BB1BDE81040FFF7F0BFC5
:1044A000C4E912332365134B134A1B68A262A3426B
:1044B00004BF0123A361204600F020F8606020467D
:1044C00000F01CF8A060204600F018F80022E06020
:1044D00004216068FFF782FF01220921A068FFF72D
:1044E0007DFF02221221E068FFF778FF0123A3611C
:1044F000D2E700BFD050000825440008F8B50746B1
:10450000FFF7ACFF1E4B1E68B36913B93046FFF7C7
:10451000BDFF4836D6E90134013B03D533680BB300
:104520003668F7E7B4F90C50D5B9164BE36004F1DF
:104530005800656600F046F8FFF796FF2560C4E96D
:104540000155C4E90455A5610822294604F15C001F
:10455000FFF72CFDC4E90D55C4E912552046F8BDFE
:104560006834D9E704213846FFF762FF044630601B
:104570000028D5D1FFF778FF0C233B60EEE700BFA2
:10458000D05000080100FFFF2DE9F843804689461E
:1045900000F14804002614B93046BDE8F883D4E998
:1045A0000175013F01D52468F5E7AB89012B07D9D7
:1045B000B5F90E30013303D029464046C8470643BB
:1045C0006835EEE770477047704770B50E46B1F931
:1045D0000E10002996B014461D4607DA00232B6002
:1045E000B3891A0610D44FF480630EE06A4600F0D7
:1045F0004BFC0028F2DB019A02F47042A2F5005352
:104600005A425A412A60EEE740230020236016B048
:1046100070BD00008B8973B59D0706460C4607D513
:1046200004F14703236023610123636102B070BD7D
:1046300001AB6A46FFF7C9FF00990546304600F016
:1046400077F848B9B4F90C309A05EFD423F0030396
:1046500043F00203A381E3E70D4BB362A38920601B
:1046600043F08003A381009B6361019B20615BB1E8
:10467000B4F90E10304600F019FC28B1A38923F0DC
:10468000030343F00103A381A3891D43A581CDE763
:104690002544000838B50546002945D051F8043CAA
:1046A0000C1F002BB8BFE41800F022FC1F4A13684F
:1046B000104633B9636014602846BDE8384000F006
:1046C0001DBCA3420CD921686218934204BF1A682A
:1046D0005B68636004BF521822600460ECE7134615
:1046E0005A680AB1A242FAD919685818A0420BD1E7
:1046F00020680144581882421960DDD11068526860
:104700005A6001441960D7E702D90C232B60D3E724
:10471000206821188A4204BF11685268626004BF91
:10472000091821605C60C7E738BD00BF3801002070
:10473000F8B5CD1C25F0030508350C2D38BF0C2528
:10474000002D064601DBA94203D90C23336000206B
:10475000F8BD00F0CDFB21490A6814469CB9204FF2
:104760003B6823B92146304600F018FB38602946E3
:10477000304600F013FB431C23D10C23336030463A
:1047800000F0BCFBE3E723685B1B17D40B2B03D9BA
:1047900023601C44256004E06368A2420CBF0B60E8
:1047A0005360304600F0AAFB04F10B00231D20F0FB
:1047B0000700C21ACCD01B1AA350C9E7224664686E
:1047C000CCE7C41C24F00304A042E3D0211A3046F5
:1047D00000F0E4FA0130DDD1CFE700BF380100205E
:1047E0003C0100209368013B002B10B4936008DA71
:1047F0009469A34201DB0A2903D15DF8044BFFF75A
:104800006BBC1368581C1060197008465DF8044BA7
:104810007047F8B506460F461446D518AC4201D18C
:10482000002007E03A4614F8011B3046FFF7DAFF94
:10483000431CF3D1F8BD00002DE9F04F0D469DB0AB
:1048400014461E46074618B183690BB9FFF71EFED2
:10485000854B9D421BD17D686B6ED90705D4AB8912
:104860009A0502D4A86DFFF7AEFEAB891B0701D5F0
:104870002B69EBB929463846FFF780FCC0B16B6E57
:10488000D8070ED54FF0FF301DB0BDE8F08F774B45
:104890009D4201D1BD68DFE7754B9D4208BFFD68B1
:1048A000DAE7AB899905EDD4A86DFFF78DFEE9E74E
:1048B0000023099320238DF82930DFF8B89103965F
:1048C00030238DF82A304FF0010A23461E4613F894
:1048D000012B0AB1252AF9D1B6EB040B0BD05B46AC
:1048E000224629463846FFF794FF013000F0A380A6
:1048F000099B5B4409933378002B00F09C800023D4
:104900004FF0FF32CDE905230136049307938DF86C
:1049100053301A933446052214F8011B5548FBF70F
:1049200067FC049BC0B9DA0644BF20228DF85320EF
:10493000180744BF2B228DF8532032782A2A13D02F
:10494000079A344600200A26214611F8013B303BE5
:10495000092B4BD970B914E0A0EB09000AFA00F05A
:10496000184304902646D5E7039A111D1268039157
:10497000002A01DB079204E0524243F0020307924F
:10498000049323782E2B0CD163782A2B33D1039BED
:104990001A1D1B680392002BB8BF4FF0FF3302347F
:1049A0000593354E217803223046FBF721FC38B1C0
:1049B0004023801B03FA00F0049B0343013404935B
:1049C00014F8011B2D488DF828100622FBF710FC67
:1049D00000283FD02A4B13BB039B073323F0070368
:1049E00008330393099B434409936EE706FB0232A5
:1049F00001200C46A8E700230134059319460A2636
:104A0000204610F8012B303A092A03D9002BC8D0D0
:104A10000591C6E706FB012101230446F0E703AB3D
:104A200000932A46174B04A93846AFF30080B0F133
:104A3000FF3F8046D6D16B6ED90705D4AB899A0566
:104A400002D4A86DFFF7C0FDAB895B063FF51AAF36
:104A5000099819E703AB00932A460A4B04A9384684
:104A600000F088F8E3E700BFF45000081451000894
:104A7000D4500008345100083A5100083E51000853
:104A800000000000134800082DE9F04791461F463A
:104A90008A680B69DDF820809342B8BF1346C9F8D5
:104AA000003091F8432006460C4612B10133C9F894
:104AB00000302368990642BFD9F800300233C9F8A4
:104AC0000030256815F0060507D104F1190AE368DE
:104AD000D9F800209B1AAB4228DC94F843302268B6
:104AE000003318BF012392062DD404F14302394646
:104AF0003046C047013020D02368E568D9F800204F
:104B000003F00603042B08BFAD1AA36822690CBF8B
:104B100025EAE57500259342C4BF9B1AED184FF0B6
:104B200000091A344D451AD1002008E001235246ED
:104B300039463046C047013003D14FF0FF30BDE861
:104B4000F0870135C3E7E1185A1C302081F8430093
:104B5000224494F8451082F843100233C5E701233C
:104B6000224639463046C0470130E6D009F10109F6
:104B7000D8E700002DE9F04306460C4601F143005A
:104B8000097E85B06E29984617460C9B00F0BA80C6
:104B900024D8632939D00AD8002900F0C3805829C5
:104BA00000F0918004F1420584F8421035E0642958
:104BB00001D06929F6D125681A6815F0800F02F135
:104BC00004012CD012681960002A03DA2D23524206
:104BD00084F84330DFF8BCC10A233FE0732900F0BA
:104BE000A58008D86F2921D07029DBD1226842F036
:104BF0002002226003E0752918D07829D2D17822CA
:104C000084F84520DFF890C161E01A68111D196031
:104C1000136884F8423004F14205012393E01268DE
:104C2000196015F0400F18BF12B2CDE7D4F800C0DC
:104C30001A681CF0800F02F104051D6001D0126893
:104C400003E01CF0400FFAD01288DFF848C16F294A
:104C50000CBF08230A23002184F843106568A5606F
:104C6000002DA2BF216821F0040121600AB9002DA6
:104C700046D00546B2FBF3F103FB112E93421CF81C
:104C80000EE005F801ED39D9082B0BD12368DA07BE
:104C900008D5236962689A42DEBF302305F8013CDB
:104CA00005F1FF35401B2061CDF800803B4603AA8B
:104CB00021463046FFF7E8FE013049D14FF0FF3082
:104CC00005B0BDE8F083DFF8CCC084F845101D685E
:104CD000216855F8042B1D600D060BD5CD0744BF88
:104CE00041F0200121601AB9236823F020032360DA
:104CF0001023B0E74B0648BF92B2EFE70A46B9E788
:104D00000546C1E71A68D4F800C06169151D1D6029
:104D10001CF0800F136801D0196003E01CF0400FF5
:104D2000FAD01980002323610546BDE71A68111DDA
:104D300019601568626800212846FBF759FA08B126
:104D4000401B606063682361002384F84330ABE755
:104D500023692A4639463046C0470130AED0236821
:104D60009B0713D4E068039B9842B8BF1846A7E797
:104D700001234A4639463046C04701309ED00135AE
:104D8000E368039A9B1AAB42F2DCEBE7002504F1DF
:104D90001909F5E7455100085651000838B5064C89
:104DA000002305460846236000F0E8F8431C02D1C2
:104DB000236803B12B6038BD0008002010B50C46F5
:104DC000B1F90E1000F0A0F80028ABBF636DA38905
:104DD0001B1823F48053ACBF6365A38110BD2DE97C
:104DE000F0411F468B89DB0505460C46164605D566
:104DF00002230022B1F90E1000F068F8A389B4F97B
:104E00000E1023F48053A38132463B462846BDE86A
:104E1000F04100F017B810B50C46B1F90E1000F0D3
:104E200055F8431CA38915BF606523F4805343F4F0
:104E30008053A38118BFA38110BDB1F90E1000F0FB
:104E400013B8000038B5074C054608461146002245
:104E500022601A46FFF74EF8431C02D1236803B1C3
:104E60002B6038BD0008002038B5064C00230546ED
:104E70000846236000F05AF8431C02D1236803B1AE
:104E80002B6038BD0008002038B5074C00230546CC
:104E900008461146236000F051F8431C02D12368F4
:104EA00003B12B6038BD00BF0008002038B5064CA8
:104EB000002305460846236000F048F8431C02D151
:104EC000236803B12B6038BD0008002038B5074CBB
:104ED000054608461146002222601A4600F03EF8B8
:104EE000431C02D1236803B12B6038BD00080020A9
:104EF0000148FFF768BB00BFF80700200148FFF733
:104F000063BB00BFF807002038B5074C05460846CC
:104F10001146002222601A4600F028F8431C02D1F4
:104F2000236803B12B6038BD00080020024B5822D3
:104F30001A604FF0FF30704700080020024B5822E3
:104F40001A604FF0FF30704700080020024B5822D3
:104F50001A600020704700BF00080020024B582252
:104F60001A604FF0FF30704700080020024B5822B3
:104F70001A604FF0FF30704700080020044A0549CE
:104F80001368002B08BF0B46184410601846704782
:104F90004001002008080020F8B500BFF8BC08BC9C
:104FA0009E467047F8B500BFF8BC08BC9E467047E7
:104FB0002A2A2A2A2A2A2A2A2A2A2A2A2A2A2A2A51
:104FC0002A2A2A2A2A2A2A2A2A2A2A2A2A2A2A2A41
:104FD0002A2A2A2A2A2A2A2A2A0D00006E6F2073DA
:104FE00063686564756C6572206578616D706C6569
:104FF0000D0000002A2A2A2A5F5F5F5F5F496E6901
:1050000074616C697A65205350473330206E6F7736
:1050100021215F5F5F5F2A2A2A2A0D00496E76618F
:105020006C69642053504733305F434F4E4E4543C5
:10503000544F522070726F766964656420696E20E7
:105040004D616B6566696C650D0000005350473318
:10505000302073656E736F72206F6E205025642C44
:1050600020696E697469616C697A696E672049327A
:10507000430D0A00496E76616C696420636F6E6E41
:105080006563746F720D00000000000000000000F6
:1050900001020304060708090000000001020304DE
:1050A000A0860100400D0300801A060000350C00A8
:1050B00040420F0080841E0000093D0000127A006B
:1050C0000024F40000366E010048E801006CDC02A8
:1050D00008000020000000000000000000000000A8
:1050E00000000000000000000000000000000000C0
:1050F00000000000000000000000000000000000B0
:10510000000000000000000000000000000000009F
:10511000000000000000000000000000000000008F
:10512000000000000000000000000000000000007F
:1051300000000000232D302B2000686C4C006566B9
:1051400067454647003031323334353637383941D8
:1051500042434445460030313233343536373839EE
:085160006162636465660000F2
:0851680058B1FF7F01000000B7
:08517000D50100080000000059
:08517800B10100080000000075
:1051800000093D000800002000000000F450000865
:1051900014510008D4500008000000000000000076
:1051A00000000000000000000000000000000000FF
:1051B00000000000000000000000000000000000EF
:1051C00000000000000000000000000000000000DF
:1051D00000000000000000000000000000000000CF
:0851E0000000000000000000C7
:0400000508003F119F
:00000001FF
