:020000040800F2
:1000000000000520CD6E0008FD6B0008FF6B0008A6
:10001000016C0008036C0008056C0008000000007B
:10002000000000000000000000000000915D0008DA
:10003000076C000800000000315E0008955E0008B3
:100040001D6F00081D6F00081D6F00081D6F000860
:100050001D6F00081D6F00081D6F00081D6F000850
:100060001D6F00081D6F00081D6F00081D6F000840
:100070001D6F00081D6F00081D6F00081D6F000830
:100080001D6F00081D6F00081D6F00081D6F000820
:100090001D6F00081D6F00081D6F00081D6F000810
:1000A0001D6F0008096C00081D6F00081D6F000817
:1000B0001D6F00081D6F00081D6F00081D6F0008F0
:1000C0001D6F00081D6F00081D6F0008496C0008B7
:1000D000596C00081D6F0008196C0008296C000895
:1000E000796C00081D6F00081D6F00081D6F000867
:1000F0001D6F00081D6F00081D6F00081D6F0008B0
:100100001D6F00081D6F00081D6F0008696C000856
:100110001D6F0008396C00081D6F00081D6F000876
:100120001D6F00081D6F00081D6F00081D6F00087F
:100130001D6F00081D6F00081D6F00081D6F00086F
:100140001D6F00081D6F00081D6F00081D6F00085F
:100150001D6F00081D6F00081D6F00081D6F00084F
:100160001D6F00081D6F00081D6F00081D6F00083F
:100170001D6F00081D6F00081D6F000800000000C3
:100180001D6F00081D6F00081D6F00081D6F00081F
:100190001D6F00081D6F00081D6F00081D6F00080F
:1001A0001D6F00081D6F0008000000000000000027
:1001B00010B5054C237833B9044B13B10448AFF3A1
:1001C00000800123237010BDB0000020000000005B
:1001D0008C80000808B5034B1BB103490348AFF3FB
:1001E000008008BD00000000B40000208C800008E2
:1001F00001F0FF01102A2BDB10F0070F08D010F8D8
:10020000013B013A8B422DD010F0070F42B3F6D1DB
:10021000F0B441EA012141EA014122F007047FF0F4
:1002200000070023F0E80256083C85EA010586EA4B
:10023000010685FA47F5A3FA87F586FA47F6A5FA87
:1002400087F68EB9EED1F0BC01F0FF0102F0070293
:1002500032B110F8013B013A83EA010313B1F8D13E
:100260000020704701387047002D06BF354603381F
:10027000073815F0010F07D1013015F4807F02BF58
:10028000013015F4C03F0130F0BC0138704700BFA9
:1002900053B94AB9002908BF00281CBF4FF0FF31ED
:1002A0004FF0FF3000F074B9ADF1080C6DE904CEE9
:1002B00000F006F8DDF804E0DDE9022304B0704741
:1002C0002DE9F047089E04468846002B40F08580C3
:1002D0008A42154648D9B2FA82F24AB1C2F12007E1
:1002E00001FA02F320FA07F7954047EA0308944021
:1002F0004FEA154E230CB8FBFEF71FFA85FC0EFBE8
:10030000178843EA084307FB0CF1994209D9EB1817
:1003100007F1FF3080F0E380994240F2E080023F35
:100320002B445B1AA4B2B3FBFEF00EFB103344EA7D
:10033000034400FB0CFCA44509D92C1900F1FF3340
:1003400080F0CB80A44540F2C88002382C4440EABB
:100350000740A4EB0C0400271EB1D4400023C6E9DB
:1003600000433946BDE8F087002A53D0B2FA82F242
:10037000002A40F0B680491B4FEA154E1FFA85F857
:100380000127B1FBFEFC230C0EFB1C1143EA0143C9
:1003900008FB0CF1994207D9EB180CF1FF3002D29F
:1003A000994200F2EC808446591AA3B2B1FBFEF0E8
:1003B0000EFB101443EA044408FB00F8A04507D9DB
:1003C0002C1900F1FF3302D2A04500F2DC80184660
:1003D000A4EB080440EA0C40BEE78B4208D9002E8B
:1003E00078D00027C6E9000138463946BDE8F087D5
:1003F000B3FA83F77FB98B4202D3824200F2BD8009
:10040000841A61EB030301209846002EA9D0C6E9A7
:100410000048A6E7FFDEC7F12005BB4022FA05FC35
:100420004CEA030C01FA07F420FA05F821FA05F367
:100430004FEA1C4E48EA0404B3FBFEF9210C0EFB04
:1004400019331FFA8CF841EA034309FB08FA9A456D
:1004500002FA07F200FA07F10BD91CEB030309F1CA
:10046000FF3080F088809A4540F28580A9F102092A
:100470006344A3EB0A03A4B2B3FBFEF00EFB1033FC
:1004800044EA034400FB08F8A04508D91CEB040427
:1004900000F1FF336BD2A04569D90238644440EAC9
:1004A0000940A4EB0804A0FB02894C45C6464B4614
:1004B00054D351D0002E69D0B1EB0E0264EB03048B
:1004C00004FA05F522FA07F3FC401D43C6E900547F
:1004D000002746E73746304643E7184637E70746E2
:1004E0001FE7C2F1200320FA03F7954001FA02F05A
:1004F00021FA03F34FEA154E3843010CB3FBFEF724
:100500001FFA85F80EFB173341EA034107FB08F396
:100510008B4204FA02F407D9691807F1FF3C28D28C
:100520008B4226D9023F2944CB1A81B2B3FBFEF09D
:100530000EFB103341EA034100FB08F38B4207D95D
:10054000691800F1FF3C10D28B420ED902382944C1
:10055000C91A40EA074714E74145ABD2B8EB020E8F
:1005600069EB0C0201381346A4E76046F0E7184631
:1005700095E76746D8E781467BE7384645E7ACF123
:10058000020C2B4410E702382C4421E73746E8E6FA
:10059000704700BF00B583B0194B1B785BB31423C1
:1005A0008DF80030174B1B888DF801301B0A8DF831
:1005B00002304FF0FF31144B186805F019FA03218F
:1005C000684601F0A3F990B90D4A1378013313700E
:1005D00040F6B83005F0B2F90B4B186805F038FA60
:1005E000084A13880133138003B05DF804FB044B01
:1005F00001221A70ECE7054807F05EF8F4E700BF47
:10060000CE000020CC0000202C490220BC80000835
:1006100008B5084807F050F8074B1B7803B108BD30
:10062000064BD3E9000101F0EDF8034B187001F01F
:100630004FF9F4E7E4800008CE000020D04A022001
:1006400008B502E0012005F079F94FF0FF310120F3
:1006500004F074FE0128F5D101F070F9F2E7000012
:1006600008B5034B834200D008BD01F06BF9FBE7EE
:100670000047022030B583B01A4C204607F01CF822
:10068000194D284607F018F8184807F015F82846BD
:1006900007F012F8204607F00FF8154B6C4693E868
:1006A000030084E80300134806F080FF217821B19D
:1006B000114806F07BFF0134F8E7104806F0FCFF14
:1006C0000F4C4FF40041204603F0D9FA4FF4FA6082
:1006D00002F0D0F94FF40041204603F0D0FA03B005
:1006E00030BD00BFFC8C0008408100086C81000810
:1006F000D04A0220808100088C8100089481000883
:10070000000C004800B58BB002F097F906F0BAFA79
:1007100001F02CF905F018FF2A4CC4E90001FFF79D
:10072000A9FFD4E9000101F06DF8274B18700028EB
:1007300043D10026099609A805F054F9234B186007
:1007400004AC234D0FCD0FC42B682360314604A8A1
:1007500005F0DAF81F4B186001F0D2F8304605F0CA
:1007600055FE1D4B03933246012103A805F0F0F816
:100770001A4B186041F2883105F0FEF8184B0293CD
:100780003246012102A805F0E3F8164B18604EF638
:10079000602105F0F1F8144B01933246012101A8C4
:1007A00005F0D6F8114B1860114905F0E5F811482D
:1007B00006F082FF05F0A3F8FEE70F4806F07CFF85
:1007C000B7E700BFD04A0220CE0000202C4902200B
:1007D000A88000083C4B02200D640008C04B02209A
:1007E00095050008C445022011060008384B022078
:1007F00080EE3600248100080881000808B50268F0
:10080000034B9A4200D008BD02F026F9FBE700BF77
:10081000002C01407047000008B50B714A7101229D
:10082000063100F09BFC00B908BD034B034AD421FC
:10083000034806F075FB00BF948A00086082000838
:10084000D48A000870B586B0AAB104460D4693B9A3
:1008500001220DF1170100F081FC90B99DF81730CD
:1008600085F80431D72B12D0023BDBB2012B40F2CA
:10087000848006B070BD4A4B4A4AD9214A4806F0E6
:100880004FFB4A4B474ADB21474806F049FB6E467F
:1008900055F8040F6968AA68EB680FC628693060CC
:1008A000AA8AAB7DB280B37101226946204600F06E
:1008B00055FC02220DEB0201204600F04FFCBDF872
:1008C00002305BBAADF80230012201A9204600F0E7
:1008D00045FC01220DF10501204600F03FFC0122FC
:1008E0000DF10701204600F039FC012202A9204643
:1008F00000F034FC01220DF10901204600F02EFC2D
:1009000001220DF10A01204600F028FC01220DF120
:100910000B01204600F022FC01220DF10D012046C2
:1009200000F01CFC01220DF10E01204600F016FC27
:100930009DF80D30C3F30113032B07D8DFE803F054
:100940000F0D020408220BE0022209E0184B194A9D
:100950004FF49771184806F0E3FA002200E00122F4
:100960000DF10F01204600F0F9FB002881D0134B58
:100970000C4AF0210C4806F0D3FAAB88ADF80030F1
:100980000121204600F0AAFB01226946204600F022
:10099000E5FB01220DEB0201204600F0DFFB68E7DA
:1009A000E889000874820008D48A0008F4890008E5
:1009B000208A0008B0810008288A0008488A0008B8
:1009C00010B582B0044600238DF8073001220DF1E6
:1009D000070100F0C3FB9DF80700820901D102B0B6
:1009E00010BD00F03F00D3009840009069462046BB
:1009F00000F0B4FB0098F2E730B585B005460191F0
:100A00003F2926D9B1F5804F2FD20124B1F5800FAF
:100A100000D30324A301DBB28DF80F3004AA2244D3
:100A200012F80C2C13448DF80F3001220DF10F0138
:100A3000284600F0E7FAD0B9013CE4B2012201AB4C
:100A40001919284600F0DEFAB8B9002CF4D105B027
:100A500030BD012201A900F0D5FA0028F7D00A4BD9
:100A60000A4A3F210A4806F05BFA0224CEE7094B06
:100A7000064A4C21064806F053FA074B034A4F2119
:100A8000034806F04DFA00BF58880008CC810008E2
:100A9000D48A00088C880008B488000830B583B078
:100AA00004460D4601226946284600F057FB58B916
:100AB0002846FFF785FF019002AB13E9030084E8A5
:100AC0000300204603B030BD024B034A55210348C2
:100AD00006F026FAD4890008E8810008D48A0008C4
:100AE00070B582B005460E466C4601462046FFF7BB
:100AF000D5FF331D94E8030083E803002846FFF781
:100B00005FFFF060FF2807D882B206F11001284687
:100B100000F024FB02B070BD024B034AC22103481F
:100B200006F0FEF9F48A000848820008D48A00081A
:100B300008B5FFF7D5FF08BD08B5FFF7D1FF08BD21
:100B4000F0B583B0EAB104460E461F461546322181
:100B500000F09DFAD8B93146204600F098FAE0B985
:100B6000D72E20D0022E6ED0032E00F0C0803A4641
:100B70002946204600F046FA002840F0F98003B0EC
:100B8000F0BD7E4B7E4A6B217E4806F0C9F97E4B54
:100B90007B4A6C217B4806F0C3F97C4B784A6D2177
:100BA000784806F0BDF92978204600F070FA90B92F
:100BB0006978204600F06BFA98B9A978204600F0D1
:100BC00066FAA0B9AB78C3F30113032B19D8DFE899
:100BD00003F0211F14166E4B694A7121694806F013
:100BE0009FF96C4B664A7221664806F099F96A4B88
:100BF000634A7321634806F093F908260BE0022646
:100C000009E0664B664A4FF49771664806F088F92A
:100C1000002600E00126E978204600F038FA60B9A5
:100C20003246291D204600F0EDF90028A7D05E4B82
:100C3000534A7621534806F073F95C4B504A7521AC
:100C4000504806F06DF995F82810490001F0FE01B2
:100C5000204600F01CFA60BB95F82910204600F0F1
:100C600016FA60BB10222946204600F0CBF960BB83
:100C70001022A918204600F0C5F960BB2B6A1BBAE8
:100C8000009304226946204600F0BCF948BB6B6A19
:100C90001BBA019304220DEB0201204600F0B2F9C9
:100CA00000283FF46CAF424B354A8321354806F0AB
:100CB00037F9404B324A7B21324806F031F93E4B3E
:100CC0002F4A7C212F4806F02BF93C4B2C4A7D21E2
:100CD0002C4806F025F93A4B294A7E21294806F08E
:100CE0001FF9384B264A8021264806F019F995F855
:100CF0002010490001F0FE01204600F0C8F9F8B9C3
:100D000095F82110204600F0C2F9F8B908222946CA
:100D1000204600F077F9F8B90822A918204600F01B
:100D200071F9F8B91022A918204600F06BF90028D3
:100D30003FF425AF244B124A8C21124806F0F0F8FC
:100D40001C4B0F4A88210F4806F0EAF81F4B0C4A4B
:100D500089210C4806F0E4F81D4B094A8A2109480C
:100D600006F0DEF81B4B064A8B21064806F0D8F841
:100D7000194B034A9021034806F0D2F8EC82000890
:100D800008820008D48A0008FC820008308300082A
:100D90005C830008AC83000804840008208A0008F3
:100DA000B0810008288A0008C08400086084000818
:100DB000908600081C85000850850008B085000852
:100DC0000486000858860008D0870008C8860008F6
:100DD000288700087C87000824880008F8B50446A6
:100DE0000F4616461D46202100F051F998B93946A4
:100DF000204600F04CF9A0B931462046FFF7FCFD33
:100E000029462046FFF7F8FDAAB20699204600F0D1
:100E1000F9F860B9F8BD094B094A9721094806F06D
:100E20007FF8094B064A9821064806F079F8074BE7
:100E3000034A9B21034806F073F800BFF0880008BE
:100E400024820008D48A0008C08200082C89000887
:100E500030B583B005460C4601220DF1070100F0C4
:100E60007DF9F0B99DF80710C1F38012CB0901F0AC
:100E70003F018DF80710217004391F292CD8DFE8B5
:100E800001F0162B2B2B2B2B2B2B2B2B2B2B2B2B2C
:100E90002B2B2B2B2B2B2B2B2B2B2B2B2B2B1C2BB1
:100EA0002621114B114AFF21114806F039F821463D
:100EB0002846FFF73DFE03B030BD21462846FFF728
:100EC0003BFEF8E721462846FFF7A6FCF3E721465C
:100ED0002846FFF7B7FCEEE7064B044A40F2131131
:100EE000034806F01DF800BFAC8900088C8200089A
:100EF000D48A0008208A000838B504460D46D2017D
:100F000042F0340101F0B40100F0C1F828B92946DB
:100F1000204600F0BCF838B938BD074B074A4FF4FB
:100F2000A871074805F0FCFF064B044A40F2511136
:100F3000034805F0F5FF00BF58890008A0820008AB
:100F4000D48A000880890008094A11880B0243EA04
:100F500011239BB25840C0F30313584080EA00307D
:100F600000B283B25B0103F4FF5358401080704716
:100F7000D000002070B506460D46084B4FF6FF72B4
:100F80001A800024AC4205D2305DFFF7DDFF01344A
:100F9000E4B2F7E7014B188870BD00BFD000002015
:100FA0000388194489B201808388994204D9B1FB2E
:100FB000F3F203FB12110180704781600021018070
:100FC000013B838042800173704708B513460022BD
:100FD000FFF7F3FF08BD30B48C6884600D881544BA
:100FE00005800C88144413FA84F39BB243808A88EA
:100FF000934201D99B1A43808B888380012303731A
:1010000030BC7047F8B5037B002B3ED115460E4629
:101010000446438801888B4210D21A448A4202DB7C
:1010200041F28A3032E080682A463146184405F0A1
:10103000CBFF628815446580002027E0D018A28885
:10104000904209DDD71ABFB29A1A1544ADB2A9422F
:101050000DD841F28A3019E0A0682A46314618447A
:1010600005F0B2FF62881544658000200EE0A0689C
:101070003A463146184405F0A7FF2A46F119A06800
:1010800005F0A2FF6580002000E01620F8BD00B545
:1010900083B08DF8071001220DF10701FFF7B2FFB1
:1010A00003B05DF804FB028843889A4202D8981A7C
:1010B00080B270478088801A13FA80F080B270473F
:1010C00039B110B50C46FFF7EEFFA04203D3002064
:1010D00010BD0020704741F28A30F9E770B505462F
:1010E0000E46FFF7EDFF044608B1204670BD3146BD
:1010F0002846FFF755FFF8E72DE9F04105460F4672
:1011000014461E461946FFF7DBFF8046E0B92A88E1
:101110002244AB8892FBF3F103FB112189B27018D2
:1011200090FBF3F203FB120292B291420FD95B1AC9
:101130009CB2AB6822461944384605F045FF321B85
:10114000A968381905F040FF4046BDE8F081AB685A
:1011500032461944384605F037FFF5E770B50646C4
:10116000144613460022FFF7C7FF054608B128467C
:1011700070BD21463046FFF713FFF8E7F0B5CBB05E
:1011800004460026374618E09DF81E10634B1A7877
:10119000914204D19DF81C709DF81D600DE06048DF
:1011A00006F004FA09E05F4B1B68DD682DB10AAB5D
:1011B000099A08999DF81C00A8472046FFF773FF7D
:1011C000002800F09C8006A92046FFF741FE9DF80C
:1011D0001830043B1F2B00F28C8001A252F823F040
:1011E000A7110008F3120008F3120008F312000818
:1011F000F3120008F3120008F3120008F3120008BB
:10120000F3120008F3120008F3120008F3120008AA
:10121000F3120008F3120008F3120008F31200089A
:10122000F3120008F3120008F3120008F31200088A
:10123000F3120008F3120008F3120008F31200087A
:10124000F3120008F3120008F3120008F31200086A
:1012500061120008F31200087912000889110008D1
:10126000304B1B689D68002DA7D00AAB099A0899DE
:101270009DF81C00A847A0E79DF81C31D72B09D08A
:10128000284B1B685B68002B97D007A99DF81C01B1
:10129000984792E76D460DF11C0CBCE80F000FC596
:1012A0009CE8030045F8040B25F8021B090C297083
:1012B0009DF80D30C3F30113032B07D8DFE803F0CB
:1012C0000F0D020408250BE0022509E0164B174A12
:1012D0004FF49771164805F023FE002500E0012524
:1012E000144806F063F929460DF10F0006F05EF987
:1012F000C6E70D4B104A6921104805F011FE57B1A1
:10130000084B1B681B681BB1044A1178304698478C
:10131000024B00225A704BB0F0BD00BFD800002035
:10132000A08B0008D4000020208A0008688B0008E9
:10133000288A0008D08B0008508B0008E88B000832
:1013400008B5034B1860006908B100F015FA08BD34
:10135000D400002010B500240748FFF7A4FE48B1D0
:10136000312C07D800F018F9052001F083FB013477
:10137000E4B2F1E710BD00BF244C022008B500F034
:10138000BFF90121034800F0E1F9034B00225A7034
:1013900008BD00BF7D110008D8000020014B0022CD
:1013A0005A707047D800002070B50F4B5B78ABB90E
:1013B0000D4D01246C702E1D4FF4807205F1140147
:1013C0003046FFF702FE094B197829700A191A7086
:1013D00022463046FFF790FD204670BD044806F0D7
:1013E000E5F80020F9E700BFD8000020EC0100205C
:1013F000848B00082DE9F04782B006460F469046E0
:1014000099460A9CFFF7D0FF0546C8B12378DBB1A7
:10141000012B20D0022B25D0164C04F1040ACDF864
:10142000009043463A4631465046FFF7D7FC5046B7
:10143000FFF739FE0122C1B204F1140000F07AF87E
:10144000284602B0BDE8F0870C23221DD7210A48A8
:10145000FFF776FBE0E72223221D03210648FFF772
:101460006FFBD9E72C23221D02210348FFF768FBFD
:10147000D2E700BFD8000020DC000020B0B500AFEC
:101480000C460B79DA1D02F4FC72ADEB020D6D46D1
:1014900000226946FFF730FE0E4A13780133DBB2B3
:1014A0001370A278934201D00A4B1A702179284612
:1014B000FFF760FD6279C0F30F239A4205D1A3794B
:1014C000C0B2834204D0002000E00020BD46B0BD81
:1014D0000120FBE70803002030B5C1B0094D2846C4
:1014E000FFF7E1FDC4B2224669462846FFF736FE03
:1014F0004FF47A73224669460348006801F05CF8AD
:1015000041B030BDF80200203C4C022010B5064C22
:1015100001222146054B186800F018FC01222146E3
:101520000348FFF76FFD10BD204C02203C4C022009
:10153000244C0220F0B583B007460E461546FFF74F
:1015400019FD134A13780133DBB21370C0228DF8F2
:10155000002000248DF801408DF802308DF80350F2
:101560008DF80460030A8DF805308DF80600094DEA
:10157000072269462846FFF745FD32463946284688
:10158000FFF740FD2046FFF7A7FF03B0F0BD00BF07
:1015900009030020F802002030B587B04F4B1C78BB
:1015A00074BB4F48FFF77FFD072802D8204607B0DD
:1015B00030BD4C4D0723002229464948FFF79CFDCA
:1015C0002B78C02B01D16B7873B1454D0121284692
:1015D000FFF784FD0023414A1370434A13702846E5
:1015E000FFF761FD0728E1D83C4B01221A70072163
:1015F0003B48FFF773FD3B4B1A793B4B1A70D5E71D
:101600003748FFF750FD384B1B78984201D2002431
:10161000CCE70022324902A8FFF7DDFC314902A8DD
:10162000FFF72CFF08B32F4BDB78012B0DD0032BDA
:1016300027D0042B2CD0022B31D0052B3BD02A4BAA
:10164000197802A8FFF74AFD05E0284A1268002A27
:10165000EDD002A89047244B1D7802A8FFF723FD88
:10166000291A89B21E48FFF739FD00231E4A13705C
:101670001A4A13701A48FFF716FD072896D8002457
:1016800094E71B4A1268002AD3D002A89047E2E7E9
:10169000184A1268002ACED002A89047DBE78DF8DE
:1016A0000430012102A8FFF719FD0322012101A83E
:1016B000FFF740FFCFE7012201A902A8FFF74EFD87
:1016C0009DF804100C4805F071FF0C4B1B68002BB3
:1016D000C1D09DF804009847BDE700BF0A03002071
:1016E000244C0220344C02200B030020F001002087
:1016F0000C030020F40100200C8C000810040020D2
:1017000010B50C4C2060FF220B490C48FFF75DFC24
:101710000020FFF7E1FEFFF73FFF4FF4807208491A
:101720000848FFF752FC01220749206800F00EFB31
:1017300010BD00BF3C4C0220F8010020F802002040
:1017400010030020244C0220204C0220012904D048
:10175000032905D0042906D07047044B1860704750
:10176000034B18607047034B1860F5E7F001002049
:101770000C030020F4010020014B1860704700BFEB
:101780001004002008B5044B00221A7080F00102FA
:10179000024805F00BFF08BD14040020308D00083E
:1017A00030B583B0054C00252570009313460A46DA
:1017B0000146034805F0FAFE03B030BD14040020D2
:1017C000948D000830B583B0054C0025257000933A
:1017D00013460A460146034805F0E8FE03B030BD53
:1017E00014040020DC8D000808B5044B00221A7098
:1017F000034805F061FFFFF7D1FD08BD1404002088
:10180000708D000870B596B0CDE91401254805F03B
:1018100053FF254E032108A804F0C6FE354608AC48
:101820000FCC0FC50FCC0FC594E8070085E8070063
:1018300096F82840002C31D003211C4805F0B6FE54
:101840001B491C4805F0B2FE1B4B16AA12E9030007
:1018500083E80300144E4FF4E13307936C4606F11E
:1018600010050FCD0FC495E8070084E8070096E83F
:101870000F0004F07BFE3269104B1A60726A104B45
:101880001A607068FFF77AFD0E48FFF759FD0E48A1
:1018900005F012FF0124204616B070BD0B4805F07C
:1018A0000BFFF8E7288C0008404C0220848C0008CD
:1018B000A88C0008BC8C000818000020884A022070
:1018C000FC49022000000020E48C0008548C000831
:1018D00010B50A4C236800229988186802F0CAF9EA
:1018E000322001F0C7F8236801229988186802F0B5
:1018F000C1F94FF47A7001F0BDF810BDFC49022027
:10190000014B1860012070478C4A022030B583B02B
:101910000C46084B009303460A4600214020FFF77F
:1019200069FD05462146044805F040FE284603B0FF
:1019300030BD00BF14000020008D000808B5FFF77F
:1019400009FD08BD08B5FFF7E1FD064B1B7803B1A3
:1019500008BD054B186804F075FE024B01221A7091
:10196000F6E700BF140400208C4A022008B504F0FA
:10197000E1FD08BD002859D010B5044690F841306B
:10198000002B43D0242384F841302268136823F0CD
:10199000010313606368226823F070631361226897
:1019A000936823F400439360E368012B33D0A3686A
:1019B000226843F404439360E368022B31D0226829
:1019C000536843F0007343F4004353602268D368C4
:1019D00023F40043D360236962691343A169226839
:1019E00043EA0123D360E369216A22680B43136051
:1019F0002268136843F00103136000206064202311
:101A000084F84130206384F8420010BD80F84030F3
:101A100004F07EFEB6E7A368226843F400439360B7
:101A2000CAE723684FF400625A60C8E70120704794
:101A300090F84130DBB2202B27D190F84030012BB9
:101A400025D010B4012380F84030242380F84130A1
:101A50000468226822F0010222600468226822F4ED
:101A600080522260026813680B4313600268136897
:101A700043F001031360202380F84130002380F8F5
:101A8000403018465DF8044B704702207047022032
:101A9000704790F84130DBB2202B25D190F84030D0
:101AA000012B23D010B4012380F84030242380F888
:101AB00041300468226822F0010222600268136843
:101AC00023F4706343EA012313600268136843F050
:101AD00001031360202380F84130002380F8403058
:101AE00018465DF8044B704702207047022070478B
:101AF000002853D010B504460023836290F85D306F
:101B0000002B40D0022384F85D302268136823F054
:101B100040031360E368B3F5E06F39D90022B3F5F1
:101B2000706F04D0B3F5E06F01D00021A162216B8A
:101B300021B9B3F5E06F2ED9022323636368A1684E
:101B40000B4321690B4361690B43A16901F40071E7
:101B50000B43E1690B43216A0B43A06A21680343ED
:101B60000B60638B03F00403616A0B43616B0B43EF
:101B7000E1680B43216813434B600020206601237A
:101B800084F85D3010BD80F85C3004F04BFFB9E79D
:101B90004FF48052C3E701232363CFE7012070474E
:101BA0007047000030B585B00446026850689368FD
:101BB000C3F3801129B913F0010F02D010F0400FC8
:101BC00067D113F0020F02D010F0800F65D1C3F37C
:101BD00040151DB911B913F4807F61D010F0200FAA
:101BE0005ED079B194F85D10C9B203295AD0216E44
:101BF00041F00401216600210091D16800919168B3
:101C00000091009965B1216E41F00101216600212A
:101C1000029191680291116821F040011160029ACD
:101C200013F4807F09D0236E43F00803236600235A
:101C3000039323689B680393039B236E002B2FD091
:101C40002268536823F0E0035360012384F85D3079
:101C500010F0030F2ED02268536823F00303536063
:101C6000A36D4BB1154A9A63A06D02F01BF818B131
:101C7000236E43F040032366636D8BB10F4A9A6372
:101C8000606D02F00FF858B1236E43F040032366F5
:101C900006E0E36C2046984702E0236D2046984713
:101CA00005B030BD00230193D3680193936801937D
:101CB000019BF5E72046FFF773FFF1E7C11C000821
:101CC00008B5806A0023A0F84630C387FFF768FF95
:101CD00008BD40B338B5044603684CF6CC421A60E0
:101CE000036845F255521A60036842685A600368F7
:101CF00082689A6000F0B8FE05462368DA6832B15F
:101D000000F0B2FE401B3028F7D9032038BD196916
:101D1000E268914202D01A610020F7E74AF6AA224F
:101D20001A600020F2E7012070470268136823F46C
:101D3000907313600268936823F00103936020237B
:101D400080F87230002303667047000090F872300C
:101D5000DBB2202B58D1002958D0002A58D090F857
:101D60007030012B56D0012380F870304165A0F807
:101D70005820A0F85A20002303668368B3F5805FDB
:101D800006D0A3B9036973B9FF23A0F85C3011E052
:101D9000036923B940F2FF13A0F85C300AE0FF2387
:101DA000A0F85C3006E07F23A0F85C3002E0B3F1DD
:101DB000805F19D000234367222380F872300268C5
:101DC000936843F0010393608368B3F5805F15D097
:101DD000114B0366002380F8703001680A6842F4F2
:101DE00090720A601846704703691BB97F23A0F8F8
:101DF0005C30DFE73F23A0F85C30DBE70369002BB2
:101E0000E6D1064B0366E5E70220704701207047E4
:101E100001207047022070473F1E00089F1E0008E7
:101E2000704708B501680A6822F040020A60202263
:101E300080F8712000224266FFF7F2FF08BDB0F87B
:101E40005C2090F87230DBB2222B05D00268138B35
:101E500043F008031383704710B50368998CD2B21E
:101E6000436D5C1C44650A401A70B0F85A30013B5F
:101E70009BB2A0F85A3003B110BD0268136823F476
:101E8000907313600268936823F00103936020232A
:101E900080F8723000230366FEF7E2FBECE708B53A
:101EA000B0F85C2090F87230DBB2222B05D00268CB
:101EB000138B43F00803138308BD0368998C436DAB
:101EC0000A401A80436D02334365B0F85A30013B33
:101ED0009BB2A0F85A30002BEED10268136823F4AD
:101EE000907313600268936823F0010393602023CA
:101EF00080F8723000230366FEF7B2FBDCE7704720
:101F000038B504460268D3691168906813F00F056C
:101F100005D113F0200F02D011F0200F19D12DB1EF
:101F200010F001051BD111F4907F18D113F4801F1C
:101F300002D010F4800F7DD113F0800F02D011F089
:101F4000800F7ED113F0400F02D011F0400F7ED1F0
:101F500038BD236E002BFBD020469847F8E713F0DE
:101F6000010F07D011F4807F04D001201062626F4E
:101F70000243626713F0020F07D035B122680220D6
:101F80001062626F42F00402626713F0040F07D020
:101F900035B1226804201062626F42F0020262676B
:101FA00013F0080F09D011F0200F00D12DB12268D5
:101FB00008201062626F02436267626F002AC7D016
:101FC00013F0200F06D011F0200F03D0236E0BB1B9
:101FD00020469847636F13F0080F04D123689B686D
:101FE00013F0400F20D02046FFF79FFE23689A6829
:101FF00012F0400F14D09A6822F040029A60E36E0B
:1020000053B1154A9A63E06E01F04CFE00289FD050
:10201000E06E836B98479BE72046FFF770FF97E7DA
:102020002046FFF76CFF93E72046FFF768FF002389
:1020300063678DE74FF480131362204600F08EFB38
:1020400086E7636E002B83D02046984780E72046C2
:10205000FFF7E7FE7CE700BF5D20000808B5806A57
:102060000023A0F85A30A0F85230FFF748FF08BD0F
:102070002DE9F04804460168836802691343426908
:102080001343C26913430868994A024013430B6023
:102090002268536823F44053E1680B435360A169FD
:1020A0002268944B9A4201D0236A1943936823F41F
:1020B00030630B43936023688F4A934211D08F4A59
:1020C000934222D08E4A934238D08E4A934260D0B7
:1020D0008D4A934273D0874A934200F0898010253D
:1020E0003FE002F55842D2F8882002F00302032AAA
:1020F00009D8DFE802F002049606012531E0042544
:102100002FE008252DE010252BE002F5E632D2F86D
:10211000882002F00C020C2A0ED8DFE802F0070D2E
:102120000D0D090D0D0D840D0D0D0B00002518E092
:10213000042516E0082514E0102512E002F5E4322B
:10214000D2F8882002F03002102A6ED005D9202A59
:102150006DD0302A1BD1082503E00AB9002500E024
:102160001025644A934270D0E369B3F5004F00F044
:10217000F280082D00F27681DFE815F03B014C017A
:102180005601740161017401740174016B01102521
:10219000E7E702F5E232D2F8882002F0C002402AD6
:1021A00047D005D9802A46D0C02A06D10825D8E7CD
:1021B0000AB90025D5E71025D3E71025D1E702F5A8
:1021C000E032D2F8882002F44072B2F5807F34D039
:1021D00007D9B2F5007F32D0B2F5407F06D108258D
:1021E000BFE70AB90025BCE71025BAE71025B8E714
:1021F00002F5C832D2F8882002F44062B2F5806F4E
:102200001FD007D9B2F5006F1DD0B2F5406F06D1CF
:102210000825A6E70AB90025A3E71025A1E71025A0
:102220009FE702259DE702259BE7042599E7022504
:1022300097E7042595E7022593E7042591E7022512
:102240008FE704258DE702258BE7082D00F20D812D
:10225000DFE815F00C000B0114000B0111000B015D
:102260000B010B0109004FF4004008E001F050F8A9
:1022700028B9002504E100F055FCF9E7234862681D
:1022800002EB4203834200F2F280B0EB023F00F225
:10229000F080082D5CD8DFE805F0055B1D5B3F5B37
:1022A0005B5B500001F034F80023070E0602626801
:1022B000500816EB000B47F1000C58466146FDF73D
:1022C000E7FFA0F54072124B9A4200F2D4802368D7
:1022D000D860D5E0560800252B46DFF838B04FF01F
:1022E000000C1BEB06004CF10001FDF7D1FFE8E705
:1022F000F369FFEF008000400038014000440040D7
:1023000000480040004C0040005000400024F40011
:10231000FFFC0F00000024F400F004FC0025070E71
:102320000602626850082B4616EB000B47F1000CC2
:1023300058466146FDF7ACFFC3E7500800252B4621
:1023400010F500002CBF01210021FDF7A1FFB8E727
:1023500001250020B5E7082D48D8DFE805F0051D68
:102360002847334747473E0000F0D2FF62685308D2
:1023700003EB4003B3FBF2F39BB2A3F110014FF662
:10238000EF72914279D89AB222F00F02C3F342035E
:1023900013432268D36073E000F0CCFF62685308F7
:1023A00003EB4003B3FBF2F39BB20025E5E7626861
:1023B000530803F1F47303F59043B3FBF2F39BB2BC
:1023C0000025DAE700F0AEFB6268530803EB400338
:1023D000B3FBF2F39BB20025CFE76268530803F525
:1023E0008033B3FBF2F39BB20025C6E7012500233F
:1023F000C3E700F08DFF636800EB5300B0FBF3F020
:1024000080B2A0F110024FF6EF739A4237D82368DA
:10241000D86035E000F08EFF636800EB5300B0FB3E
:10242000F3F080B20025ECE76368580800F574000B
:1024300000F51050B0FBF3F080B20025E1E700F0AA
:1024400071FB636800EB5300B0FBF3F080B2002532
:10245000D7E76368580800F50040B0FBF3F080B29E
:102460000025CEE701250020CBE7012508E0012566
:1024700006E0012504E0012502E0012500E0012538
:102480000023236663662846BDE8F088436A13F09C
:10249000010F06D00268536823F40033816A0B43AE
:1024A0005360436A13F0020F06D00268536823F4A6
:1024B0008033C16A0B435360436A13F0040F06D0A4
:1024C0000268536823F48023016B0B435360436A13
:1024D00013F0080F06D00268536823F40043416BE1
:1024E0000B435360436A13F0100F06D002689368E1
:1024F00023F48053816B0B439360436A13F0200FE6
:1025000006D00268936823F40053C16B0B439360B9
:10251000436A13F0400F0AD00268536823F4801313
:10252000016C0B435360036CB3F5801F0BD0436AFF
:1025300013F0800F06D00268536823F40023816CE7
:102540000B43536070470268536823F4C003416C27
:102550000B435360EBE72DE9F04105460F46164665
:102560009846069C2B68DB6937EA03030CBF0123FE
:102570000023B3421DD1B4F1FF3FF3D02CB100F0E2
:1025800073FAA0EB0800A042ECD92A68136823F480
:10259000D07313602A68936823F0010393602023AB
:1025A00085F8713085F87230002385F8703003208B
:1025B00000E00020BDE8F0812DE9F04182B01E4628
:1025C00090F87130DBB2202B4ED104460D46904678
:1025D00000294ED0002A4ED090F87030012B4CD0FC
:1025E000012380F8703000234367212380F8713085
:1025F00000F03AFA0746A4F85080A4F8528009E0A7
:10260000236815F8012B1A85B4F85230013B9BB2B0
:10261000A4F85230B4F852309BB2ABB100963B46AE
:10262000002280212046FFF796FF40BBA368B3F548
:10263000805FE5D12369002BE2D1226835F8023BA7
:10264000C3F308031385DFE700963B4600224021D1
:102650002046FFF780FF034698B9202284F87120B6
:10266000002284F8702000E00223184602B0BDE882
:10267000F0810123F9E70123F7E70223F5E70323BC
:10268000F3E70323F1E730B583B004460023436743
:1026900000F0EAF9054623681B6813F0080F0ED115
:1026A00023681B6813F0040F17D1202384F87130BE
:1026B00084F87230002084F8700003B030BD6FF0F1
:1026C0007E430093034600224FF400112046FFF79B
:1026D00042FF0028E4D00320EFE76FF07E43009331
:1026E0002B4600224FF480012046FFF734FF0028DC
:1026F000DBD00320E1E778B310B5044690F87130E1
:102700000BB3242384F871302268136823F001038B
:1027100013602046FFF7ACFC012813D0636ABBB9F5
:102720002268536823F4904353602268936823F02F
:102730002A0393602268136843F001031360204664
:10274000FFF7A1FF10BD80F8703004F0A7F8D8E7BC
:102750002046FFF79BFEE3E7012070477047704774
:102760000268D36843F00103D36002689168084BA4
:102770000B40062B09D09168054B0B40B3F5803F09
:1027800003D0136843F0010313600020704700BFBB
:1027900007000100704770477047704710B5044646
:1027A00003681A6912F0020F11D0DA6812F0020FF2
:1027B0000DD06FF002021A610123037703689B6951
:1027C00013F0030F79D0FFF7E6FF00232377236888
:1027D0001A6912F0040F12D0DA6812F0040F0ED04A
:1027E0006FF004021A610223237723689B6913F4B4
:1027F000407F68D02046FFF7CEFF00232377236871
:102800001A6912F0080F12D0DA6812F0080F0ED011
:102810006FF008021A61042323772368DB6913F041
:10282000030F57D02046FFF7B6FF00232377236816
:102830001A6912F0100F12D0DA6812F0100F0ED0D1
:102840006FF010021A61082323772368DB6913F401
:10285000407F46D02046FFF79EFF00232377236862
:102860001A6912F0010F03D0DA6812F0010F3FD19C
:1028700023681A6912F0800F03D0DA6812F0800F13
:102880003DD123681A6912F4807F03D0DA6812F010
:10289000800F3BD123681A6912F0400F03D0DA6829
:1028A00012F0400F39D123681A6912F0200F03D0BB
:1028B000DA6812F0200F37D110BDFFF76BFF20460A
:1028C000FFF76AFF81E72046FFF764FF2046FFF726
:1028D00063FF92E72046FFF75DFF2046FFF75CFFAE
:1028E000A3E72046FFF756FF2046FFF755FFB4E762
:1028F0006FF001021A612046FDF780FFB8E76FF024
:1029000080021A61204600F096F8BAE76FF48072F0
:102910001A61204600F090F8BCE76FF040021A619F
:102920002046FFF73AFFBEE76FF020021A6120460B
:1029300000F080F8C0E700000368304A904212D0EF
:10294000B0F1804F0FD0A2F5943290420BD002F537
:102950008062904207D002F58062904203D002F577
:102960009432904203D123F070034A681343234A00
:1029700090421ED0B0F1804F1BD0A2F5943290420D
:1029800017D002F58062904213D002F58062904227
:102990000FD002F5943290420BD002F54062904283
:1029A00007D002F58062904203D002F58062904227
:1029B00003D123F44073CA68134323F080034A69A8
:1029C000134303608B68C3620B6883620B4B9842AE
:1029D0000FD003F5006398420BD003F54063984293
:1029E00007D003F58063984203D003F580639842D3
:1029F00001D10B690363012343617047002C01403F
:102A0000B0B110B5044690F83D3063B1022384F8AC
:102A10003D30214651F8040BFFF78EFF012384F867
:102A20003D30002010BD80F83C30FFF798FEEDE708
:102A30000120704770477047704710B5032001F0C0
:102A4000AFF9002004F09EF810B10124204610BD1B
:102A5000044603F03DFEF9E7024A136801331360B0
:102A6000704700BF6C4C0220014B1868704700BFD4
:102A70006C4C022038B50446FFF7F6FF0546B4F16A
:102A8000FF3F00D00134FFF7EFFF401BA042FAD315
:102A900038BD000030B583B00546204B9B6D13F068
:102AA000805F0BD001F026F9B0F5007F17D0802DA4
:102AB0001FD82DD0702D2DD000211BE0174CA36DF9
:102AC00043F08053A365A36D03F080530193019BF2
:102AD00001F010F9A36D23F08053A365E4E7802D86
:102AE00003D9A02D03D9022104E0002102E0012135
:102AF00000E003210A4A136823F007030B43136025
:102B0000136803F007038B4206D1002003B030BDE9
:102B10000221EFE70121EDE70120F7E70010024075
:102B200000200240314A9368D26802F0030213F099
:102B30000C030AD00C2B06D0042B1FD0082B20D05E
:102B40000020014610E0012AF6D1284A126812F04E
:102B5000080F0CD1254AD2F89420C2F3032224494D
:102B600051F8221043B100200C2B0DD070471F4AA2
:102B70001268C2F30312F2E70846F5E71D48002188
:102B8000F2E71D480021EFE7184BDA6802F0030274
:102B9000DB68C3F302130133022A0AD0032A1AD0D6
:102BA000B1FBF3F3114AD068C0F3062000FB03F039
:102BB00008E01048B0FBF3F30C4AD068C0F30620DD
:102BC00000FB03F0094BDB68C3F3416301335B0097
:102BD000B0FBF3F0CAE70848B0FBF3F3034AD06850
:102BE000C0F3062000FB03F0ECE700BF001002403A
:102BF000688E00080024F40000127A00002800F01B
:102C0000C182F0B583B00446AC4B9D6805F00C055D
:102C1000DE6806F00306036813F0100F5DD0E5B11F
:102C20000C2D18D0A369002B00F0B780A34A1368BD
:102C300043F001031360FFF717FF07469F4B1B6824
:102C400013F0020F40F09680FFF70EFFC01B022822
:102C5000F4D90323A2E2012EE4D1984B1B6813F0B0
:102C6000020F03D0A369002B00F08F82206A934BE0
:102C70001B6813F0080F5DD0904B1B6803F0F00346
:102C800098425ED9FFF706FF002840F080828B4B08
:102C90001A6842F008021A601A6822F0F002216AEB
:102CA0000A431A605A6822F47F42E16942EA01222B
:102CB0005A60FFF737FF814B9B68C3F30313804AC9
:102CC000D35C03F01F03D8407E4B1860002003F054
:102CD00059FF0346002840F06182236813F0010F7A
:102CE0007AD0082D6FD00C2D6BD06368B3F5803F80
:102CF00000F09180B3F5A02F00F093806F4B1A681D
:102D000022F480321A601A6822F480221A60636802
:102D1000002B00F09380FFF7A7FE0746674B1B6868
:102D200013F4003F58D1FFF79FFEC01B6428F5D96C
:102D3000032333E2614BD3F894301B0903F0F00313
:102D40009EE75E4B1A6842F008021A601A6822F089
:102D5000F002216A0A431A605A6822F47F42E1694C
:102D600042EA01225A60206AFFF794FE0028A0D0B0
:102D7000012313E2514B1A6842F008021A601A68E4
:102D800022F0F002216A0A431A605A6822F47F4254
:102D9000E16942EA01225A609FE7484A136823F03A
:102DA00001031360FFF760FE0746444B1B6813F0F6
:102DB000020F92D0FFF758FEC01B0228F5D903235B
:102DC000ECE1032E91D13D4B1B6813F4003F03D07F
:102DD0006368002B00F0DD81236813F0020F4FD0F1
:102DE000042D3CD00C2D38D0E368002B75D0334A2D
:102DF000136843F480731360FFF736FE06462F4BCB
:102E00001B6813F4806F5FD1FFF72EFE801B022832
:102E1000F5D90323C2E1294A136843F480331360D0
:102E200075E703F18043A3F53C331A6842F480222E
:102E30001A601A6842F480321A6068E7FFF714FEDD
:102E400007461E4B1B6813F4003FC5D0FFF70CFE6E
:102E5000C01B6428F5D90323A0E1022EC4D1174B6F
:102E60001B6813F4806F03D0E368002B00F093819C
:102E7000124A536823F0FE43216943EA0163536019
:102E8000236813F0080F53D06369002B39D00B4A25
:102E9000D2F8943043F00103C2F89430FFF7E4FD18
:102EA0000646064BD3F8943013F0020F40D1FFF7DB
:102EB000DBFD801B0228F4D903236FE100100240E0
:102EC000508E000848000020B74A536823F0FE43A4
:102ED000216943EA01635360D2E7B34A136823F4DC
:102EE00080731360FFF7C0FD0646AF4B1B6813F4F9
:102EF000806FC5D0FFF7B8FD801B0228F5D90323EA
:102F00004CE1A94AD2F8943023F00103C2F894307E
:102F1000FFF7AAFD0646A44BD3F8943013F0020F36
:102F200006D0FFF7A1FD801B0228F4D9032335E169
:102F3000236813F0040F7AD09B4B9B6D13F0805FD6
:102F400036D1994B9A6D42F080529A659B6D03F091
:102F500080530193019B0126944B1B6813F4807FDF
:102F600028D0A368012B39D0052B3FD08E4BD3F846
:102F7000902022F00102C3F89020D3F8902022F094
:102F80000402C3F89020A368002B3DD0FFF76CFD2E
:102F90000746854BD3F8903013F0020F46D1FFF768
:102FA00063FDC01B41F288339842F2D90323F5E058
:102FB0000026D1E77D4A136843F480731360FFF75E
:102FC00053FD0746794B1B6813F4807FC9D1FFF787
:102FD0004BFDC01B0228F5D90323DFE0724AD2F86B
:102FE000903043F00103C2F89030CCE76E4BD3F839
:102FF000902042F00402C3F89020D3F8902042F0D1
:103000000102C3F89020BEE7FFF72EFD0746664B8E
:10301000D3F8903013F0020F08D0FFF725FDC01B46
:1030200041F288339842F2D90323B7E0E6B9236826
:1030300013F0200F35D0636AE3B15B4AD2F89830C1
:1030400043F00103C2F89830FFF70EFD0646564BD9
:10305000D3F8983013F0020F23D1FFF705FD801B42
:103060000228F4D9032399E04F4A936D23F080534B
:103070009365DCE74C4AD2F8983023F00103C2F89C
:103080009830FFF7F1FC0646474BD3F8983013F021
:10309000020F06D0FFF7E8FC801B0228F4D90323B7
:1030A0007CE0A36A002B78D00C2D7AD0022B23D0A1
:1030B0003D4B1A6822F080721A601B6813F0205F83
:1030C00004D1394AD36823F00303D360364AD36866
:1030D00023F0887323F48033D360FFF7C5FC0446E4
:1030E000314B1B6813F0007F4AD0FFF7BDFC001B7B
:1030F0000228F5D9032351E02B4A136823F080738B
:103100001360FFF7B1FC0546274B1B6813F0007FE7
:1031100006D0FFF7A9FC401B0228F5D903233DE0A8
:10312000236B5A1E636B1B0243EA0213E26A1343CA
:10313000E26B5208013A43EA4253226C5208013AC8
:1031400043EA4263A26B43EAC263174AD36013683F
:1031500043F080731360D36843F08073D360FFF74C
:1031600083FC0446104B1B6813F0007F06D1FFF769
:103170007BFC001B0228F5D903230FE000230DE0A0
:1031800000230BE0012318467047012306E00123CA
:1031900004E0012302E0012300E00023184603B00D
:1031A000F0BD0123FAE700BF0010024000700040AC
:1031B000002800F0978070B504464E4B1B6803F062
:1031C00007038B420BD24B4A136823F007030B43D0
:1031D0001360136803F007038B4240F085800D46AF
:1031E000236813F0010F39D06368032B09D0022B39
:1031F00026D063BB404A126812F0020F06D10120AC
:103200006FE03D4A126812F0007F6FD03A498A6839
:1032100022F0030213438B60FFF726FC0646364B71
:103220009B6803F00C036268B3EB820F16D0FFF7C4
:103230001BFC801B41F288339842F0D9032050E0F8
:103240002D4A126812F4003FE0D1012049E02A4AD9
:10325000126812F4806FD9D1012042E0236813F084
:10326000020F06D0244A936823F0F003A1680B43B1
:103270009360204B1B6803F00703AB420AD91D4A39
:10328000136823F007032B431360136803F007034D
:10329000AB422DD1236813F0040F06D0164A936871
:1032A00023F4E063E1680B439360236813F0080F95
:1032B00007D0114A936823F46053216943EAC1039C
:1032C0009360FFF72FFC0C4B9B68C3F303130B4A6F
:1032D000D35C03F01F03D840094B1860002003F0B3
:1032E00051FC70BD012070470120FAE70120F8E78A
:1032F0000120F6E70020024000100240508E000836
:1033000048000020014B1868704700BF48000020AB
:1033100008B5FFF7F7FF054B9B68C3F30223044A88
:10332000D35C03F01F03D84008BD00BF001002406B
:10333000608E000808B5FFF7E5FF054B9B68C3F3F7
:10334000C223044AD35C03F01F03D84008BD00BF6A
:1033500000100240608E00080F2303600B4B9A6838
:1033600002F0030242609A6802F0F00282609A68FA
:1033700002F4E062C2609B68DB0803F4E06303616F
:10338000034B1B6803F007030B60704700100240FB
:1033900000200240F8B5594BDB6813F0030F18D03A
:1033A000564BDB6803F003030268934202D001240A
:1033B0002046F8BD002A00F09F80504BDB68C3F325
:1033C000021301334268934201D00124F0E7002444
:1033D00009E00368022B58D0032B5DD0012B43D0AA
:1033E0000124002CE4D10F460646444A136823F01A
:1033F00080631360FFF738FB0546404B1B6813F0F2
:10340000006F05D0FFF730FB401B0228F5D90324DD
:10341000002CCDD1002F4DD138490B6923F07843D2
:1034200023F4FE43B068F268D20642EA0022134356
:103430000B61324A136843F080631360FFF714FB9B
:1034400005462E4B1B6813F0006F05D1FFF70CFBF0
:10345000401B0228F5D90324002CA9D1274A13695F
:10346000B1690B431361A3E7244A126812F0020FFB
:103470001ED0224DEA6822F073024468013C43EA00
:1034800004131343EB600024ABE71C4A126812F4E8
:10349000806FEED10124A4E7184A126812F4003FAD
:1034A000E7D1164A126812F4802FE2D1012498E77E
:1034B000012496E7012F0FD01048026922F0C06264
:1034C00022F4FE42B16873695B08013B5B0643EA84
:1034D000012313430361ACE70848026922F4C002E8
:1034E00022F4FE42B16833695B08013B5B0543EAA5
:1034F0000123134303619CE7012459E700100240B4
:10350000F8B5504BDB6813F0030F18D04D4BDB6858
:1035100003F003030268934202D001242046F8BD61
:10352000002A00F08D80474BDB68C3F302130133A0
:103530004268934201D00124F0E7002409E00368C7
:10354000022B58D0032B5DD0012B43D00124002C3B
:10355000E4D10F4606463B4A136823F080531360BC
:10356000FFF782FA0546374B1B6813F0005F05D062
:10357000FFF77AFA401B0228F5D90324002CCDD19D
:10358000002F4DD12F494B6923F0784323F4FE439C
:10359000B068F268D20642EA002213434B61294A1E
:1035A000136843F080531360FFF75EFA0546254B1E
:1035B0001B6813F0005F05D1FFF756FA401B022885
:1035C000F5D90324002CA9D11E4A536971690B4314
:1035D0005361A3E71B4A126812F0020F1ED0194D67
:1035E000EA6822F073024468013C43EA041313437F
:1035F000EB600024ABE7134A126812F4806FEED13F
:103600000124A4E70F4A126812F4003FE7D10D4AE3
:10361000126812F4802FE2D1012498E7012496E782
:103620000848426922F0C06222F4FE42B168336960
:103630005B08013B5B0643EA012313434361AEE7AA
:1036400001246BE7001002402DE9F04182B00446EE
:10365000036813F4006F33D0836EB3F5800F29D065
:1036600011D9B3F5000F1ED0B3F5400F18D10027C4
:10367000664AD2F8883023F44003A16E0B43C2F8A7
:10368000883000261EE043B900210430FFF782FE97
:103690000746002FECD03E4614E00126374611E0E5
:1036A000012637460EE0594AD36843F48033D3608D
:1036B0000027DDE700212030FFF722FF0746E8E77B
:1036C00000263746236813F4805F15D0E36EB3F10C
:1036D000807F7DD069D9B3F1007F73D0B3F1407F93
:1036E0006DD1002F7BD1494AD2F8883023F0407346
:1036F000E16E0B43C2F88830236813F4003F00F0FA
:103700008E80424B9B6D13F0805F6AD13F4B9A6D68
:1037100042F080529A659B6D03F080530193019BA8
:103720004FF001083A4A136843F480731360FFF7BF
:103730009BF90546364B1B6813F4807F05D1FFF7D4
:1037400093F9401B0228F5D90327002F62D12F4B94
:10375000D3F8903013F4407316D0D4F888209A42EE
:1037600012D02A4AD2F8903023F44073D2F8901045
:1037700041F48031C2F89010D2F8901021F48031D9
:10378000C2F89010C2F8903013F0010F2CD1002F26
:1037900040F051811D4AD2F8903023F44073D4F8A0
:1037A00088100B43C2F8903035E02BB90021201D62
:1037B000FFF7F0FD074694E7012637469CE7012610
:1037C000374699E7114AD36843F48033D36088E7DA
:1037D000002104F12000FFF793FE074681E73E46F3
:1037E0008AE74FF000089DE7FFF73EF90546074BD3
:1037F000D3F8903013F0020FC9D1FFF735F9401B11
:1038000041F288339842F2D90327C0E70010024002
:10381000007000403E46B8F1000F40F00E81236872
:1038200013F0010F08D0A44AD2F8883023F0030324
:10383000A16B0B43C2F88830236813F0020F08D045
:103840009D4AD2F8883023F00C03E16B0B43C2F899
:103850008830236813F0040F08D0974AD2F88830D4
:1038600023F03003216C0B43C2F88830236813F037
:10387000080F08D0904AD2F8883023F0C003616C5A
:103880000B43C2F88830236813F0100F08D08A4A1F
:10389000D2F8883023F44073A16C0B43C2F888300F
:1038A000236813F0200F08D0834AD2F8883023F41D
:1038B0004063E16C0B43C2F88830236813F4007F47
:1038C00008D07D4AD2F8883023F44023216E0B4380
:1038D000C2F88830236813F4806F08D0764AD2F893
:1038E000883023F44013616E0B43C2F8883023689C
:1038F00013F0400F08D0704AD2F8883023F44053B8
:10390000216D0B43C2F88830236813F0800F08D074
:10391000694AD2F8883023F44043616D0B43C2F802
:103920008830236813F4807F08D0634AD2F8883047
:1039300023F44033A16D0B43C2F88830236813F49D
:10394000801F08D05C4AD2F89C3023F00303E16D5D
:103950000B43C2F89C30236813F4005F0FD0564A23
:10396000D2F8883023F04063216F0B43C2F88830CF
:10397000236FB3F1006F66D0B3F1806F68D0236816
:1039800013F4002F0FD04C4AD2F8883023F0406354
:10399000616F0B43C2F88830636FB3F1006F5FD083
:1039A000B3F1806F61D0236813F4802F0FD0424AA7
:1039B000D2F8883023F04063A16F0B43C2F88830FF
:1039C000A36FB3F1006F58D0B3F1806F5AD0236862
:1039D00013F4804F0FD0384AD2F8883023F0405388
:1039E000E16F0B43C2F88830E36FB3F1805F51D0D1
:1039F000B3F1005F56D0236813F4004F09D02E4A6C
:103A0000D2F8883023F08043D4F880100B43C2F8FA
:103A10008830236813F4803F09D0274AD2F88830D1
:103A200023F00043D4F884100B43C2F888303046AA
:103A300002B0BDE8F0813E46EDE61F4A936D23F0EB
:103A400080539365EBE6D36843F48013D36096E725
:103A50000121201DFFF79EFC002890D006468EE72E
:103A6000D36843F48013D3609DE70121201DFFF745
:103A700091FC002897D0064695E7D36843F480135D
:103A8000D360A4E70121201DFFF784FC00289ED00D
:103A900006469CE70221201DFFF77CFC0028AAD0E7
:103AA0000646A8E7022104F12000FFF729FD0028BF
:103AB000A1D006469FE700BF00100240F0B482B0DC
:103AC000002336E0072400E00024B4403C430235E4
:103AD000644E46F82540644C2568D44304EA050644
:103AE0004F6817F4803F01D042EA05065E4D2E6014
:103AF0006D6804EA05064F6817F4003F01D042EAFA
:103B00000506594D6E60AD6804EA05064F6817F466
:103B1000801F01D042EA0506534DAE60ED682C408F
:103B20004E6816F4001F01D042EA05044E4AD460E4
:103B300001330A6832FA03F400F0918001249C40BA
:103B40002240F5D04D68022D01D0122D10D1DE0893
:103B5000083650F826C003F00705AF000F25BD401A
:103B60002CEA050C0D69BD4045EA0C0540F82650CD
:103B700006685F000325BD40ED4305EA060C4E686C
:103B800006F00306BE4046EA0C0606604E6806F1E3
:103B9000FF3CBCF1010F03D9112E01D0122E10D120
:103BA000866805EA060CCE68BE4046EA0C068660CA
:103BB000466826EA04044E68C6F300169E40264373
:103BC0004660C46825408C68BC402C43C4604C6887
:103BD00014F0805FACD0254C256E45F001052566BC
:103BE000246E04F001040194019C9D08AE1C1D4C40
:103BF00054F8267003F00304A6000F24B44027EA0B
:103C00000407B0F1904F3FF45FAF194CA0421AD0B7
:103C100004F58064A04218D004F58064A04216D058
:103C200004F58064A04214D004F58064A04212D050
:103C300004F58064A04210D004F58064A0423FF4F3
:103C400041AF082441E701243FE702243DE7032474
:103C50003BE7042439E7052437E7062435E702B0BB
:103C6000F0BC704700000140000401400010024019
:103C7000000400480AB1816170478162704743695E
:103C8000594041617047704708B5054B5B69034275
:103C900000D108BD024B5861FFF7F5FFF9E700BFFF
:103CA0000004014008B590F82530DBB2022B03D0A8
:103CB0000423C363012008BD0268136823F00E03C8
:103CC00013600268136823F001031360436C03F070
:103CD0001C03016C012202FA03F34B6080F82520DB
:103CE000002380F82430836B13B198470020E2E76B
:103CF0000020E0E7024B186800F4C060704700BF86
:103D000000700040B0F5007F0FD01E4B1B6803F41D
:103D1000C063B3F5806F33D01A4A136823F4C063CD
:103D200043F48063136000207047164B1B6803F454
:103D3000C063B3F5007F1FD0124A136823F4C06339
:103D400043F400731360104B1A68322303FB02F331
:103D50000E4AA2FB03239B0C01330A4A526912F458
:103D6000806F02D00BB1013BF7E7064B5B6913F4A0
:103D7000806F03D1002070470020704703207047F8
:103D800000207047007000404800002083DE1B4385
:103D9000024A536843F40073536070470070004058
:103DA000074AD36823F4E0631B041B0C000200F4F1
:103DB000E060184340F0BF6040F40030D0607047CE
:103DC00000ED00E030B4174BDB68C3F30223C3F10E
:103DD0000704042C28BF04241D1D062D01D9033B14
:103DE00000E000234FF0FF3505FA04F421EA040156
:103DF000994005FA03F322EA03031943002809DB7B
:103E00000901C9B200F1604000F5614080F800137B
:103E100030BC704700F00F000901C9B2024B1954C1
:103E2000F6E700BF00ED00E014ED00E000F01F0237
:103E3000400901239340024A42F82030704700BFF6
:103E400000E100E000F1080343604FF0FF328260C0
:103E5000C360036100230360704700230361704760
:103E600043684B609A688A60516099600861036892
:103E700001330360704730B40D68B5F1FF3F02D0E5
:103E800000F1080202E0026904E01A4653681C6867
:103E9000AC42FAD953684B6099608A6051600861FE
:103EA00003680133036030BC70470369416882686E
:103EB0008A60416851605A68824206D000220261DD
:103EC0001A68013A1A601868704782685A60F5E704
:103ED000436A1BB1036B1B68C3F1070318467047A5
:103EE00010B5044601F066FFA26BE36B9A4204D062
:103EF000002401F081FF204610BD0124F9E710B530
:103F0000044601F057FFA36B23B9012401F074FFAD
:103F1000204610BD0024F9E770B504461646856BAF
:103F2000026C5AB903681BB100200135A56370BD4E
:103F3000406801F03BF900236360F6E76EB98068E2
:103F400003F042F8226CA3681344A36062689342B2
:103F500019D32368A3603046E7E7C06803F034F85C
:103F6000226C5242E3681344E36021688B4202D220
:103F700063681A44E260022E01D00020D5E725B123
:103F8000013D0020D1E73046CFE70020CDE7026CAD
:103F900072B110B5C3681344C3604468A34201D32F
:103FA0000368C3600C46C168204603F00DF810BDDD
:103FB000704738B5054601F0FDFE95F8454064B2FE
:103FC00003E001F07FF8013C64B2002C08DD6B6A6D
:103FD00033B105F1240000F0E1FF0028F3D0F0E751
:103FE000FF2385F8453001F007FF01F0E3FE95F867
:103FF000444064B203E001F065F8013C64B2002C77
:1040000008DD2B6933B105F1100000F0C7FF00286F
:10401000F3D0F0E7FF2385F8443001F0EDFE38BD22
:1040200038B5E0B104460D4601F0C4FE2168E26BEC
:10403000236C03FB021060600020A063A160013AC2
:1040400002FB0313E360FF2384F8443084F8453017
:10405000EDB9236963B901F0CFFE012038BD4FF0FF
:10406000100383F31188BFF36F8FBFF34F8FFEE709
:1040700004F1100000F092FF0028ECD0084B4FF044
:1040800080521A60BFF34F8FBFF36F8FE3E704F1E5
:104090001000FFF7D7FE04F12400FFF7D3FEDAE7A4
:1040A00004ED00E010B5029B0C4639B91B60D863E3
:1040B0001C6401211846FFF7B3FF10BD1A60F6E734
:1040C00040B94FF0100383F31188BFF36F8FBFF334
:1040D0004F8FFEE7F0B583B0054699B101FB00F0C4
:1040E00017460C46483001F03FFD064638B10090B7
:1040F0003B4600F1480221462846FFF7D3FF3046F1
:1041000003B0F0BD0846EBE7F0B585B0019278B199
:104110000446B1B1022B20D1E26B012A1DD04FF031
:10412000100383F31188BFF36F8FBFF34F8FFEE748
:104130004FF0100383F31188BFF36F8FBFF34F8FDE
:10414000FEE7026C002AE5D04FF0100383F31188DC
:10415000BFF36F8FBFF34F8FFEE71D460E4600F093
:10416000B7FF074658B9019B002B44D04FF010030E
:1041700083F31188BFF36F8FBFF34F8FFEE70027E4
:1041800039E02A4631462046FFF7C6FE636A6BB91E
:1041900038B13C4B4FF080521A60BFF34F8FBFF3E2
:1041A0006F8F01F029FE012005B0F0BD04F124005D
:1041B00000F0F4FE0028F4D0324B4FF080521A6029
:1041C000BFF34F8FBFF36F8FEBE701F015FE0020B9
:1041D000EAE702A800F028FF012719E0002384F88D
:1041E000443021E0002384F8453023E02046FFF7E7
:1041F000E0FE00F0AFFD01F0DDFDA26BE36B9A4243
:10420000BFD3022DBDD0019B002BDED0002FE0D00C
:1042100001F0F2FD00F004FD01F0CCFD94F8443013
:104220005BB2B3F1FF3FD9D094F845305BB2B3F144
:10423000FF3FD7D001F0E0FD01A902A800F000FF88
:10424000C8B92046FFF74CFE0028CFD0019904F1F1
:10425000100000F06FFE2046FFF7ABFE00F07AFD85
:104260000028C8D1074B4FF080521A60BFF34F8F20
:10427000BFF36F8FBFE72046FFF79BFE00F06AFD9C
:10428000002091E704ED00E048B108B5002141604D
:104290000160C1600B460A46FFF736FF08BD704754
:1042A00010B5024600210120FFF70AFF0446FFF780
:1042B000EBFF204610BD2DE9F84378B10446B1B1BB
:1042C000022B20D1E06B01281DD04FF0100383F3A7
:1042D0001188BFF36F8FBFF34F8FFEE74FF01003CE
:1042E00083F31188BFF36F8FBFF34F8FFEE7006C2E
:1042F0000028E5D04FF0100383F31188BFF36F8FD0
:10430000BFF34F8FFEE71F469046894601F07CFEC3
:10431000EFF311864FF0100383F31188BFF36F8F13
:10432000BFF34F8FA26BE36B9A4206D3022F04D0E8
:10433000002086F31188BDE8F88394F845506DB2EB
:104340003A4649462046FFF7E7FDB5F1FF3F05D065
:104350006B1C5BB284F845300120EAE7636A0BB955
:104360000120E6E704F1240000F018FE30B1B8F1B6
:10437000000F05D00120C8F80000DAE70120D8E7D7
:104380000120D6E760B170B50446036C8BB14FF0E5
:10439000100383F31188BFF36F8FBFF34F8FFEE7D6
:1043A0004FF0100383F31188BFF36F8FBFF34F8F6C
:1043B000FEE70368F3B10E4601F026FEEFF3118528
:1043C0004FF0100383F31188BFF36F8FBFF34F8F4C
:1043D000A26BE36B934226D994F845305BB201326D
:1043E000A263B3F1FF3F11D001335BB284F84530D3
:1043F000012019E04368002BDDD04FF0100383F358
:104400001188BFF36F8FBFF34F8FFEE7636A0BB95D
:10441000012009E004F1240000F0C0FD38B146B1EC
:104420000120306000E0002085F3118870BD01207C
:10443000FAE70120F8E70000F0B585B0019290B1ED
:104440000446C9B10E4600F043FE074600BB019B7F
:10445000002B5CD04FF0100383F31188BFF36F8FF4
:10446000BFF34F8FFEE74FF0100383F31188BFF3C4
:104470006F8FBFF34F8FFEE7036C002BE2D04FF03E
:10448000100383F31188BFF36F8FBFF34F8FFEE7E5
:1044900000273CE031462046FFF779FD013DA5634A
:1044A000236923B901F0A8FC012005B0F0BD04F197
:1044B000100000F073FD0028F4D0354B4FF080520F
:1044C0001A60BFF34F8FBFF36F8FEBE701F094FCDF
:1044D0000020EAE702A800F0A7FD012721E0002361
:1044E00084F8443029E0002384F845302BE020464E
:1044F000FFF75FFD00F02EFC09E02046FFF759FDB5
:1045000000F028FC2046FFF7FAFC00283DD101F01E
:1045100051FCA56B002DBDD1019B002BD6D0002FE7
:10452000D8D001F069FC00F07BFB01F043FC94F86B
:1045300044305BB2B3F1FF3FD1D094F845305BB269
:10454000B3F1FF3FCFD001F057FC01A902A800F062
:1045500077FD0028D1D12046FFF7D1FC0028C6D036
:10456000019904F1240000F0E5FC2046FFF721FD4D
:1045700000F0F0FB0028CAD1054B4FF080521A60C2
:10458000BFF34F8FBFF36F8FC1E700208DE700BFF0
:1045900004ED00E070B584B0019158B10446036C9D
:1045A0008BB14FF0100383F31188BFF36F8FBFF30C
:1045B0004F8FFEE74FF0100383F31188BFF36F8F27
:1045C000BFF34F8FFEE700F083FD064650B9019B15
:1045D0005BB14FF0100383F31188BFF36F8FBFF30C
:1045E0004F8FFEE700252E4653E0054651E0013B84
:1045F000A36323683BB123694BB901F0FDFB01259F
:10460000284604B070BD00F08BFE6060F3E704F153
:10461000100000F0C3FC0028EFD0464B4FF0805252
:104620001A60BFF34F8FBFF36F8FE6E745B14FF0CE
:10463000100383F31188BFF36F8FBFF34F8FFEE733
:1046400001F0DAFBDCE702A800F0EEFC01262AE02C
:10465000002384F8443032E0002384F8453034E00D
:1046600001F0A8FB606800F043FD054601F0C4FBC3
:104670003BE02046FFF79DFC00F06CFB09E0204684
:10468000FFF797FC00F066FB2046FFF738FC002898
:1046900040D101F08FFBA36B002BA8D1019B002B15
:1046A000C4D0002ECFD001F0A7FB00F0B9FA01F082
:1046B00081FB94F844305BB2B3F1FF3FC8D094F86B
:1046C00045305BB2B3F1FF3FC6D001F095FB01A9C5
:1046D00002A800F0B5FC0028D1D12046FFF70FFC5E
:1046E0000028C6D02368002BBAD0019904F1240019
:1046F00000F020FC2046FFF75CFC00F02BFB0028BC
:10470000C7D10C4B4FF080521A60BFF34F8FBFF3ED
:104710006F8FBEE70DB9002572E701F04BFB204615
:10472000FFF7D6FB0146606800F09AFD01F064FBDC
:10473000F1E700BF04ED00E02DE9F843C8B10446FD
:1047400001B31746894601F05FFCEFF311864FF085
:10475000100383F31188BFF36F8FBFF34F8FD4F82B
:104760003880B8F1000F19D1002086F31188BDE818
:10477000F8834FF0100383F31188BFF36F8FBFF3FB
:104780004F8FFEE7036C002BDBD04FF0100383F359
:104790001188BFF36F8FBFF34F8FFEE794F844503B
:1047A0006DB249462046FFF7F2FB08F1FF33A363E1
:1047B000B5F1FF3F05D06B1C5BB284F8443001209B
:1047C000D3E723690BB90120CFE704F1100000F013
:1047D000E5FB18B127B101203860C6E70120C4E726
:1047E0000120C2E70023072B0CD8074A52F83320D8
:1047F0000AB10133F7E7044A42F8331002EBC3036E
:1048000058607047704700BF704C022070B5044676
:104810000D46164601F0CEFA94F844305BB2B3F17F
:10482000FF3F0DD094F845305BB2B3F1FF3F0BD0A2
:1048300001F0E2FAA36B5BB12046FFF7BAFB70BD53
:10484000002384F84430EDE7002384F84530EFE797
:104850003246294604F1240000F084FBECE7000016
:10486000084B1B681B6823B9074B4FF0FF321A60D7
:104870007047044B1B68DB68DB685A68024B1A60A0
:10488000704700BF1C040020F404002010B504464B
:10489000006B01F0EDF9204601F0EAF910BD2DE9B9
:1048A000F04780469946089D099F0A9C266B02F1B5
:1048B0008042013A06EB820626F0070600230F2B02
:1048C00006D8CA5CE01880F834200AB10133F6E754
:1048D000002384F84330062D00D90625E56265647F
:1048E0004FF0000AC4F848A0201DFFF7B6FA04F103
:1048F0001800FFF7B2FA2461C5F10705A5616462EB
:10490000C4F84CA084F850A04A464146304601F015
:1049100025FA206007B13C60BDE8F08738B5002477
:10492000062C08D804EB840293000E481844FFF7C5
:1049300089FA0134F4E70C4D2846FFF783FA0B4C53
:104940002046FFF77FFA0A48FFF77CFA0948FFF78D
:1049500079FA0948FFF776FA084B1D60084B1C608E
:1049600038BD00BF24040020C8040020DC0400205F
:10497000FC04002028050020140500201C04002051
:104980002004002010B5044601F014FA204A1368F0
:10499000013313601F4B1B685BB11F4B1B686BB966
:1049A0001C4B1B68DA6AE36A9A4207D8194B1C60F1
:1049B00004E0184B1C601368012B26D0174A1368BB
:1049C00001331360E36A01229A40154908680243E3
:1049D0000A6003EB83039A00211D12481044FFF77D
:1049E0003FFA01F009FA0C4B1B686BB1094B1B68CD
:1049F000DA6AE36A9A4207D20B4B4FF080521A6090
:104A0000BFF34F8FBFF36F8F10BDFFF787FFD5E761
:104A1000B00400201804002010050020C00400206D
:104A2000C40400202404002004ED00E00F4B1B68A8
:104A3000D3B110B501F0BEF90D4BDB68DC68201D69
:104A4000FFF733FA0B4A1368013B1360074A1368F8
:104A5000013B136001F0D0F92046FFF717FF034B2D
:104A60001B68002BE6D110BD704700BFB4040020C6
:104A700028050020B004002008B5FFF7D7FF064B3B
:104A80001B68012BF9D9054B4FF080521A60BFF318
:104A90004F8FBFF36F8FF0E72404002004ED00E098
:104AA00070B504460E461D4B1D681D4B186804303A
:104AB000FFF7FBF950B91A4B1B68DA6A012303FAB6
:104AC00002F218490B6823EA02030B60B4F1FF3FBE
:104AD0000DD02C44124B1B685C60A54210D9124BC0
:104AE00018680F4B19680431FFF7C5F970BD002E27
:104AF000EFD00B4B196804310C48FFF7B1F9F5E71B
:104B00000B4B1868064B19680431FFF7B4F9094BD1
:104B10001B68A342EAD9074B1C60E7E73C0500206D
:104B200018040020C40400202004002014050020E4
:104B30001C040020F40400202DE9F04385B0074652
:104B4000884614469946900001F00EF8E8B10646F2
:104B5000542001F009F8054698B10663D5B1002349
:104B6000039302950D9B01930C9B00934B462246A9
:104B700041463846FFF793FE2846FFF703FF012022
:104B800005E0304601F074F8E8E74FF0FF3005B07B
:104B9000BDE8F0834FF0FF30F9E7000000B583B0C7
:104BA000194B019300230093802218491848FFF7FE
:104BB000C3FF012807D0012808D0B0F1FF3F1AD069
:104BC00003B05DF804FB00F0DFFCF4E74FF01003E6
:104BD00083F31188BFF36F8FBFF34F8F0D4B4FF0EF
:104BE000FF321A600C4B01221A600C4B00221A6033
:104BF00001F082F9E4E74FF0100383F31188BFF36B
:104C00006F8FBFF34F8FFEE7F0040020248E000863
:104C1000794A0008F4040020100500203C0500201B
:104C2000024A136801331360704700BFBC040020C0
:104C3000014B1868704700BF3C050020F8B53A4B9F
:104C40001B68002B64D1394B1D6801351D60C5B947
:104C5000374B1B681B6843B14FF0100383F3118877
:104C6000BFF36F8FBFF34F8FFEE7314A1168314BAF
:104C7000186810601960304A136801331360FFF739
:104C8000EFFD2E4B1B68AB4238D900242C4B1B6820
:104C9000DB6A03EB83039A002A4B9B58012B3CD918
:104CA00001243AE00124224B1B681B6843B3204BCC
:104CB0001B68DB68DE6873689D4226D3371D384663
:104CC000FFF7F3F8B36A1BB106F11800FFF7EDF830
:104CD000F36A01229A401C49086802430A6003EB08
:104CE00083039A00394617481044FFF7B9F8F26A6F
:104CF000134B1B68DB6A9A42D4D2D4E70024D2E774
:104D00000E4B4FF0FF321A60C0E70C4A1360BDE74C
:104D10000E4A13680133136000240D4B1B6803B166
:104D200001242046F8BD00BFBC0400203C05002043
:104D30001C04002020040020F8040020F4040020BB
:104D40001804002024040020C4040020B80400201B
:104D50004005002038B5344B1B6843B94FF01003B1
:104D600083F31188BFF36F8FBFF34F8FFEE701F01E
:104D700021F82D4B1A68013A1A601B68002B4DD19F
:104D80002A4B1B680BB9002449E00024284B1B6800
:104D90001BB3274BDB68DC6804F11800FFF785F8CC
:104DA000251D2846FFF781F8E36A01229A40214930
:104DB000086802430A6003EB83039A0029461E48F1
:104DC0001044FFF74DF8E26A1C4B1B68DB6A9A42FD
:104DD000DCD31B4B01221A60D8E70CB1FFF740FD72
:104DE000184B1C6874B9164B1C68C4B1164B4FF0B5
:104DF00080521A60BFF34F8FBFF36F8F01240EE014
:104E0000013C07D0FFF71AFF0028F9D00C4B012214
:104E10001A60F5E70B4B00221A60E4E7002400F06B
:104E2000EBFF204638BD00BFBC040020B0040020CA
:104E3000FC040020C40400202404002018040020E6
:104E400040050020B804002004ED00E010B5A8B132
:104E500004460F4B1B6843B14FF0100383F31188D6
:104E6000BFF36F8FBFF34F8FFEE7FFF7D9FE00212F
:104E70002046FFF715FEFFF76DFF38B9054B4FF0E1
:104E800080521A60BFF34F8FBFF36F8F10BD00BF0A
:104E9000BC04002004ED00E0214B1B681BB1214B3A
:104EA00001221A6070471F4B00221A601E4B1B68BC
:104EB000B3FA83F3DBB2C3F11F0303EB83018A0070
:104EC0001A498A5842B94FF0100383F31188BFF38F
:104ED0006F8FBFF34F8FFEE710B414489A00D418B9
:104EE000A10001444C6864684C601A449100083188
:104EF000084484420BD003EB83039A000B4B13440A
:104F00005B68DA680A4B1A605DF8044B70476068AA
:104F100003EB83029100054A0A445060EBE700BFAF
:104F2000BC04002040050020C4040020240400200C
:104F30001804002058B110B50C46094B19681831F7
:104F4000FEF799FF01212046FFF7AAFD10BD4FF0A3
:104F5000100383F31188BFF36F8FBFF34F8FFEE70A
:104F60001804002038B570B10C4615460A4A11687D
:104F70001831FEF775FF0DB14FF0FF34294620467A
:104F8000FFF78EFD38BD4FF0100383F31188BFF398
:104F90006F8FBFF34F8FFEE71804002038B5C3684A
:104FA000DC6824B304F118052846FEF77EFF184B91
:104FB0001B682BBB251D2846FEF777FFE36A0122FD
:104FC0009A401449086802430A6003EB83039A007D
:104FD000294611481044FEF743FFE26A0F4B1B6855
:104FE000DB6A9A4211D901200D4B18600EE04FF098
:104FF000100383F31188BFF36F8FBFF34F8FFEE76A
:1050000029460848FEF72CFFE7E7002038BD00BF1F
:10501000BC040020C4040020240400201804002044
:1050200040050020FC040020034B1B680360034B79
:105030001B684360704700BFF80400203C05002057
:10504000F8B5C8B1054601B30C4600F0B3FE1B4BE2
:1050500019686B68C81A2268B2F1FF3F26D02F6822
:10506000174E3668B74201D08B4224D9824215D8F8
:105070000023236001241AE04FF0100383F311880A
:10508000BFF36F8FBFF34F8FFEE74FF0100383F333
:105090001188BFF36F8FBFF34F8FFEE75B1A134486
:1050A00023602846FFF7C0FF002400E0002400F042
:1050B000A3FE2046F8BD0124F9E700BF3C0500200F
:1050C000F8040020014B01221A60704740050020BF
:1050D000054B1B6833B1054B1B680BB100207047B3
:1050E000022070470120704710050020BC040020FA
:1050F000002850D038B50446C26A29490968C96AEF
:105100008A4240D28169002905DB25490968C96ABC
:10511000C1F107018161606902EB82029100214ABD
:105120000A44904205D01E4A1268D26AE262012007
:1051300038BD251D2846FEF7B8FEA0B1184B1B68E8
:10514000DB6AE362012404FA03F2174908680243A8
:105150000A6003EB83039A00294612481044FEF7C5
:105160007FFE2046E4E7E36A03EB83018A000D49F2
:105170008A58002AE2D101229A400B490B6823EA9F
:1051800002030B60DAE7426C054B1B68DB6A9A424C
:1051900003D30020CCE7002070470120C8E700BF00
:1051A0001804002024040020C404002000284CD04F
:1051B00038B50446274A1268824208D04FF01003DF
:1051C00083F31188BFF36F8FBFF34F8FFEE7826CBD
:1051D00042B94FF0100383F31188BFF36F8FBFF311
:1051E0004F8FFEE7013A8264C06A616C88422ED01C
:1051F0000AB1002038BD251D2846FEF756FE70B9BD
:10520000E26A02EB82018B001349CB583BB90123C0
:1052100003FA02F211490B6823EA02030B60636C84
:10522000E362C3F10702A261012404FA03F20B490D
:10523000086802430A6003EB83039A002946064884
:105240001044FEF70DFE2046D4E7002070470020F2
:10525000D0E700BF1804002024040020C40400206C
:10526000002856D038B50446806C40B94FF0100382
:1052700083F31188BFF36F8FBFF34F8FFEE7626C2C
:105280008A4200D20A46E16A914201D0012800D048
:1052900038BD20480068A04232D0E262A0690028F0
:1052A00002DBC2F10702A261636901EB81018800A0
:1052B000194A02449342EBD1251D2846FEF7F5FD1D
:1052C00070B9E26A02EB82018B001349CB583BB9FB
:1052D000012303FA02F211490B6823EA02030B606F
:1052E000E36A01229A400D49086802430A6003EB11
:1052F00083039A00294608481044FEF7B1FDC7E72A
:105300004FF0100383F31188BFF36F8FBFF34F8FFC
:10531000FEE770471804002024040020C404002085
:10532000054B1B6823B1044B1A68936C01339364DB
:10533000014B1868704700BF1804002038B50546B7
:105340000C4600F037FD194B1B68DB6C2BB9174B73
:105350001B68012283F85020ACB900F04DFD00F02D
:1053600029FD124B1B68DC6C24B1CDB10F4B1B68BF
:105370000022DA640D4B1B68002283F8502000F0F5
:105380003BFD204638BD11462046FFF789FB084B00
:105390004FF080521A60BFF34F8FBFF36F8FDCE77F
:1053A000024B1B68621EDA64E4E700BF18040020A9
:1053B00004ED00E0F8B5D8B104460D4600F024FE37
:1053C000EFF311874FF0100383F31188BFF36F8F52
:1053D000BFF34F8F94F85030DBB2022284F8502094
:1053E000E26C0132E264012B0BD087F31188F8BD27
:1053F0004FF0100383F31188BFF36F8FBFF34F8F0C
:10540000FEE7A36A43B14FF0100383F31188BFF3A3
:105410006F8FBFF34F8FFEE7144B1B68E3B9261D58
:105420003046FEF742FDE36A01229A4010490868BF
:1054300002430A6003EB83039A0031460D4810448F
:10544000FEF70EFDE26A0C4B1B68DB6A9A42CCD970
:1054500045B101232B60C8E704F118010748FEF7A6
:10546000FFFCEFE7064B01221A60BEE7BC040020F8
:10547000C40400202404002018040020FC040020A0
:1054800040050020064B1A681368B3FA83F35B09E2
:10549000036013B9D368186870470020704700BFD5
:1054A0004405002008B54160006191420CD8D21A31
:1054B00083699A4201D3012008BD011D094B186878
:1054C000FEF7D9FC0020F7E79A4201D2994206D2B2
:1054D000011D054B1868FEF7CEFC0020ECE701200B
:1054E000EAE700BF480500204405002038B500F079
:1054F00061FC0F4B1B6813B100F07EFC38BD0D4DF5
:105500002846FEF79FFC0C4C2046FEF79BFC0B4BFD
:105510001D600B4B1C6000220C210A20FEF7D0FD01
:10552000034B18600028E7D00649FFF75BF9E3E773
:10553000780500204C05002060050020440500206F
:10554000480500202C8E00082DE9F041079C41B948
:105550004FF0100383F31188BFF36F8FBFF34F8FAA
:10556000FEE70F4674B11D4616468046FFF7BEFFA4
:10557000C4F80080A761E6612562069B6362201D76
:10558000FEF76BFCBDE8F08100B583B0FFF7AEFF1E
:105590000D4B1B685BB10D4B01930323009300235C
:1055A0004FF480720A490B48FFF7C6FA40B94FF032
:1055B000100383F31188BFF36F8FBFF34F8FFEE7A4
:1055C00003B05DF804FB00BF780500207C050020D7
:1055D000348E0008D15800082DE9F04182B005460C
:1055E0000E4617469846282000F0BEFA044640B101
:1055F0000190089B009343463A4631462846FFF700
:10560000A3FF204602B0BDE8F0810000C0B130B574
:1056100085B015460446174A106840B31A460191F2
:105620000295039405291CDCFFF752FD022810D0D7
:1056300000231A4601A90F480068FEF765FD14E033
:105640004FF0100383F31188BFF36F8FBFF34F8FB9
:10565000FEE70023089A01A906480068FEF754FDFA
:1056600003E0002301A9FEF726FE05B030BD0020AF
:10567000FBE700BF7805002070B582B01A4B1B68AD
:105680001A6852B3DB681E68DC68251D2846FEF7E1
:105690000CFC636A20469847E369012BEED1A369AD
:1056A00033449E4207D26360246129460E4B18683A
:1056B000FEF7E1FBE2E7002100910B46324620466F
:1056C000FFF7A4FF0028D9D14FF0100383F311880E
:1056D000BFF36F8FBFF34F8FFEE7044A1068024994
:1056E0000860136002B070BD44050020480500202A
:1056F00038B50546FFF79CFA0446074B1B68834202
:1057000005D800232B60044B1C60204638BDFFF7F2
:10571000B3FF01232B60F6E77405002070B582B05B
:1057200005460E46144B1B68DB68DC68201DFEF73F
:10573000BCFBE369012B04D0636A2046984702B0A2
:1057400070BDA1692B46324629442046FFF7AAFEC8
:105750000028F1D0002100910B462A462046FFF791
:1057600055FF0028E8D14FF0100383F31188BFF3F1
:105770006F8FBFF34F8FFEE74405002070B582B0F6
:1057800006460C46FFF74CFA01A8FFF7B1FF019B54
:105790001BBB05460CB9B04218D22CB1114B1B688B
:1057A0001C68B4FA84F464092246711B0E4B186815
:1057B000FFF72CF8FFF7CEFA88B90C4B4FF0805268
:1057C0001A60BFF34F8FBFF36F8F08E0FFF7C2FA85
:1057D00029463046FFF7A2FF01E0FFF7BBFA02B00F
:1057E00070BD00BF480500207805002004ED00E0F2
:1057F00030B587B0002203A9344B1868FEF71CFEB1
:10580000002860D0039B002BF4DB059C636913B177
:10581000201DFEF74AFB02A8FFF76AFF039B092B36
:10582000E8D801A252F823F0515800085158000856
:1058300051580008F557000899580008BF5800084B
:105840005158000851580008F557000899580008A9
:105850000499A5690B46024629442046FFF722FE1B
:105860000028C7D0636A20469847E369012BC1D15D
:10587000A269002100910B46049802442046FFF7DC
:10588000C5FE0028B6D14FF0100383F31188BFF393
:105890006F8FBFF34F8FFEE70499A16131B10346CB
:1058A000024601442046FFF7FDFDA3E74FF0100339
:1058B00083F31188BFF36F8FBFF34F8FFEE720464E
:1058C00000F0D6F996E707B030BD00BF780500209C
:1058D00000B583B001A8FFF7D5FD0199FFF74EFF92
:1058E000FFF786FFF6E7842801D0033070470020D9
:1058F0007047EFF30580003018BF0120704708B5EE
:10590000FFF74CF9002008BDF0B585B00F4644689C
:1059100005680669B0F90800FFF7E5FF03AB0193DE
:1059200000903B46B2B229462046FFF705F9012810
:1059300002D1039805B0F0BD0020FBE708B503468F
:1059400000B901231846FFF781FA002008BD0000C6
:1059500000B583B01346012909D0002201680091E7
:1059600001210448FFF738FE03B05DF804FB012273
:10597000F4E700BF6C8D000830B585B00546002304
:1059800003930C4601B90124FFF7B3FFC0B1002314
:10599000009303AB224609212846FFF737FE012872
:1059A00002D0FF2005B030BD039BB3B10C4B4FF0CC
:1059B00080521A60BFF34F8FBFF36F8F0020F1E763
:1059C00000230093224604212846FFF71FFE0128EA
:1059D00001D0FF20E6E70020E4E70020E2E700BF77
:1059E00004ED00E008B50120FEF75AFC08BD0000F8
:1059F00030B583B00023019300B304460D46FFF792
:105A000078FF90B101AA00212046FEF795FE0128FB
:105A100016D1019BB3B10D4B4FF080521A60BFF30A
:105A20004F8FBFF36F8F002006E029462046FEF718
:105A3000B1FD012808D1002003B030BD8020FBE774
:105A4000FF20F9E70020F7E7FF20F5E704ED00E08D
:105A500010B582B0044600230193FFF74AFF88B1D6
:105A600001A92046FEF78EFC012818D1019BC3B185
:105A70000D4B4FF080521A60BFF34F8FBFF36F8F03
:105A8000002008E000231A4619462046FEF73CFB9A
:105A9000012802D0FF2002B010BD0020FBE7FF204C
:105AA000F9E70020F7E700BF04ED00E0124A12F02A
:105AB000070F07D0D11D21F00701C1F510331344A2
:105AC0000A4601E04FF410330C48026000214160A7
:105AD0001344083B23F00703094803605960196029
